{"abi":[{"type":"constructor","inputs":[{"name":"_name","type":"string","internalType":"string"},{"name":"creatorUserId","type":"string","internalType":"string"},{"name":"_creator","type":"address","internalType":"address"}],"stateMutability":"nonpayable"},{"type":"fallback","stateMutability":"payable"},{"type":"receive","stateMutability":"payable"},{"type":"function","name":"addMember","inputs":[{"name":"_userId","type":"string","internalType":"string"}],"outputs":[],"stateMutability":"nonpayable"},{"type":"function","name":"addMember","inputs":[{"name":"_memberaddress","type":"address","internalType":"address"},{"name":"_membername","type":"string","internalType":"string"}],"outputs":[],"stateMutability":"nonpayable"},{"type":"function","name":"addMembers","inputs":[{"name":"_userIds","type":"string[]","internalType":"string[]"}],"outputs":[],"stateMutability":"nonpayable"},{"type":"function","name":"addParent","inputs":[{"name":"_parentaddress","type":"address","internalType":"address"}],"outputs":[],"stateMutability":"nonpayable"},{"type":"function","name":"addressToUserId","inputs":[{"name":"","type":"address","internalType":"address"}],"outputs":[{"name":"","type":"string","internalType":"string"}],"stateMutability":"view"},{"type":"function","name":"appreciate","inputs":[{"name":"senderUserId","type":"string","internalType":"string"},{"name":"_userId","type":"string","internalType":"string"},{"name":"_percentage","type":"uint8","internalType":"uint8"}],"outputs":[],"stateMutability":"nonpayable"},{"type":"function","name":"appreciation","inputs":[{"name":"","type":"string","internalType":"string"}],"outputs":[{"name":"","type":"uint256","internalType":"uint256"}],"stateMutability":"view"},{"type":"function","name":"botAddress","inputs":[],"outputs":[{"name":"","type":"address","internalType":"address"}],"stateMutability":"view"},{"type":"function","name":"changeName","inputs":[{"name":"_address","type":"address","internalType":"address"},{"name":"_name","type":"string","internalType":"string"}],"outputs":[],"stateMutability":"nonpayable"},{"type":"function","name":"changeOwner","inputs":[{"name":"_address","type":"address","internalType":"address"}],"outputs":[],"stateMutability":"nonpayable"},{"type":"function","name":"claim","inputs":[{"name":"_userId","type":"string","internalType":"string"},{"name":"_beneficiary","type":"address","internalType":"address"}],"outputs":[],"stateMutability":"nonpayable"},{"type":"function","name":"creator","inputs":[],"outputs":[{"name":"","type":"address","internalType":"address"}],"stateMutability":"view"},{"type":"function","name":"depositEtherForUser","inputs":[{"name":"_userId","type":"string","internalType":"string"},{"name":"amount","type":"uint256","internalType":"uint256"}],"outputs":[],"stateMutability":"payable"},{"type":"function","name":"depositTokenForUser","inputs":[{"name":"_userId","type":"string","internalType":"string"},{"name":"_tokenAddress","type":"address","internalType":"address"},{"name":"_amount","type":"uint256","internalType":"uint256"}],"outputs":[],"stateMutability":"nonpayable"},{"type":"function","name":"etherBalance","inputs":[{"name":"","type":"string","internalType":"string"}],"outputs":[{"name":"","type":"uint256","internalType":"uint256"}],"stateMutability":"view"},{"type":"function","name":"flavor","inputs":[],"outputs":[{"name":"","type":"string","internalType":"string"}],"stateMutability":"view"},{"type":"function","name":"getSize","inputs":[],"outputs":[{"name":"","type":"uint256","internalType":"uint256"}],"stateMutability":"view"},{"type":"function","name":"hasClaimed","inputs":[{"name":"","type":"string","internalType":"string"}],"outputs":[{"name":"","type":"bool","internalType":"bool"}],"stateMutability":"view"},{"type":"function","name":"isAppreciativeMember","inputs":[{"name":"","type":"string","internalType":"string"}],"outputs":[{"name":"","type":"bool","internalType":"bool"}],"stateMutability":"view"},{"type":"function","name":"isMember","inputs":[{"name":"","type":"address","internalType":"address"}],"outputs":[{"name":"","type":"bool","internalType":"bool"}],"stateMutability":"view"},{"type":"function","name":"listMembers","inputs":[],"outputs":[{"name":"","type":"address[]","internalType":"address payable[]"}],"stateMutability":"view"},{"type":"function","name":"listParents","inputs":[],"outputs":[{"name":"","type":"address[]","internalType":"address[]"}],"stateMutability":"view"},{"type":"function","name":"manifest","inputs":[],"outputs":[{"name":"","type":"string","internalType":"string"}],"stateMutability":"view"},{"type":"function","name":"name","inputs":[],"outputs":[{"name":"","type":"string","internalType":"string"}],"stateMutability":"view"},{"type":"function","name":"newHolon","inputs":[{"name":"_flavor","type":"string","internalType":"string"},{"name":"_name","type":"string","internalType":"string"},{"name":"_parameter","type":"uint256","internalType":"uint256"}],"outputs":[{"name":"","type":"address","internalType":"address"}],"stateMutability":"nonpayable"},{"type":"function","name":"remainingappreciation","inputs":[{"name":"","type":"string","internalType":"string"}],"outputs":[{"name":"","type":"uint256","internalType":"uint256"}],"stateMutability":"view"},{"type":"function","name":"removeMember","inputs":[{"name":"_memberaddress","type":"address","internalType":"address"}],"outputs":[],"stateMutability":"nonpayable"},{"type":"function","name":"resetAppreciation","inputs":[],"outputs":[],"stateMutability":"nonpayable"},{"type":"function","name":"reward","inputs":[{"name":"_tokenaddress","type":"address","internalType":"address"},{"name":"_tokenamount","type":"uint256","internalType":"uint256"}],"outputs":[],"stateMutability":"payable"},{"type":"function","name":"setAppreciation","inputs":[{"name":"_userIds","type":"string[]","internalType":"string[]"},{"name":"_percentages","type":"uint8[]","internalType":"uint8[]"}],"outputs":[],"stateMutability":"nonpayable"},{"type":"function","name":"setManifest","inputs":[{"name":"_IPFSHash","type":"string","internalType":"string"}],"outputs":[],"stateMutability":"nonpayable"},{"type":"function","name":"toAddress","inputs":[{"name":"","type":"string","internalType":"string"}],"outputs":[{"name":"","type":"address","internalType":"address"}],"stateMutability":"view"},{"type":"function","name":"toName","inputs":[{"name":"","type":"address","internalType":"address"}],"outputs":[{"name":"","type":"string","internalType":"string"}],"stateMutability":"view"},{"type":"function","name":"tokenBalance","inputs":[{"name":"","type":"string","internalType":"string"},{"name":"","type":"address","internalType":"address"}],"outputs":[{"name":"","type":"uint256","internalType":"uint256"}],"stateMutability":"view"},{"type":"function","name":"tokensOf","inputs":[{"name":"","type":"string","internalType":"string"},{"name":"","type":"uint256","internalType":"uint256"}],"outputs":[{"name":"","type":"address","internalType":"address"}],"stateMutability":"view"},{"type":"function","name":"totalDeposited","inputs":[{"name":"","type":"address","internalType":"address"}],"outputs":[{"name":"","type":"uint256","internalType":"uint256"}],"stateMutability":"view"},{"type":"function","name":"totalappreciation","inputs":[],"outputs":[{"name":"","type":"uint256","internalType":"uint256"}],"stateMutability":"view"},{"type":"function","name":"userIdToAddress","inputs":[{"name":"","type":"string","internalType":"string"}],"outputs":[{"name":"","type":"address","internalType":"address"}],"stateMutability":"view"},{"type":"function","name":"userIds","inputs":[{"name":"","type":"uint256","internalType":"uint256"}],"outputs":[{"name":"","type":"string","internalType":"string"}],"stateMutability":"view"},{"type":"function","name":"version","inputs":[],"outputs":[{"name":"","type":"string","internalType":"string"}],"stateMutability":"view"},{"type":"event","name":"AddedMember","inputs":[{"name":"member","type":"address","indexed":false,"internalType":"address"},{"name":"name","type":"string","indexed":false,"internalType":"string"}],"anonymous":false},{"type":"event","name":"ChangedName","inputs":[{"name":"namefrom","type":"string","indexed":false,"internalType":"string"},{"name":"nameto","type":"string","indexed":false,"internalType":"string"}],"anonymous":false},{"type":"event","name":"MemberRewarded","inputs":[{"name":"from","type":"address","indexed":true,"internalType":"address"},{"name":"to","type":"address","indexed":true,"internalType":"address"},{"name":"amount","type":"uint256","indexed":false,"internalType":"uint256"},{"name":"isContract","type":"bool","indexed":false,"internalType":"bool"},{"name":"rewardType","type":"string","indexed":false,"internalType":"string"}],"anonymous":false},{"type":"event","name":"RemovedMember","inputs":[{"name":"member","type":"address","indexed":false,"internalType":"address"},{"name":"name","type":"string","indexed":false,"internalType":"string"}],"anonymous":false},{"type":"event","name":"RewardDistributed","inputs":[{"name":"contractAddress","type":"address","indexed":true,"internalType":"address"},{"name":"amount","type":"uint256","indexed":false,"internalType":"uint256"},{"name":"totalMembers","type":"uint256","indexed":false,"internalType":"uint256"},{"name":"rewardType","type":"string","indexed":false,"internalType":"string"}],"anonymous":false}],"bytecode":{"object":"0x608060405234801562000010575f80fd5b50604051620036a7380380620036a7833981016040819052620000339162000226565b600280546001600160a01b03191632179055600762000053848262000337565b50600a80546001600160a01b0319166001600160a01b03831617905560408051808201909152600c81526b41707072656369617469766560a01b6020820152600990620000a1908262000337565b505f600b55600280546001600160a01b0383166001600160a01b031991821617909155601780549091167370997970c51812dc3a010c7d01b50e0d17dc79c8179055604051600190601290620000f990859062000403565b908152604051908190036020019020805491151560ff19909216919091179055600e80546001810182555f919091527fbb7b4a454dc3493923482f07822329ed19e8244eff582cc204f8554c3620c3fd0162000156838262000337565b5050505062000420565b634e487b7160e01b5f52604160045260245ffd5b5f5b838110156200019057818101518382015260200162000176565b50505f910152565b5f82601f830112620001a8575f80fd5b81516001600160401b0380821115620001c557620001c562000160565b604051601f8301601f19908116603f01168101908282118183101715620001f057620001f062000160565b8160405283815286602085880101111562000209575f80fd5b6200021c84602083016020890162000174565b9695505050505050565b5f805f6060848603121562000239575f80fd5b83516001600160401b038082111562000250575f80fd5b6200025e8783880162000198565b9450602086015191508082111562000274575f80fd5b50620002838682870162000198565b604086015190935090506001600160a01b0381168114620002a2575f80fd5b809150509250925092565b600181811c90821680620002c257607f821691505b602082108103620002e157634e487b7160e01b5f52602260045260245ffd5b50919050565b601f8211156200033257805f5260205f20601f840160051c810160208510156200030e5750805b601f840160051c820191505b818110156200032f575f81556001016200031a565b50505b505050565b81516001600160401b0381111562000353576200035362000160565b6200036b81620003648454620002ad565b84620002e7565b602080601f831160018114620003a1575f8415620003895750858301515b5f19600386901b1c1916600185901b178555620003fb565b5f85815260208120601f198616915b82811015620003d157888601518255948401946001909101908401620003b0565b5085821015620003ef57878501515f19600388901b60f8161c191681555b505060018460011b0185555b505050505050565b5f82516200041681846020870162000174565b9190910192915050565b613279806200042e5f395ff3fe60806040526004361061023e575f3560e01c80637e4115ba1161012d578063b766f86f116100aa578063de8fa4311161006e578063de8fa431146107df578063e0efc31d146107f2578063f3406b7514610811578063f59e4f6514610830578063f5baf0d7146108445761024f565b8063b766f86f14610706578063c127c2471461071b578063c21be6ae1461073a578063ca2243131461077a578063cc184948146107c05761024f565b8063a6f9dae1116100f1578063a6f9dae114610613578063aca4a01b14610632578063acf36e5314610669578063b5ffbbcc146106d3578063b6afd2ca146106f25761024f565b80637e4115ba14610548578063804d74701461058857806381bc3f8c146105a7578063918f9687146105c6578063a230c524146105e55761024f565b8063363454ee116101bb57806354fd4d501161017f57806354fd4d50146104b757806357a32534146104cb57806360a1da831461050257806362278f1c1461052157806378bef78b146105355761024f565b8063363454ee146103f557806345ca25ed1461042f5780634635fd681461044e5780634bf4f4231461046d578063530554811461048c5761024f565b80631b2a812d116102025780631b2a812d1461033957806321670f22146103835780632615c3c71461039657806329b84d09146103b55780633113a2ae146103d45761024f565b806302d05d3f1461025957806305f182ae1461029557806306fdde03146102da5780630b1ca49a146102fb5780630babba861461031a5761024f565b3661024f5761024d5f34610858565b005b61024d5f34610858565b348015610264575f80fd5b50600a54610278906001600160a01b031681565b6040516001600160a01b0390911681526020015b60405180910390f35b3480156102a0575f80fd5b506102cc6102af3660046126d3565b8051602081830181018051600c8252928201919093012091525481565b60405190815260200161028c565b3480156102e5575f80fd5b506102ee610f7a565b60405161028c9190612759565b348015610306575f80fd5b5061024d610315366004612786565b611006565b348015610325575f80fd5b506102786103343660046127e5565b6111e5565b348015610344575f80fd5b506103736103533660046126d3565b805160208183018101805160128252928201919093012091525460ff1681565b604051901515815260200161028c565b61024d610391366004612852565b610858565b3480156103a1575f80fd5b5061024d6103b036600461287c565b61126a565b3480156103c0575f80fd5b5061024d6103cf3660046128d1565b61136a565b3480156103df575f80fd5b506103e86113d6565b60405161028c919061290f565b348015610400575f80fd5b5061037361040f3660046126d3565b805160208183018101805160118252928201919093012091525460ff1681565b34801561043a575f80fd5b5061024d61044936600461295b565b611436565b348015610459575f80fd5b506102ee6104683660046129a7565b611572565b348015610478575f80fd5b50601754610278906001600160a01b031681565b348015610497575f80fd5b506102cc6104a6366004612786565b60166020525f908152604090205481565b3480156104c2575f80fd5b506102ee611599565b3480156104d6575f80fd5b506102cc6104e53660046126d3565b805160208183018101805160138252928201919093012091525481565b34801561050d575f80fd5b5061024d61051c3660046129be565b6115a6565b34801561052c575f80fd5b5061024d6116d9565b61024d610543366004612a0c565b611846565b348015610553575f80fd5b506102786105623660046126d3565b80516020818301810180516005825292820191909301209152546001600160a01b031681565b348015610593575f80fd5b5061024d6105a2366004612af9565b61187c565b3480156105b2575f80fd5b506102ee6105c1366004612786565b6119bd565b3480156105d1575f80fd5b5061024d6105e03660046126d3565b6119d5565b3480156105f0575f80fd5b506103736105ff366004612786565b60046020525f908152604090205460ff1681565b34801561061e575f80fd5b5061024d61062d366004612786565b611ae2565b34801561063d575f80fd5b506102cc61064c3660046126d3565b8051602081830181018051600d8252928201919093012091525481565b348015610674575f80fd5b5061024d610683366004612786565b6001805480820182555f919091527fb10e2d527612073b26eecdfd717e6a320cf44b4afac2b0732d9fcbe2b7fa0cf60180546001600160a01b0319166001600160a01b0392909216919091179055565b3480156106de575f80fd5b506102ee6106ed366004612786565b611b5e565b3480156106fd575f80fd5b506103e8611b76565b348015610711575f80fd5b506102cc600b5481565b348015610726575f80fd5b5061024d61073536600461295b565b611bd3565b348015610745575f80fd5b506102786107543660046126d3565b8051602081830181018051600f825292820191909301209152546001600160a01b031681565b348015610785575f80fd5b506102cc6107943660046129be565b81516020818401810180516014825292820194820194909420919093529091525f908152604090205481565b3480156107cb575f80fd5b506102786107da366004612a0c565b611de6565b3480156107ea575f80fd5b505f546102cc565b3480156107fd575f80fd5b5061024d61080c366004612b3f565b611e2b565b34801561081c575f80fd5b5061024d61082b366004612bfa565b611f7f565b34801561083b575f80fd5b506102ee6121a1565b34801561084f575f80fd5b506102ee6121ae565b5f805f3411801561087057506001600160a01b038416155b156108815734925060019150610949565b506040516370a0823160e01b8152306004820152839083906001600160a01b038316906370a0823190602401602060405180830381865afa1580156108c8573d5f803e3d5ffd5b505050506040513d601f19601f820116820180604052508101906108ec9190612c68565b10156109495760405162461bcd60e51b815260206004820152602160248201527f4e6f7420656e6f75676820746f6b656e7320696e2074686520636f6e747261636044820152601d60fa1b60648201526084015b60405180910390fd5b5f805b600e54811015610eed57600b54156109b657600b5485600c600e848154811061097757610977612c7f565b905f5260205f200160405161098c9190612ccb565b9081526020016040518091039020546109a59190612d51565b6109af9190612d6e565b91506109c6565b600e546109c39086612d6e565b91505b8115610ee5575f600f600e83815481106109e2576109e2612c7f565b905f5260205f20016040516109f79190612ccb565b908152604051908190036020019020546001600160a01b03169050803b15158515610c1c576011600e8481548110610a3157610a31612c7f565b905f5260205f2001604051610a469190612ccb565b9081526040519081900360200190205460ff1615610b55575f826001600160a01b0316856040515f6040518083038185875af1925050503d805f8114610aa7576040519150601f19603f3d011682016040523d82523d5f602084013e610aac565b606091505b5050905080610aef5760405162461bcd60e51b815260206004820152600f60248201526e151c985b9cd9995c8819985a5b1959608a1b6044820152606401610940565b826001600160a01b0316306001600160a01b03165f805160206132248339815191528785604051610b47929190918252151560208201526060604082018190526003908201526208aa8960eb1b608082015260a00190565b60405180910390a350610ee2565b306001600160a01b03166378bef78b600e8581548110610b7757610b77612c7f565b905f5260205f2001866040518363ffffffff1660e01b8152600401610b9d929190612e06565b5f604051808303815f87803b158015610bb4575f80fd5b505af1158015610bc6573d5f803e3d5ffd5b50506040805187815284151560208201526060818301819052600a90820152690a6a89ea48a88be8aa8960b31b608082015290515f93503092505f805160206132248339815191529181900360a00190a3610ee2565b6011600e8481548110610c3157610c31612c7f565b905f5260205f2001604051610c469190612ccb565b9081526040519081900360200190205460ff1615610e1b5760405163a9059cbb60e01b81526001600160a01b0383811660048301526024820186905286169063a9059cbb906044016020604051808303815f875af1158015610caa573d5f803e3d5ffd5b505050506040513d601f19601f82011682018060405250810190610cce9190612e27565b506040516001600160a01b038981166024830152604482018690525f919084169060640160408051601f198184030181529181526020820180516001600160e01b03166310b3879160e11b17905251610d279190612e46565b5f604051808303815f865af19150503d805f8114610d60576040519150601f19603f3d011682016040523d82523d5f602084013e610d65565b606091505b5050905080610dc15760405162461bcd60e51b815260206004820152602260248201527f556e61626c6520746f2063616c6c20746865207265776172642066756e63746960448201526137b760f11b6064820152608401610940565b826001600160a01b0316306001600160a01b03165f805160206132248339815191528785604051610b479291909182521515602082015260606040820181905260059082015264045524332360dc1b608082015260a00190565b306001600160a01b0316632615c3c7600e8581548110610e3d57610e3d612c7f565b905f5260205f20018a876040518463ffffffff1660e01b8152600401610e6593929190612e61565b5f604051808303815f87803b158015610e7c575f80fd5b505af1158015610e8e573d5f803e3d5ffd5b50506040805187815284151560208201526060818301819052600c908201526b053544f5245445f45524332360a41b608082015290515f93503092505f805160206132248339815191529181900360a00190a35b50505b60010161094c565b50600e5430907fd83308e9158842b2115ec5e6f6395db42fff24e4b5506ef42fe33854fafad65590869086610f3f5760405180604001604052806005815260200164045524332360dc1b815250610f5c565b6040518060400160405280600381526020016208aa8960eb1b8152505b604051610f6b93929190612e8e565b60405180910390a25050505050565b60078054610f8790612c93565b80601f0160208091040260200160405190810160405280929190818152602001828054610fb390612c93565b8015610ffe5780601f10610fd557610100808354040283529160200191610ffe565b820191905f5260205f20905b815481529060010190602001808311610fe157829003601f168201915b505050505081565b6002546001600160a01b031633146110305760405162461bcd60e51b815260040161094090612eb5565b5f5b5f548110156110dc57816001600160a01b03165f828154811061105757611057612c7f565b5f918252602090912001546001600160a01b0316036110d4575f805461107b612c7f565b5f91825260208220015481546001600160a01b039091169190839081106110a4576110a4612c7f565b905f5260205f20015f6101000a8154816001600160a01b0302191690836001600160a01b031602179055506110dc565b600101611032565b505f8054806110ed576110ed612efe565b5f828152602080822083015f1990810180546001600160a01b03191690559092019092556001600160a01b0383168252600481526040808320805460ff1916905560069091529081902090517f982d6fac85d22cbbe833f9fe4278a909ca0f3b24ecc8b1f10fe63736e3c723139161116791849190612f12565b60405180910390a16001600160a01b0381165f90815260066020526040808220905160059161119591612ccb565b908152604080516020928190038301812080546001600160a01b0319166001600160a01b0395861617905582810182525f80825293851684526006909252909120906111e19082612f80565b5050565b600a546040516305d5dd4360e11b81525f916001600160a01b0316908190630babba869061121f908a908a908a908a908a90600401613067565b6020604051808303815f875af115801561123b573d5f803e3d5ffd5b505050506040513d601f19601f8201168201806040525081019061125f91906130a0565b979650505050505050565b5f8290505f60148560405161127f9190612e46565b9081526040805191829003602090810183206001600160a01b0388165f90815291522054915083906014906112b5908890612e46565b90815260200160405180910390205f866001600160a01b03166001600160a01b031681526020019081526020015f205f8282546112f291906130bb565b9091555050604051601590611308908790612e46565b908152604080516020928190038301902080546001810182555f9182528382200180546001600160a01b0319166001600160a01b038916908117909155815260169092528120805485929061135e9084906130bb565b90915550505050505050565b6002546001600160a01b031633146113c45760405162461bcd60e51b815260206004820152601f60248201527f4f6e6c79206f776e65722063616e2073657420746865206d616e6966657374006044820152606401610940565b60036113d18284836130ce565b505050565b6060600180548060200260200160405190810160405280929190818152602001828054801561142c57602002820191905f5260205f20905b81546001600160a01b0316815260019091019060200180831161140e575b5050505050905090565b6001600160a01b03821633148061145757506002546001600160a01b031633145b8061146a57506001600160a01b03821632145b6114d15760405162461bcd60e51b815260206004820152603260248201527f4e616d65206368616e67652072657175657374206e6f742073656e742066726f604482015271369036b2b6b132b9103737b91037bbb732b960711b6064820152608401610940565b816005826040516114e29190612e46565b908152604080516020928190038301812080546001600160a01b0319166001600160a01b039586161790559285165f908152600690925290207ffdcc9059d3426f73949b49e5d977553aa298184439da800d66f48959d9cc76b09161154991908490613187565b60405180910390a16001600160a01b0382165f9081526006602052604090206113d18282612f80565b600e8181548110611581575f80fd5b905f5260205f20015f915090508054610f8790612c93565b60088054610f8790612c93565b6011826040516115b69190612e46565b9081526040519081900360200190205460ff16156116165760405162461bcd60e51b815260206004820152601860248201527f557365722068617320616c726561647920636c61696d656400000000000000006044820152606401610940565b5f6001600160a01b0316600f836040516116309190612e46565b908152604051908190036020019020546001600160a01b03160361168f5780600f8360405161165f9190612e46565b90815260405190819003602001902080546001600160a01b03929092166001600160a01b03199092169190911790555b61169982826121bb565b6116a3828261236a565b60016011836040516116b59190612e46565b908152604051908190036020019020805491151560ff199092169190911790555050565b6002546001600160a01b0316331461173f5760405162461bcd60e51b8152602060048201526024808201527f4f6e6c7920746865206c6561642063616e2072657365742061707072656369616044820152633a34b7b760e11b6064820152608401610940565b5f600b8190555b600e54811015611843575f600e828154811061176457611764612c7f565b905f5260205f2001805461177790612c93565b80601f01602080910402602001604051908101604052809291908181526020018280546117a390612c93565b80156117ee5780601f106117c5576101008083540402835291602001916117ee565b820191905f5260205f20905b8154815290600101906020018083116117d157829003601f168201915b505050505090506064600d826040516118079190612e46565b9081526020016040518091039020819055505f600c8260405161182a9190612e46565b9081526040519081900360200190205550600101611746565b50565b806013836040516118579190612e46565b90815260200160405180910390205f82825461187391906130bb565b90915550505050565b6017546001600160a01b031633146118a65760405162461bcd60e51b8152600401610940906131ab565b5f5b600e548110156111e1575f8282815181106118c5576118c5612c7f565b602002602001015190506012816040516118df9190612e46565b9081526040519081900360200190205460ff16156118fd57506119b5565b600160128260405161190f9190612e46565b908152604051908190036020019020805491151560ff19909216919091179055600e80546001810182555f919091527fbb7b4a454dc3493923482f07822329ed19e8244eff582cc204f8554c3620c3fd0161196a8282612f80565b50600d8160405161197b9190612e46565b9081526020016040518091039020545f036119b3576064600d826040516119a29190612e46565b908152604051908190036020019020555b505b6001016118a8565b60066020525f908152604090208054610f8790612c93565b6017546001600160a01b031633146119ff5760405162461bcd60e51b8152600401610940906131ab565b601281604051611a0f9190612e46565b9081526040519081900360200190205460ff1615611a2a5750565b6001601282604051611a3c9190612e46565b908152604051908190036020019020805491151560ff19909216919091179055600e80546001810182555f919091527fbb7b4a454dc3493923482f07822329ed19e8244eff582cc204f8554c3620c3fd01611a978282612f80565b50600d81604051611aa89190612e46565b9081526020016040518091039020545f03611843576064600d82604051611acf9190612e46565b9081526040519081900360200190205550565b6002546001600160a01b03163314611b3c5760405162461bcd60e51b815260206004820152601f60248201527f4f6e6c79206f776e65722063616e206368616e676520746865206f776e6572006044820152606401610940565b600280546001600160a01b0319166001600160a01b0392909216919091179055565b60106020525f908152604090208054610f8790612c93565b60605f80548060200260200160405190810160405280929190818152602001828054801561142c57602002820191905f5260205f209081546001600160a01b0316815260019091019060200180831161140e575050505050905090565b335f9081526004602052604090205460ff16151560011480611bff57506002546001600160a01b031633145b611c1b5760405162461bcd60e51b815260040161094090612eb5565b6001600160a01b0382165f9081526004602052604090205460ff1615611c7a5760405162461bcd60e51b815260206004820152601460248201527313595b58995c88185b1c9958591e48185919195960621b6044820152606401610940565b5f6001600160a01b0316600582604051611c949190612e46565b908152604051908190036020019020546001600160a01b031614611cf25760405162461bcd60e51b81526020600482015260156024820152742730b6b29034b99030b63932b0b23c903a30b5b2b760591b6044820152606401610940565b5f80546001810182557f290decd9548b62a8d60345a988386fc84ba6bc95484008f6362f93160ef3e5630180546001600160a01b0319166001600160a01b0385169081179091558152600660205260409020611d4e8282612f80565b5081600582604051611d609190612e46565b908152604080516020928190038301902080546001600160a01b0319166001600160a01b039485161790559184165f9081526004909152908120805460ff1916600117905560607f7c803c00251fe8138e27cfa8286be8d98625e5f6476ca6ca594f682362b711208484604051611dd89291906131ed565b60405180910390a150505050565b81516020818401810180516015825292820191850191909120919052805482908110611e10575f80fd5b5f918252602090912001546001600160a01b03169150829050565b8051825114611e745760405162461bcd60e51b8152602060048201526015602482015274082e4e4c2f240d8cadccee8d040dad2e6dac2e8c6d605b1b6044820152606401610940565b5f600b8190555b82518110156113d157818181518110611e9657611e96612c7f565b602002602001015160ff16600c848381518110611eb557611eb5612c7f565b6020026020010151604051611eca9190612e46565b908152602001604051809103902081905550818181518110611eee57611eee612c7f565b602002602001015160ff16600d848381518110611f0d57611f0d612c7f565b6020026020010151604051611f229190612e46565b90815260200160405180910390205f828254611f3e9190613210565b92505081905550818181518110611f5757611f57612c7f565b602002602001015160ff16600b5f828254611f7291906130bb565b9091555050600101611e7b565b601283604051611f8f9190612e46565b9081526040519081900360200190205460ff1680611fcc5750601282604051611fb89190612e46565b9081526040519081900360200190205460ff165b6120235760405162461bcd60e51b815260206004820152602260248201527f53656e646572206f72205265636569766572206973206e6f742061206d656d6260448201526132b960f11b6064820152608401610940565b818051906020012083805190602001200361209a5760405162461bcd60e51b815260206004820152603160248201527f53656e6465722063616e6e6f7420617070726563696174652068696d73656c6660448201527005c5c40e8d0c2e84ee640e6cad8ccd2e6d607b1b6064820152608401610940565b8060ff16600d846040516120ae9190612e46565b90815260200160405180910390205410156121155760405162461bcd60e51b815260206004820152602160248201527f4e6f7420656e6f75676820617070726563696174696f6e2072656d61696e696e6044820152606760f81b6064820152608401610940565b8060ff16600d846040516121299190612e46565b90815260200160405180910390205f8282546121459190613210565b925050819055508060ff16600c836040516121609190612e46565b90815260200160405180910390205f82825461217c91906130bb565b925050819055508060ff16600b5f82825461219791906130bb565b9091555050505050565b60098054610f8790612c93565b60038054610f8790612c93565b600a546001600160a01b031633146122295760405162461bcd60e51b815260206004820152602b60248201527f4f6e6c792063726561746f722063616e207375626d697420616e20757365722060448201526a31b630b4b69022ba3432b960a91b6064820152608401610940565b5f60138360405161223a9190612e46565b9081526040519081900360200190205490506001600160a01b0382166122a25760405162461bcd60e51b815260206004820152601b60248201527f496e76616c69642062656e6566696369617279206164647265737300000000006044820152606401610940565b8015612344575f80836001600160a01b0316836040515f6040518083038185875af1925050503d805f81146122f2576040519150601f19603f3d011682016040523d82523d5f602084013e6122f7565b606091505b5091509150816123415760405162461bcd60e51b815260206004820152601560248201527410db185a5b5a5b99c8115d1a195c8819985a5b1959605a1b6044820152606401610940565b50505b5f6013846040516123559190612e46565b90815260405190819003602001902055505050565b600a546001600160a01b031633146123d95760405162461bcd60e51b815260206004820152602c60248201527f4f6e6c792063726561746f722063616e207375626d697420616e20757365722060448201526b636c61696d20546f6b656e7360a01b6064820152608401610940565b5f6015836040516123ea9190612e46565b908152604080519182900360209081018320805480830285018301909352828452919083018282801561244457602002820191905f5260205f20905b81546001600160a01b03168152600190910190602001808311612426575b505050505090505f5b60158460405161245d9190612e46565b9081526040519081900360200190205481101561261e575f82828151811061248757612487612c7f565b602002602001015190505f6014866040516124a29190612e46565b90815260200160405180910390205f8585815181106124c3576124c3612c7f565b60200260200101516001600160a01b03166001600160a01b031681526020019081526020015f205490505f811115612614575f6014876040516125069190612e46565b90815260200160405180910390205f86868151811061252757612527612c7f565b60200260200101516001600160a01b03166001600160a01b031681526020019081526020015f20819055508060165f86868151811061256857612568612c7f565b60200260200101516001600160a01b03166001600160a01b031681526020019081526020015f205f82825461259d9190613210565b909155505060405163a9059cbb60e01b81526001600160a01b0386811660048301526024820183905283169063a9059cbb906044016020604051808303815f875af11580156125ee573d5f803e3d5ffd5b505050506040513d601f19601f820116820180604052508101906126129190612e27565b505b505060010161244d565b50505050565b634e487b7160e01b5f52604160045260245ffd5b604051601f8201601f191681016001600160401b038111828210171561266057612660612624565b604052919050565b5f82601f830112612677575f80fd5b81356001600160401b0381111561269057612690612624565b6126a3601f8201601f1916602001612638565b8181528460208386010111156126b7575f80fd5b816020850160208301375f918101602001919091529392505050565b5f602082840312156126e3575f80fd5b81356001600160401b038111156126f8575f80fd5b61270484828501612668565b949350505050565b5f5b8381101561272657818101518382015260200161270e565b50505f910152565b5f815180845261274581602086016020860161270c565b601f01601f19169290920160200192915050565b602081525f61276b602083018461272e565b9392505050565b6001600160a01b0381168114611843575f80fd5b5f60208284031215612796575f80fd5b813561276b81612772565b5f8083601f8401126127b1575f80fd5b5081356001600160401b038111156127c7575f80fd5b6020830191508360208285010111156127de575f80fd5b9250929050565b5f805f805f606086880312156127f9575f80fd5b85356001600160401b038082111561280f575f80fd5b61281b89838a016127a1565b90975095506020880135915080821115612833575f80fd5b50612840888289016127a1565b96999598509660400135949350505050565b5f8060408385031215612863575f80fd5b823561286e81612772565b946020939093013593505050565b5f805f6060848603121561288e575f80fd5b83356001600160401b038111156128a3575f80fd5b6128af86828701612668565b93505060208401356128c081612772565b929592945050506040919091013590565b5f80602083850312156128e2575f80fd5b82356001600160401b038111156128f7575f80fd5b612903858286016127a1565b90969095509350505050565b602080825282518282018190525f9190848201906040850190845b8181101561294f5783516001600160a01b03168352928401929184019160010161292a565b50909695505050505050565b5f806040838503121561296c575f80fd5b823561297781612772565b915060208301356001600160401b03811115612991575f80fd5b61299d85828601612668565b9150509250929050565b5f602082840312156129b7575f80fd5b5035919050565b5f80604083850312156129cf575f80fd5b82356001600160401b038111156129e4575f80fd5b6129f085828601612668565b9250506020830135612a0181612772565b809150509250929050565b5f8060408385031215612a1d575f80fd5b82356001600160401b03811115612a32575f80fd5b612a3e85828601612668565b95602094909401359450505050565b5f6001600160401b03821115612a6557612a65612624565b5060051b60200190565b5f82601f830112612a7e575f80fd5b81356020612a93612a8e83612a4d565b612638565b82815260059290921b84018101918181019086841115612ab1575f80fd5b8286015b84811015612aee5780356001600160401b03811115612ad2575f80fd5b612ae08986838b0101612668565b845250918301918301612ab5565b509695505050505050565b5f60208284031215612b09575f80fd5b81356001600160401b03811115612b1e575f80fd5b61270484828501612a6f565b803560ff81168114612b3a575f80fd5b919050565b5f8060408385031215612b50575f80fd5b82356001600160401b0380821115612b66575f80fd5b612b7286838701612a6f565b9350602091508185013581811115612b88575f80fd5b85019050601f81018613612b9a575f80fd5b8035612ba8612a8e82612a4d565b81815260059190911b82018301908381019088831115612bc6575f80fd5b928401925b82841015612beb57612bdc84612b2a565b82529284019290840190612bcb565b80955050505050509250929050565b5f805f60608486031215612c0c575f80fd5b83356001600160401b0380821115612c22575f80fd5b612c2e87838801612668565b94506020860135915080821115612c43575f80fd5b50612c5086828701612668565b925050612c5f60408501612b2a565b90509250925092565b5f60208284031215612c78575f80fd5b5051919050565b634e487b7160e01b5f52603260045260245ffd5b600181811c90821680612ca757607f821691505b602082108103612cc557634e487b7160e01b5f52602260045260245ffd5b50919050565b5f808354612cd881612c93565b60018281168015612cf05760018114612d0557612d31565b60ff1984168752821515830287019450612d31565b875f526020805f205f5b85811015612d285781548a820152908401908201612d0f565b50505082870194505b50929695505050505050565b634e487b7160e01b5f52601160045260245ffd5b8082028115828204841417612d6857612d68612d3d565b92915050565b5f82612d8857634e487b7160e01b5f52601260045260245ffd5b500490565b5f8154612d9981612c93565b808552602060018381168015612db65760018114612dd057612dfb565b60ff1985168884015283151560051b880183019550612dfb565b865f52825f205f5b85811015612df35781548a8201860152908301908401612dd8565b890184019650505b505050505092915050565b604081525f612e186040830185612d8d565b90508260208301529392505050565b5f60208284031215612e37575f80fd5b8151801515811461276b575f80fd5b5f8251612e5781846020870161270c565b9190910192915050565b606081525f612e736060830186612d8d565b6001600160a01b039490941660208301525060400152919050565b838152826020820152606060408201525f612eac606083018461272e565b95945050505050565b60208082526029908201527f52657175657374207375626d69747465642062792061206e6f6e2d6d656d626560408201526872206164647265737360b81b606082015260800190565b634e487b7160e01b5f52603160045260245ffd5b6001600160a01b03831681526040602082018190525f9061270490830184612d8d565b601f8211156113d157805f5260205f20601f840160051c81016020851015612f5a5750805b601f840160051c820191505b81811015612f79575f8155600101612f66565b5050505050565b81516001600160401b03811115612f9957612f99612624565b612fad81612fa78454612c93565b84612f35565b602080601f831160018114612fe0575f8415612fc95750858301515b5f19600386901b1c1916600185901b178555613037565b5f85815260208120601f198616915b8281101561300e57888601518255948401946001909101908401612fef565b508582101561302b57878501515f19600388901b60f8161c191681555b505060018460011b0185555b505050505050565b81835281816020850137505f828201602090810191909152601f909101601f19169091010190565b606081525f61307a60608301878961303f565b828103602084015261308d81868861303f565b9150508260408301529695505050505050565b5f602082840312156130b0575f80fd5b815161276b81612772565b80820180821115612d6857612d68612d3d565b6001600160401b038311156130e5576130e5612624565b6130f9836130f38354612c93565b83612f35565b5f601f84116001811461312a575f85156131135750838201355b5f19600387901b1c1916600186901b178355612f79565b5f83815260208120601f198716915b828110156131595786850135825560209485019460019092019101613139565b5086821015613175575f1960f88860031b161c19848701351681555b505060018560011b0183555050505050565b604081525f6131996040830185612d8d565b8281036020840152612eac818561272e565b60208082526022908201527f4f6e6c7920626f742063616e20616464206d656d626572732063757272656e746040820152616c7960f01b606082015260800190565b6001600160a01b03831681526040602082018190525f906127049083018461272e565b81810381811115612d6857612d68612d3d56fe7d6a6b7452c2fec7981096e354fb3311f3f3b800ff27def1017b22cbff275190a264697066735822122062ef9afe17d5d91ba681cb022c4f91c803ac6b10c81a4a2917fe86ca0a847ead64736f6c63430008170033","linkReferences":{}},"methodIdentifiers":{"addMember(address,string)":"c127c247","addMember(string)":"918f9687","addMembers(string[])":"804d7470","addParent(address)":"acf36e53","addressToUserId(address)":"b5ffbbcc","appreciate(string,string,uint8)":"f3406b75","appreciation(string)":"05f182ae","botAddress()":"4bf4f423","changeName(address,string)":"45ca25ed","changeOwner(address)":"a6f9dae1","claim(string,address)":"60a1da83","creator()":"02d05d3f","depositEtherForUser(string,uint256)":"78bef78b","depositTokenForUser(string,address,uint256)":"2615c3c7","etherBalance(string)":"57a32534","flavor()":"f59e4f65","getSize()":"de8fa431","hasClaimed(string)":"363454ee","isAppreciativeMember(string)":"1b2a812d","isMember(address)":"a230c524","listMembers()":"b6afd2ca","listParents()":"3113a2ae","manifest()":"f5baf0d7","name()":"06fdde03","newHolon(string,string,uint256)":"0babba86","remainingappreciation(string)":"aca4a01b","removeMember(address)":"0b1ca49a","resetAppreciation()":"62278f1c","reward(address,uint256)":"21670f22","setAppreciation(string[],uint8[])":"e0efc31d","setManifest(string)":"29b84d09","toAddress(string)":"7e4115ba","toName(address)":"81bc3f8c","tokenBalance(string,address)":"ca224313","tokensOf(string,uint256)":"cc184948","totalDeposited(address)":"53055481","totalappreciation()":"b766f86f","userIdToAddress(string)":"c21be6ae","userIds(uint256)":"4635fd68","version()":"54fd4d50"},"id":26}