{"abi":[{"type":"function","name":"listHolons","inputs":[],"outputs":[{"name":"","type":"address[]","internalType":"address[]"}],"stateMutability":"view"},{"type":"function","name":"listHolonsOf","inputs":[{"name":"_address","type":"address","internalType":"address"}],"outputs":[{"name":"","type":"address[]","internalType":"address[]"}],"stateMutability":"view"},{"type":"function","name":"newHolon","inputs":[{"name":"creatorUserId","type":"string","internalType":"string"},{"name":"_name","type":"string","internalType":"string"},{"name":"_parameter","type":"uint256","internalType":"uint256"}],"outputs":[{"name":"","type":"address","internalType":"address"}],"stateMutability":"nonpayable"},{"type":"function","name":"toAddress","inputs":[{"name":"","type":"string","internalType":"string"}],"outputs":[{"name":"","type":"address","internalType":"address"}],"stateMutability":"view"},{"type":"event","name":"NewHolon","inputs":[{"name":"name","type":"string","indexed":false,"internalType":"string"},{"name":"addr","type":"address","indexed":false,"internalType":"address"}],"anonymous":false}],"bytecode":{"object":"0x608060405234801561000f575f80fd5b50613ce88061001d5f395ff3fe608060405234801562000010575f80fd5b506004361062000050575f3560e01c80630babba8614620000545780637e4115ba1462000088578063dfee571714620000bf578063e5c2337414620000e5575b5f80fd5b6200006b62000065366004620004a1565b620000ef565b6040516001600160a01b0390911681526020015b60405180910390f35b6200006b6200009936600462000510565b80516020818301810180516001825292820191909301209152546001600160a01b031681565b620000d6620000d03660046200054e565b620002f4565b6040516200007f919062000576565b620000d662000367565b5f806001600160a01b03166001846040516200010c9190620005e8565b908152604051908190036020019020546001600160a01b031611156200015f576001836040516200013e9190620005e8565b908152604051908190036020019020546001600160a01b03169050620002ed565b5f8385336040516200017190620003ee565b6200017f9392919062000632565b604051809103905ff08015801562000199573d5f803e3d5ffd5b505f60208181527fad3228b676f7d3cd4284a5443f17f1962b36e491b30a40b2405849e597ba5fb5805460018181019092557ff0df3dcda05b4fbd9c655cde3d5ceb211e019e72ec816e127a59e7195f2cd7f50180546001600160a01b0386166001600160a01b03199182168117909255338086526040862080549485018155865293909420909101805490931617909155909150819032146200026d57325f908152602081815260408220805460018101825590835291200180546001600160a01b0319166001600160a01b0383161790555b80600186604051620002809190620005e8565b90815260405190819003602001812080546001600160a01b03939093166001600160a01b0319909316929092179091557f10d047031611691941b661f2160741619b4030812eb79997f4b3734ed5605a4390620002e1908790849062000673565b60405180910390a19150505b9392505050565b6001600160a01b0381165f90815260208181526040918290208054835181840281018401909452808452606093928301828280156200035b57602002820191905f5260205f20905b81546001600160a01b031681526001909101906020018083116200033c575b50505050509050919050565b5f80805260209081527fad3228b676f7d3cd4284a5443f17f1962b36e491b30a40b2405849e597ba5fb58054604080518285028101850190915281815260609390929190830182828015620003e457602002820191905f5260205f20905b81546001600160a01b03168152600190910190602001808311620003c5575b5050505050905090565b613614806200069f83390190565b634e487b7160e01b5f52604160045260245ffd5b5f82601f83011262000420575f80fd5b813567ffffffffffffffff808211156200043e576200043e620003fc565b604051601f8301601f19908116603f01168101908282118183101715620004695762000469620003fc565b8160405283815286602085880101111562000482575f80fd5b836020870160208301375f602085830101528094505050505092915050565b5f805f60608486031215620004b4575f80fd5b833567ffffffffffffffff80821115620004cc575f80fd5b620004da8783880162000410565b94506020860135915080821115620004f0575f80fd5b50620004ff8682870162000410565b925050604084013590509250925092565b5f6020828403121562000521575f80fd5b813567ffffffffffffffff81111562000538575f80fd5b620005468482850162000410565b949350505050565b5f602082840312156200055f575f80fd5b81356001600160a01b0381168114620002ed575f80fd5b602080825282518282018190525f9190848201906040850190845b81811015620005b85783516001600160a01b03168352928401929184019160010162000591565b50909695505050505050565b5f5b83811015620005e0578181015183820152602001620005c6565b50505f910152565b5f8251620005fb818460208701620005c4565b9190910192915050565b5f81518084526200061e816020860160208601620005c4565b601f01601f19169290920160200192915050565b606081525f62000646606083018662000605565b82810360208401526200065a818662000605565b91505060018060a01b0383166040830152949350505050565b604081525f62000687604083018562000605565b905060018060a01b0383166020830152939250505056fe608060405234801562000010575f80fd5b506040516200361438038062003614833981016040819052620000339162000226565b600280546001600160a01b03191632179055600762000053848262000337565b50600a80546001600160a01b0319166001600160a01b03831617905560408051808201909152600c81526b41707072656369617469766560a01b6020820152600990620000a1908262000337565b505f600b55600280546001600160a01b0383166001600160a01b031991821617909155601780549091167370997970c51812dc3a010c7d01b50e0d17dc79c8179055604051600190601290620000f990859062000403565b908152604051908190036020019020805491151560ff19909216919091179055600e80546001810182555f919091527fbb7b4a454dc3493923482f07822329ed19e8244eff582cc204f8554c3620c3fd0162000156838262000337565b5050505062000420565b634e487b7160e01b5f52604160045260245ffd5b5f5b838110156200019057818101518382015260200162000176565b50505f910152565b5f82601f830112620001a8575f80fd5b81516001600160401b0380821115620001c557620001c562000160565b604051601f8301601f19908116603f01168101908282118183101715620001f057620001f062000160565b8160405283815286602085880101111562000209575f80fd5b6200021c84602083016020890162000174565b9695505050505050565b5f805f6060848603121562000239575f80fd5b83516001600160401b038082111562000250575f80fd5b6200025e8783880162000198565b9450602086015191508082111562000274575f80fd5b50620002838682870162000198565b604086015190935090506001600160a01b0381168114620002a2575f80fd5b809150509250925092565b600181811c90821680620002c257607f821691505b602082108103620002e157634e487b7160e01b5f52602260045260245ffd5b50919050565b601f8211156200033257805f5260205f20601f840160051c810160208510156200030e5750805b601f840160051c820191505b818110156200032f575f81556001016200031a565b50505b505050565b81516001600160401b0381111562000353576200035362000160565b6200036b81620003648454620002ad565b84620002e7565b602080601f831160018114620003a1575f8415620003895750858301515b5f19600386901b1c1916600185901b178555620003fb565b5f85815260208120601f198616915b82811015620003d157888601518255948401946001909101908401620003b0565b5085821015620003ef57878501515f19600388901b60f8161c191681555b505060018460011b0185555b505050505050565b5f82516200041681846020870162000174565b9190910192915050565b6131e6806200042e5f395ff3fe60806040526004361061023e575f3560e01c80637e4115ba1161012d578063b766f86f116100aa578063de8fa4311161006e578063de8fa431146107df578063e0efc31d146107f2578063f3406b7514610811578063f59e4f6514610830578063f5baf0d7146108445761024f565b8063b766f86f14610706578063c127c2471461071b578063c21be6ae1461073a578063ca2243131461077a578063cc184948146107c05761024f565b8063a6f9dae1116100f1578063a6f9dae114610613578063aca4a01b14610632578063acf36e5314610669578063b5ffbbcc146106d3578063b6afd2ca146106f25761024f565b80637e4115ba14610548578063804d74701461058857806381bc3f8c146105a7578063918f9687146105c6578063a230c524146105e55761024f565b8063363454ee116101bb57806354fd4d501161017f57806354fd4d50146104b757806357a32534146104cb57806360a1da831461050257806362278f1c1461052157806378bef78b146105355761024f565b8063363454ee146103f557806345ca25ed1461042f5780634635fd681461044e5780634bf4f4231461046d578063530554811461048c5761024f565b80631b2a812d116102025780631b2a812d1461033957806321670f22146103835780632615c3c71461039657806329b84d09146103b55780633113a2ae146103d45761024f565b806302d05d3f1461025957806305f182ae1461029557806306fdde03146102da5780630b1ca49a146102fb5780630babba861461031a5761024f565b3661024f5761024d5f34610858565b005b61024d5f34610858565b348015610264575f80fd5b50600a54610278906001600160a01b031681565b6040516001600160a01b0390911681526020015b60405180910390f35b3480156102a0575f80fd5b506102cc6102af366004612640565b8051602081830181018051600c8252928201919093012091525481565b60405190815260200161028c565b3480156102e5575f80fd5b506102ee610f7a565b60405161028c91906126c6565b348015610306575f80fd5b5061024d6103153660046126f3565b611006565b348015610325575f80fd5b50610278610334366004612752565b6111e5565b348015610344575f80fd5b50610373610353366004612640565b805160208183018101805160128252928201919093012091525460ff1681565b604051901515815260200161028c565b61024d6103913660046127bf565b610858565b3480156103a1575f80fd5b5061024d6103b03660046127e9565b61126a565b3480156103c0575f80fd5b5061024d6103cf36600461283e565b61136a565b3480156103df575f80fd5b506103e86113d6565b60405161028c919061287c565b348015610400575f80fd5b5061037361040f366004612640565b805160208183018101805160118252928201919093012091525460ff1681565b34801561043a575f80fd5b5061024d6104493660046128c8565b611436565b348015610459575f80fd5b506102ee610468366004612914565b611572565b348015610478575f80fd5b50601754610278906001600160a01b031681565b348015610497575f80fd5b506102cc6104a63660046126f3565b60166020525f908152604090205481565b3480156104c2575f80fd5b506102ee611599565b3480156104d6575f80fd5b506102cc6104e5366004612640565b805160208183018101805160138252928201919093012091525481565b34801561050d575f80fd5b5061024d61051c36600461292b565b6115a6565b34801561052c575f80fd5b5061024d6116d9565b61024d610543366004612979565b611846565b348015610553575f80fd5b50610278610562366004612640565b80516020818301810180516005825292820191909301209152546001600160a01b031681565b348015610593575f80fd5b5061024d6105a2366004612a66565b61187c565b3480156105b2575f80fd5b506102ee6105c13660046126f3565b611975565b3480156105d1575f80fd5b5061024d6105e0366004612640565b61198d565b3480156105f0575f80fd5b506103736105ff3660046126f3565b60046020525f908152604090205460ff1681565b34801561061e575f80fd5b5061024d61062d3660046126f3565b611a4f565b34801561063d575f80fd5b506102cc61064c366004612640565b8051602081830181018051600d8252928201919093012091525481565b348015610674575f80fd5b5061024d6106833660046126f3565b6001805480820182555f919091527fb10e2d527612073b26eecdfd717e6a320cf44b4afac2b0732d9fcbe2b7fa0cf60180546001600160a01b0319166001600160a01b0392909216919091179055565b3480156106de575f80fd5b506102ee6106ed3660046126f3565b611acb565b3480156106fd575f80fd5b506103e8611ae3565b348015610711575f80fd5b506102cc600b5481565b348015610726575f80fd5b5061024d6107353660046128c8565b611b40565b348015610745575f80fd5b50610278610754366004612640565b8051602081830181018051600f825292820191909301209152546001600160a01b031681565b348015610785575f80fd5b506102cc61079436600461292b565b81516020818401810180516014825292820194820194909420919093529091525f908152604090205481565b3480156107cb575f80fd5b506102786107da366004612979565b611d53565b3480156107ea575f80fd5b505f546102cc565b3480156107fd575f80fd5b5061024d61080c366004612aac565b611d98565b34801561081c575f80fd5b5061024d61082b366004612b67565b611eec565b34801561083b575f80fd5b506102ee61210e565b34801561084f575f80fd5b506102ee61211b565b5f805f3411801561087057506001600160a01b038416155b156108815734925060019150610949565b506040516370a0823160e01b8152306004820152839083906001600160a01b038316906370a0823190602401602060405180830381865afa1580156108c8573d5f803e3d5ffd5b505050506040513d601f19601f820116820180604052508101906108ec9190612bd5565b10156109495760405162461bcd60e51b815260206004820152602160248201527f4e6f7420656e6f75676820746f6b656e7320696e2074686520636f6e747261636044820152601d60fa1b60648201526084015b60405180910390fd5b5f805b600e54811015610eed57600b54156109b657600b5485600c600e848154811061097757610977612bec565b905f5260205f200160405161098c9190612c38565b9081526020016040518091039020546109a59190612cbe565b6109af9190612cdb565b91506109c6565b600e546109c39086612cdb565b91505b8115610ee5575f600f600e83815481106109e2576109e2612bec565b905f5260205f20016040516109f79190612c38565b908152604051908190036020019020546001600160a01b03169050803b15158515610c1c576011600e8481548110610a3157610a31612bec565b905f5260205f2001604051610a469190612c38565b9081526040519081900360200190205460ff1615610b55575f826001600160a01b0316856040515f6040518083038185875af1925050503d805f8114610aa7576040519150601f19603f3d011682016040523d82523d5f602084013e610aac565b606091505b5050905080610aef5760405162461bcd60e51b815260206004820152600f60248201526e151c985b9cd9995c8819985a5b1959608a1b6044820152606401610940565b826001600160a01b0316306001600160a01b03165f805160206131918339815191528785604051610b47929190918252151560208201526060604082018190526003908201526208aa8960eb1b608082015260a00190565b60405180910390a350610ee2565b306001600160a01b03166378bef78b600e8581548110610b7757610b77612bec565b905f5260205f2001866040518363ffffffff1660e01b8152600401610b9d929190612d73565b5f604051808303815f87803b158015610bb4575f80fd5b505af1158015610bc6573d5f803e3d5ffd5b50506040805187815284151560208201526060818301819052600a90820152690a6a89ea48a88be8aa8960b31b608082015290515f93503092505f805160206131918339815191529181900360a00190a3610ee2565b6011600e8481548110610c3157610c31612bec565b905f5260205f2001604051610c469190612c38565b9081526040519081900360200190205460ff1615610e1b5760405163a9059cbb60e01b81526001600160a01b0383811660048301526024820186905286169063a9059cbb906044016020604051808303815f875af1158015610caa573d5f803e3d5ffd5b505050506040513d601f19601f82011682018060405250810190610cce9190612d94565b506040516001600160a01b038981166024830152604482018690525f919084169060640160408051601f198184030181529181526020820180516001600160e01b03166310b3879160e11b17905251610d279190612db3565b5f604051808303815f865af19150503d805f8114610d60576040519150601f19603f3d011682016040523d82523d5f602084013e610d65565b606091505b5050905080610dc15760405162461bcd60e51b815260206004820152602260248201527f556e61626c6520746f2063616c6c20746865207265776172642066756e63746960448201526137b760f11b6064820152608401610940565b826001600160a01b0316306001600160a01b03165f805160206131918339815191528785604051610b479291909182521515602082015260606040820181905260059082015264045524332360dc1b608082015260a00190565b306001600160a01b0316632615c3c7600e8581548110610e3d57610e3d612bec565b905f5260205f20018a876040518463ffffffff1660e01b8152600401610e6593929190612dce565b5f604051808303815f87803b158015610e7c575f80fd5b505af1158015610e8e573d5f803e3d5ffd5b50506040805187815284151560208201526060818301819052600c908201526b053544f5245445f45524332360a41b608082015290515f93503092505f805160206131918339815191529181900360a00190a35b50505b60010161094c565b50600e5430907fd83308e9158842b2115ec5e6f6395db42fff24e4b5506ef42fe33854fafad65590869086610f3f5760405180604001604052806005815260200164045524332360dc1b815250610f5c565b6040518060400160405280600381526020016208aa8960eb1b8152505b604051610f6b93929190612dfb565b60405180910390a25050505050565b60078054610f8790612c00565b80601f0160208091040260200160405190810160405280929190818152602001828054610fb390612c00565b8015610ffe5780601f10610fd557610100808354040283529160200191610ffe565b820191905f5260205f20905b815481529060010190602001808311610fe157829003601f168201915b505050505081565b6002546001600160a01b031633146110305760405162461bcd60e51b815260040161094090612e22565b5f5b5f548110156110dc57816001600160a01b03165f828154811061105757611057612bec565b5f918252602090912001546001600160a01b0316036110d4575f805461107b612bec565b5f91825260208220015481546001600160a01b039091169190839081106110a4576110a4612bec565b905f5260205f20015f6101000a8154816001600160a01b0302191690836001600160a01b031602179055506110dc565b600101611032565b505f8054806110ed576110ed612e6b565b5f828152602080822083015f1990810180546001600160a01b03191690559092019092556001600160a01b0383168252600481526040808320805460ff1916905560069091529081902090517f982d6fac85d22cbbe833f9fe4278a909ca0f3b24ecc8b1f10fe63736e3c723139161116791849190612e7f565b60405180910390a16001600160a01b0381165f90815260066020526040808220905160059161119591612c38565b908152604080516020928190038301812080546001600160a01b0319166001600160a01b0395861617905582810182525f80825293851684526006909252909120906111e19082612eed565b5050565b600a546040516305d5dd4360e11b81525f916001600160a01b0316908190630babba869061121f908a908a908a908a908a90600401612fd4565b6020604051808303815f875af115801561123b573d5f803e3d5ffd5b505050506040513d601f19601f8201168201806040525081019061125f919061300d565b979650505050505050565b5f8290505f60148560405161127f9190612db3565b9081526040805191829003602090810183206001600160a01b0388165f90815291522054915083906014906112b5908890612db3565b90815260200160405180910390205f866001600160a01b03166001600160a01b031681526020019081526020015f205f8282546112f29190613028565b9091555050604051601590611308908790612db3565b908152604080516020928190038301902080546001810182555f9182528382200180546001600160a01b0319166001600160a01b038916908117909155815260169092528120805485929061135e908490613028565b90915550505050505050565b6002546001600160a01b031633146113c45760405162461bcd60e51b815260206004820152601f60248201527f4f6e6c79206f776e65722063616e2073657420746865206d616e6966657374006044820152606401610940565b60036113d182848361303b565b505050565b6060600180548060200260200160405190810160405280929190818152602001828054801561142c57602002820191905f5260205f20905b81546001600160a01b0316815260019091019060200180831161140e575b5050505050905090565b6001600160a01b03821633148061145757506002546001600160a01b031633145b8061146a57506001600160a01b03821632145b6114d15760405162461bcd60e51b815260206004820152603260248201527f4e616d65206368616e67652072657175657374206e6f742073656e742066726f604482015271369036b2b6b132b9103737b91037bbb732b960711b6064820152608401610940565b816005826040516114e29190612db3565b908152604080516020928190038301812080546001600160a01b0319166001600160a01b039586161790559285165f908152600690925290207ffdcc9059d3426f73949b49e5d977553aa298184439da800d66f48959d9cc76b091611549919084906130f4565b60405180910390a16001600160a01b0382165f9081526006602052604090206113d18282612eed565b600e8181548110611581575f80fd5b905f5260205f20015f915090508054610f8790612c00565b60088054610f8790612c00565b6011826040516115b69190612db3565b9081526040519081900360200190205460ff16156116165760405162461bcd60e51b815260206004820152601860248201527f557365722068617320616c726561647920636c61696d656400000000000000006044820152606401610940565b5f6001600160a01b0316600f836040516116309190612db3565b908152604051908190036020019020546001600160a01b03160361168f5780600f8360405161165f9190612db3565b90815260405190819003602001902080546001600160a01b03929092166001600160a01b03199092169190911790555b6116998282612128565b6116a382826122d7565b60016011836040516116b59190612db3565b908152604051908190036020019020805491151560ff199092169190911790555050565b6002546001600160a01b0316331461173f5760405162461bcd60e51b8152602060048201526024808201527f4f6e6c7920746865206c6561642063616e2072657365742061707072656369616044820152633a34b7b760e11b6064820152608401610940565b5f600b8190555b600e54811015611843575f600e828154811061176457611764612bec565b905f5260205f2001805461177790612c00565b80601f01602080910402602001604051908101604052809291908181526020018280546117a390612c00565b80156117ee5780601f106117c5576101008083540402835291602001916117ee565b820191905f5260205f20905b8154815290600101906020018083116117d157829003601f168201915b505050505090506064600d826040516118079190612db3565b9081526020016040518091039020819055505f600c8260405161182a9190612db3565b9081526040519081900360200190205550600101611746565b50565b806013836040516118579190612db3565b90815260200160405180910390205f8282546118739190613028565b90915550505050565b6017546001600160a01b031633146118a65760405162461bcd60e51b815260040161094090613118565b5f5b600e548110156111e1575f8282815181106118c5576118c5612bec565b602002602001015190506012816040516118df9190612db3565b9081526040519081900360200190205460ff16156118fd575061196d565b600160128260405161190f9190612db3565b908152604051908190036020019020805491151560ff19909216919091179055600e80546001810182555f919091527fbb7b4a454dc3493923482f07822329ed19e8244eff582cc204f8554c3620c3fd0161196a8282612eed565b50505b6001016118a8565b60066020525f908152604090208054610f8790612c00565b6017546001600160a01b031633146119b75760405162461bcd60e51b815260040161094090613118565b6012816040516119c79190612db3565b9081526040519081900360200190205460ff16156119e25750565b60016012826040516119f49190612db3565b908152604051908190036020019020805491151560ff19909216919091179055600e80546001810182555f919091527fbb7b4a454dc3493923482f07822329ed19e8244eff582cc204f8554c3620c3fd016111e18282612eed565b6002546001600160a01b03163314611aa95760405162461bcd60e51b815260206004820152601f60248201527f4f6e6c79206f776e65722063616e206368616e676520746865206f776e6572006044820152606401610940565b600280546001600160a01b0319166001600160a01b0392909216919091179055565b60106020525f908152604090208054610f8790612c00565b60605f80548060200260200160405190810160405280929190818152602001828054801561142c57602002820191905f5260205f209081546001600160a01b0316815260019091019060200180831161140e575050505050905090565b335f9081526004602052604090205460ff16151560011480611b6c57506002546001600160a01b031633145b611b885760405162461bcd60e51b815260040161094090612e22565b6001600160a01b0382165f9081526004602052604090205460ff1615611be75760405162461bcd60e51b815260206004820152601460248201527313595b58995c88185b1c9958591e48185919195960621b6044820152606401610940565b5f6001600160a01b0316600582604051611c019190612db3565b908152604051908190036020019020546001600160a01b031614611c5f5760405162461bcd60e51b81526020600482015260156024820152742730b6b29034b99030b63932b0b23c903a30b5b2b760591b6044820152606401610940565b5f80546001810182557f290decd9548b62a8d60345a988386fc84ba6bc95484008f6362f93160ef3e5630180546001600160a01b0319166001600160a01b0385169081179091558152600660205260409020611cbb8282612eed565b5081600582604051611ccd9190612db3565b908152604080516020928190038301902080546001600160a01b0319166001600160a01b039485161790559184165f9081526004909152908120805460ff1916600117905560607f7c803c00251fe8138e27cfa8286be8d98625e5f6476ca6ca594f682362b711208484604051611d4592919061315a565b60405180910390a150505050565b81516020818401810180516015825292820191850191909120919052805482908110611d7d575f80fd5b5f918252602090912001546001600160a01b03169150829050565b8051825114611de15760405162461bcd60e51b8152602060048201526015602482015274082e4e4c2f240d8cadccee8d040dad2e6dac2e8c6d605b1b6044820152606401610940565b5f600b8190555b82518110156113d157818181518110611e0357611e03612bec565b602002602001015160ff16600c848381518110611e2257611e22612bec565b6020026020010151604051611e379190612db3565b908152602001604051809103902081905550818181518110611e5b57611e5b612bec565b602002602001015160ff16600d848381518110611e7a57611e7a612bec565b6020026020010151604051611e8f9190612db3565b90815260200160405180910390205f828254611eab919061317d565b92505081905550818181518110611ec457611ec4612bec565b602002602001015160ff16600b5f828254611edf9190613028565b9091555050600101611de8565b601283604051611efc9190612db3565b9081526040519081900360200190205460ff1680611f395750601282604051611f259190612db3565b9081526040519081900360200190205460ff165b611f905760405162461bcd60e51b815260206004820152602260248201527f53656e646572206f72205265636569766572206973206e6f742061206d656d6260448201526132b960f11b6064820152608401610940565b81805190602001208380519060200120036120075760405162461bcd60e51b815260206004820152603160248201527f53656e6465722063616e6e6f7420617070726563696174652068696d73656c6660448201527005c5c40e8d0c2e84ee640e6cad8ccd2e6d607b1b6064820152608401610940565b8060ff16600d8460405161201b9190612db3565b90815260200160405180910390205410156120825760405162461bcd60e51b815260206004820152602160248201527f4e6f7420656e6f75676820617070726563696174696f6e2072656d61696e696e6044820152606760f81b6064820152608401610940565b8060ff16600d846040516120969190612db3565b90815260200160405180910390205f8282546120b2919061317d565b925050819055508060ff16600c836040516120cd9190612db3565b90815260200160405180910390205f8282546120e99190613028565b925050819055508060ff16600b5f8282546121049190613028565b9091555050505050565b60098054610f8790612c00565b60038054610f8790612c00565b600a546001600160a01b031633146121965760405162461bcd60e51b815260206004820152602b60248201527f4f6e6c792063726561746f722063616e207375626d697420616e20757365722060448201526a31b630b4b69022ba3432b960a91b6064820152608401610940565b5f6013836040516121a79190612db3565b9081526040519081900360200190205490506001600160a01b03821661220f5760405162461bcd60e51b815260206004820152601b60248201527f496e76616c69642062656e6566696369617279206164647265737300000000006044820152606401610940565b80156122b1575f80836001600160a01b0316836040515f6040518083038185875af1925050503d805f811461225f576040519150601f19603f3d011682016040523d82523d5f602084013e612264565b606091505b5091509150816122ae5760405162461bcd60e51b815260206004820152601560248201527410db185a5b5a5b99c8115d1a195c8819985a5b1959605a1b6044820152606401610940565b50505b5f6013846040516122c29190612db3565b90815260405190819003602001902055505050565b600a546001600160a01b031633146123465760405162461bcd60e51b815260206004820152602c60248201527f4f6e6c792063726561746f722063616e207375626d697420616e20757365722060448201526b636c61696d20546f6b656e7360a01b6064820152608401610940565b5f6015836040516123579190612db3565b90815260408051918290036020908101832080548083028501830190935282845291908301828280156123b157602002820191905f5260205f20905b81546001600160a01b03168152600190910190602001808311612393575b505050505090505f5b6015846040516123ca9190612db3565b9081526040519081900360200190205481101561258b575f8282815181106123f4576123f4612bec565b602002602001015190505f60148660405161240f9190612db3565b90815260200160405180910390205f85858151811061243057612430612bec565b60200260200101516001600160a01b03166001600160a01b031681526020019081526020015f205490505f811115612581575f6014876040516124739190612db3565b90815260200160405180910390205f86868151811061249457612494612bec565b60200260200101516001600160a01b03166001600160a01b031681526020019081526020015f20819055508060165f8686815181106124d5576124d5612bec565b60200260200101516001600160a01b03166001600160a01b031681526020019081526020015f205f82825461250a919061317d565b909155505060405163a9059cbb60e01b81526001600160a01b0386811660048301526024820183905283169063a9059cbb906044016020604051808303815f875af115801561255b573d5f803e3d5ffd5b505050506040513d601f19601f8201168201806040525081019061257f9190612d94565b505b50506001016123ba565b50505050565b634e487b7160e01b5f52604160045260245ffd5b604051601f8201601f191681016001600160401b03811182821017156125cd576125cd612591565b604052919050565b5f82601f8301126125e4575f80fd5b81356001600160401b038111156125fd576125fd612591565b612610601f8201601f19166020016125a5565b818152846020838601011115612624575f80fd5b816020850160208301375f918101602001919091529392505050565b5f60208284031215612650575f80fd5b81356001600160401b03811115612665575f80fd5b612671848285016125d5565b949350505050565b5f5b8381101561269357818101518382015260200161267b565b50505f910152565b5f81518084526126b2816020860160208601612679565b601f01601f19169290920160200192915050565b602081525f6126d8602083018461269b565b9392505050565b6001600160a01b0381168114611843575f80fd5b5f60208284031215612703575f80fd5b81356126d8816126df565b5f8083601f84011261271e575f80fd5b5081356001600160401b03811115612734575f80fd5b60208301915083602082850101111561274b575f80fd5b9250929050565b5f805f805f60608688031215612766575f80fd5b85356001600160401b038082111561277c575f80fd5b61278889838a0161270e565b909750955060208801359150808211156127a0575f80fd5b506127ad8882890161270e565b96999598509660400135949350505050565b5f80604083850312156127d0575f80fd5b82356127db816126df565b946020939093013593505050565b5f805f606084860312156127fb575f80fd5b83356001600160401b03811115612810575f80fd5b61281c868287016125d5565b935050602084013561282d816126df565b929592945050506040919091013590565b5f806020838503121561284f575f80fd5b82356001600160401b03811115612864575f80fd5b6128708582860161270e565b90969095509350505050565b602080825282518282018190525f9190848201906040850190845b818110156128bc5783516001600160a01b031683529284019291840191600101612897565b50909695505050505050565b5f80604083850312156128d9575f80fd5b82356128e4816126df565b915060208301356001600160401b038111156128fe575f80fd5b61290a858286016125d5565b9150509250929050565b5f60208284031215612924575f80fd5b5035919050565b5f806040838503121561293c575f80fd5b82356001600160401b03811115612951575f80fd5b61295d858286016125d5565b925050602083013561296e816126df565b809150509250929050565b5f806040838503121561298a575f80fd5b82356001600160401b0381111561299f575f80fd5b6129ab858286016125d5565b95602094909401359450505050565b5f6001600160401b038211156129d2576129d2612591565b5060051b60200190565b5f82601f8301126129eb575f80fd5b81356020612a006129fb836129ba565b6125a5565b82815260059290921b84018101918181019086841115612a1e575f80fd5b8286015b84811015612a5b5780356001600160401b03811115612a3f575f80fd5b612a4d8986838b01016125d5565b845250918301918301612a22565b509695505050505050565b5f60208284031215612a76575f80fd5b81356001600160401b03811115612a8b575f80fd5b612671848285016129dc565b803560ff81168114612aa7575f80fd5b919050565b5f8060408385031215612abd575f80fd5b82356001600160401b0380821115612ad3575f80fd5b612adf868387016129dc565b9350602091508185013581811115612af5575f80fd5b85019050601f81018613612b07575f80fd5b8035612b156129fb826129ba565b81815260059190911b82018301908381019088831115612b33575f80fd5b928401925b82841015612b5857612b4984612a97565b82529284019290840190612b38565b80955050505050509250929050565b5f805f60608486031215612b79575f80fd5b83356001600160401b0380821115612b8f575f80fd5b612b9b878388016125d5565b94506020860135915080821115612bb0575f80fd5b50612bbd868287016125d5565b925050612bcc60408501612a97565b90509250925092565b5f60208284031215612be5575f80fd5b5051919050565b634e487b7160e01b5f52603260045260245ffd5b600181811c90821680612c1457607f821691505b602082108103612c3257634e487b7160e01b5f52602260045260245ffd5b50919050565b5f808354612c4581612c00565b60018281168015612c5d5760018114612c7257612c9e565b60ff1984168752821515830287019450612c9e565b875f526020805f205f5b85811015612c955781548a820152908401908201612c7c565b50505082870194505b50929695505050505050565b634e487b7160e01b5f52601160045260245ffd5b8082028115828204841417612cd557612cd5612caa565b92915050565b5f82612cf557634e487b7160e01b5f52601260045260245ffd5b500490565b5f8154612d0681612c00565b808552602060018381168015612d235760018114612d3d57612d68565b60ff1985168884015283151560051b880183019550612d68565b865f52825f205f5b85811015612d605781548a8201860152908301908401612d45565b890184019650505b505050505092915050565b604081525f612d856040830185612cfa565b90508260208301529392505050565b5f60208284031215612da4575f80fd5b815180151581146126d8575f80fd5b5f8251612dc4818460208701612679565b9190910192915050565b606081525f612de06060830186612cfa565b6001600160a01b039490941660208301525060400152919050565b838152826020820152606060408201525f612e19606083018461269b565b95945050505050565b60208082526029908201527f52657175657374207375626d69747465642062792061206e6f6e2d6d656d626560408201526872206164647265737360b81b606082015260800190565b634e487b7160e01b5f52603160045260245ffd5b6001600160a01b03831681526040602082018190525f9061267190830184612cfa565b601f8211156113d157805f5260205f20601f840160051c81016020851015612ec75750805b601f840160051c820191505b81811015612ee6575f8155600101612ed3565b5050505050565b81516001600160401b03811115612f0657612f06612591565b612f1a81612f148454612c00565b84612ea2565b602080601f831160018114612f4d575f8415612f365750858301515b5f19600386901b1c1916600185901b178555612fa4565b5f85815260208120601f198616915b82811015612f7b57888601518255948401946001909101908401612f5c565b5085821015612f9857878501515f19600388901b60f8161c191681555b505060018460011b0185555b505050505050565b81835281816020850137505f828201602090810191909152601f909101601f19169091010190565b606081525f612fe7606083018789612fac565b8281036020840152612ffa818688612fac565b9150508260408301529695505050505050565b5f6020828403121561301d575f80fd5b81516126d8816126df565b80820180821115612cd557612cd5612caa565b6001600160401b0383111561305257613052612591565b613066836130608354612c00565b83612ea2565b5f601f841160018114613097575f85156130805750838201355b5f19600387901b1c1916600186901b178355612ee6565b5f83815260208120601f198716915b828110156130c657868501358255602094850194600190920191016130a6565b50868210156130e2575f1960f88860031b161c19848701351681555b505060018560011b0183555050505050565b604081525f6131066040830185612cfa565b8281036020840152612e19818561269b565b60208082526022908201527f4f6e6c7920626f742063616e20616464206d656d626572732063757272656e746040820152616c7960f01b606082015260800190565b6001600160a01b03831681526040602082018190525f906126719083018461269b565b81810381811115612cd557612cd5612caa56fe7d6a6b7452c2fec7981096e354fb3311f3f3b800ff27def1017b22cbff275190a26469706673582212202dba96afa74dee1c2cac55733b0a5e9fc21a854688599ebfcc7f794be6fed71264736f6c63430008170033a2646970667358221220989de68d5778b4390af5c7ecf70387b29466617ecd9b32e260e3ad86409c02fc64736f6c63430008170033","linkReferences":{}},"methodIdentifiers":{"listHolons()":"e5c23374","listHolonsOf(address)":"dfee5717","newHolon(string,string,uint256)":"0babba86","toAddress(string)":"7e4115ba"},"id":27}