{
  "_format": "hh-sol-artifact-1",
  "contractName": "Crown",
  "sourceName": "contracts/Crown.sol",
  "abi": [
    {
      "inputs": [],
      "stateMutability": "nonpayable",
      "type": "constructor"
    },
    {
      "anonymous": false,
      "inputs": [
        {
          "indexed": false,
          "internalType": "address",
          "name": "member",
          "type": "address"
        },
        {
          "indexed": false,
          "internalType": "string",
          "name": "name",
          "type": "string"
        }
      ],
      "name": "AddedMember",
      "type": "event"
    },
    {
      "anonymous": false,
      "inputs": [
        {
          "indexed": false,
          "internalType": "string",
          "name": "namefrom",
          "type": "string"
        },
        {
          "indexed": false,
          "internalType": "string",
          "name": "nameto",
          "type": "string"
        }
      ],
      "name": "ChangedName",
      "type": "event"
    },
    {
      "anonymous": false,
      "inputs": [
        {
          "indexed": false,
          "internalType": "address",
          "name": "member",
          "type": "address"
        },
        {
          "indexed": false,
          "internalType": "string",
          "name": "name",
          "type": "string"
        }
      ],
      "name": "RemovedMember",
      "type": "event"
    },
    {
      "inputs": [
        {
          "internalType": "address",
          "name": "_memberaddress",
          "type": "address"
        },
        {
          "internalType": "string",
          "name": "_membername",
          "type": "string"
        }
      ],
      "name": "addMember",
      "outputs": [],
      "stateMutability": "nonpayable",
      "type": "function"
    },
    {
      "inputs": [
        {
          "internalType": "address",
          "name": "_parentaddress",
          "type": "address"
        }
      ],
      "name": "addParent",
      "outputs": [],
      "stateMutability": "nonpayable",
      "type": "function"
    },
    {
      "inputs": [
        {
          "internalType": "address",
          "name": "_address",
          "type": "address"
        },
        {
          "internalType": "string",
          "name": "_name",
          "type": "string"
        }
      ],
      "name": "changeName",
      "outputs": [],
      "stateMutability": "nonpayable",
      "type": "function"
    },
    {
      "inputs": [
        {
          "internalType": "address",
          "name": "_address",
          "type": "address"
        }
      ],
      "name": "changeOwner",
      "outputs": [],
      "stateMutability": "nonpayable",
      "type": "function"
    },
    {
      "inputs": [],
      "name": "enablePassTheCrown",
      "outputs": [],
      "stateMutability": "nonpayable",
      "type": "function"
    },
    {
      "inputs": [],
      "name": "getSize",
      "outputs": [
        {
          "internalType": "uint256",
          "name": "",
          "type": "uint256"
        }
      ],
      "stateMutability": "view",
      "type": "function"
    },
    {
      "inputs": [
        {
          "internalType": "address",
          "name": "",
          "type": "address"
        }
      ],
      "name": "isMember",
      "outputs": [
        {
          "internalType": "bool",
          "name": "",
          "type": "bool"
        }
      ],
      "stateMutability": "view",
      "type": "function"
    },
    {
      "inputs": [],
      "name": "listMembers",
      "outputs": [
        {
          "internalType": "address payable[]",
          "name": "",
          "type": "address[]"
        }
      ],
      "stateMutability": "view",
      "type": "function"
    },
    {
      "inputs": [],
      "name": "listParents",
      "outputs": [
        {
          "internalType": "address[]",
          "name": "",
          "type": "address[]"
        }
      ],
      "stateMutability": "view",
      "type": "function"
    },
    {
      "inputs": [],
      "name": "manifest",
      "outputs": [
        {
          "internalType": "string",
          "name": "",
          "type": "string"
        }
      ],
      "stateMutability": "view",
      "type": "function"
    },
    {
      "inputs": [
        {
          "internalType": "address",
          "name": "_memberaddress",
          "type": "address"
        }
      ],
      "name": "removeMember",
      "outputs": [],
      "stateMutability": "nonpayable",
      "type": "function"
    },
    {
      "inputs": [
        {
          "internalType": "string",
          "name": "_IPFSHash",
          "type": "string"
        }
      ],
      "name": "setManifest",
      "outputs": [],
      "stateMutability": "nonpayable",
      "type": "function"
    },
    {
      "inputs": [
        {
          "internalType": "string",
          "name": "",
          "type": "string"
        }
      ],
      "name": "toAddress",
      "outputs": [
        {
          "internalType": "address",
          "name": "",
          "type": "address"
        }
      ],
      "stateMutability": "view",
      "type": "function"
    },
    {
      "inputs": [
        {
          "internalType": "address",
          "name": "",
          "type": "address"
        }
      ],
      "name": "toName",
      "outputs": [
        {
          "internalType": "string",
          "name": "",
          "type": "string"
        }
      ],
      "stateMutability": "view",
      "type": "function"
    }
  ],
  "bytecode": "0x608060405234801561001057600080fd5b5060028054326001600160a01b03199182168117909255600780549091169091179055611260806100426000396000f3fe608060405234801561001057600080fd5b50600436106100ea5760003560e01c8063a6f9dae11161008c578063c127c24711610066578063c127c247146101d6578063d90a8d54146101e9578063de8fa431146101f1578063f5baf0d714610206576100ea565b8063a6f9dae1146101a8578063acf36e53146101bb578063b6afd2ca146101ce576100ea565b806345ca25ed116100c857806345ca25ed146101355780637e4115ba1461014857806381bc3f8c14610168578063a230c52414610188576100ea565b80630b1ca49a146100ef57806329b84d09146101045780633113a2ae14610117575b600080fd5b6101026100fd366004610c5b565b61020e565b005b610102610112366004610cc8565b6103de565b61011f610419565b60405161012c9190610efa565b60405180910390f35b610102610143366004610c7c565b61047b565b61015b610156366004610d35565b610575565b60405161012c9190610e9e565b61017b610176366004610c5b565b61059b565b60405161012c9190610f52565b61019b610196366004610c5b565b610635565b60405161012c9190610f47565b6101026101b6366004610c5b565b61064a565b6101026101c9366004610c5b565b610696565b61011f6106e7565b6101026101e4366004610c7c565b610747565b610102610a5f565b6101f9610a9e565b60405161012c9190611179565b61017b610aa4565b6002546001600160a01b031633146102415760405162461bcd60e51b815260040161023890611130565b60405180910390fd5b60005b6000548110156102c057816001600160a01b03166000828154811061027957634e487b7160e01b600052603260045260246000fd5b6000918252602090912001546001600160a01b031614156102ae5760008054634e487b7160e01b600052603260045260246000fd5b806102b8816111ed565b915050610244565b5060008054806102e057634e487b7160e01b600052603160045260246000fd5b60008281526020808220830160001990810180546001600160a01b03191690559092019092556001600160a01b0383168252600481526040808320805460ff1916905560069091529081902090517f982d6fac85d22cbbe833f9fe4278a909ca0f3b24ecc8b1f10fe63736e3c723139161035c91849190610ed6565b60405180910390a16001600160a01b038116600090815260066020526040808220905160059161038b91610e2f565b908152604080516020928190038301812080546001600160a01b0319166001600160a01b03958616179055828101808352600080835294861685526006909352922091516103da929190610ab1565b5050565b6002546001600160a01b031633146104085760405162461bcd60e51b815260040161023890610fca565b61041460038383610b35565b505050565b6060600180548060200260200160405190810160405280929190818152602001828054801561047157602002820191906000526020600020905b81546001600160a01b03168152600190910190602001808311610453575b5050505050905090565b6001600160a01b03821633148061049c57506002546001600160a01b031633145b806104af57506001600160a01b03821632145b6104cb5760405162461bcd60e51b8152600401610238906110de565b816005826040516104dc9190610e13565b908152604080516020928190038301812080546001600160a01b0319166001600160a01b039586161790559285166000908152600690925290207ffdcc9059d3426f73949b49e5d977553aa298184439da800d66f48959d9cc76b09161054491908490610f65565b60405180910390a16001600160a01b0382166000908152600660209081526040909120825161041492840190610ab1565b80516020818301810180516005825292820191909301209152546001600160a01b031681565b600660205260009081526040902080546105b4906111b2565b80601f01602080910402602001604051908101604052809291908181526020018280546105e0906111b2565b801561062d5780601f106106025761010080835404028352916020019161062d565b820191906000526020600020905b81548152906001019060200180831161061057829003601f168201915b505050505081565b60046020526000908152604090205460ff1681565b6002546001600160a01b031633146106745760405162461bcd60e51b815260040161023890611030565b600280546001600160a01b0319166001600160a01b0392909216919091179055565b6001805480820182556000919091527fb10e2d527612073b26eecdfd717e6a320cf44b4afac2b0732d9fcbe2b7fa0cf60180546001600160a01b0319166001600160a01b0392909216919091179055565b60606000805480602002602001604051908101604052809291908181526020018280548015610471576020028201919060005260206000209081546001600160a01b03168152600190910190602001808311610453575050505050905090565b3360009081526004602052604090205460ff1615156001148061077457506002546001600160a01b031633145b6107905760405162461bcd60e51b815260040161023890611130565b6001600160a01b03821660009081526004602052604090205460ff16156107c95760405162461bcd60e51b815260040161023890611067565b60006001600160a01b03166005826040516107e49190610e13565b908152604051908190036020019020546001600160a01b03161461081a5760405162461bcd60e51b815260040161023890611001565b600080546001810182557f290decd9548b62a8d60345a988386fc84ba6bc95484008f6362f93160ef3e5630180546001600160a01b0319166001600160a01b0385169081179091558152600660209081526040909120825161087e92840190610ab1565b50816005826040516108909190610e13565b90815260408051918290036020908101832080546001600160a01b039586166001600160a01b031990911617905592851660008181526004909452908320805460ff191660011790556060916108ea903090602401610e9e565b60408051601f198184030181529181526020820180516001600160e01b031663acf36e5360e01b1790525161091f9190610e13565b600060405180830381855afa9150503d806000811461095a576040519150601f19603f3d011682016040523d82523d6000602084013e61095f565b606091505b5090925090508115610a2057836001600160a01b0316306040516024016109869190610e9e565b60408051601f198184030181529181526020820180516001600160e01b031663acf36e5360e01b179052516109bb9190610e13565b6000604051808303816000865af19150503d80600081146109f8576040519150601f19603f3d011682016040523d82523d6000602084013e6109fd565b606091505b50508092505081610a205760405162461bcd60e51b815260040161023890610f93565b7f7c803c00251fe8138e27cfa8286be8d98625e5f6476ca6ca594f682362b711208484604051610a51929190610eb2565b60405180910390a150505050565b6007546001600160a01b03163314610a895760405162461bcd60e51b815260040161023890611095565b6007805460ff60a01b1916600160a01b179055565b60005490565b600380546105b4906111b2565b828054610abd906111b2565b90600052602060002090601f016020900481019282610adf5760008555610b25565b82601f10610af857805160ff1916838001178555610b25565b82800160010185558215610b25579182015b82811115610b25578251825591602001919060010190610b0a565b50610b31929150610ba9565b5090565b828054610b41906111b2565b90600052602060002090601f016020900481019282610b635760008555610b25565b82601f10610b7c5782800160ff19823516178555610b25565b82800160010185558215610b25579182015b82811115610b25578235825591602001919060010190610b8e565b5b80821115610b315760008155600101610baa565b80356001600160a01b0381168114610bd557600080fd5b919050565b600082601f830112610bea578081fd5b813567ffffffffffffffff80821115610c0557610c05611214565b604051601f8301601f191681016020018281118282101715610c2957610c29611214565b604052828152848301602001861015610c40578384fd5b82602086016020830137918201602001929092529392505050565b600060208284031215610c6c578081fd5b610c7582610bbe565b9392505050565b60008060408385031215610c8e578081fd5b610c9783610bbe565b9150602083013567ffffffffffffffff811115610cb2578182fd5b610cbe85828601610bda565b9150509250929050565b60008060208385031215610cda578182fd5b823567ffffffffffffffff80821115610cf1578384fd5b818501915085601f830112610d04578384fd5b813581811115610d12578485fd5b866020828501011115610d23578485fd5b60209290920196919550909350505050565b600060208284031215610d46578081fd5b813567ffffffffffffffff811115610d5c578182fd5b610d6884828501610bda565b949350505050565b60008151808452610d88816020860160208601611182565b601f01601f19169290920160200192915050565b60008154610da9816111b2565b808552602060018381168015610dc65760018114610dda57610e08565b60ff19851688840152604088019550610e08565b866000528260002060005b85811015610e005781548a8201860152908301908401610de5565b890184019650505b505050505092915050565b60008251610e25818460208701611182565b9190910192915050565b6000808354610e3d816111b2565b60018281168015610e555760018114610e6657610e92565b60ff19841687528287019450610e92565b8786526020808720875b85811015610e895781548a820152908401908201610e70565b50505082870194505b50929695505050505050565b6001600160a01b0391909116815260200190565b6001600160a01b0383168152604060208201819052600090610d6890830184610d70565b6001600160a01b0383168152604060208201819052600090610d6890830184610d9c565b6020808252825182820181905260009190848201906040850190845b81811015610f3b5783516001600160a01b031683529284019291840191600101610f16565b50909695505050505050565b901515815260200190565b600060208252610c756020830184610d70565b600060408252610f786040830185610d9c565b8281036020840152610f8a8185610d70565b95945050505050565b60208082526017908201527f4661696c656420746f2063726561746520706172656e74000000000000000000604082015260600190565b6020808252601f908201527f4f6e6c79206f776e65722063616e2073657420746865206d616e696665737400604082015260600190565b6020808252601590820152742730b6b29034b99030b63932b0b23c903a30b5b2b760591b604082015260600190565b6020808252601f908201527f4f6e6c79206f776e65722063616e206368616e676520746865206f776e657200604082015260600190565b60208082526014908201527313595b58995c88185b1c9958591e48185919195960621b604082015260600190565b60208082526029908201527f4f6e6c7920746865206c6561642063616e20656e61626c65202770617373207460408201526868652063726f776e2760b81b606082015260800190565b60208082526032908201527f4e616d65206368616e67652072657175657374206e6f742073656e742066726f604082015271369036b2b6b132b9103737b91037bbb732b960711b606082015260800190565b60208082526029908201527f52657175657374207375626d69747465642062792061206e6f6e2d6d656d626560408201526872206164647265737360b81b606082015260800190565b90815260200190565b60005b8381101561119d578181015183820152602001611185565b838111156111ac576000848401525b50505050565b6002810460018216806111c657607f821691505b602082108114156111e757634e487b7160e01b600052602260045260246000fd5b50919050565b600060001982141561120d57634e487b7160e01b81526011600452602481fd5b5060010190565b634e487b7160e01b600052604160045260246000fdfea2646970667358221220c01d9f54a23f6ba21bf582e6c873a14c1717f3a88e4ded13371634a1fc6aacbc64736f6c63430008000033",
  "linkReferences": {},
  "deployedLinkReferences": {}
}