{
  "_format": "hh-sol-artifact-1",
  "contractName": "GeospatialFactory",
  "sourceName": "contracts/GeospatialFactory.sol",
  "abi": [
    {
      "anonymous": false,
      "inputs": [
        {
          "indexed": false,
          "internalType": "string",
          "name": "name",
          "type": "string"
        },
        {
          "indexed": false,
          "internalType": "address",
          "name": "addr",
          "type": "address"
        }
      ],
      "name": "NewHolon",
      "type": "event"
    },
    {
      "inputs": [],
      "name": "listHolons",
      "outputs": [
        {
          "internalType": "address[]",
          "name": "",
          "type": "address[]"
        }
      ],
      "stateMutability": "view",
      "type": "function"
    },
    {
      "inputs": [
        {
          "internalType": "address",
          "name": "_address",
          "type": "address"
        }
      ],
      "name": "listHolonsOf",
      "outputs": [
        {
          "internalType": "address[]",
          "name": "",
          "type": "address[]"
        }
      ],
      "stateMutability": "view",
      "type": "function"
    },
    {
      "inputs": [
        {
          "internalType": "string",
          "name": "_name",
          "type": "string"
        },
        {
          "internalType": "uint256",
          "name": "_parameter",
          "type": "uint256"
        }
      ],
      "name": "newHolon",
      "outputs": [
        {
          "internalType": "address",
          "name": "",
          "type": "address"
        }
      ],
      "stateMutability": "nonpayable",
      "type": "function"
    },
    {
      "inputs": [
        {
          "internalType": "string",
          "name": "",
          "type": "string"
        }
      ],
      "name": "toAddress",
      "outputs": [
        {
          "internalType": "address",
          "name": "",
          "type": "address"
        }
      ],
      "stateMutability": "view",
      "type": "function"
    }
  ],
  "bytecode": "0x608060405234801561001057600080fd5b506136bb806100206000396000f3fe608060405234801561001057600080fd5b506004361061004c5760003560e01c80637e4115ba14610051578063dfee57171461007a578063e43cb2701461009a578063e5c23374146100ad575b600080fd5b61006461005f36600461048c565b6100b5565b6040516100719190610552565b60405180910390f35b61008d61008836600461045e565b6100db565b604051610071919061058a565b6100646100a83660046104c7565b61014f565b61008d610348565b80516020818301810180516001825292820191909301209152546001600160a01b031681565b6001600160a01b0381166000908152602081815260409182902080548351818402810184019094528084526060939283018282801561014357602002820191906000526020600020905b81546001600160a01b03168152600190910190602001808311610125575b50505050509050919050565b6000806001600160a01b031660018460405161016b9190610536565b908152604051908190036020019020546001600160a01b031611156101ba5760018360405161019a9190610536565b908152604051908190036020019020546001600160a01b03169050610342565b600033846040516101ca906103d0565b6101d5929190610566565b604051809103906000f0801580156101f1573d6000803e3d6000fd5b50600060208181527fad3228b676f7d3cd4284a5443f17f1962b36e491b30a40b2405849e597ba5fb5805460018181019092557ff0df3dcda05b4fbd9c655cde3d5ceb211e019e72ec816e127a59e7195f2cd7f50180546001600160a01b0386166001600160a01b03199182168117909255338086526040862080549485018155865293909420909101805490931617909155909150819032146102c657326000908152602081815260408220805460018101825590835291200180546001600160a01b0319166001600160a01b0383161790555b806001866040516102d79190610536565b90815260405190819003602001812080546001600160a01b03939093166001600160a01b0319909316929092179091557f10d047031611691941b661f2160741619b4030812eb79997f4b3734ed5605a439061033690879084906105d7565b60405180910390a19150505b92915050565b600080805260209081527fad3228b676f7d3cd4284a5443f17f1962b36e491b30a40b2405849e597ba5fb580546040805182850281018501909152818152606093909291908301828280156103c657602002820191906000526020600020905b81546001600160a01b031681526001909101906020018083116103a8575b5050505050905090565b61303e8061064883390190565b600082601f8301126103ed578081fd5b813567ffffffffffffffff8082111561040857610408610631565b604051601f8301601f19168101602001828111828210171561042c5761042c610631565b604052828152848301602001861015610443578384fd5b82602086016020830137918201602001929092529392505050565b60006020828403121561046f578081fd5b81356001600160a01b0381168114610485578182fd5b9392505050565b60006020828403121561049d578081fd5b813567ffffffffffffffff8111156104b3578182fd5b6104bf848285016103dd565b949350505050565b600080604083850312156104d9578081fd5b823567ffffffffffffffff8111156104ef578182fd5b6104fb858286016103dd565b95602094909401359450505050565b60008151808452610522816020860160208601610601565b601f01601f19169290920160200192915050565b60008251610548818460208701610601565b9190910192915050565b6001600160a01b0391909116815260200190565b6001600160a01b03831681526040602082018190526000906104bf9083018461050a565b6020808252825182820181905260009190848201906040850190845b818110156105cb5783516001600160a01b0316835292840192918401916001016105a6565b50909695505050505050565b6000604082526105ea604083018561050a565b905060018060a01b03831660208301529392505050565b60005b8381101561061c578181015183820152602001610604565b8381111561062b576000848401525b50505050565b634e487b7160e01b600052604160045260246000fdfe60806040523480156200001157600080fd5b506040516200303e3803806200303e83398101604081905262000034916200012e565b600280546001600160a01b0319163217905580516200005b90600790602084019062000088565b5050600a80546001600160a01b0319166001600160a01b0392909216919091179055600060115562000273565b828054620000969062000220565b90600052602060002090601f016020900481019282620000ba576000855562000105565b82601f10620000d557805160ff191683800117855562000105565b8280016001018555821562000105579182015b8281111562000105578251825591602001919060010190620000e8565b506200011392915062000117565b5090565b5b8082111562000113576000815560010162000118565b6000806040838503121562000141578182fd5b82516001600160a01b038116811462000158578283fd5b602084810151919350906001600160401b038082111562000177578384fd5b818601915086601f8301126200018b578384fd5b815181811115620001a057620001a06200025d565b604051601f8201601f1916810185018381118282101715620001c657620001c66200025d565b6040528181528382018501891015620001dd578586fd5b8592505b81831015620002005783830185015181840186015291840191620001e1565b818311156200021157858583830101525b80955050505050509250929050565b6002810460018216806200023557607f821691505b602082108114156200025757634e487b7160e01b600052602260045260246000fd5b50919050565b634e487b7160e01b600052604160045260246000fd5b612dbb80620002836000396000f3fe6080604052600436106101f25760003560e01c806375f9ccd51161010d578063b6afd2ca116100a0578063cc1849481161006f578063cc1849481461057d578063de8fa4311461059d578063f1559663146105b2578063f59e4f65146105d2578063f5baf0d7146105e757610204565b8063b6afd2ca14610513578063b766f86f14610528578063c127c2471461053d578063ca2243131461055d57610204565b8063918f9687116100dc578063918f968714610493578063a230c524146104b3578063a6f9dae1146104d3578063acf36e53146104f357610204565b806375f9ccd51461042057806378bef78b146104405780637e4115ba1461045357806381bc3f8c1461047357610204565b80633113a2ae1161018557806354fd4d501161015457806354fd4d50146103ab57806357a32534146103c057806360a1da83146103e057806367945a841461040057610204565b80633113a2ae1461031c57806332a1e1641461033e578063363454ee1461035e57806345ca25ed1461038b57610204565b80630babba86116101c15780630babba86146102a957806321670f22146102c95780632615c3c7146102dc57806329b84d09146102fc57610204565b806302d05d3f1461020f57806305f182ae1461023a57806306fdde03146102675780630b1ca49a1461028957610204565b36610204576102026000346105fc565b005b6102026000346105fc565b34801561021b57600080fd5b50610224610bcc565b604051610231919061260b565b60405180910390f35b34801561024657600080fd5b5061025a6102553660046123a5565b610bdb565b6040516102319190612c00565b34801561027357600080fd5b5061027c610bf8565b6040516102319190612736565b34801561029557600080fd5b506102026102a43660046120c0565b610c86565b3480156102b557600080fd5b506102246102c43660046122ec565b610e4d565b6102026102d736600461214c565b6105fc565b3480156102e857600080fd5b506102026102f7366004612292565b610ee5565b34801561030857600080fd5b506102026103173660046121ff565b611036565b34801561032857600080fd5b50610331611071565b60405161023191906126a4565b34801561034a57600080fd5b5061020261035936600461235c565b6110d3565b34801561036a57600080fd5b5061037e6103793660046123a5565b611177565b60405161023191906126f1565b34801561039757600080fd5b506102026103a63660046120ff565b611197565b3480156103b757600080fd5b5061027c611291565b3480156103cc57600080fd5b5061025a6103db3660046123a5565b61129e565b3480156103ec57600080fd5b506102026103fb36600461223e565b6112bb565b34801561040c57600080fd5b5061022461041b3660046123a5565b6113cb565b34801561042c57600080fd5b5061027c61043b366004612470565b6113f1565b61020261044e36600461235c565b61141c565b34801561045f57600080fd5b5061022461046e3660046123a5565b61144c565b34801561047f57600080fd5b5061027c61048e3660046120c0565b611472565b34801561049f57600080fd5b506102026104ae3660046121ff565b61148b565b3480156104bf57600080fd5b5061037e6104ce3660046120c0565b611587565b3480156104df57600080fd5b506102026104ee3660046120c0565b61159c565b3480156104ff57600080fd5b5061020261050e3660046120c0565b6115e8565b34801561051f57600080fd5b50610331611639565b34801561053457600080fd5b5061025a611699565b34801561054957600080fd5b506102026105583660046120ff565b61169f565b34801561056957600080fd5b5061025a6105783660046123df565b6119b7565b34801561058957600080fd5b5061022461059836600461242e565b6119e4565b3480156105a957600080fd5b5061025a611a2b565b3480156105be57600080fd5b506102026105cd366004612177565b611a31565b3480156105de57600080fd5b5061027c611b7b565b3480156105f357600080fd5b5061027c611b88565b60008060003411801561061657506001600160a01b038416155b1561062757349250600191506106cf565b506040516370a0823160e01b8152839083906001600160a01b038316906370a082319061065890309060040161260b565b60206040518083038186803b15801561067057600080fd5b505afa158015610684573d6000803e3d6000fd5b505050506040513d601f19601f820116820180604052508101906106a89190612488565b10156106cf5760405162461bcd60e51b81526004016106c690612921565b60405180910390fd5b6000805b600b54811015610bc4576011541561074d57601154856012600b848154811061070c57634e487b7160e01b600052603260045260246000fd5b906000526020600020016040516107239190612599565b90815260200160405180910390205461073c9190612c85565b6107469190612c65565b915061075d565b600b5461075a9086612c65565b91505b8115610bb257831561091557600d600b828154811061078c57634e487b7160e01b600052603260045260246000fd5b906000526020600020016040516107a39190612599565b9081526040519081900360200190205460ff1615610885576000600c600b83815481106107e057634e487b7160e01b600052603260045260246000fd5b906000526020600020016040516107f79190612599565b908152604051908190036020018120546001600160a01b031690849061081c90612608565b60006040518083038185875af1925050503d8060008114610859576040519150601f19603f3d011682016040523d82523d6000602084013e61085e565b606091505b505090508061087f5760405162461bcd60e51b81526004016106c6906127c7565b50610910565b306001600160a01b03166378bef78b600b83815481106108b557634e487b7160e01b600052603260045260246000fd5b90600052602060002001846040518363ffffffff1660e01b81526004016108dd9291906127a5565b600060405180830381600087803b1580156108f757600080fd5b505af115801561090b573d6000803e3d6000fd5b505050505b610bb2565b600d600b828154811061093857634e487b7160e01b600052603260045260246000fd5b9060005260206000200160405161094f9190612599565b9081526040519081900360200190205460ff1615610b2557826001600160a01b031663a9059cbb600c600b848154811061099957634e487b7160e01b600052603260045260246000fd5b906000526020600020016040516109b09190612599565b908152604051908190036020018120546001600160e01b031960e084901b1682526109eb916001600160a01b0390911690869060040161268b565b602060405180830381600087803b158015610a0557600080fd5b505af1158015610a19573d6000803e3d6000fd5b505050506040513d601f19601f82011682018060405250810190610a3d91906121df565b506000600c600b8381548110610a6357634e487b7160e01b600052603260045260246000fd5b90600052602060002001604051610a7a9190612599565b908152604051908190036020018120546001600160a01b031690610aa4908990869060240161268b565b60408051601f198184030181529181526020820180516001600160e01b03166310b3879160e11b17905251610ad9919061256d565b6000604051808303816000865af19150503d8060008114610b16576040519150601f19603f3d011682016040523d82523d6000602084013e610b1b565b606091505b5050905050610bb2565b306001600160a01b0316632615c3c7600b8381548110610b5557634e487b7160e01b600052603260045260246000fd5b9060005260206000200188856040518463ffffffff1660e01b8152600401610b7f93929190612749565b600060405180830381600087803b158015610b9957600080fd5b505af1158015610bad573d6000803e3d6000fd5b505050505b80610bbc81612d26565b9150506106d3565b505050505050565b600a546001600160a01b031681565b805160208183018101805160128252928201919093012091525481565b60078054610c0590612ceb565b80601f0160208091040260200160405190810160405280929190818152602001828054610c3190612ceb565b8015610c7e5780601f10610c5357610100808354040283529160200191610c7e565b820191906000526020600020905b815481529060010190602001808311610c6157829003601f168201915b505050505081565b6002546001600160a01b03163314610cb05760405162461bcd60e51b81526004016106c690612ab9565b60005b600054811015610d2f57816001600160a01b031660008281548110610ce857634e487b7160e01b600052603260045260246000fd5b6000918252602090912001546001600160a01b03161415610d1d5760008054634e487b7160e01b600052603260045260246000fd5b80610d2781612d26565b915050610cb3565b506000805480610d4f57634e487b7160e01b600052603160045260246000fd5b60008281526020808220830160001990810180546001600160a01b03191690559092019092556001600160a01b0383168252600481526040808320805460ff1916905560069091529081902090517f982d6fac85d22cbbe833f9fe4278a909ca0f3b24ecc8b1f10fe63736e3c7231391610dcb91849190612667565b60405180910390a16001600160a01b0381166000908152600660205260408082209051600591610dfa91612599565b908152604080516020928190038301812080546001600160a01b0319166001600160a01b0395861617905582810180835260008083529486168552600690935292209151610e49929190611eac565b5050565b600a546040516305d5dd4360e11b81526000916001600160a01b0316908190630babba8690610e88908a908a908a908a908a906004016126fc565b602060405180830381600087803b158015610ea257600080fd5b505af1158015610eb6573d6000803e3d6000fd5b505050506040513d601f19601f82011682018060405250810190610eda91906120e3565b979650505050505050565b6040516323b872dd60e01b815282906001600160a01b038216906323b872dd90610f179033903090879060040161261f565b602060405180830381600087803b158015610f3157600080fd5b505af1158015610f45573d6000803e3d6000fd5b505050506040513d601f19601f82011682018060405250810190610f6991906121df565b610f855760405162461bcd60e51b81526004016106c69061288d565b81600f8686604051610f98929190612589565b90815260200160405180910390206000856001600160a01b03166001600160a01b031681526020019081526020016000206000828254610fd89190612c4d565b9091555050604051601090610ff09087908790612589565b90815260405160209181900382019020805460018101825560009182529190200180546001600160a01b0319166001600160a01b03949094169390931790925550505050565b6002546001600160a01b031633146110605760405162461bcd60e51b81526004016106c690612827565b61106c60038383611f30565b505050565b606060018054806020026020016040519081016040528092919081815260200182805480156110c957602002820191906000526020600020905b81546001600160a01b031681526001909101906020018083116110ab575b5050505050905090565b600a546001600160a01b031633146110fd5760405162461bcd60e51b81526004016106c690612b51565b6012838360405161110f929190612589565b9081526020016040518091039020546011600082825461112f9190612ca4565b925050819055508060128484604051611149929190612589565b908152602001604051809103902081905550806011600082825461116d9190612c4d565b9091555050505050565b8051602081830181018051600d8252928201919093012091525460ff1681565b6001600160a01b0382163314806111b857506002546001600160a01b031633145b806111cb57506001600160a01b03821632145b6111e75760405162461bcd60e51b81526004016106c690612a67565b816005826040516111f8919061256d565b908152604080516020928190038301812080546001600160a01b0319166001600160a01b039586161790559285166000908152600690925290207ffdcc9059d3426f73949b49e5d977553aa298184439da800d66f48959d9cc76b09161126091908490612777565b60405180910390a16001600160a01b0382166000908152600660209081526040909120825161106c92840190611eac565b60088054610c0590612ceb565b8051602081830181018051600e8252928201919093012091525481565b600d83836040516112cd929190612589565b9081526040519081900360200190205460ff16156112fd5760405162461bcd60e51b81526004016106c690612bc9565b60006001600160a01b0316600c848460405161131a929190612589565b908152604051908190036020019020546001600160a01b0316141561137c5780600c848460405161134c929190612589565b90815260405190819003602001902080546001600160a01b03929092166001600160a01b03199092169190911790555b611387838383611b95565b611392838383611c3e565b6001600d84846040516113a6929190612589565b908152604051908190036020019020805491151560ff19909216919091179055505050565b8051602081830181018051600c825292820191909301209152546001600160a01b031681565b600b818154811061140157600080fd5b906000526020600020016000915090508054610c0590612ceb565b80600e848460405161142f929190612589565b9081526020016040518091039020600082825461116d9190612c4d565b80516020818301810180516005825292820191909301209152546001600160a01b031681565b60066020526000908152604090208054610c0590612ceb565b600a546001600160a01b031633146114b55760405162461bcd60e51b81526004016106c6906129f9565b60006001600160a01b0316600c83836040516114d2929190612589565b908152604051908190036020019020546001600160a01b0316146115085760405162461bcd60e51b81526004016106c690612b92565b33600c838360405161151b929190612589565b90815260405190819003602001902080546001600160a01b03929092166001600160a01b0319909216919091179055600b805460018101825560009190915261106c907f0175b7a638427703f0dbe7bb9bbf987a2551717b34e79f33b5b1008d1fa01db9018383611f30565b60046020526000908152604090205460ff1681565b6002546001600160a01b031633146115c65760405162461bcd60e51b81526004016106c6906128bc565b600280546001600160a01b0319166001600160a01b0392909216919091179055565b6001805480820182556000919091527fb10e2d527612073b26eecdfd717e6a320cf44b4afac2b0732d9fcbe2b7fa0cf60180546001600160a01b0319166001600160a01b0392909216919091179055565b606060008054806020026020016040519081016040528092919081815260200182805480156110c9576020028201919060005260206000209081546001600160a01b031681526001909101906020018083116110ab575050505050905090565b60115481565b3360009081526004602052604090205460ff161515600114806116cc57506002546001600160a01b031633145b6116e85760405162461bcd60e51b81526004016106c690612ab9565b6001600160a01b03821660009081526004602052604090205460ff16156117215760405162461bcd60e51b81526004016106c6906128f3565b60006001600160a01b031660058260405161173c919061256d565b908152604051908190036020019020546001600160a01b0316146117725760405162461bcd60e51b81526004016106c69061285e565b600080546001810182557f290decd9548b62a8d60345a988386fc84ba6bc95484008f6362f93160ef3e5630180546001600160a01b0319166001600160a01b038516908117909155815260066020908152604090912082516117d692840190611eac565b50816005826040516117e8919061256d565b90815260408051918290036020908101832080546001600160a01b039586166001600160a01b031990911617905592851660008181526004909452908320805460ff1916600117905560609161184290309060240161260b565b60408051601f198184030181529181526020820180516001600160e01b031663acf36e5360e01b17905251611877919061256d565b600060405180830381855afa9150503d80600081146118b2576040519150601f19603f3d011682016040523d82523d6000602084013e6118b7565b606091505b509092509050811561197857836001600160a01b0316306040516024016118de919061260b565b60408051601f198184030181529181526020820180516001600160e01b031663acf36e5360e01b17905251611913919061256d565b6000604051808303816000865af19150503d8060008114611950576040519150601f19603f3d011682016040523d82523d6000602084013e611955565b606091505b505080925050816119785760405162461bcd60e51b81526004016106c6906127f0565b7f7c803c00251fe8138e27cfa8286be8d98625e5f6476ca6ca594f682362b7112084846040516119a9929190612643565b60405180910390a150505050565b8151602081840181018051600f825292820194820194909420919093529091526000908152604090205481565b81516020818401810180516010825292820191850191909120919052805482908110611a0f57600080fd5b6000918252602090912001546001600160a01b03169150829050565b600b5490565b600a546001600160a01b03163314611a5b5760405162461bcd60e51b81526004016106c690612b51565b828114611a7a5760405162461bcd60e51b81526004016106c690612a30565b600b548314611a9b5760405162461bcd60e51b81526004016106c690612b02565b600060118190555b83811015611b7457828282818110611acb57634e487b7160e01b600052603260045260246000fd5b905060200201356012868684818110611af457634e487b7160e01b600052603260045260246000fd5b9050602002810190611b069190612c09565b604051611b14929190612589565b90815260405190819003602001902055828282818110611b4457634e487b7160e01b600052603260045260246000fd5b9050602002013560116000828254611b5c9190612c4d565b90915550819050611b6c81612d26565b915050611aa3565b5050505050565b60098054610c0590612ceb565b60038054610c0590612ceb565b600a546001600160a01b03163314611bbf5760405162461bcd60e51b81526004016106c6906129ae565b6000600e8484604051611bd3929190612589565b90815260200160405180910390205490506000600e8585604051611bf8929190612589565b908152604051908190036020018120919091556001600160a01b0383169082156108fc029083906000818181858888f19350505050158015611b74573d6000803e3d6000fd5b600a546001600160a01b03163314611c685760405162461bcd60e51b81526004016106c690612962565b600060108484604051611c7c929190612589565b9081526040805191829003602090810183208054808302850183019093528284529190830182828015611cd857602002820191906000526020600020905b81546001600160a01b03168152600190910190602001808311611cba575b5050505050905060005b60108585604051611cf4929190612589565b90815260405190819003602001902054811015611b74576000828281518110611d2d57634e487b7160e01b600052603260045260246000fd5b602002602001015190506000600f8787604051611d4b929190612589565b90815260200160405180910390206000858581518110611d7b57634e487b7160e01b600052603260045260246000fd5b60200260200101516001600160a01b03166001600160a01b031681526020019081526020016000205490506000600f8888604051611dba929190612589565b90815260200160405180910390206000868681518110611dea57634e487b7160e01b600052603260045260246000fd5b60200260200101516001600160a01b03166001600160a01b0316815260200190815260200160002081905550816001600160a01b031663a9059cbb86836040518363ffffffff1660e01b8152600401611e4492919061268b565b602060405180830381600087803b158015611e5e57600080fd5b505af1158015611e72573d6000803e3d6000fd5b505050506040513d601f19601f82011682018060405250810190611e9691906121df565b5050508080611ea490612d26565b915050611ce2565b828054611eb890612ceb565b90600052602060002090601f016020900481019282611eda5760008555611f20565b82601f10611ef357805160ff1916838001178555611f20565b82800160010185558215611f20579182015b82811115611f20578251825591602001919060010190611f05565b50611f2c929150611fa4565b5090565b828054611f3c90612ceb565b90600052602060002090601f016020900481019282611f5e5760008555611f20565b82601f10611f775782800160ff19823516178555611f20565b82800160010185558215611f20579182015b82811115611f20578235825591602001919060010190611f89565b5b80821115611f2c5760008155600101611fa5565b60008083601f840112611fca578081fd5b5081356001600160401b03811115611fe0578182fd5b6020830191508360208083028501011115611ffa57600080fd5b9250929050565b60008083601f840112612012578182fd5b5081356001600160401b03811115612028578182fd5b602083019150836020828501011115611ffa57600080fd5b600082601f830112612050578081fd5b81356001600160401b038082111561206a5761206a612d57565b604051601f8301601f19168101602001828111828210171561208e5761208e612d57565b6040528281528483016020018610156120a5578384fd5b82602086016020830137918201602001929092529392505050565b6000602082840312156120d1578081fd5b81356120dc81612d6d565b9392505050565b6000602082840312156120f4578081fd5b81516120dc81612d6d565b60008060408385031215612111578081fd5b823561211c81612d6d565b915060208301356001600160401b03811115612136578182fd5b61214285828601612040565b9150509250929050565b6000806040838503121561215e578182fd5b823561216981612d6d565b946020939093013593505050565b6000806000806040858703121561218c578182fd5b84356001600160401b03808211156121a2578384fd5b6121ae88838901611fb9565b909650945060208701359150808211156121c6578384fd5b506121d387828801611fb9565b95989497509550505050565b6000602082840312156121f0578081fd5b815180151581146120dc578182fd5b60008060208385031215612211578182fd5b82356001600160401b03811115612226578283fd5b61223285828601612001565b90969095509350505050565b600080600060408486031215612252578283fd5b83356001600160401b03811115612267578384fd5b61227386828701612001565b909450925050602084013561228781612d6d565b809150509250925092565b600080600080606085870312156122a7578384fd5b84356001600160401b038111156122bc578485fd5b6122c887828801612001565b90955093505060208501356122dc81612d6d565b9396929550929360400135925050565b600080600080600060608688031215612303578081fd5b85356001600160401b0380821115612319578283fd5b61232589838a01612001565b9097509550602088013591508082111561233d578283fd5b5061234a88828901612001565b96999598509660400135949350505050565b600080600060408486031215612370578283fd5b83356001600160401b03811115612385578384fd5b61239186828701612001565b909790965060209590950135949350505050565b6000602082840312156123b6578081fd5b81356001600160401b038111156123cb578182fd5b6123d784828501612040565b949350505050565b600080604083850312156123f1578182fd5b82356001600160401b03811115612406578283fd5b61241285828601612040565b925050602083013561242381612d6d565b809150509250929050565b60008060408385031215612440578182fd5b82356001600160401b03811115612455578283fd5b61246185828601612040565b95602094909401359450505050565b600060208284031215612481578081fd5b5035919050565b600060208284031215612499578081fd5b5051919050565b60008284528282602086013780602084860101526020601f19601f85011685010190509392505050565b600081518084526124e2816020860160208601612cbb565b601f01601f19169290920160200192915050565b6000815461250381612ceb565b808552602060018381168015612520576001811461253457612562565b60ff19851688840152604088019550612562565b866000528260002060005b8581101561255a5781548a820186015290830190840161253f565b890184019650505b505050505092915050565b6000825161257f818460208701612cbb565b9190910192915050565b6000828483379101908152919050565b60008083546125a781612ceb565b600182811680156125bf57600181146125d0576125fc565b60ff198416875282870194506125fc565b8786526020808720875b858110156125f35781548a8201529084019082016125da565b50505082870194505b50929695505050505050565b90565b6001600160a01b0391909116815260200190565b6001600160a01b039384168152919092166020820152604081019190915260600190565b6001600160a01b03831681526040602082018190526000906123d7908301846124ca565b6001600160a01b03831681526040602082018190526000906123d7908301846124f6565b6001600160a01b03929092168252602082015260400190565b6020808252825182820181905260009190848201906040850190845b818110156126e55783516001600160a01b0316835292840192918401916001016126c0565b50909695505050505050565b901515815260200190565b6000606082526127106060830187896124a0565b82810360208401526127238186886124a0565b9150508260408301529695505050505050565b6000602082526120dc60208301846124ca565b60006060825261275c60608301866124f6565b6001600160a01b039490941660208301525060400152919050565b60006040825261278a60408301856124f6565b828103602084015261279c81856124ca565b95945050505050565b6000604082526127b860408301856124f6565b90508260208301529392505050565b6020808252600f908201526e151c985b9cd9995c8819985a5b1959608a1b604082015260600190565b60208082526017908201527f4661696c656420746f2063726561746520706172656e74000000000000000000604082015260600190565b6020808252601f908201527f4f6e6c79206f776e65722063616e2073657420746865206d616e696665737400604082015260600190565b6020808252601590820152742730b6b29034b99030b63932b0b23c903a30b5b2b760591b604082015260600190565b602080825260159082015274151bdad95b881d1c985b9cd9995c8819985a5b1959605a1b604082015260600190565b6020808252601f908201527f4f6e6c79206f776e65722063616e206368616e676520746865206f776e657200604082015260600190565b60208082526014908201527313595b58995c88185b1c9958591e48185919195960621b604082015260600190565b60208082526021908201527f4e6f7420656e6f75676820746f6b656e7320696e2074686520636f6e747261636040820152601d60fa1b606082015260800190565b6020808252602c908201527f4f6e6c792063726561746f722063616e207375626d697420616e20757365722060408201526b636c61696d20546f6b656e7360a01b606082015260800190565b6020808252602b908201527f4f6e6c792063726561746f722063616e207375626d697420616e20757365722060408201526a31b630b4b69022ba3432b960a91b606082015260800190565b6020808252601c908201527f4f6e6c792063726561746f722063616e20616464206d656d6265727300000000604082015260600190565b6020808252601a908201527f4172726179206c656e6774687320646f206e6f74206d61746368000000000000604082015260600190565b60208082526032908201527f4e616d65206368616e67652072657175657374206e6f742073656e742066726f604082015271369036b2b6b132b9103737b91037bbb732b960711b606082015260800190565b60208082526029908201527f52657175657374207375626d69747465642062792061206e6f6e2d6d656d626560408201526872206164647265737360b81b606082015260800190565b6020808252602f908201527f596f75206d7573742073657420617070726563696174696f6e20666f7220616c60408201526e6c207573657273206174206f6e636560881b606082015260800190565b60208082526021908201527f4f6e6c792063726561746f722063616e2073657420617070726563696174696f6040820152603760f91b606082015260800190565b60208082526018908201527f5573657220494420697320616c72656164792061646465640000000000000000604082015260600190565b60208082526018908201527f557365722068617320616c726561647920636c61696d65640000000000000000604082015260600190565b90815260200190565b6000808335601e19843603018112612c1f578283fd5b8301803591506001600160401b03821115612c38578283fd5b602001915036819003821315611ffa57600080fd5b60008219821115612c6057612c60612d41565b500190565b600082612c8057634e487b7160e01b81526012600452602481fd5b500490565b6000816000190483118215151615612c9f57612c9f612d41565b500290565b600082821015612cb657612cb6612d41565b500390565b60005b83811015612cd6578181015183820152602001612cbe565b83811115612ce5576000848401525b50505050565b600281046001821680612cff57607f821691505b60208210811415612d2057634e487b7160e01b600052602260045260246000fd5b50919050565b6000600019821415612d3a57612d3a612d41565b5060010190565b634e487b7160e01b600052601160045260246000fd5b634e487b7160e01b600052604160045260246000fd5b6001600160a01b0381168114612d8257600080fd5b5056fea264697066735822122030f1d19dd76fac0b6022ed40b494b060303e0378ddc7d57d8062a9560ad7193764736f6c63430008000033a26469706673582212207eaa1378148920db5cae870bf3da1a212f2c218d7cb8db50a35a5059800164af64736f6c63430008000033",
  "linkReferences": {},
  "deployedLinkReferences": {}
}