{
  "_format": "hh-sol-artifact-1",
  "contractName": "Holon",
  "sourceName": "contracts/Holon.sol",
  "abi": [
    {
      "anonymous": false,
      "inputs": [
        {
          "indexed": false,
          "internalType": "address",
          "name": "member",
          "type": "address"
        },
        {
          "indexed": false,
          "internalType": "string",
          "name": "name",
          "type": "string"
        }
      ],
      "name": "AddedMember",
      "type": "event"
    },
    {
      "anonymous": false,
      "inputs": [
        {
          "indexed": false,
          "internalType": "string",
          "name": "namefrom",
          "type": "string"
        },
        {
          "indexed": false,
          "internalType": "string",
          "name": "nameto",
          "type": "string"
        }
      ],
      "name": "ChangedName",
      "type": "event"
    },
    {
      "anonymous": false,
      "inputs": [
        {
          "indexed": false,
          "internalType": "address",
          "name": "holon",
          "type": "address"
        },
        {
          "indexed": false,
          "internalType": "string",
          "name": "token",
          "type": "string"
        },
        {
          "indexed": false,
          "internalType": "uint256",
          "name": "amount",
          "type": "uint256"
        }
      ],
      "name": "HolonRewarded",
      "type": "event"
    },
    {
      "anonymous": false,
      "inputs": [
        {
          "indexed": false,
          "internalType": "address",
          "name": "member",
          "type": "address"
        },
        {
          "indexed": false,
          "internalType": "string",
          "name": "name",
          "type": "string"
        }
      ],
      "name": "RemovedMember",
      "type": "event"
    },
    {
      "anonymous": false,
      "inputs": [
        {
          "indexed": true,
          "internalType": "address",
          "name": "member",
          "type": "address"
        },
        {
          "indexed": false,
          "internalType": "address",
          "name": "token",
          "type": "address"
        },
        {
          "indexed": false,
          "internalType": "uint256",
          "name": "amount",
          "type": "uint256"
        }
      ],
      "name": "RewardFailed",
      "type": "event"
    },
    {
      "stateMutability": "payable",
      "type": "fallback"
    },
    {
      "inputs": [
        {
          "internalType": "address",
          "name": "_memberaddress",
          "type": "address"
        },
        {
          "internalType": "string",
          "name": "_membername",
          "type": "string"
        }
      ],
      "name": "addMember",
      "outputs": [],
      "stateMutability": "nonpayable",
      "type": "function"
    },
    {
      "inputs": [
        {
          "internalType": "address",
          "name": "_parentaddress",
          "type": "address"
        }
      ],
      "name": "addParent",
      "outputs": [],
      "stateMutability": "nonpayable",
      "type": "function"
    },
    {
      "inputs": [
        {
          "internalType": "address",
          "name": "_address",
          "type": "address"
        },
        {
          "internalType": "string",
          "name": "_name",
          "type": "string"
        }
      ],
      "name": "changeName",
      "outputs": [],
      "stateMutability": "nonpayable",
      "type": "function"
    },
    {
      "inputs": [
        {
          "internalType": "address",
          "name": "_address",
          "type": "address"
        }
      ],
      "name": "changeOwner",
      "outputs": [],
      "stateMutability": "nonpayable",
      "type": "function"
    },
    {
      "inputs": [],
      "name": "creator",
      "outputs": [
        {
          "internalType": "address",
          "name": "",
          "type": "address"
        }
      ],
      "stateMutability": "view",
      "type": "function"
    },
    {
      "inputs": [],
      "name": "flavor",
      "outputs": [
        {
          "internalType": "string",
          "name": "",
          "type": "string"
        }
      ],
      "stateMutability": "view",
      "type": "function"
    },
    {
      "inputs": [],
      "name": "getSize",
      "outputs": [
        {
          "internalType": "uint256",
          "name": "",
          "type": "uint256"
        }
      ],
      "stateMutability": "view",
      "type": "function"
    },
    {
      "inputs": [
        {
          "internalType": "address",
          "name": "",
          "type": "address"
        }
      ],
      "name": "isMember",
      "outputs": [
        {
          "internalType": "bool",
          "name": "",
          "type": "bool"
        }
      ],
      "stateMutability": "view",
      "type": "function"
    },
    {
      "inputs": [],
      "name": "listMembers",
      "outputs": [
        {
          "internalType": "address payable[]",
          "name": "",
          "type": "address[]"
        }
      ],
      "stateMutability": "view",
      "type": "function"
    },
    {
      "inputs": [],
      "name": "listParents",
      "outputs": [
        {
          "internalType": "address[]",
          "name": "",
          "type": "address[]"
        }
      ],
      "stateMutability": "view",
      "type": "function"
    },
    {
      "inputs": [],
      "name": "manifest",
      "outputs": [
        {
          "internalType": "string",
          "name": "",
          "type": "string"
        }
      ],
      "stateMutability": "view",
      "type": "function"
    },
    {
      "inputs": [],
      "name": "name",
      "outputs": [
        {
          "internalType": "string",
          "name": "",
          "type": "string"
        }
      ],
      "stateMutability": "view",
      "type": "function"
    },
    {
      "inputs": [
        {
          "internalType": "string",
          "name": "_flavor",
          "type": "string"
        },
        {
          "internalType": "string",
          "name": "_name",
          "type": "string"
        },
        {
          "internalType": "uint256",
          "name": "_parameter",
          "type": "uint256"
        }
      ],
      "name": "newHolon",
      "outputs": [
        {
          "internalType": "address",
          "name": "",
          "type": "address"
        }
      ],
      "stateMutability": "nonpayable",
      "type": "function"
    },
    {
      "inputs": [
        {
          "internalType": "address",
          "name": "_memberaddress",
          "type": "address"
        }
      ],
      "name": "removeMember",
      "outputs": [],
      "stateMutability": "nonpayable",
      "type": "function"
    },
    {
      "inputs": [
        {
          "internalType": "address",
          "name": "_tokenAddress",
          "type": "address"
        },
        {
          "internalType": "uint256",
          "name": "_tokenAmount",
          "type": "uint256"
        }
      ],
      "name": "reward",
      "outputs": [],
      "stateMutability": "payable",
      "type": "function"
    },
    {
      "inputs": [
        {
          "internalType": "string",
          "name": "_IPFSHash",
          "type": "string"
        }
      ],
      "name": "setManifest",
      "outputs": [],
      "stateMutability": "nonpayable",
      "type": "function"
    },
    {
      "inputs": [
        {
          "internalType": "string",
          "name": "",
          "type": "string"
        }
      ],
      "name": "toAddress",
      "outputs": [
        {
          "internalType": "address",
          "name": "",
          "type": "address"
        }
      ],
      "stateMutability": "view",
      "type": "function"
    },
    {
      "inputs": [
        {
          "internalType": "address",
          "name": "",
          "type": "address"
        }
      ],
      "name": "toName",
      "outputs": [
        {
          "internalType": "string",
          "name": "",
          "type": "string"
        }
      ],
      "stateMutability": "view",
      "type": "function"
    },
    {
      "inputs": [],
      "name": "version",
      "outputs": [
        {
          "internalType": "string",
          "name": "",
          "type": "string"
        }
      ],
      "stateMutability": "view",
      "type": "function"
    },
    {
      "stateMutability": "payable",
      "type": "receive"
    }
  ],
  "bytecode": "0x608060405234801561001057600080fd5b50600280546001600160a01b03191632179055611bda806100326000396000f3fe6080604052600436106101185760003560e01c80637e4115ba116100a0578063b6afd2ca11610064578063b6afd2ca146102f9578063c127c2471461030e578063de8fa4311461032e578063f59e4f6514610350578063f5baf0d7146103655761012a565b80637e4115ba1461024c57806381bc3f8c1461026c578063a230c5241461028c578063a6f9dae1146102b9578063acf36e53146102d95761012a565b806321670f22116100e757806321670f22146101c257806329b84d09146101d55780633113a2ae146101f557806345ca25ed1461021757806354fd4d50146102375761012a565b806302d05d3f1461013557806306fdde03146101605780630b1ca49a146101825780630babba86146101a25761012a565b3661012a5761012860003461037a565b005b61012860003461037a565b34801561014157600080fd5b5061014a61043f565b604051610157919061159e565b60405180910390f35b34801561016c57600080fd5b5061017561044e565b6040516101579190611711565b34801561018e57600080fd5b5061012861019d366004611267565b6104dc565b3480156101ae57600080fd5b5061014a6101bd36600461137f565b61069f565b6101286101d03660046112f4565b61037a565b3480156101e157600080fd5b506101286101f036600461133f565b610737565b34801561020157600080fd5b5061020a610772565b604051610157919061167f565b34801561022357600080fd5b506101286102323660046112a6565b6107d4565b34801561024357600080fd5b506101756108ce565b34801561025857600080fd5b5061014a6102673660046113f0565b6108db565b34801561027857600080fd5b50610175610287366004611267565b610901565b34801561029857600080fd5b506102ac6102a7366004611267565b61091a565b60405161015791906116cc565b3480156102c557600080fd5b506101286102d4366004611267565b61092f565b3480156102e557600080fd5b506101286102f4366004611267565b61097b565b34801561030557600080fd5b5061020a6109cc565b34801561031a57600080fd5b506101286103293660046112a6565b610a2c565b34801561033a57600080fd5b50610343610d44565b6040516101579190611abb565b34801561035c57600080fd5b50610175610d4a565b34801561037157600080fd5b50610175610d57565b6000546103a25760405162461bcd60e51b8152600401610399906119f2565b60405180910390fd5b600081116103c25760405162461bcd60e51b815260040161039990611781565b6000341180156103d957506001600160a01b038216155b1561040b573481146103fd5760405162461bcd60e51b815260040161039990611888565b61040681610d64565b61043b565b6001600160a01b0382166104315760405162461bcd60e51b8152600401610399906117c7565b61043b8282610e9d565b5050565b600a546001600160a01b031681565b6007805461045b90611b14565b80601f016020809104026020016040519081016040528092919081815260200182805461048790611b14565b80156104d45780601f106104a9576101008083540402835291602001916104d4565b820191906000526020600020905b8154815290600101906020018083116104b757829003601f168201915b505050505081565b6002546001600160a01b031633146105065760405162461bcd60e51b815260040161039990611a72565b60005b60005481101561058557816001600160a01b03166000828154811061053e57634e487b7160e01b600052603260045260246000fd5b6000918252602090912001546001600160a01b031614156105735760008054634e487b7160e01b600052603260045260246000fd5b8061057d81611b4f565b915050610509565b5060008054806105a557634e487b7160e01b600052603160045260246000fd5b60008281526020808220830160001990810180546001600160a01b03191690559092019092556001600160a01b0383168252600481526040808320805460ff1916905560069091529081902090517f982d6fac85d22cbbe833f9fe4278a909ca0f3b24ecc8b1f10fe63736e3c7231391610621918491906115ef565b60405180910390a16001600160a01b03811660009081526006602052604080822090516005916106509161152c565b908152604080516020928190038301812080546001600160a01b0319166001600160a01b039586161790558281018083526000808352948616855260069093529220915161043b929190611092565b600a546040516305d5dd4360e11b81526000916001600160a01b0316908190630babba86906106da908a908a908a908a908a906004016116d7565b602060405180830381600087803b1580156106f457600080fd5b505af1158015610708573d6000803e3d6000fd5b505050506040513d601f19601f8201168201806040525081019061072c919061128a565b979650505050505050565b6002546001600160a01b031633146107615760405162461bcd60e51b8152600401610399906118e6565b61076d60038383611116565b505050565b606060018054806020026020016040519081016040528092919081815260200182805480156107ca57602002820191906000526020600020905b81546001600160a01b031681526001909101906020018083116107ac575b5050505050905090565b6001600160a01b0382163314806107f557506002546001600160a01b031633145b8061080857506001600160a01b03821632145b6108245760405162461bcd60e51b815260040161039990611a20565b816005826040516108359190611510565b908152604080516020928190038301812080546001600160a01b0319166001600160a01b039586161790559285166000908152600690925290207ffdcc9059d3426f73949b49e5d977553aa298184439da800d66f48959d9cc76b09161089d91908490611724565b60405180910390a16001600160a01b0382166000908152600660209081526040909120825161076d92840190611092565b6008805461045b90611b14565b80516020818301810180516005825292820191909301209152546001600160a01b031681565b6006602052600090815260409020805461045b90611b14565b60046020526000908152604090205460ff1681565b6002546001600160a01b031633146109595760405162461bcd60e51b81526004016103999061194c565b600280546001600160a01b0319166001600160a01b0392909216919091179055565b6001805480820182556000919091527fb10e2d527612073b26eecdfd717e6a320cf44b4afac2b0732d9fcbe2b7fa0cf60180546001600160a01b0319166001600160a01b0392909216919091179055565b606060008054806020026020016040519081016040528092919081815260200182805480156107ca576020028201919060005260206000209081546001600160a01b031681526001909101906020018083116107ac575050505050905090565b3360009081526004602052604090205460ff16151560011480610a5957506002546001600160a01b031633145b610a755760405162461bcd60e51b815260040161039990611a72565b6001600160a01b03821660009081526004602052604090205460ff1615610aae5760405162461bcd60e51b815260040161039990611983565b60006001600160a01b0316600582604051610ac99190611510565b908152604051908190036020019020546001600160a01b031614610aff5760405162461bcd60e51b81526004016103999061191d565b600080546001810182557f290decd9548b62a8d60345a988386fc84ba6bc95484008f6362f93160ef3e5630180546001600160a01b0319166001600160a01b03851690811790915581526006602090815260409091208251610b6392840190611092565b5081600582604051610b759190611510565b90815260408051918290036020908101832080546001600160a01b039586166001600160a01b031990911617905592851660008181526004909452908320805460ff19166001179055606091610bcf90309060240161159e565b60408051601f198184030181529181526020820180516001600160e01b031663acf36e5360e01b17905251610c049190611510565b600060405180830381855afa9150503d8060008114610c3f576040519150601f19603f3d011682016040523d82523d6000602084013e610c44565b606091505b5090925090508115610d0557836001600160a01b031630604051602401610c6b919061159e565b60408051601f198184030181529181526020820180516001600160e01b031663acf36e5360e01b17905251610ca09190611510565b6000604051808303816000865af19150503d8060008114610cdd576040519150601f19603f3d011682016040523d82523d6000602084013e610ce2565b606091505b50508092505081610d055760405162461bcd60e51b81526004016103999061180d565b7f7c803c00251fe8138e27cfa8286be8d98625e5f6476ca6ca594f682362b711208484604051610d369291906115cb565b60405180910390a150505050565b60005490565b6009805461045b90611b14565b6003805461045b90611b14565b60008054610d729083611ac4565b905060008111610d945760405162461bcd60e51b815260040161039990611844565b60005b600054811015610e5f576000808281548110610dc357634e487b7160e01b600052603260045260246000fd5b6000918252602090912001546040516001600160a01b03909116908490610de99061159b565b60006040518083038185875af1925050503d8060008114610e26576040519150601f19603f3d011682016040523d82523d6000602084013e610e2b565b606091505b5050905080610e4c5760405162461bcd60e51b8152600401610399906118b7565b5080610e5781611b4f565b915050610d97565b507f5e1d21dcfda4f76cd32994c09b67a7cd04e48267cd319846e7af93569afff7a93083604051610e91929190611613565b60405180910390a15050565b6040516370a0823160e01b8152829082906001600160a01b038316906370a0823190610ecd90309060040161159e565b60206040518083038186803b158015610ee557600080fd5b505afa158015610ef9573d6000803e3d6000fd5b505050506040513d601f19601f82011682018060405250810190610f1d919061142b565b1015610f3b5760405162461bcd60e51b8152600401610399906119b1565b60008054610f499084611ac4565b905060008111610f6b5760405162461bcd60e51b815260040161039990611844565b60005b60005481101561106057826001600160a01b031663a9059cbb60008381548110610fa857634e487b7160e01b600052603260045260246000fd5b6000918252602090912001546040516001600160e01b031960e084901b168152610fe0916001600160a01b03169086906004016115b2565b602060405180830381600087803b158015610ffa57600080fd5b505af115801561100e573d6000803e3d6000fd5b505050506040513d601f19601f82011682018060405250810190611032919061131f565b61104e5760405162461bcd60e51b815260040161039990611752565b8061105881611b4f565b915050610f6e565b507f5e1d21dcfda4f76cd32994c09b67a7cd04e48267cd319846e7af93569afff7a93084604051610d36929190611649565b82805461109e90611b14565b90600052602060002090601f0160209004810192826110c05760008555611106565b82601f106110d957805160ff1916838001178555611106565b82800160010185558215611106579182015b828111156111065782518255916020019190600101906110eb565b5061111292915061118a565b5090565b82805461112290611b14565b90600052602060002090601f0160209004810192826111445760008555611106565b82601f1061115d5782800160ff19823516178555611106565b82800160010185558215611106579182015b8281111561110657823582559160200191906001019061116f565b5b80821115611112576000815560010161118b565b60008083601f8401126111b0578182fd5b50813567ffffffffffffffff8111156111c7578182fd5b6020830191508360208285010111156111df57600080fd5b9250929050565b600082601f8301126111f6578081fd5b813567ffffffffffffffff8082111561121157611211611b76565b604051601f8301601f19168101602001828111828210171561123557611235611b76565b60405282815284830160200186101561124c578384fd5b82602086016020830137918201602001929092529392505050565b600060208284031215611278578081fd5b813561128381611b8c565b9392505050565b60006020828403121561129b578081fd5b815161128381611b8c565b600080604083850312156112b8578081fd5b82356112c381611b8c565b9150602083013567ffffffffffffffff8111156112de578182fd5b6112ea858286016111e6565b9150509250929050565b60008060408385031215611306578182fd5b823561131181611b8c565b946020939093013593505050565b600060208284031215611330578081fd5b81518015158114611283578182fd5b60008060208385031215611351578182fd5b823567ffffffffffffffff811115611367578283fd5b6113738582860161119f565b90969095509350505050565b600080600080600060608688031215611396578081fd5b853567ffffffffffffffff808211156113ad578283fd5b6113b989838a0161119f565b909750955060208801359150808211156113d1578283fd5b506113de8882890161119f565b96999598509660400135949350505050565b600060208284031215611401578081fd5b813567ffffffffffffffff811115611417578182fd5b611423848285016111e6565b949350505050565b60006020828403121561143c578081fd5b5051919050565b60008284528282602086013780602084860101526020601f19601f85011685010190509392505050565b60008151808452611485816020860160208601611ae4565b601f01601f19169290920160200192915050565b600081546114a681611b14565b8085526020600183811680156114c357600181146114d757611505565b60ff19851688840152604088019550611505565b866000528260002060005b858110156114fd5781548a82018601529083019084016114e2565b890184019650505b505050505092915050565b60008251611522818460208701611ae4565b9190910192915050565b600080835461153a81611b14565b6001828116801561155257600181146115635761158f565b60ff1984168752828701945061158f565b8786526020808720875b858110156115865781548a82015290840190820161156d565b50505082870194505b50929695505050505050565b90565b6001600160a01b0391909116815260200190565b6001600160a01b03929092168252602082015260400190565b6001600160a01b03831681526040602082018190526000906114239083018461146d565b6001600160a01b038316815260406020820181905260009061142390830184611499565b6001600160a01b039290921682526060602083018190526005908301526422aa2422a960d91b6080830152604082015260a00190565b6001600160a01b0392909216825260606020830181905260059083015264045524332360dc1b6080830152604082015260a00190565b6020808252825182820181905260009190848201906040850190845b818110156116c05783516001600160a01b03168352928401929184019160010161169b565b50909695505050505050565b901515815260200190565b6000606082526116eb606083018789611443565b82810360208401526116fe818688611443565b9150508260408301529695505050505050565b600060208252611283602083018461146d565b6000604082526117376040830185611499565b8281036020840152611749818561146d565b95945050505050565b602080825260159082015274115490cc8c081d1c985b9cd9995c8819985a5b1959605a1b604082015260600190565b60208082526026908201527f546f6b656e20616d6f756e74206d7573742062652067726561746572207468616040820152656e207a65726f60d01b606082015260800190565b60208082526026908201527f496e76616c696420746f6b656e206164647265737320666f72204552433230206040820152651c995dd85c9960d21b606082015260800190565b60208082526017908201527f4661696c656420746f2063726561746520706172656e74000000000000000000604082015260600190565b60208082526024908201527f496e73756666696369656e7420616d6f756e7420666f722064697374726962756040820152633a34b7b760e11b606082015260800190565b60208082526015908201527408ae8d0cae440c2dadeeadce840dad2e6dac2e8c6d605b1b604082015260600190565b602080825260159082015274115d1a195c881d1c985b9cd9995c8819985a5b1959605a1b604082015260600190565b6020808252601f908201527f4f6e6c79206f776e65722063616e2073657420746865206d616e696665737400604082015260600190565b6020808252601590820152742730b6b29034b99030b63932b0b23c903a30b5b2b760591b604082015260600190565b6020808252601f908201527f4f6e6c79206f776e65722063616e206368616e676520746865206f776e657200604082015260600190565b60208082526014908201527313595b58995c88185b1c9958591e48185919195960621b604082015260600190565b60208082526021908201527f4e6f7420656e6f75676820746f6b656e7320696e2074686520636f6e747261636040820152601d60fa1b606082015260800190565b602080825260149082015273139bc81b595b58995c9cc81d1bc81c995dd85c9960621b604082015260600190565b60208082526032908201527f4e616d65206368616e67652072657175657374206e6f742073656e742066726f604082015271369036b2b6b132b9103737b91037bbb732b960711b606082015260800190565b60208082526029908201527f52657175657374207375626d69747465642062792061206e6f6e2d6d656d626560408201526872206164647265737360b81b606082015260800190565b90815260200190565b600082611adf57634e487b7160e01b81526012600452602481fd5b500490565b60005b83811015611aff578181015183820152602001611ae7565b83811115611b0e576000848401525b50505050565b600281046001821680611b2857607f821691505b60208210811415611b4957634e487b7160e01b600052602260045260246000fd5b50919050565b6000600019821415611b6f57634e487b7160e01b81526011600452602481fd5b5060010190565b634e487b7160e01b600052604160045260246000fd5b6001600160a01b0381168114611ba157600080fd5b5056fea26469706673582212202d2bd8d2e9c7fd7a39bfe08666002ef0d747b78f4295b6714fe76fed3d02b20164736f6c63430008000033",
  "linkReferences": {},
  "deployedLinkReferences": {}
}