{"abi":[{"type":"function","name":"getFlavorAddress","inputs":[{"name":"_name","type":"string","internalType":"string"}],"outputs":[{"name":"","type":"address","internalType":"address"}],"stateMutability":"view"},{"type":"function","name":"knownflavors","inputs":[{"name":"","type":"uint256","internalType":"uint256"}],"outputs":[{"name":"","type":"string","internalType":"string"}],"stateMutability":"view"},{"type":"function","name":"listFlavors","inputs":[],"outputs":[{"name":"","type":"string[]","internalType":"string[]"}],"stateMutability":"view"},{"type":"function","name":"listHolons","inputs":[],"outputs":[{"name":"","type":"address[]","internalType":"address[]"}],"stateMutability":"view"},{"type":"function","name":"listHolonsOf","inputs":[{"name":"_address","type":"address","internalType":"address"}],"outputs":[{"name":"","type":"address[]","internalType":"address[]"}],"stateMutability":"view"},{"type":"function","name":"managedFactory","inputs":[],"outputs":[{"name":"","type":"address","internalType":"address"}],"stateMutability":"view"},{"type":"function","name":"newFlavor","inputs":[{"name":"_flavorname","type":"string","internalType":"string"},{"name":"_flavoraddress","type":"address","internalType":"address"}],"outputs":[],"stateMutability":"nonpayable"},{"type":"function","name":"newHolon","inputs":[{"name":"_flavor","type":"string","internalType":"string"},{"name":"_creatorUserId","type":"string","internalType":"string"},{"name":"_name","type":"string","internalType":"string"},{"name":"_parameter","type":"uint256","internalType":"uint256"}],"outputs":[{"name":"","type":"address","internalType":"address"}],"stateMutability":"nonpayable"},{"type":"function","name":"newHolonBundle","inputs":[{"name":"_creatorUserId","type":"string","internalType":"string"},{"name":"_name","type":"string","internalType":"string"},{"name":"_parameter","type":"uint256","internalType":"uint256"}],"outputs":[{"name":"","type":"address","internalType":"address"}],"stateMutability":"nonpayable"},{"type":"function","name":"setFactories","inputs":[{"name":"_managedFactory","type":"address","internalType":"address"},{"name":"_zonedFactory","type":"address","internalType":"address"}],"outputs":[],"stateMutability":"nonpayable"},{"type":"function","name":"setManagedFactory","inputs":[{"name":"_managedFactory","type":"address","internalType":"address"}],"outputs":[],"stateMutability":"nonpayable"},{"type":"function","name":"setZonedFactory","inputs":[{"name":"_zonedFactory","type":"address","internalType":"address"}],"outputs":[],"stateMutability":"nonpayable"},{"type":"function","name":"toAddress","inputs":[{"name":"","type":"string","internalType":"string"}],"outputs":[{"name":"","type":"address","internalType":"address"}],"stateMutability":"view"},{"type":"function","name":"zonedFactory","inputs":[],"outputs":[{"name":"","type":"address","internalType":"address"}],"stateMutability":"view"},{"type":"event","name":"NewFlavor","inputs":[{"name":"flavor","type":"address","indexed":true,"internalType":"address"},{"name":"name","type":"string","indexed":false,"internalType":"string"}],"anonymous":false},{"type":"event","name":"NewHolon","inputs":[{"name":"name","type":"string","indexed":false,"internalType":"string"},{"name":"addr","type":"address","indexed":false,"internalType":"address"}],"anonymous":false}],"bytecode":{"object":"0x608060405234801561000f575f80fd5b506117488061001d5f395ff3fe608060405234801561000f575f80fd5b50600436106100e5575f3560e01c8063bde6e1e311610088578063e5c2337411610063578063e5c2337414610203578063f690335a1461020b578063fc6941cb1461021e578063ff98a7a214610231575f80fd5b8063bde6e1e3146101bd578063bdee9823146101d0578063dfee5717146101e3575f80fd5b806357874158116100c357806357874158146101415780637b72401f146101545780637e4115ba146101745780639aa4c2e5146101a8575f80fd5b806312ca40bd146100e95780631bef6cd4146101195780632c0e78601461012e575b5f80fd5b6003546100fc906001600160a01b031681565b6040516001600160a01b0390911681526020015b60405180910390f35b610121610244565b6040516101109190610eb4565b6100fc61013c366004610fb3565b610318565b6002546100fc906001600160a01b031681565b610167610162366004610fed565b6103a1565b6040516101109190611004565b6100fc610182366004610fb3565b80516020818301810180516001825292820191909301209152546001600160a01b031681565b6101bb6101b6366004611031565b610447565b005b6101bb6101cb366004611068565b6104c1565b6101bb6101de366004611068565b610509565b6101f66101f1366004611068565b610551565b6040516101109190611083565b6101f66105c2565b6101bb6102193660046110cf565b610647565b6100fc61022c36600461114b565b61079c565b6100fc61023f3660046111b3565b6109de565b60606005805480602002602001604051908101604052809291908181526020015f905b8282101561030f578382905f5260205f200180546102849061123d565b80601f01602080910402602001604051908101604052809291908181526020018280546102b09061123d565b80156102fb5780601f106102d2576101008083540402835291602001916102fb565b820191905f5260205f20905b8154815290600101906020018083116102de57829003601f168201915b505050505081526020019060010190610267565b50505050905090565b5f806001600160a01b03166004836040516103339190611275565b908152604051908190036020019020546001600160a01b0316036103725760405162461bcd60e51b815260040161036990611290565b60405180910390fd5b6004826040516103829190611275565b908152604051908190036020019020546001600160a01b031692915050565b600581815481106103b0575f80fd5b905f5260205f20015f9150905080546103c89061123d565b80601f01602080910402602001604051908101604052809291908181526020018280546103f49061123d565b801561043f5780601f106104165761010080835404028352916020019161043f565b820191905f5260205f20905b81548152906001019060200180831161042257829003601f168201915b505050505081565b6001600160a01b03821661046d5760405162461bcd60e51b8152600401610369906112d4565b6001600160a01b0381166104935760405162461bcd60e51b815260040161036990611319565b600280546001600160a01b039384166001600160a01b03199182161790915560038054929093169116179055565b6001600160a01b0381166104e75760405162461bcd60e51b8152600401610369906112d4565b600280546001600160a01b0319166001600160a01b0392909216919091179055565b6001600160a01b03811661052f5760405162461bcd60e51b815260040161036990611319565b600380546001600160a01b0319166001600160a01b0392909216919091179055565b6001600160a01b0381165f90815260208181526040918290208054835181840281018401909452808452606093928301828280156105b657602002820191905f5260205f20905b81546001600160a01b03168152600190910190602001808311610598575b50505050509050919050565b5f80805260209081527fad3228b676f7d3cd4284a5443f17f1962b36e491b30a40b2405849e597ba5fb5805460408051828502810185019091528181526060939092919083018282801561063d57602002820191905f5260205f20905b81546001600160a01b0316815260019091019060200180831161061f575b5050505050905090565b5f6001600160a01b03166004848460405161066392919061135c565b908152604051908190036020019020546001600160a01b0316146106d55760405162461bcd60e51b8152602060048201526024808201527f466c61766f7220776974682074686973206e616d6520616c72656164792065786044820152636973747360e01b6064820152608401610369565b80600484846040516106e892919061135c565b90815260405190819003602001902080546001600160a01b03929092166001600160a01b0319909216919091179055600580546001810182555f919091527f036b6384b5eca791c62761152d0c79bb0604c104a5fb6f4eb0703f3154bb3db0016107538385836113b6565b50806001600160a01b03167f6718dfd55f2c8a35b1a954f6fcc62a3d28a6f996fa4a157974ad6f42a0e67b51848460405161078f929190611470565b60405180910390a2505050565b5f6107bf60405180606001604052806028815260200161163e6028913984610cd2565b604080518082018252600881526729b83634ba3a32b960c11b602082015290515f906004906107ef908490611275565b90815260200160405180910390205f9054906101000a90046001600160a01b031690506108346040518060600160405280603081526020016116c16030913982610d1b565b6001600160a01b03811661088a5760405162461bcd60e51b815260206004820152601760248201527f53706c6974746572466163746f7279206e6f74207365740000000000000000006044820152606401610369565b600254600354604051633ac5dfa560e21b815283925f926001600160a01b038086169363eb177e94936108cc938e938e938e938216929091169060040161149e565b6020604051808303815f875af11580156108e8573d5f803e3d5ffd5b505050506040513d601f19601f8201168201806040525081019061090c91906114ea565b90508060018860405161091f9190611275565b90815260200160405180910390205f6101000a8154816001600160a01b0302191690836001600160a01b0316021790555061099a6040518060600160405280603181526020016116666031913960018960405161097c9190611275565b908152604051908190036020019020546001600160a01b0316610d1b565b7f10d047031611691941b661f2160741619b4030812eb79997f4b3734ed5605a4387826040516109cb929190611505565b60405180910390a1979650505050505050565b5f806001600160a01b03166004866040516109f99190611275565b908152604051908190036020019020546001600160a01b031603610a2f5760405162461bcd60e51b815260040161036990611290565b5f600486604051610a409190611275565b90815260408051918290036020908101832054838301835260168452753732bba437b637b71d102337bab73210333630bb37b960511b848301528251808401909352600b83526a30ba1030b2323932b9b99d60a91b918301919091526001600160a01b03169250610ab49190889084610d60565b610ad76040518060600160405280604081526020016115fe604091398585610daf565b6002546003546040515f9283926001600160a01b0380871693610b09938c938c938c939281169291169060240161149e565b60408051601f198184030181529181526020820180516001600160e01b03166313f5a57f60e21b17905251610b3e9190611275565b5f60405180830381855af49150503d805f8114610b76576040519150601f19603f3d011682016040523d82523d5f602084013e610b7b565b606091505b5091509150610ba26040518060600160405280602a8152602001611697602a913983610dfb565b81610be75760405162461bcd60e51b8152602060048201526015602482015274121bdb1bdb8818dc99585d1a5bdb8819985a5b1959605a1b6044820152606401610369565b5f81806020019051810190610bfc91906114ea565b9050610c4e6040518060600160405280602281526020016116f160229139886040518060400160405280600b81526020016a30ba1030b2323932b9b99d60a91b815250846001600160a01b0316610d60565b80600188604051610c5f9190611275565b90815260405190819003602001812080546001600160a01b03939093166001600160a01b0319909316929092179091557f10d047031611691941b661f2160741619b4030812eb79997f4b3734ed5605a4390610cbe9089908490611505565b60405180910390a198975050505050505050565b610d178282604051602401610ce892919061152e565b60408051601f198184030181529190526020810180516001600160e01b0316634b5c427760e01b179052610e3c565b5050565b610d178282604051602401610d31929190611505565b60408051601f198184030181529190526020810180516001600160e01b031663319af33360e01b179052610e3c565b610da984848484604051602401610d7a949392919061155b565b60408051601f198184030181529190526020810180516001600160e01b0316638eafb02b60e01b179052610e3c565b50505050565b610df6838383604051602401610dc7939291906115a5565b60408051601f198184030181529190526020810180516001600160e01b0316635821efa160e01b179052610e3c565b505050565b610d178282604051602401610e119291906115da565b60408051601f198184030181529190526020810180516001600160e01b031663c3b5563560e01b1790525b610e4581610e48565b50565b5f6a636f6e736f6c652e6c6f6790505f80835160208501845afa505050565b5f5b83811015610e81578181015183820152602001610e69565b50505f910152565b5f8151808452610ea0816020860160208601610e67565b601f01601f19169290920160200192915050565b5f60208083016020845280855180835260408601915060408160051b8701019250602087015f5b82811015610f0957603f19888603018452610ef7858351610e89565b94509285019290850190600101610edb565b5092979650505050505050565b634e487b7160e01b5f52604160045260245ffd5b5f82601f830112610f39575f80fd5b813567ffffffffffffffff80821115610f5457610f54610f16565b604051601f8301601f19908116603f01168101908282118183101715610f7c57610f7c610f16565b81604052838152866020858801011115610f94575f80fd5b836020870160208301375f602085830101528094505050505092915050565b5f60208284031215610fc3575f80fd5b813567ffffffffffffffff811115610fd9575f80fd5b610fe584828501610f2a565b949350505050565b5f60208284031215610ffd575f80fd5b5035919050565b602081525f6110166020830184610e89565b9392505050565b6001600160a01b0381168114610e45575f80fd5b5f8060408385031215611042575f80fd5b823561104d8161101d565b9150602083013561105d8161101d565b809150509250929050565b5f60208284031215611078575f80fd5b81356110168161101d565b602080825282518282018190525f9190848201906040850190845b818110156110c35783516001600160a01b03168352928401929184019160010161109e565b50909695505050505050565b5f805f604084860312156110e1575f80fd5b833567ffffffffffffffff808211156110f8575f80fd5b818601915086601f83011261110b575f80fd5b813581811115611119575f80fd5b87602082850101111561112a575f80fd5b602092830195509350508401356111408161101d565b809150509250925092565b5f805f6060848603121561115d575f80fd5b833567ffffffffffffffff80821115611174575f80fd5b61118087838801610f2a565b94506020860135915080821115611195575f80fd5b506111a286828701610f2a565b925050604084013590509250925092565b5f805f80608085870312156111c6575f80fd5b843567ffffffffffffffff808211156111dd575f80fd5b6111e988838901610f2a565b955060208701359150808211156111fe575f80fd5b61120a88838901610f2a565b9450604087013591508082111561121f575f80fd5b5061122c87828801610f2a565b949793965093946060013593505050565b600181811c9082168061125157607f821691505b60208210810361126f57634e487b7160e01b5f52602260045260245ffd5b50919050565b5f8251611286818460208701610e67565b9190910192915050565b60208082526024908201527f466c61766f7220776974682074686973206e616d6520646f6573206e6f7420656040820152631e1a5cdd60e21b606082015260800190565b60208082526025908201527f4d616e61676564466163746f72792063616e6e6f74206265207a65726f206164604082015264647265737360d81b606082015260800190565b60208082526023908201527f5a6f6e6564466163746f72792063616e6e6f74206265207a65726f206164647260408201526265737360e81b606082015260800190565b818382375f9101908152919050565b601f821115610df657805f5260205f20601f840160051c810160208510156113905750805b601f840160051c820191505b818110156113af575f815560010161139c565b5050505050565b67ffffffffffffffff8311156113ce576113ce610f16565b6113e2836113dc835461123d565b8361136b565b5f601f841160018114611413575f85156113fc5750838201355b5f19600387901b1c1916600186901b1783556113af565b5f83815260208120601f198716915b828110156114425786850135825560209485019460019092019101611422565b508682101561145e575f1960f88860031b161c19848701351681555b505060018560011b0183555050505050565b60208152816020820152818360408301375f818301604090810191909152601f909201601f19160101919050565b60a081525f6114b060a0830188610e89565b82810360208401526114c28188610e89565b604084019690965250506001600160a01b039283166060820152911660809091015292915050565b5f602082840312156114fa575f80fd5b81516110168161101d565b604081525f6115176040830185610e89565b905060018060a01b03831660208301529392505050565b604081525f6115406040830185610e89565b82810360208401526115528185610e89565b95945050505050565b608081525f61156d6080830187610e89565b828103602084015261157f8187610e89565b905082810360408401526115938186610e89565b91505082606083015295945050505050565b606081525f6115b76060830186610e89565b82810360208401526115c98186610e89565b915050826040830152949350505050565b604081525f6115ec6040830185610e89565b90508215156020830152939250505056fe6e6577486f6c6f6e3a2043616c6c696e672064656c656761746563616c6c206f6e20666c61766f7241646472657373207769746820706172616d65746572733a486f6c6f6e732e6e6577486f6c6f6e42756e646c653a205374617274656420666f72206e616d653a486f6c6f6e732e6e6577486f6c6f6e42756e646c653a205570646174656420746f41646472657373206d617070696e673a6e6577486f6c6f6e3a2044656c656761746563616c6c20636f6d706c657465642e20537563636573733a486f6c6f6e732e6e6577486f6c6f6e42756e646c653a205573696e672053706c6974746572466163746f72792061743a6e6577486f6c6f6e3a20486f6c6f6e20637265617465642077697468206e616d653aa26469706673582212204dde6ab34691656959675fe23c049a37b0cf9c8960a607d7eb5ca8707b2a8e1e64736f6c63430008170033","linkReferences":{}},"methodIdentifiers":{"getFlavorAddress(string)":"2c0e7860","knownflavors(uint256)":"7b72401f","listFlavors()":"1bef6cd4","listHolons()":"e5c23374","listHolonsOf(address)":"dfee5717","managedFactory()":"57874158","newFlavor(string,address)":"f690335a","newHolon(string,string,string,uint256)":"ff98a7a2","newHolonBundle(string,string,uint256)":"fc6941cb","setFactories(address,address)":"9aa4c2e5","setManagedFactory(address)":"bde6e1e3","setZonedFactory(address)":"bdee9823","toAddress(string)":"7e4115ba","zonedFactory()":"12ca40bd"},"id":34}