{"abi":[{"type":"function","name":"createManaged","inputs":[{"name":"_creatorUserId","type":"string","internalType":"string"},{"name":"_name","type":"string","internalType":"string"}],"outputs":[{"name":"","type":"address","internalType":"address"}],"stateMutability":"nonpayable"},{"type":"function","name":"listHolons","inputs":[],"outputs":[{"name":"","type":"address[]","internalType":"address[]"}],"stateMutability":"view"},{"type":"function","name":"listHolonsOf","inputs":[{"name":"_address","type":"address","internalType":"address"}],"outputs":[{"name":"","type":"address[]","internalType":"address[]"}],"stateMutability":"view"},{"type":"function","name":"newHolon","inputs":[{"name":"creatorUserId","type":"string","internalType":"string"},{"name":"_name","type":"string","internalType":"string"},{"name":"_parameter","type":"uint256","internalType":"uint256"}],"outputs":[{"name":"","type":"address","internalType":"address"}],"stateMutability":"nonpayable"},{"type":"function","name":"toAddress","inputs":[{"name":"","type":"string","internalType":"string"}],"outputs":[{"name":"","type":"address","internalType":"address"}],"stateMutability":"view"},{"type":"event","name":"NewHolon","inputs":[{"name":"name","type":"string","indexed":false,"internalType":"string"},{"name":"addr","type":"address","indexed":false,"internalType":"address"}],"anonymous":false}],"bytecode":{"object":"0x608060405234801561000f575f80fd5b50613d688061001d5f395ff3fe608060405234801562000010575f80fd5b50600436106200005c575f3560e01c80630babba8614620000605780634748e13d14620000945780637e4115ba14620000ab578063dfee571714620000e2578063e5c233741462000108575b5f80fd5b6200007762000071366004620005a5565b62000112565b6040516001600160a01b0390911681526020015b60405180910390f35b62000077620000a536600462000614565b620002a4565b62000077620000bc3660046200067b565b80516020818301810180516001825292820191909301209152546001600160a01b031681565b620000f9620000f3366004620006b9565b620003f8565b6040516200008b9190620006e8565b620000f96200046b565b5f8033846040516200012490620004f2565b6200013192919062000787565b604051809103905ff0801580156200014b573d5f803e3d5ffd5b505f60208181527fad3228b676f7d3cd4284a5443f17f1962b36e491b30a40b2405849e597ba5fb5805460018181019092557ff0df3dcda05b4fbd9c655cde3d5ceb211e019e72ec816e127a59e7195f2cd7f50180546001600160a01b0386166001600160a01b03199182168117909255338086526040862080549485018155865293909420909101805490931617909155909150819032146200021f57325f908152602081815260408220805460018101825590835291200180546001600160a01b0319166001600160a01b0383161790555b80600186604051620002329190620007ac565b90815260405190819003602001812080546001600160a01b03939093166001600160a01b0319909316929092179091557f10d047031611691941b661f2160741619b4030812eb79997f4b3734ed5605a4390620002939087908490620007c9565b60405180910390a195945050505050565b5f803383604051620002b690620004f2565b620002c392919062000787565b604051809103905ff080158015620002dd573d5f803e3d5ffd5b505f60208181527fad3228b676f7d3cd4284a5443f17f1962b36e491b30a40b2405849e597ba5fb5805460018181019092557ff0df3dcda05b4fbd9c655cde3d5ceb211e019e72ec816e127a59e7195f2cd7f50180546001600160a01b0386166001600160a01b03199182168117909255338552604080862080548086018255908752949095209093018054909316179091559051919250829182919062000387908790620007ac565b90815260405190819003602001812080546001600160a01b03939093166001600160a01b0319909316929092179091557f10d047031611691941b661f2160741619b4030812eb79997f4b3734ed5605a4390620003e89086908490620007c9565b60405180910390a1949350505050565b6001600160a01b0381165f90815260208181526040918290208054835181840281018401909452808452606093928301828280156200045f57602002820191905f5260205f20905b81546001600160a01b0316815260019091019060200180831162000440575b50505050509050919050565b5f80805260209081527fad3228b676f7d3cd4284a5443f17f1962b36e491b30a40b2405849e597ba5fb58054604080518285028101850190915281815260609390929190830182828015620004e857602002820191905f5260205f20905b81546001600160a01b03168152600190910190602001808311620004c9575b5050505050905090565b61353e80620007f583390190565b634e487b7160e01b5f52604160045260245ffd5b5f82601f83011262000524575f80fd5b813567ffffffffffffffff8082111562000542576200054262000500565b604051601f8301601f19908116603f011681019082821181831017156200056d576200056d62000500565b8160405283815286602085880101111562000586575f80fd5b836020870160208301375f602085830101528094505050505092915050565b5f805f60608486031215620005b8575f80fd5b833567ffffffffffffffff80821115620005d0575f80fd5b620005de8783880162000514565b94506020860135915080821115620005f4575f80fd5b50620006038682870162000514565b925050604084013590509250925092565b5f806040838503121562000626575f80fd5b823567ffffffffffffffff808211156200063e575f80fd5b6200064c8683870162000514565b9350602085013591508082111562000662575f80fd5b50620006718582860162000514565b9150509250929050565b5f602082840312156200068c575f80fd5b813567ffffffffffffffff811115620006a3575f80fd5b620006b18482850162000514565b949350505050565b5f60208284031215620006ca575f80fd5b81356001600160a01b0381168114620006e1575f80fd5b9392505050565b602080825282518282018190525f9190848201906040850190845b818110156200072a5783516001600160a01b03168352928401929184019160010162000703565b50909695505050505050565b5f5b838110156200075257818101518382015260200162000738565b50505f910152565b5f81518084526200077381602086016020860162000736565b601f01601f19169290920160200192915050565b6001600160a01b03831681526040602082018190525f90620006b1908301846200075a565b5f8251620007bf81846020870162000736565b9190910192915050565b604081525f620007dd60408301856200075a565b905060018060a01b0383166020830152939250505056fe60806040526c0c9f2c9cd04674edea4000000060155534801562000021575f80fd5b506040516200353e3803806200353e8339810160408190526200004491620001a0565b600280546001600160a01b031916321790556007620000648282620002ff565b50600a80546001600160a01b0319166001600160a01b0384161790555f60135560408051808201909152600781526613585b9859d95960ca1b6020820152600990620000b19082620002ff565b50620000d7604051806060016040528060388152602001620035066038913983620000df565b505062000410565b6200012c8282604051602401620000f8929190620003cb565b60408051601f198184030181529190526020810180516001600160e01b0390811663319af33360e01b179091526200013016565b5050565b62000146816200014960201b62001f0b1760201c565b50565b5f6a636f6e736f6c652e6c6f6790505f80835160208501845afa505050565b634e487b7160e01b5f52604160045260245ffd5b5f5b83811015620001985781810151838201526020016200017e565b50505f910152565b5f8060408385031215620001b2575f80fd5b82516001600160a01b0381168114620001c9575f80fd5b60208401519092506001600160401b0380821115620001e6575f80fd5b818501915085601f830112620001fa575f80fd5b8151818111156200020f576200020f62000168565b604051601f8201601f19908116603f011681019083821181831017156200023a576200023a62000168565b8160405282815288602084870101111562000253575f80fd5b620002668360208301602088016200017c565b80955050505050509250929050565b600181811c908216806200028a57607f821691505b602082108103620002a957634e487b7160e01b5f52602260045260245ffd5b50919050565b601f821115620002fa57805f5260205f20601f840160051c81016020851015620002d65750805b601f840160051c820191505b81811015620002f7575f8155600101620002e2565b50505b505050565b81516001600160401b038111156200031b576200031b62000168565b62000333816200032c845462000275565b84620002af565b602080601f83116001811462000369575f8415620003515750858301515b5f19600386901b1c1916600185901b178555620003c3565b5f85815260208120601f198616915b82811015620003995788860151825594840194600190910190840162000378565b5085821015620003b757878501515f19600388901b60f8161c191681555b505060018460011b0185555b505050505050565b604081525f8351806040840152620003eb8160608501602088016200017c565b6001600160a01b0393909316602083015250601f91909101601f191601606001919050565b6130e8806200041e5f395ff3fe608060405260043610610228575f3560e01c806378bef78b11610122578063b766f86f116100aa578063d7def8e71161006e578063d7def8e714610759578063de8fa43114610793578063f1559663146107a7578063f59e4f65146107c6578063f5baf0d7146107da57610239565b8063b766f86f14610680578063c127c24714610695578063c21be6ae146106b4578063ca224313146106f4578063cc1849481461073a57610239565b8063918f9687116100f1578063918f968714610596578063a230c524146105b5578063a6f9dae1146105e3578063acf36e5314610602578063b6afd2ca1461066c57610239565b806378bef78b146105055780637e4115ba14610518578063804d74701461055857806381bc3f8c1461057757610239565b80633113a2ae116101b05780634d2da01d116101745780634d2da01d1461045b578063530554811461047057806354fd4d501461049b57806357a32534146104af57806360a1da83146104e657610239565b80633113a2ae146103a057806332a1e164146103b4578063363454ee146103d357806345ca25ed1461041d5780634635fd681461043c57610239565b80630babba86116101f75780630babba861461030457806321670f22146103235780632615c3c71461033657806328c317d71461035557806329b84d091461038157610239565b806302d05d3f1461024357806305f182ae1461027f57806306fdde03146102c45780630b1ca49a146102e557610239565b36610239576102375f346107ee565b005b6102375f346107ee565b34801561024e575f80fd5b50600a54610262906001600160a01b031681565b6040516001600160a01b0390911681526020015b60405180910390f35b34801561028a575f80fd5b506102b66102993660046125bd565b805160208183018101805160148252928201919093012091525481565b604051908152602001610276565b3480156102cf575f80fd5b506102d8610f1d565b6040516102769190612643565b3480156102f0575f80fd5b506102376102ff36600461266c565b610fa9565b34801561030f575f80fd5b5061026261031e3660046126cb565b611188565b610237610331366004612738565b6107ee565b348015610341575f80fd5b50610237610350366004612762565b61120d565b348015610360575f80fd5b5061037461036f3660046125bd565b61130d565b60405161027691906127b7565b34801561038c575f80fd5b5061023761039b366004612803565b611385565b3480156103ab575f80fd5b506103746113f1565b3480156103bf575f80fd5b506102376103ce366004612841565b611451565b3480156103de575f80fd5b5061040d6103ed3660046125bd565b8051602081830181018051600d8252928201919093012091525460ff1681565b6040519015158152602001610276565b348015610428575f80fd5b50610237610437366004612882565b61150a565b348015610447575f80fd5b506102d86104563660046128ce565b611646565b348015610466575f80fd5b506102b660155481565b34801561047b575f80fd5b506102b661048a36600461266c565b60126020525f908152604090205481565b3480156104a6575f80fd5b506102d861166d565b3480156104ba575f80fd5b506102b66104c93660046125bd565b8051602081830181018051600f8252928201919093012091525481565b3480156104f1575f80fd5b506102376105003660046128e5565b61167a565b610237610513366004612841565b6117ad565b348015610523575f80fd5b506102626105323660046125bd565b80516020818301810180516005825292820191909301209152546001600160a01b031681565b348015610563575f80fd5b506102376105723660046129df565b6117da565b348015610582575f80fd5b506102d861059136600461266c565b611902565b3480156105a1575f80fd5b506102376105b03660046125bd565b61191a565b3480156105c0575f80fd5b5061040d6105cf36600461266c565b60046020525f908152604090205460ff1681565b3480156105ee575f80fd5b506102376105fd36600461266c565b611a0c565b34801561060d575f80fd5b5061023761061c36600461266c565b6001805480820182555f919091527fb10e2d527612073b26eecdfd717e6a320cf44b4afac2b0732d9fcbe2b7fa0cf60180546001600160a01b0319166001600160a01b0392909216919091179055565b348015610677575f80fd5b50610374611a88565b34801561068b575f80fd5b506102b660135481565b3480156106a0575f80fd5b506102376106af366004612882565b611ae5565b3480156106bf575f80fd5b506102626106ce3660046125bd565b8051602081830181018051600c825292820191909301209152546001600160a01b031681565b3480156106ff575f80fd5b506102b661070e3660046128e5565b81516020818401810180516010825292820194820194909420919093529091525f908152604090205481565b348015610745575f80fd5b50610262610754366004612841565b611cf8565b348015610764575f80fd5b5061040d6107733660046125bd565b8051602081830181018051600e8252928201919093012091525460ff1681565b34801561079e575f80fd5b50600b546102b6565b3480156107b2575f80fd5b506102376107c1366004612a10565b611d3d565b3480156107d1575f80fd5b506102d8611ef1565b3480156107e5575f80fd5b506102d8611efe565b5f805f3411801561080657506001600160a01b038416155b1561081757349250600191506108f8565b506001600160a01b0383165f81815260126020526040908190205490516370a0823160e01b815230600482015285928592916370a0823190602401602060405180830381865afa15801561086d573d5f803e3d5ffd5b505050506040513d601f19601f820116820180604052508101906108919190612ac4565b61089b9190612aef565b10156108f85760405162461bcd60e51b815260206004820152602160248201527f4e6f7420656e6f75676820746f6b656e7320696e2074686520636f6e747261636044820152601d60fa1b60648201526084015b60405180910390fd5b5f805b600b54811015610e905760135415610959576109526014600b838154811061092557610925612b08565b905f5260205f200160405161093a9190612b54565b90815260200160405180910390205486601354611f2a565b9150610969565b600b546109669086612bc6565b91505b8115610e88575f600c600b838154811061098557610985612b08565b905f5260205f200160405161099a9190612b54565b908152604051908190036020019020546001600160a01b03169050803b15158515610bbf57600d600b84815481106109d4576109d4612b08565b905f5260205f20016040516109e99190612b54565b9081526040519081900360200190205460ff1615610af8575f826001600160a01b0316856040515f6040518083038185875af1925050503d805f8114610a4a576040519150601f19603f3d011682016040523d82523d5f602084013e610a4f565b606091505b5050905080610a925760405162461bcd60e51b815260206004820152600f60248201526e151c985b9cd9995c8819985a5b1959608a1b60448201526064016108ef565b826001600160a01b0316306001600160a01b03165f805160206130938339815191528785604051610aea929190918252151560208201526060604082018190526003908201526208aa8960eb1b608082015260a00190565b60405180910390a350610e85565b306001600160a01b03166378bef78b600b8581548110610b1a57610b1a612b08565b905f5260205f2001866040518363ffffffff1660e01b8152600401610b40929190612c5e565b5f604051808303815f87803b158015610b57575f80fd5b505af1158015610b69573d5f803e3d5ffd5b50506040805187815284151560208201526060818301819052600a90820152690a6a89ea48a88be8aa8960b31b608082015290515f93503092505f805160206130938339815191529181900360a00190a3610e85565b600d600b8481548110610bd457610bd4612b08565b905f5260205f2001604051610be99190612b54565b9081526040519081900360200190205460ff1615610dbe5760405163a9059cbb60e01b81526001600160a01b0383811660048301526024820186905286169063a9059cbb906044016020604051808303815f875af1158015610c4d573d5f803e3d5ffd5b505050506040513d601f19601f82011682018060405250810190610c719190612c7f565b506040516001600160a01b038981166024830152604482018690525f919084169060640160408051601f198184030181529181526020820180516001600160e01b03166310b3879160e11b17905251610cca9190612c9e565b5f604051808303815f865af19150503d805f8114610d03576040519150601f19603f3d011682016040523d82523d5f602084013e610d08565b606091505b5050905080610d645760405162461bcd60e51b815260206004820152602260248201527f556e61626c6520746f2063616c6c20746865207265776172642066756e63746960448201526137b760f11b60648201526084016108ef565b826001600160a01b0316306001600160a01b03165f805160206130938339815191528785604051610aea9291909182521515602082015260606040820181905260059082015264045524332360dc1b608082015260a00190565b306001600160a01b0316632615c3c7600b8581548110610de057610de0612b08565b905f5260205f20018a876040518463ffffffff1660e01b8152600401610e0893929190612cb9565b5f604051808303815f87803b158015610e1f575f80fd5b505af1158015610e31573d5f803e3d5ffd5b50506040805187815284151560208201526060818301819052600c908201526b053544f5245445f45524332360a41b608082015290515f93503092505f805160206130938339815191529181900360a00190a35b50505b6001016108fb565b50600b5430907fd83308e9158842b2115ec5e6f6395db42fff24e4b5506ef42fe33854fafad65590869086610ee25760405180604001604052806005815260200164045524332360dc1b815250610eff565b6040518060400160405280600381526020016208aa8960eb1b8152505b604051610f0e93929190612ce6565b60405180910390a25050505050565b60078054610f2a90612b1c565b80601f0160208091040260200160405190810160405280929190818152602001828054610f5690612b1c565b8015610fa15780601f10610f7857610100808354040283529160200191610fa1565b820191905f5260205f20905b815481529060010190602001808311610f8457829003601f168201915b505050505081565b6002546001600160a01b03163314610fd35760405162461bcd60e51b81526004016108ef90612d0d565b5f5b5f5481101561107f57816001600160a01b03165f8281548110610ffa57610ffa612b08565b5f918252602090912001546001600160a01b031603611077575f805461101e612b08565b5f91825260208220015481546001600160a01b0390911691908390811061104757611047612b08565b905f5260205f20015f6101000a8154816001600160a01b0302191690836001600160a01b0316021790555061107f565b600101610fd5565b505f80548061109057611090612d56565b5f828152602080822083015f1990810180546001600160a01b03191690559092019092556001600160a01b0383168252600481526040808320805460ff1916905560069091529081902090517f982d6fac85d22cbbe833f9fe4278a909ca0f3b24ecc8b1f10fe63736e3c723139161110a91849190612d6a565b60405180910390a16001600160a01b0381165f90815260066020526040808220905160059161113891612b54565b908152604080516020928190038301812080546001600160a01b0319166001600160a01b0395861617905582810182525f80825293851684526006909252909120906111849082612dd8565b5050565b600a546040516305d5dd4360e11b81525f916001600160a01b0316908190630babba86906111c2908a908a908a908a908a90600401612ebf565b6020604051808303815f875af11580156111de573d5f803e3d5ffd5b505050506040513d601f19601f820116820180604052508101906112029190612ef8565b979650505050505050565b5f8290505f6010856040516112229190612c9e565b9081526040805191829003602090810183206001600160a01b0388165f9081529152205491508390601090611258908890612c9e565b90815260200160405180910390205f866001600160a01b03166001600160a01b031681526020019081526020015f205f8282546112959190612f13565b90915550506040516011906112ab908790612c9e565b908152604080516020928190038301902080546001810182555f9182528382200180546001600160a01b0319166001600160a01b0389169081179091558152601290925281208054859290611301908490612f13565b90915550505050505050565b606060118260405161131f9190612c9e565b908152604080519182900360209081018320805480830285018301909352828452919083018282801561137957602002820191905f5260205f20905b81546001600160a01b0316815260019091019060200180831161135b575b50505050509050919050565b6002546001600160a01b031633146113df5760405162461bcd60e51b815260206004820152601f60248201527f4f6e6c79206f776e65722063616e2073657420746865206d616e69666573740060448201526064016108ef565b60036113ec828483612f26565b505050565b6060600180548060200260200160405190810160405280929190818152602001828054801561144757602002820191905f5260205f20905b81546001600160a01b03168152600190910190602001808311611429575b5050505050905090565b600a546001600160a01b0316331461147b5760405162461bcd60e51b81526004016108ef90612fdf565b6015548111156114cd5760405162461bcd60e51b815260206004820152601b60248201527f417070726563696174696f6e2076616c756520746f6f2068696768000000000060448201526064016108ef565b806014836040516114de9190612c9e565b9081526020016040518091039020819055508060135f8282546115019190612f13565b90915550505050565b6001600160a01b03821633148061152b57506002546001600160a01b031633145b8061153e57506001600160a01b03821632145b6115a55760405162461bcd60e51b815260206004820152603260248201527f4e616d65206368616e67652072657175657374206e6f742073656e742066726f604482015271369036b2b6b132b9103737b91037bbb732b960711b60648201526084016108ef565b816005826040516115b69190612c9e565b908152604080516020928190038301812080546001600160a01b0319166001600160a01b039586161790559285165f908152600690925290207ffdcc9059d3426f73949b49e5d977553aa298184439da800d66f48959d9cc76b09161161d91908490613020565b60405180910390a16001600160a01b0382165f9081526006602052604090206113ec8282612dd8565b600b8181548110611655575f80fd5b905f5260205f20015f915090508054610f2a90612b1c565b60088054610f2a90612b1c565b600d8260405161168a9190612c9e565b9081526040519081900360200190205460ff16156116ea5760405162461bcd60e51b815260206004820152601860248201527f557365722068617320616c726561647920636c61696d6564000000000000000060448201526064016108ef565b5f6001600160a01b0316600c836040516117049190612c9e565b908152604051908190036020019020546001600160a01b0316036117635780600c836040516117339190612c9e565b90815260405190819003602001902080546001600160a01b03929092166001600160a01b03199092169190911790555b61176d828261209b565b611777828261224a565b6001600d836040516117899190612c9e565b908152604051908190036020019020805491151560ff199092169190911790555050565b80600f836040516117be9190612c9e565b90815260200160405180910390205f8282546115019190612f13565b600a546001600160a01b031633146118345760405162461bcd60e51b815260206004820152601c60248201527f4f6e6c792063726561746f722063616e20616464206d656d626572730000000060448201526064016108ef565b5f5b8151811015611184575f82828151811061185257611852612b08565b60200260200101519050600e8160405161186c9190612c9e565b9081526040519081900360200190205460ff161561188a57506118fa565b6001600e8260405161189c9190612c9e565b908152604051908190036020019020805491151560ff19909216919091179055600b80546001810182555f919091527f0175b7a638427703f0dbe7bb9bbf987a2551717b34e79f33b5b1008d1fa01db9016118f78282612dd8565b50505b600101611836565b60066020525f908152604090208054610f2a90612b1c565b600a546001600160a01b031633146119745760405162461bcd60e51b815260206004820152601c60248201527f4f6e6c792063726561746f722063616e20616464206d656d626572730000000060448201526064016108ef565b600e816040516119849190612c9e565b9081526040519081900360200190205460ff161561199f5750565b6001600e826040516119b19190612c9e565b908152604051908190036020019020805491151560ff19909216919091179055600b80546001810182555f919091527f0175b7a638427703f0dbe7bb9bbf987a2551717b34e79f33b5b1008d1fa01db9016111848282612dd8565b6002546001600160a01b03163314611a665760405162461bcd60e51b815260206004820152601f60248201527f4f6e6c79206f776e65722063616e206368616e676520746865206f776e65720060448201526064016108ef565b600280546001600160a01b0319166001600160a01b0392909216919091179055565b60605f80548060200260200160405190810160405280929190818152602001828054801561144757602002820191905f5260205f209081546001600160a01b03168152600190910190602001808311611429575050505050905090565b335f9081526004602052604090205460ff16151560011480611b1157506002546001600160a01b031633145b611b2d5760405162461bcd60e51b81526004016108ef90612d0d565b6001600160a01b0382165f9081526004602052604090205460ff1615611b8c5760405162461bcd60e51b815260206004820152601460248201527313595b58995c88185b1c9958591e48185919195960621b60448201526064016108ef565b5f6001600160a01b0316600582604051611ba69190612c9e565b908152604051908190036020019020546001600160a01b031614611c045760405162461bcd60e51b81526020600482015260156024820152742730b6b29034b99030b63932b0b23c903a30b5b2b760591b60448201526064016108ef565b5f80546001810182557f290decd9548b62a8d60345a988386fc84ba6bc95484008f6362f93160ef3e5630180546001600160a01b0319166001600160a01b0385169081179091558152600660205260409020611c608282612dd8565b5081600582604051611c729190612c9e565b908152604080516020928190038301902080546001600160a01b0319166001600160a01b039485161790559184165f9081526004909152908120805460ff1916600117905560607f7c803c00251fe8138e27cfa8286be8d98625e5f6476ca6ca594f682362b711208484604051611cea929190613044565b60405180910390a150505050565b81516020818401810180516011825292820191850191909120919052805482908110611d22575f80fd5b5f918252602090912001546001600160a01b03169150829050565b600a546001600160a01b03163314611d675760405162461bcd60e51b81526004016108ef90612fdf565b8051825114611db85760405162461bcd60e51b815260206004820152601a60248201527f4172726179206c656e6774687320646f206e6f74206d6174636800000000000060448201526064016108ef565b5f5b8151811015611e5957601554828281518110611dd857611dd8612b08565b60200260200101511115611e5157601554828281518110611dfb57611dfb612b08565b60200260200101511115611e515760405162461bcd60e51b815260206004820152601b60248201527f417070726563696174696f6e2076616c756520746f6f2068696768000000000060448201526064016108ef565b600101611dba565b505f5b82518110156113ec57818181518110611e7757611e77612b08565b60200260200101516014848381518110611e9357611e93612b08565b6020026020010151604051611ea89190612c9e565b908152602001604051809103902081905550818181518110611ecc57611ecc612b08565b602002602001015160135f828254611ee49190612f13565b9091555050600101611e5c565b60098054610f2a90612b1c565b60038054610f2a90612b1c565b5f6a636f6e736f6c652e6c6f6790505f80835160208501845afa505050565b5f80805f19858709858702925082811083820303915050805f03611f5e575f8411611f53575f80fd5b508290049050612094565b808411611f69575f80fd5b5f848688098084039381119092039190505f85611f8881196001612f13565b16958690049593849004935f819003046001019050611fa78184613067565b909317925f611fb7876003613067565b6002189050611fc68188613067565b611fd1906002612aef565b611fdb9082613067565b9050611fe78188613067565b611ff2906002612aef565b611ffc9082613067565b90506120088188613067565b612013906002612aef565b61201d9082613067565b90506120298188613067565b612034906002612aef565b61203e9082613067565b905061204a8188613067565b612055906002612aef565b61205f9082613067565b905061206b8188613067565b612076906002612aef565b6120809082613067565b905061208c8186613067565b955050505050505b9392505050565b600a546001600160a01b031633146121095760405162461bcd60e51b815260206004820152602b60248201527f4f6e6c792063726561746f722063616e207375626d697420616e20757365722060448201526a31b630b4b69022ba3432b960a91b60648201526084016108ef565b5f600f8360405161211a9190612c9e565b9081526040519081900360200190205490506001600160a01b0382166121825760405162461bcd60e51b815260206004820152601b60248201527f496e76616c69642062656e65666963696172792061646472657373000000000060448201526064016108ef565b8015612224575f80836001600160a01b0316836040515f6040518083038185875af1925050503d805f81146121d2576040519150601f19603f3d011682016040523d82523d5f602084013e6121d7565b606091505b5091509150816122215760405162461bcd60e51b815260206004820152601560248201527410db185a5b5a5b99c8115d1a195c8819985a5b1959605a1b60448201526064016108ef565b50505b5f600f846040516122359190612c9e565b90815260405190819003602001902055505050565b600a546001600160a01b031633146122b95760405162461bcd60e51b815260206004820152602c60248201527f4f6e6c792063726561746f722063616e207375626d697420616e20757365722060448201526b636c61696d20546f6b656e7360a01b60648201526084016108ef565b5f6011836040516122ca9190612c9e565b908152604080519182900360209081018320805480830285018301909352828452919083018282801561232457602002820191905f5260205f20905b81546001600160a01b03168152600190910190602001808311612306575b505050505090505f5b60118460405161233d9190612c9e565b908152604051908190036020019020548110156124fe575f82828151811061236757612367612b08565b602002602001015190505f6010866040516123829190612c9e565b90815260200160405180910390205f8585815181106123a3576123a3612b08565b60200260200101516001600160a01b03166001600160a01b031681526020019081526020015f205490505f8111156124f4575f6010876040516123e69190612c9e565b90815260200160405180910390205f86868151811061240757612407612b08565b60200260200101516001600160a01b03166001600160a01b031681526020019081526020015f20819055508060125f86868151811061244857612448612b08565b60200260200101516001600160a01b03166001600160a01b031681526020019081526020015f205f82825461247d9190612aef565b909155505060405163a9059cbb60e01b81526001600160a01b0386811660048301526024820183905283169063a9059cbb906044016020604051808303815f875af11580156124ce573d5f803e3d5ffd5b505050506040513d601f19601f820116820180604052508101906124f29190612c7f565b505b505060010161232d565b50505050565b61250c61307e565b565b634e487b7160e01b5f52604160045260245ffd5b604051601f8201601f191681016001600160401b038111828210171561254a5761254a61250e565b604052919050565b5f82601f830112612561575f80fd5b81356001600160401b0381111561257a5761257a61250e565b61258d601f8201601f1916602001612522565b8181528460208386010111156125a1575f80fd5b816020850160208301375f918101602001919091529392505050565b5f602082840312156125cd575f80fd5b81356001600160401b038111156125e2575f80fd5b6125ee84828501612552565b949350505050565b5f5b838110156126105781810151838201526020016125f8565b50505f910152565b5f815180845261262f8160208601602086016125f6565b601f01601f19169290920160200192915050565b602081525f6120946020830184612618565b6001600160a01b0381168114612669575f80fd5b50565b5f6020828403121561267c575f80fd5b813561209481612655565b5f8083601f840112612697575f80fd5b5081356001600160401b038111156126ad575f80fd5b6020830191508360208285010111156126c4575f80fd5b9250929050565b5f805f805f606086880312156126df575f80fd5b85356001600160401b03808211156126f5575f80fd5b61270189838a01612687565b90975095506020880135915080821115612719575f80fd5b5061272688828901612687565b96999598509660400135949350505050565b5f8060408385031215612749575f80fd5b823561275481612655565b946020939093013593505050565b5f805f60608486031215612774575f80fd5b83356001600160401b03811115612789575f80fd5b61279586828701612552565b93505060208401356127a681612655565b929592945050506040919091013590565b602080825282518282018190525f9190848201906040850190845b818110156127f75783516001600160a01b0316835292840192918401916001016127d2565b50909695505050505050565b5f8060208385031215612814575f80fd5b82356001600160401b03811115612829575f80fd5b61283585828601612687565b90969095509350505050565b5f8060408385031215612852575f80fd5b82356001600160401b03811115612867575f80fd5b61287385828601612552565b95602094909401359450505050565b5f8060408385031215612893575f80fd5b823561289e81612655565b915060208301356001600160401b038111156128b8575f80fd5b6128c485828601612552565b9150509250929050565b5f602082840312156128de575f80fd5b5035919050565b5f80604083850312156128f6575f80fd5b82356001600160401b0381111561290b575f80fd5b61291785828601612552565b925050602083013561292881612655565b809150509250929050565b5f6001600160401b0382111561294b5761294b61250e565b5060051b60200190565b5f82601f830112612964575f80fd5b8135602061297961297483612933565b612522565b82815260059290921b84018101918181019086841115612997575f80fd5b8286015b848110156129d45780356001600160401b038111156129b8575f80fd5b6129c68986838b0101612552565b84525091830191830161299b565b509695505050505050565b5f602082840312156129ef575f80fd5b81356001600160401b03811115612a04575f80fd5b6125ee84828501612955565b5f8060408385031215612a21575f80fd5b82356001600160401b0380821115612a37575f80fd5b612a4386838701612955565b9350602091508185013581811115612a59575f80fd5b85019050601f81018613612a6b575f80fd5b8035612a7961297482612933565b81815260059190911b82018301908381019088831115612a97575f80fd5b928401925b82841015612ab557833582529284019290840190612a9c565b80955050505050509250929050565b5f60208284031215612ad4575f80fd5b5051919050565b634e487b7160e01b5f52601160045260245ffd5b81810381811115612b0257612b02612adb565b92915050565b634e487b7160e01b5f52603260045260245ffd5b600181811c90821680612b3057607f821691505b602082108103612b4e57634e487b7160e01b5f52602260045260245ffd5b50919050565b5f808354612b6181612b1c565b60018281168015612b795760018114612b8e57612bba565b60ff1984168752821515830287019450612bba565b875f526020805f205f5b85811015612bb15781548a820152908401908201612b98565b50505082870194505b50929695505050505050565b5f82612be057634e487b7160e01b5f52601260045260245ffd5b500490565b5f8154612bf181612b1c565b808552602060018381168015612c0e5760018114612c2857612c53565b60ff1985168884015283151560051b880183019550612c53565b865f52825f205f5b85811015612c4b5781548a8201860152908301908401612c30565b890184019650505b505050505092915050565b604081525f612c706040830185612be5565b90508260208301529392505050565b5f60208284031215612c8f575f80fd5b81518015158114612094575f80fd5b5f8251612caf8184602087016125f6565b9190910192915050565b606081525f612ccb6060830186612be5565b6001600160a01b039490941660208301525060400152919050565b838152826020820152606060408201525f612d046060830184612618565b95945050505050565b60208082526029908201527f52657175657374207375626d69747465642062792061206e6f6e2d6d656d626560408201526872206164647265737360b81b606082015260800190565b634e487b7160e01b5f52603160045260245ffd5b6001600160a01b03831681526040602082018190525f906125ee90830184612be5565b601f8211156113ec57805f5260205f20601f840160051c81016020851015612db25750805b601f840160051c820191505b81811015612dd1575f8155600101612dbe565b5050505050565b81516001600160401b03811115612df157612df161250e565b612e0581612dff8454612b1c565b84612d8d565b602080601f831160018114612e38575f8415612e215750858301515b5f19600386901b1c1916600185901b178555612e8f565b5f85815260208120601f198616915b82811015612e6657888601518255948401946001909101908401612e47565b5085821015612e8357878501515f19600388901b60f8161c191681555b505060018460011b0185555b505050505050565b81835281816020850137505f828201602090810191909152601f909101601f19169091010190565b606081525f612ed2606083018789612e97565b8281036020840152612ee5818688612e97565b9150508260408301529695505050505050565b5f60208284031215612f08575f80fd5b815161209481612655565b80820180821115612b0257612b02612adb565b6001600160401b03831115612f3d57612f3d61250e565b612f5183612f4b8354612b1c565b83612d8d565b5f601f841160018114612f82575f8515612f6b5750838201355b5f19600387901b1c1916600186901b178355612dd1565b5f83815260208120601f198716915b82811015612fb15786850135825560209485019460019092019101612f91565b5086821015612fcd575f1960f88860031b161c19848701351681555b505060018560011b0183555050505050565b60208082526021908201527f4f6e6c792063726561746f722063616e2073657420617070726563696174696f6040820152603760f91b606082015260800190565b604081525f6130326040830185612be5565b8281036020840152612d048185612618565b6001600160a01b03831681526040602082018190525f906125ee90830184612618565b8082028115828204841417612b0257612b02612adb565b634e487b7160e01b5f52605160045260245ffdfe7d6a6b7452c2fec7981096e354fb3311f3f3b800ff27def1017b22cbff275190a264697066735822122038ecbec4487a83ca9fbe7ebb8998591f2c766bbad3965b7b8d4c953d7746a90764736f6c634300081700334d616e616765642e636f6e7374727563746f723a20536574206f776e657220746f2063726561746f72207769746820616464726573733a20a264697066735822122039d5afce9caef9bbfbf603866cc7c2feda99ba44e18063df9a1b78b20c9eefad64736f6c63430008170033","linkReferences":{}},"methodIdentifiers":{"createManaged(string,string)":"4748e13d","listHolons()":"e5c23374","listHolonsOf(address)":"dfee5717","newHolon(string,string,uint256)":"0babba86","toAddress(string)":"7e4115ba"},"id":37}