{
  "_format": "hh-sol-artifact-1",
  "contractName": "Managed",
  "sourceName": "contracts/Managed.sol",
  "abi": [
    {
      "inputs": [
        {
          "internalType": "address",
          "name": "_creator",
          "type": "address"
        },
        {
          "internalType": "string",
          "name": "_name",
          "type": "string"
        }
      ],
      "stateMutability": "nonpayable",
      "type": "constructor"
    },
    {
      "anonymous": false,
      "inputs": [
        {
          "indexed": false,
          "internalType": "address",
          "name": "member",
          "type": "address"
        },
        {
          "indexed": false,
          "internalType": "string",
          "name": "name",
          "type": "string"
        }
      ],
      "name": "AddedMember",
      "type": "event"
    },
    {
      "anonymous": false,
      "inputs": [
        {
          "indexed": false,
          "internalType": "string",
          "name": "namefrom",
          "type": "string"
        },
        {
          "indexed": false,
          "internalType": "string",
          "name": "nameto",
          "type": "string"
        }
      ],
      "name": "ChangedName",
      "type": "event"
    },
    {
      "anonymous": false,
      "inputs": [
        {
          "indexed": false,
          "internalType": "address",
          "name": "holon",
          "type": "address"
        },
        {
          "indexed": false,
          "internalType": "string",
          "name": "token",
          "type": "string"
        },
        {
          "indexed": false,
          "internalType": "uint256",
          "name": "amount",
          "type": "uint256"
        }
      ],
      "name": "HolonRewarded",
      "type": "event"
    },
    {
      "anonymous": false,
      "inputs": [
        {
          "indexed": false,
          "internalType": "address",
          "name": "member",
          "type": "address"
        },
        {
          "indexed": false,
          "internalType": "string",
          "name": "name",
          "type": "string"
        }
      ],
      "name": "RemovedMember",
      "type": "event"
    },
    {
      "anonymous": false,
      "inputs": [
        {
          "indexed": true,
          "internalType": "address",
          "name": "member",
          "type": "address"
        },
        {
          "indexed": false,
          "internalType": "address",
          "name": "token",
          "type": "address"
        },
        {
          "indexed": false,
          "internalType": "uint256",
          "name": "amount",
          "type": "uint256"
        }
      ],
      "name": "RewardFailed",
      "type": "event"
    },
    {
      "anonymous": false,
      "inputs": [
        {
          "indexed": true,
          "internalType": "string",
          "name": "step",
          "type": "string"
        }
      ],
      "name": "Step",
      "type": "event"
    },
    {
      "stateMutability": "payable",
      "type": "fallback"
    },
    {
      "inputs": [
        {
          "internalType": "string",
          "name": "_userId",
          "type": "string"
        }
      ],
      "name": "addMember",
      "outputs": [],
      "stateMutability": "nonpayable",
      "type": "function"
    },
    {
      "inputs": [
        {
          "internalType": "address",
          "name": "_memberaddress",
          "type": "address"
        },
        {
          "internalType": "string",
          "name": "_membername",
          "type": "string"
        }
      ],
      "name": "addMember",
      "outputs": [],
      "stateMutability": "nonpayable",
      "type": "function"
    },
    {
      "inputs": [
        {
          "internalType": "string[]",
          "name": "_userIds",
          "type": "string[]"
        }
      ],
      "name": "addMembers",
      "outputs": [],
      "stateMutability": "nonpayable",
      "type": "function"
    },
    {
      "inputs": [
        {
          "internalType": "address",
          "name": "_parentaddress",
          "type": "address"
        }
      ],
      "name": "addParent",
      "outputs": [],
      "stateMutability": "nonpayable",
      "type": "function"
    },
    {
      "inputs": [
        {
          "internalType": "string",
          "name": "",
          "type": "string"
        }
      ],
      "name": "appreciation",
      "outputs": [
        {
          "internalType": "uint256",
          "name": "",
          "type": "uint256"
        }
      ],
      "stateMutability": "view",
      "type": "function"
    },
    {
      "inputs": [
        {
          "internalType": "address",
          "name": "_address",
          "type": "address"
        },
        {
          "internalType": "string",
          "name": "_name",
          "type": "string"
        }
      ],
      "name": "changeName",
      "outputs": [],
      "stateMutability": "nonpayable",
      "type": "function"
    },
    {
      "inputs": [
        {
          "internalType": "address",
          "name": "_address",
          "type": "address"
        }
      ],
      "name": "changeOwner",
      "outputs": [],
      "stateMutability": "nonpayable",
      "type": "function"
    },
    {
      "inputs": [
        {
          "internalType": "string",
          "name": "_userId",
          "type": "string"
        },
        {
          "internalType": "address",
          "name": "_beneficiary",
          "type": "address"
        }
      ],
      "name": "claim",
      "outputs": [],
      "stateMutability": "nonpayable",
      "type": "function"
    },
    {
      "inputs": [],
      "name": "creator",
      "outputs": [
        {
          "internalType": "address",
          "name": "",
          "type": "address"
        }
      ],
      "stateMutability": "view",
      "type": "function"
    },
    {
      "inputs": [
        {
          "internalType": "string",
          "name": "_userId",
          "type": "string"
        },
        {
          "internalType": "uint256",
          "name": "amount",
          "type": "uint256"
        }
      ],
      "name": "depositEtherForUser",
      "outputs": [],
      "stateMutability": "payable",
      "type": "function"
    },
    {
      "inputs": [
        {
          "internalType": "string",
          "name": "_userId",
          "type": "string"
        },
        {
          "internalType": "address",
          "name": "_tokenAddress",
          "type": "address"
        },
        {
          "internalType": "uint256",
          "name": "_amount",
          "type": "uint256"
        }
      ],
      "name": "depositTokenForUser",
      "outputs": [],
      "stateMutability": "nonpayable",
      "type": "function"
    },
    {
      "inputs": [
        {
          "internalType": "string",
          "name": "",
          "type": "string"
        }
      ],
      "name": "etherBalance",
      "outputs": [
        {
          "internalType": "uint256",
          "name": "",
          "type": "uint256"
        }
      ],
      "stateMutability": "view",
      "type": "function"
    },
    {
      "inputs": [],
      "name": "flavor",
      "outputs": [
        {
          "internalType": "string",
          "name": "",
          "type": "string"
        }
      ],
      "stateMutability": "view",
      "type": "function"
    },
    {
      "inputs": [],
      "name": "getSize",
      "outputs": [
        {
          "internalType": "uint256",
          "name": "",
          "type": "uint256"
        }
      ],
      "stateMutability": "view",
      "type": "function"
    },
    {
      "inputs": [
        {
          "internalType": "string",
          "name": "",
          "type": "string"
        }
      ],
      "name": "hasClaimed",
      "outputs": [
        {
          "internalType": "bool",
          "name": "",
          "type": "bool"
        }
      ],
      "stateMutability": "view",
      "type": "function"
    },
    {
      "inputs": [
        {
          "internalType": "string",
          "name": "",
          "type": "string"
        }
      ],
      "name": "isManagedMember",
      "outputs": [
        {
          "internalType": "bool",
          "name": "",
          "type": "bool"
        }
      ],
      "stateMutability": "view",
      "type": "function"
    },
    {
      "inputs": [
        {
          "internalType": "address",
          "name": "",
          "type": "address"
        }
      ],
      "name": "isMember",
      "outputs": [
        {
          "internalType": "bool",
          "name": "",
          "type": "bool"
        }
      ],
      "stateMutability": "view",
      "type": "function"
    },
    {
      "inputs": [],
      "name": "listMembers",
      "outputs": [
        {
          "internalType": "address payable[]",
          "name": "",
          "type": "address[]"
        }
      ],
      "stateMutability": "view",
      "type": "function"
    },
    {
      "inputs": [],
      "name": "listParents",
      "outputs": [
        {
          "internalType": "address[]",
          "name": "",
          "type": "address[]"
        }
      ],
      "stateMutability": "view",
      "type": "function"
    },
    {
      "inputs": [],
      "name": "manifest",
      "outputs": [
        {
          "internalType": "string",
          "name": "",
          "type": "string"
        }
      ],
      "stateMutability": "view",
      "type": "function"
    },
    {
      "inputs": [],
      "name": "name",
      "outputs": [
        {
          "internalType": "string",
          "name": "",
          "type": "string"
        }
      ],
      "stateMutability": "view",
      "type": "function"
    },
    {
      "inputs": [
        {
          "internalType": "string",
          "name": "_flavor",
          "type": "string"
        },
        {
          "internalType": "string",
          "name": "_name",
          "type": "string"
        },
        {
          "internalType": "uint256",
          "name": "_parameter",
          "type": "uint256"
        }
      ],
      "name": "newHolon",
      "outputs": [
        {
          "internalType": "address",
          "name": "",
          "type": "address"
        }
      ],
      "stateMutability": "nonpayable",
      "type": "function"
    },
    {
      "inputs": [
        {
          "internalType": "address",
          "name": "_memberaddress",
          "type": "address"
        }
      ],
      "name": "removeMember",
      "outputs": [],
      "stateMutability": "nonpayable",
      "type": "function"
    },
    {
      "inputs": [
        {
          "internalType": "address",
          "name": "_tokenaddress",
          "type": "address"
        },
        {
          "internalType": "uint256",
          "name": "_tokenamount",
          "type": "uint256"
        }
      ],
      "name": "reward",
      "outputs": [],
      "stateMutability": "payable",
      "type": "function"
    },
    {
      "inputs": [
        {
          "internalType": "string[]",
          "name": "_userIds",
          "type": "string[]"
        },
        {
          "internalType": "uint256[]",
          "name": "_appreciationAmounts",
          "type": "uint256[]"
        }
      ],
      "name": "setAppreciation",
      "outputs": [],
      "stateMutability": "nonpayable",
      "type": "function"
    },
    {
      "inputs": [
        {
          "internalType": "string",
          "name": "_IPFSHash",
          "type": "string"
        }
      ],
      "name": "setManifest",
      "outputs": [],
      "stateMutability": "nonpayable",
      "type": "function"
    },
    {
      "inputs": [
        {
          "internalType": "string",
          "name": "_userId",
          "type": "string"
        },
        {
          "internalType": "uint256",
          "name": "_appreciationAmount",
          "type": "uint256"
        }
      ],
      "name": "setUserAppreciation",
      "outputs": [],
      "stateMutability": "nonpayable",
      "type": "function"
    },
    {
      "inputs": [
        {
          "internalType": "string",
          "name": "",
          "type": "string"
        }
      ],
      "name": "toAddress",
      "outputs": [
        {
          "internalType": "address",
          "name": "",
          "type": "address"
        }
      ],
      "stateMutability": "view",
      "type": "function"
    },
    {
      "inputs": [
        {
          "internalType": "address",
          "name": "",
          "type": "address"
        }
      ],
      "name": "toName",
      "outputs": [
        {
          "internalType": "string",
          "name": "",
          "type": "string"
        }
      ],
      "stateMutability": "view",
      "type": "function"
    },
    {
      "inputs": [
        {
          "internalType": "string",
          "name": "",
          "type": "string"
        },
        {
          "internalType": "address",
          "name": "",
          "type": "address"
        }
      ],
      "name": "tokenBalance",
      "outputs": [
        {
          "internalType": "uint256",
          "name": "",
          "type": "uint256"
        }
      ],
      "stateMutability": "view",
      "type": "function"
    },
    {
      "inputs": [
        {
          "internalType": "string",
          "name": "",
          "type": "string"
        },
        {
          "internalType": "uint256",
          "name": "",
          "type": "uint256"
        }
      ],
      "name": "tokensOf",
      "outputs": [
        {
          "internalType": "address",
          "name": "",
          "type": "address"
        }
      ],
      "stateMutability": "view",
      "type": "function"
    },
    {
      "inputs": [
        {
          "internalType": "address",
          "name": "",
          "type": "address"
        }
      ],
      "name": "totalDeposited",
      "outputs": [
        {
          "internalType": "uint256",
          "name": "",
          "type": "uint256"
        }
      ],
      "stateMutability": "view",
      "type": "function"
    },
    {
      "inputs": [],
      "name": "totalappreciation",
      "outputs": [
        {
          "internalType": "uint256",
          "name": "",
          "type": "uint256"
        }
      ],
      "stateMutability": "view",
      "type": "function"
    },
    {
      "inputs": [
        {
          "internalType": "string",
          "name": "",
          "type": "string"
        }
      ],
      "name": "userIdToAddress",
      "outputs": [
        {
          "internalType": "address",
          "name": "",
          "type": "address"
        }
      ],
      "stateMutability": "view",
      "type": "function"
    },
    {
      "inputs": [
        {
          "internalType": "uint256",
          "name": "",
          "type": "uint256"
        }
      ],
      "name": "userIds",
      "outputs": [
        {
          "internalType": "string",
          "name": "",
          "type": "string"
        }
      ],
      "stateMutability": "view",
      "type": "function"
    },
    {
      "inputs": [],
      "name": "version",
      "outputs": [
        {
          "internalType": "string",
          "name": "",
          "type": "string"
        }
      ],
      "stateMutability": "view",
      "type": "function"
    },
    {
      "stateMutability": "payable",
      "type": "receive"
    }
  ],
  "bytecode": "0x60806040523480156200001157600080fd5b50604051620036913803806200369183398101604081905262000034916200012e565b600280546001600160a01b0319163217905580516200005b90600790602084019062000088565b5050600a80546001600160a01b0319166001600160a01b0392909216919091179055600060135562000273565b828054620000969062000220565b90600052602060002090601f016020900481019282620000ba576000855562000105565b82601f10620000d557805160ff191683800117855562000105565b8280016001018555821562000105579182015b8281111562000105578251825591602001919060010190620000e8565b506200011392915062000117565b5090565b5b8082111562000113576000815560010162000118565b6000806040838503121562000141578182fd5b82516001600160a01b038116811462000158578283fd5b602084810151919350906001600160401b038082111562000177578384fd5b818601915086601f8301126200018b578384fd5b815181811115620001a057620001a06200025d565b604051601f8201601f1916810185018381118282101715620001c657620001c66200025d565b6040528181528382018501891015620001dd578586fd5b8592505b81831015620002005783830185015181840186015291840191620001e1565b818311156200021157858583830101525b80955050505050509250929050565b6002810460018216806200023557607f821691505b602082108114156200025757634e487b7160e01b600052602260045260246000fd5b50919050565b634e487b7160e01b600052604160045260246000fd5b61340e80620002836000396000f3fe6080604052600436106102135760003560e01c80637e4115ba11610118578063c127c247116100a0578063d7def8e71161006f578063d7def8e7146105fe578063de8fa4311461061e578063f155966314610633578063f59e4f6514610653578063f5baf0d71461066857610225565b8063c127c2471461057e578063c21be6ae1461059e578063ca224313146105be578063cc184948146105de57610225565b8063a230c524116100e7578063a230c524146104f4578063a6f9dae114610514578063acf36e5314610534578063b6afd2ca14610554578063b766f86f1461056957610225565b80637e4115ba14610474578063804d74701461049457806381bc3f8c146104b4578063918f9687146104d457610225565b806332a1e1641161019b578063530554811161016a57806353055481146103ec57806354fd4d501461040c57806357a325341461042157806360a1da831461044157806378bef78b1461046157610225565b806332a1e1641461035f578063363454ee1461037f57806345ca25ed146103ac5780634635fd68146103cc57610225565b80630babba86116101e25780630babba86146102ca57806321670f22146102ea5780632615c3c7146102fd57806329b84d091461031d5780633113a2ae1461033d57610225565b806302d05d3f1461023057806305f182ae1461025b57806306fdde03146102885780630b1ca49a146102aa57610225565b366102255761022360003461067d565b005b61022360003461067d565b34801561023c57600080fd5b50610245610e55565b6040516102529190612c6e565b60405180910390f35b34801561026757600080fd5b5061027b61027636600461270e565b610e64565b6040516102529190613232565b34801561029457600080fd5b5061029d610e81565b6040516102529190612d75565b3480156102b657600080fd5b506102236102c5366004612496565b610f0f565b3480156102d657600080fd5b506102456102e536600461269e565b6110d6565b6102236102f8366004612522565b61067d565b34801561030957600080fd5b5061022361031836600461278f565b61116e565b34801561032957600080fd5b5061022361033836600461265f565b611275565b34801561034957600080fd5b506103526112b0565b6040516102529190612ce3565b34801561036b57600080fd5b5061022361037a3660046127e6565b611312565b34801561038b57600080fd5b5061039f61039a36600461270e565b61137a565b6040516102529190612d30565b3480156103b857600080fd5b506102236103c73660046124d5565b61139a565b3480156103d857600080fd5b5061029d6103e7366004612828565b611494565b3480156103f857600080fd5b5061027b610407366004612496565b6114bf565b34801561041857600080fd5b5061029d6114d1565b34801561042d57600080fd5b5061027b61043c36600461270e565b6114de565b34801561044d57600080fd5b5061022361045c366004612740565b6114fb565b61022361046f3660046127e6565b611600565b34801561048057600080fd5b5061024561048f36600461270e565b61162e565b3480156104a057600080fd5b506102236104af36600461254d565b611654565b3480156104c057600080fd5b5061029d6104cf366004612496565b61176e565b3480156104e057600080fd5b506102236104ef36600461270e565b611787565b34801561050057600080fd5b5061039f61050f366004612496565b611856565b34801561052057600080fd5b5061022361052f366004612496565b61186b565b34801561054057600080fd5b5061022361054f366004612496565b6118b7565b34801561056057600080fd5b50610352611908565b34801561057557600080fd5b5061027b611968565b34801561058a57600080fd5b506102236105993660046124d5565b61196e565b3480156105aa57600080fd5b506102456105b936600461270e565b611c86565b3480156105ca57600080fd5b5061027b6105d9366004612740565b611cac565b3480156105ea57600080fd5b506102456105f93660046127e6565b611cd9565b34801561060a57600080fd5b5061039f61061936600461270e565b611d20565b34801561062a57600080fd5b5061027b611d40565b34801561063f57600080fd5b5061022361064e366004612587565b611d46565b34801561065f57600080fd5b5061029d611e5f565b34801561067457600080fd5b5061029d611e6c565b60008060003411801561069757506001600160a01b038416155b156106d257349250600191506040516106af90612b65565b604051908190038120906000805160206133b983398151915290600090a26107c1565b8390506040516106e190612a1a565b604051908190038120906000805160206133b983398151915290600090a26001600160a01b03808516600090815260126020526040908190205490516370a0823160e01b815285928416906370a0823190610740903090600401612c6e565b60206040518083038186803b15801561075857600080fd5b505afa15801561076c573d6000803e3d6000fd5b505050506040513d601f19601f820116820180604052508101906107909190612840565b61079a91906132de565b10156107c15760405162461bcd60e51b81526004016107b890612fd9565b60405180910390fd5b6000805b600b54811015610e4d576013541561086957601354856014600b84815481106107fe57634e487b7160e01b600052603260045260246000fd5b906000526020600020016040516108159190612941565b90815260200160405180910390205461082e91906132bf565b610838919061329f565b915060405161084690612b18565b604051908190038120906000805160206133b983398151915290600090a26108a3565b600b54610876908661329f565b915060405161088490612a81565b604051908190038120906000805160206133b983398151915290600090a25b8115610e3b576040516108b590612a64565b604051908190038120906000805160206133b983398151915290600090a28315610b03576040516108e590612a43565b604051908190038120906000805160206133b983398151915290600090a2600d600b828154811061092657634e487b7160e01b600052603260045260246000fd5b9060005260206000200160405161093d9190612941565b9081526040519081900360200190205460ff1615610a4957604051610961906129b0565b604051908190038120906000805160206133b983398151915290600090a26000600c600b83815481106109a457634e487b7160e01b600052603260045260246000fd5b906000526020600020016040516109bb9190612941565b908152604051908190036020018120546001600160a01b03169084906109e090612b62565b60006040518083038185875af1925050503d8060008114610a1d576040519150601f19603f3d011682016040523d82523d6000602084013e610a22565b606091505b5050905080610a435760405162461bcd60e51b81526004016107b890612e3d565b50610afe565b604051610a5590612aaa565b604051908190038120906000805160206133b983398151915290600090a2306001600160a01b03166378bef78b600b8381548110610aa357634e487b7160e01b600052603260045260246000fd5b90600052602060002001846040518363ffffffff1660e01b8152600401610acb929190612de4565b600060405180830381600087803b158015610ae557600080fd5b505af1158015610af9573d6000803e3d6000fd5b505050505b610e3b565b604051610b0f90612b41565b604051908190038120906000805160206133b983398151915290600090a2600d600b8281548110610b5057634e487b7160e01b600052603260045260246000fd5b90600052602060002001604051610b679190612941565b9081526040519081900360200190205460ff1615610d8457604051610b8b90612b8e565b604051908190038120906000805160206133b983398151915290600090a2826001600160a01b031663a9059cbb600c600b8481548110610bdb57634e487b7160e01b600052603260045260246000fd5b90600052602060002001604051610bf29190612941565b908152604051908190036020018120546001600160e01b031960e084901b168252610c2d916001600160a01b03909116908690600401612cca565b602060405180830381600087803b158015610c4757600080fd5b505af1158015610c5b573d6000803e3d6000fd5b505050506040513d601f19601f82011682018060405250810190610c7f919061263f565b506000600c600b8381548110610ca557634e487b7160e01b600052603260045260246000fd5b90600052602060002001604051610cbc9190612941565b908152604051908190036020018120546001600160a01b031690610ce69089908690602401612cca565b60408051601f198184030181529181526020820180516001600160e01b03166310b3879160e11b17905251610d1b9190612925565b6000604051808303816000865af19150503d8060008114610d58576040519150601f19603f3d011682016040523d82523d6000602084013e610d5d565b606091505b5050905080610d7e5760405162461bcd60e51b81526004016107b890612e9d565b50610e3b565b604051610d9090612bf9565b604051908190038120906000805160206133b983398151915290600090a2306001600160a01b0316632615c3c7600b8381548110610dde57634e487b7160e01b600052603260045260246000fd5b9060005260206000200188856040518463ffffffff1660e01b8152600401610e0893929190612d88565b600060405180830381600087803b158015610e2257600080fd5b505af1158015610e36573d6000803e3d6000fd5b505050505b80610e458161335c565b9150506107c5565b505050505050565b600a546001600160a01b031681565b805160208183018101805160148252928201919093012091525481565b60078054610e8e90613321565b80601f0160208091040260200160405190810160405280929190818152602001828054610eba90613321565b8015610f075780601f10610edc57610100808354040283529160200191610f07565b820191906000526020600020905b815481529060010190602001808311610eea57829003601f168201915b505050505081565b6002546001600160a01b03163314610f395760405162461bcd60e51b81526004016107b890613171565b60005b600054811015610fb857816001600160a01b031660008281548110610f7157634e487b7160e01b600052603260045260246000fd5b6000918252602090912001546001600160a01b03161415610fa65760008054634e487b7160e01b600052603260045260246000fd5b80610fb08161335c565b915050610f3c565b506000805480610fd857634e487b7160e01b600052603160045260246000fd5b60008281526020808220830160001990810180546001600160a01b03191690559092019092556001600160a01b0383168252600481526040808320805460ff1916905560069091529081902090517f982d6fac85d22cbbe833f9fe4278a909ca0f3b24ecc8b1f10fe63736e3c723139161105491849190612ca6565b60405180910390a16001600160a01b038116600090815260066020526040808220905160059161108391612941565b908152604080516020928190038301812080546001600160a01b0319166001600160a01b03958616179055828101808352600080835294861685526006909352922091516110d2929190612272565b5050565b600a546040516305d5dd4360e11b81526000916001600160a01b0316908190630babba8690611111908a908a908a908a908a90600401612d3b565b602060405180830381600087803b15801561112b57600080fd5b505af115801561113f573d6000803e3d6000fd5b505050506040513d601f19601f8201168201806040525081019061116391906124b9565b979650505050505050565b600082905060006010856040516111859190612925565b9081526040805191829003602090810183206001600160a01b038816600090815291522054915083906010906111bc908890612925565b90815260200160405180910390206000866001600160a01b03166001600160a01b0316815260200190815260200160002060008282546111fc9190613287565b9091555050604051601190611212908790612925565b9081526040805160209281900383019020805460018101825560009182528382200180546001600160a01b0319166001600160a01b0389169081179091558152601290925281208054859290611269908490613287565b90915550505050505050565b6002546001600160a01b0316331461129f5760405162461bcd60e51b81526004016107b890612edf565b6112ab600383836122f6565b505050565b6060600180548060200260200160405190810160405280929190818152602001828054801561130857602002820191906000526020600020905b81546001600160a01b031681526001909101906020018083116112ea575b5050505050905090565b600a546001600160a01b0316331461133c5760405162461bcd60e51b81526004016107b8906131ba565b8060148360405161134d9190612925565b90815260200160405180910390208190555080601360008282546113719190613287565b90915550505050565b8051602081830181018051600d8252928201919093012091525460ff1681565b6001600160a01b0382163314806113bb57506002546001600160a01b031633145b806113ce57506001600160a01b03821632145b6113ea5760405162461bcd60e51b81526004016107b89061311f565b816005826040516113fb9190612925565b908152604080516020928190038301812080546001600160a01b0319166001600160a01b039586161790559285166000908152600690925290207ffdcc9059d3426f73949b49e5d977553aa298184439da800d66f48959d9cc76b09161146391908490612db6565b60405180910390a16001600160a01b038216600090815260066020908152604090912082516112ab92840190612272565b600b81815481106114a457600080fd5b906000526020600020016000915090508054610e8e90613321565b60126020526000908152604090205481565b60088054610e8e90613321565b8051602081830181018051600f8252928201919093012091525481565b600d8260405161150b9190612925565b9081526040519081900360200190205460ff161561153b5760405162461bcd60e51b81526004016107b8906131fb565b60006001600160a01b0316600c836040516115569190612925565b908152604051908190036020019020546001600160a01b031614156115b65780600c836040516115869190612925565b90815260405190819003602001902080546001600160a01b03929092166001600160a01b03199092169190911790555b6115c08282611e79565b6115ca8282611f9b565b6001600d836040516115dc9190612925565b908152604051908190036020019020805491151560ff199092169190911790555050565b80600f836040516116119190612925565b908152602001604051809103902060008282546113719190613287565b80516020818301810180516005825292820191909301209152546001600160a01b031681565b600a546001600160a01b0316331461167e5760405162461bcd60e51b81526004016107b8906130b1565b60005b81518110156110d25760008282815181106116ac57634e487b7160e01b600052603260045260246000fd5b60200260200101519050600e816040516116c69190612925565b9081526040519081900360200190205460ff16156116e4575061175c565b6001600e826040516116f69190612925565b90815260405160209181900382019020805460ff191692151592909217909155600b80546001810182556000919091528251611759927f0175b7a638427703f0dbe7bb9bbf987a2551717b34e79f33b5b1008d1fa01db990920191840190612272565b50505b806117668161335c565b915050611681565b60066020526000908152604090208054610e8e90613321565b600a546001600160a01b031633146117b15760405162461bcd60e51b81526004016107b8906130b1565b600e816040516117c19190612925565b9081526040519081900360200190205460ff16156117de57611853565b6001600e826040516117f09190612925565b90815260405160209181900382019020805460ff191692151592909217909155600b805460018101825560009190915282516110d2927f0175b7a638427703f0dbe7bb9bbf987a2551717b34e79f33b5b1008d1fa01db990920191840190612272565b50565b60046020526000908152604090205460ff1681565b6002546001600160a01b031633146118955760405162461bcd60e51b81526004016107b890612f45565b600280546001600160a01b0319166001600160a01b0392909216919091179055565b6001805480820182556000919091527fb10e2d527612073b26eecdfd717e6a320cf44b4afac2b0732d9fcbe2b7fa0cf60180546001600160a01b0319166001600160a01b0392909216919091179055565b60606000805480602002602001604051908101604052809291908181526020018280548015611308576020028201919060005260206000209081546001600160a01b031681526001909101906020018083116112ea575050505050905090565b60135481565b3360009081526004602052604090205460ff1615156001148061199b57506002546001600160a01b031633145b6119b75760405162461bcd60e51b81526004016107b890613171565b6001600160a01b03821660009081526004602052604090205460ff16156119f05760405162461bcd60e51b81526004016107b890612f7c565b60006001600160a01b0316600582604051611a0b9190612925565b908152604051908190036020019020546001600160a01b031614611a415760405162461bcd60e51b81526004016107b890612f16565b600080546001810182557f290decd9548b62a8d60345a988386fc84ba6bc95484008f6362f93160ef3e5630180546001600160a01b0319166001600160a01b03851690811790915581526006602090815260409091208251611aa592840190612272565b5081600582604051611ab79190612925565b90815260408051918290036020908101832080546001600160a01b039586166001600160a01b031990911617905592851660008181526004909452908320805460ff19166001179055606091611b11903090602401612c6e565b60408051601f198184030181529181526020820180516001600160e01b031663acf36e5360e01b17905251611b469190612925565b600060405180830381855afa9150503d8060008114611b81576040519150601f19603f3d011682016040523d82523d6000602084013e611b86565b606091505b5090925090508115611c4757836001600160a01b031630604051602401611bad9190612c6e565b60408051601f198184030181529181526020820180516001600160e01b031663acf36e5360e01b17905251611be29190612925565b6000604051808303816000865af19150503d8060008114611c1f576040519150601f19603f3d011682016040523d82523d6000602084013e611c24565b606091505b50508092505081611c475760405162461bcd60e51b81526004016107b890612e66565b7f7c803c00251fe8138e27cfa8286be8d98625e5f6476ca6ca594f682362b711208484604051611c78929190612c82565b60405180910390a150505050565b8051602081830181018051600c825292820191909301209152546001600160a01b031681565b81516020818401810180516010825292820194820194909420919093529091526000908152604090205481565b81516020818401810180516011825292820191850191909120919052805482908110611d0457600080fd5b6000918252602090912001546001600160a01b03169150829050565b8051602081830181018051600e8252928201919093012091525460ff1681565b600b5490565b600a546001600160a01b03163314611d705760405162461bcd60e51b81526004016107b8906131ba565b8051825114611d915760405162461bcd60e51b81526004016107b8906130e8565b60005b82518110156112ab57818181518110611dbd57634e487b7160e01b600052603260045260246000fd5b60200260200101516014848381518110611de757634e487b7160e01b600052603260045260246000fd5b6020026020010151604051611dfc9190612925565b908152602001604051809103902081905550818181518110611e2e57634e487b7160e01b600052603260045260246000fd5b602002602001015160136000828254611e479190613287565b90915550819050611e578161335c565b915050611d94565b60098054610e8e90613321565b60038054610e8e90613321565b600a546001600160a01b03163314611ea35760405162461bcd60e51b81526004016107b890613066565b6000600f83604051611eb59190612925565b9081526040519081900360200190205490506001600160a01b038216611eed5760405162461bcd60e51b81526004016107b890612e06565b8015611f7457600080836001600160a01b031683604051611f0d90612b62565b60006040518083038185875af1925050503d8060008114611f4a576040519150601f19603f3d011682016040523d82523d6000602084013e611f4f565b606091505b509150915081611f715760405162461bcd60e51b81526004016107b890612faa565b50505b6000600f84604051611f869190612925565b90815260405190819003602001902055505050565b600a546001600160a01b03163314611fc55760405162461bcd60e51b81526004016107b89061301a565b6000601183604051611fd79190612925565b908152604080519182900360209081018320805480830285018301909352828452919083018282801561203357602002820191906000526020600020905b81546001600160a01b03168152600190910190602001808311612015575b5050505050905060005b60118460405161204d9190612925565b9081526040519081900360200190205481101561226c57600082828151811061208657634e487b7160e01b600052603260045260246000fd5b6020026020010151905060006010866040516120a29190612925565b908152602001604051809103902060008585815181106120d257634e487b7160e01b600052603260045260246000fd5b60200260200101516001600160a01b03166001600160a01b0316815260200190815260200160002054905060008111156122575760006010876040516121189190612925565b9081526020016040518091039020600086868151811061214857634e487b7160e01b600052603260045260246000fd5b60200260200101516001600160a01b03166001600160a01b0316815260200190815260200160002081905550806012600086868151811061219957634e487b7160e01b600052603260045260246000fd5b60200260200101516001600160a01b03166001600160a01b0316815260200190815260200160002060008282546121d091906132de565b909155505060405163a9059cbb60e01b81526001600160a01b0383169063a9059cbb906122039088908590600401612cca565b602060405180830381600087803b15801561221d57600080fd5b505af1158015612231573d6000803e3d6000fd5b505050506040513d601f19601f82011682018060405250810190612255919061263f565b505b505080806122649061335c565b91505061203d565b50505050565b82805461227e90613321565b90600052602060002090601f0160209004810192826122a057600085556122e6565b82601f106122b957805160ff19168380011785556122e6565b828001600101855582156122e6579182015b828111156122e65782518255916020019190600101906122cb565b506122f292915061236a565b5090565b82805461230290613321565b90600052602060002090601f01602090048101928261232457600085556122e6565b82601f1061233d5782800160ff198235161785556122e6565b828001600101855582156122e6579182015b828111156122e657823582559160200191906001019061234f565b5b808211156122f2576000815560010161236b565b600082601f83011261238f578081fd5b813560206123a461239f83613264565b61323b565b82815281810190858301855b858110156123d9576123c7898684358b010161242c565b845292840192908401906001016123b0565b5090979650505050505050565b60008083601f8401126123f7578182fd5b5081356001600160401b0381111561240d578182fd5b60208301915083602082850101111561242557600080fd5b9250929050565b600082601f83011261243c578081fd5b81356001600160401b038111156124555761245561338d565b612468601f8201601f191660200161323b565b81815284602083860101111561247c578283fd5b816020850160208301379081016020019190915292915050565b6000602082840312156124a7578081fd5b81356124b2816133a3565b9392505050565b6000602082840312156124ca578081fd5b81516124b2816133a3565b600080604083850312156124e7578081fd5b82356124f2816133a3565b915060208301356001600160401b0381111561250c578182fd5b6125188582860161242c565b9150509250929050565b60008060408385031215612534578182fd5b823561253f816133a3565b946020939093013593505050565b60006020828403121561255e578081fd5b81356001600160401b03811115612573578182fd5b61257f8482850161237f565b949350505050565b60008060408385031215612599578182fd5b82356001600160401b03808211156125af578384fd5b6125bb8683870161237f565b93506020915081850135818111156125d1578384fd5b85019050601f810186136125e3578283fd5b80356125f161239f82613264565b81815283810190838501858402850186018a101561260d578687fd5b8694505b8385101561262f578035835260019490940193918501918501612611565b5080955050505050509250929050565b600060208284031215612650578081fd5b815180151581146124b2578182fd5b60008060208385031215612671578182fd5b82356001600160401b03811115612686578283fd5b612692858286016123e6565b90969095509350505050565b6000806000806000606086880312156126b5578081fd5b85356001600160401b03808211156126cb578283fd5b6126d789838a016123e6565b909750955060208801359150808211156126ef578283fd5b506126fc888289016123e6565b96999598509660400135949350505050565b60006020828403121561271f578081fd5b81356001600160401b03811115612734578182fd5b61257f8482850161242c565b60008060408385031215612752578182fd5b82356001600160401b03811115612767578283fd5b6127738582860161242c565b9250506020830135612784816133a3565b809150509250929050565b6000806000606084860312156127a3578283fd5b83356001600160401b038111156127b8578384fd5b6127c48682870161242c565b93505060208401356127d5816133a3565b929592945050506040919091013590565b600080604083850312156127f8578182fd5b82356001600160401b0381111561280d578283fd5b6128198582860161242c565b95602094909401359450505050565b600060208284031215612839578081fd5b5035919050565b600060208284031215612851578081fd5b5051919050565b60008284528282602086013780602084860101526020601f19601f85011685010190509392505050565b6000815180845261289a8160208601602086016132f5565b601f01601f19169290920160200192915050565b600081546128bb81613321565b8085526020600183811680156128d857600181146128ec5761291a565b60ff1985168884015260408801955061291a565b866000528260002060005b858110156129125781548a82018601529083019084016128f7565b890184019650505b505050505092915050565b600082516129378184602087016132f5565b9190910192915050565b600080835461294f81613321565b600182811680156129675760018114612978576129a4565b60ff198416875282870194506129a4565b8786526020808720875b8581101561299b5781548a820152908401908201612982565b50505082870194505b50929695505050505050565b7f332e3320557365722068617320616c726561647920636c61696d65642c20736f81527f207765206172652073656e64696e6720746865206574686572206469726563746020820152716c7920746f2069742773206164647265737360701b604082015260520190565b7f312e3220497320746f6b656e2062617365642072657761726400000000000000815260190190565b740ccb8c88125d09dcc8195d1a195c881c995dd85c99605a1b815260150190565b700332e3120416d6f756e74206973203e203607c1b815260110190565b7f322e32204e6f6e6520617070726563696174696f6e20697320736861726564008152601f0190565b7f332e342055736572206861736e277420636c61696d6564206265666f72652c2081527f736f207765206172652073746f72696e672074686520657468657220696e20746020820152756f6b656e2062616c616e63652073747275637475726560501b604082015260560190565b7f322e3120416e7920617070726563696174696f6e2073686172656400000000008152601b0190565b740ccb8d08125d09dcc81d1bdad95b881c995dd85c99605a1b815260150190565b90565b7f312e312049732065746865722062617365642072657761726400000000000000815260190190565b7f332e3520557365722068617320616c726561647920636c61696d65642c20736f81527f207765206172652073656e64696e672074686520746f6b656e73206469726563602082015272746c7920746f2069742773206164647265737360681b604082015260530190565b7f332e362055736572206861736e277420636c61696d6564206265666f72652c2081527f736f207765206172652073746f72696e672074686520746f6b656e7320696e2060208201527f746f6b656e2062616c616e636520737472756374757265000000000000000000604082015260570190565b6001600160a01b0391909116815260200190565b6001600160a01b038316815260406020820181905260009061257f90830184612882565b6001600160a01b038316815260406020820181905260009061257f908301846128ae565b6001600160a01b03929092168252602082015260400190565b6020808252825182820181905260009190848201906040850190845b81811015612d245783516001600160a01b031683529284019291840191600101612cff565b50909695505050505050565b901515815260200190565b600060608252612d4f606083018789612858565b8281036020840152612d62818688612858565b9150508260408301529695505050505050565b6000602082526124b26020830184612882565b600060608252612d9b60608301866128ae565b6001600160a01b039490941660208301525060400152919050565b600060408252612dc960408301856128ae565b8281036020840152612ddb8185612882565b95945050505050565b600060408252612df760408301856128ae565b90508260208301529392505050565b6020808252601b908201527f496e76616c69642062656e656669636961727920616464726573730000000000604082015260600190565b6020808252600f908201526e151c985b9cd9995c8819985a5b1959608a1b604082015260600190565b60208082526017908201527f4661696c656420746f2063726561746520706172656e74000000000000000000604082015260600190565b60208082526022908201527f556e61626c6520746f2063616c6c20746865207265776172642066756e63746960408201526137b760f11b606082015260800190565b6020808252601f908201527f4f6e6c79206f776e65722063616e2073657420746865206d616e696665737400604082015260600190565b6020808252601590820152742730b6b29034b99030b63932b0b23c903a30b5b2b760591b604082015260600190565b6020808252601f908201527f4f6e6c79206f776e65722063616e206368616e676520746865206f776e657200604082015260600190565b60208082526014908201527313595b58995c88185b1c9958591e48185919195960621b604082015260600190565b60208082526015908201527410db185a5b5a5b99c8115d1a195c8819985a5b1959605a1b604082015260600190565b60208082526021908201527f4e6f7420656e6f75676820746f6b656e7320696e2074686520636f6e747261636040820152601d60fa1b606082015260800190565b6020808252602c908201527f4f6e6c792063726561746f722063616e207375626d697420616e20757365722060408201526b636c61696d20546f6b656e7360a01b606082015260800190565b6020808252602b908201527f4f6e6c792063726561746f722063616e207375626d697420616e20757365722060408201526a31b630b4b69022ba3432b960a91b606082015260800190565b6020808252601c908201527f4f6e6c792063726561746f722063616e20616464206d656d6265727300000000604082015260600190565b6020808252601a908201527f4172726179206c656e6774687320646f206e6f74206d61746368000000000000604082015260600190565b60208082526032908201527f4e616d65206368616e67652072657175657374206e6f742073656e742066726f604082015271369036b2b6b132b9103737b91037bbb732b960711b606082015260800190565b60208082526029908201527f52657175657374207375626d69747465642062792061206e6f6e2d6d656d626560408201526872206164647265737360b81b606082015260800190565b60208082526021908201527f4f6e6c792063726561746f722063616e2073657420617070726563696174696f6040820152603760f91b606082015260800190565b60208082526018908201527f557365722068617320616c726561647920636c61696d65640000000000000000604082015260600190565b90815260200190565b6040518181016001600160401b038111828210171561325c5761325c61338d565b604052919050565b60006001600160401b0382111561327d5761327d61338d565b5060209081020190565b6000821982111561329a5761329a613377565b500190565b6000826132ba57634e487b7160e01b81526012600452602481fd5b500490565b60008160001904831182151516156132d9576132d9613377565b500290565b6000828210156132f0576132f0613377565b500390565b60005b838110156133105781810151838201526020016132f8565b8381111561226c5750506000910152565b60028104600182168061333557607f821691505b6020821081141561335657634e487b7160e01b600052602260045260246000fd5b50919050565b600060001982141561337057613370613377565b5060010190565b634e487b7160e01b600052601160045260246000fd5b634e487b7160e01b600052604160045260246000fd5b6001600160a01b038116811461185357600080fdfe4ddc06bcad620c6c7af1720dd6b7097012c9d40eb05fd256c221c56656a4b654a2646970667358221220446a7cb70315f761dae48bcf8745118a32b80e74f1c40090851568c287655d7064736f6c63430008000033",
  "linkReferences": {},
  "deployedLinkReferences": {}
}