{
  "_format": "hh-sol-artifact-1",
  "contractName": "Membrane",
  "sourceName": "contracts/Membrane.sol",
  "abi": [
    {
      "inputs": [],
      "stateMutability": "nonpayable",
      "type": "constructor"
    },
    {
      "anonymous": false,
      "inputs": [
        {
          "indexed": false,
          "internalType": "address",
          "name": "member",
          "type": "address"
        },
        {
          "indexed": false,
          "internalType": "string",
          "name": "name",
          "type": "string"
        }
      ],
      "name": "AddedMember",
      "type": "event"
    },
    {
      "anonymous": false,
      "inputs": [
        {
          "indexed": false,
          "internalType": "string",
          "name": "namefrom",
          "type": "string"
        },
        {
          "indexed": false,
          "internalType": "string",
          "name": "nameto",
          "type": "string"
        }
      ],
      "name": "ChangedName",
      "type": "event"
    },
    {
      "anonymous": false,
      "inputs": [
        {
          "indexed": false,
          "internalType": "address",
          "name": "member",
          "type": "address"
        },
        {
          "indexed": false,
          "internalType": "string",
          "name": "name",
          "type": "string"
        }
      ],
      "name": "RemovedMember",
      "type": "event"
    },
    {
      "inputs": [
        {
          "internalType": "address",
          "name": "_memberaddress",
          "type": "address"
        },
        {
          "internalType": "string",
          "name": "_membername",
          "type": "string"
        }
      ],
      "name": "addMember",
      "outputs": [],
      "stateMutability": "nonpayable",
      "type": "function"
    },
    {
      "inputs": [
        {
          "internalType": "address",
          "name": "_parentaddress",
          "type": "address"
        }
      ],
      "name": "addParent",
      "outputs": [],
      "stateMutability": "nonpayable",
      "type": "function"
    },
    {
      "inputs": [
        {
          "internalType": "address",
          "name": "_address",
          "type": "address"
        },
        {
          "internalType": "string",
          "name": "_name",
          "type": "string"
        }
      ],
      "name": "changeName",
      "outputs": [],
      "stateMutability": "nonpayable",
      "type": "function"
    },
    {
      "inputs": [
        {
          "internalType": "address",
          "name": "_address",
          "type": "address"
        }
      ],
      "name": "changeOwner",
      "outputs": [],
      "stateMutability": "nonpayable",
      "type": "function"
    },
    {
      "inputs": [],
      "name": "getSize",
      "outputs": [
        {
          "internalType": "uint256",
          "name": "",
          "type": "uint256"
        }
      ],
      "stateMutability": "view",
      "type": "function"
    },
    {
      "inputs": [
        {
          "internalType": "address",
          "name": "",
          "type": "address"
        }
      ],
      "name": "isMember",
      "outputs": [
        {
          "internalType": "bool",
          "name": "",
          "type": "bool"
        }
      ],
      "stateMutability": "view",
      "type": "function"
    },
    {
      "inputs": [],
      "name": "listMembers",
      "outputs": [
        {
          "internalType": "address payable[]",
          "name": "",
          "type": "address[]"
        }
      ],
      "stateMutability": "view",
      "type": "function"
    },
    {
      "inputs": [],
      "name": "listParents",
      "outputs": [
        {
          "internalType": "address[]",
          "name": "",
          "type": "address[]"
        }
      ],
      "stateMutability": "view",
      "type": "function"
    },
    {
      "inputs": [],
      "name": "manifest",
      "outputs": [
        {
          "internalType": "string",
          "name": "",
          "type": "string"
        }
      ],
      "stateMutability": "view",
      "type": "function"
    },
    {
      "inputs": [
        {
          "internalType": "address",
          "name": "_memberaddress",
          "type": "address"
        }
      ],
      "name": "removeMember",
      "outputs": [],
      "stateMutability": "nonpayable",
      "type": "function"
    },
    {
      "inputs": [
        {
          "internalType": "string",
          "name": "_IPFSHash",
          "type": "string"
        }
      ],
      "name": "setManifest",
      "outputs": [],
      "stateMutability": "nonpayable",
      "type": "function"
    },
    {
      "inputs": [
        {
          "internalType": "string",
          "name": "",
          "type": "string"
        }
      ],
      "name": "toAddress",
      "outputs": [
        {
          "internalType": "address",
          "name": "",
          "type": "address"
        }
      ],
      "stateMutability": "view",
      "type": "function"
    },
    {
      "inputs": [
        {
          "internalType": "address",
          "name": "",
          "type": "address"
        }
      ],
      "name": "toName",
      "outputs": [
        {
          "internalType": "string",
          "name": "",
          "type": "string"
        }
      ],
      "stateMutability": "view",
      "type": "function"
    }
  ],
  "bytecode": "0x608060405234801561001057600080fd5b50600280546001600160a01b031916321790556111b5806100326000396000f3fe608060405234801561001057600080fd5b50600436106100cf5760003560e01c8063a230c5241161008c578063b6afd2ca11610066578063b6afd2ca146101b3578063c127c247146101bb578063de8fa431146101ce578063f5baf0d7146101e3576100cf565b8063a230c5241461016d578063a6f9dae11461018d578063acf36e53146101a0576100cf565b80630b1ca49a146100d457806329b84d09146100e95780633113a2ae146100fc57806345ca25ed1461011a5780637e4115ba1461012d57806381bc3f8c1461014d575b600080fd5b6100e76100e2366004610bf9565b6101eb565b005b6100e76100f7366004610c66565b6103bb565b6101046103f6565b6040516101119190610e98565b60405180910390f35b6100e7610128366004610c1a565b610458565b61014061013b366004610cd3565b610552565b6040516101119190610e3c565b61016061015b366004610bf9565b610578565b6040516101119190610ef0565b61018061017b366004610bf9565b610612565b6040516101119190610ee5565b6100e761019b366004610bf9565b610627565b6100e76101ae366004610bf9565b610673565b6101046106c4565b6100e76101c9366004610c1a565b610724565b6101d6610a3c565b60405161011191906110ce565b610160610a42565b6002546001600160a01b0316331461021e5760405162461bcd60e51b815260040161021590611085565b60405180910390fd5b60005b60005481101561029d57816001600160a01b03166000828154811061025657634e487b7160e01b600052603260045260246000fd5b6000918252602090912001546001600160a01b0316141561028b5760008054634e487b7160e01b600052603260045260246000fd5b8061029581611142565b915050610221565b5060008054806102bd57634e487b7160e01b600052603160045260246000fd5b60008281526020808220830160001990810180546001600160a01b03191690559092019092556001600160a01b0383168252600481526040808320805460ff1916905560069091529081902090517f982d6fac85d22cbbe833f9fe4278a909ca0f3b24ecc8b1f10fe63736e3c723139161033991849190610e74565b60405180910390a16001600160a01b038116600090815260066020526040808220905160059161036891610dcd565b908152604080516020928190038301812080546001600160a01b0319166001600160a01b03958616179055828101808352600080835294861685526006909352922091516103b7929190610a4f565b5050565b6002546001600160a01b031633146103e55760405162461bcd60e51b815260040161021590610f68565b6103f160038383610ad3565b505050565b6060600180548060200260200160405190810160405280929190818152602001828054801561044e57602002820191906000526020600020905b81546001600160a01b03168152600190910190602001808311610430575b5050505050905090565b6001600160a01b03821633148061047957506002546001600160a01b031633145b8061048c57506001600160a01b03821632145b6104a85760405162461bcd60e51b815260040161021590611033565b816005826040516104b99190610db1565b908152604080516020928190038301812080546001600160a01b0319166001600160a01b039586161790559285166000908152600690925290207ffdcc9059d3426f73949b49e5d977553aa298184439da800d66f48959d9cc76b09161052191908490610f03565b60405180910390a16001600160a01b038216600090815260066020908152604090912082516103f192840190610a4f565b80516020818301810180516005825292820191909301209152546001600160a01b031681565b6006602052600090815260409020805461059190611107565b80601f01602080910402602001604051908101604052809291908181526020018280546105bd90611107565b801561060a5780601f106105df5761010080835404028352916020019161060a565b820191906000526020600020905b8154815290600101906020018083116105ed57829003601f168201915b505050505081565b60046020526000908152604090205460ff1681565b6002546001600160a01b031633146106515760405162461bcd60e51b815260040161021590610fce565b600280546001600160a01b0319166001600160a01b0392909216919091179055565b6001805480820182556000919091527fb10e2d527612073b26eecdfd717e6a320cf44b4afac2b0732d9fcbe2b7fa0cf60180546001600160a01b0319166001600160a01b0392909216919091179055565b6060600080548060200260200160405190810160405280929190818152602001828054801561044e576020028201919060005260206000209081546001600160a01b03168152600190910190602001808311610430575050505050905090565b3360009081526004602052604090205460ff1615156001148061075157506002546001600160a01b031633145b61076d5760405162461bcd60e51b815260040161021590611085565b6001600160a01b03821660009081526004602052604090205460ff16156107a65760405162461bcd60e51b815260040161021590611005565b60006001600160a01b03166005826040516107c19190610db1565b908152604051908190036020019020546001600160a01b0316146107f75760405162461bcd60e51b815260040161021590610f9f565b600080546001810182557f290decd9548b62a8d60345a988386fc84ba6bc95484008f6362f93160ef3e5630180546001600160a01b0319166001600160a01b0385169081179091558152600660209081526040909120825161085b92840190610a4f565b508160058260405161086d9190610db1565b90815260408051918290036020908101832080546001600160a01b039586166001600160a01b031990911617905592851660008181526004909452908320805460ff191660011790556060916108c7903090602401610e3c565b60408051601f198184030181529181526020820180516001600160e01b031663acf36e5360e01b179052516108fc9190610db1565b600060405180830381855afa9150503d8060008114610937576040519150601f19603f3d011682016040523d82523d6000602084013e61093c565b606091505b50909250905081156109fd57836001600160a01b0316306040516024016109639190610e3c565b60408051601f198184030181529181526020820180516001600160e01b031663acf36e5360e01b179052516109989190610db1565b6000604051808303816000865af19150503d80600081146109d5576040519150601f19603f3d011682016040523d82523d6000602084013e6109da565b606091505b505080925050816109fd5760405162461bcd60e51b815260040161021590610f31565b7f7c803c00251fe8138e27cfa8286be8d98625e5f6476ca6ca594f682362b711208484604051610a2e929190610e50565b60405180910390a150505050565b60005490565b6003805461059190611107565b828054610a5b90611107565b90600052602060002090601f016020900481019282610a7d5760008555610ac3565b82601f10610a9657805160ff1916838001178555610ac3565b82800160010185558215610ac3579182015b82811115610ac3578251825591602001919060010190610aa8565b50610acf929150610b47565b5090565b828054610adf90611107565b90600052602060002090601f016020900481019282610b015760008555610ac3565b82601f10610b1a5782800160ff19823516178555610ac3565b82800160010185558215610ac3579182015b82811115610ac3578235825591602001919060010190610b2c565b5b80821115610acf5760008155600101610b48565b80356001600160a01b0381168114610b7357600080fd5b919050565b600082601f830112610b88578081fd5b813567ffffffffffffffff80821115610ba357610ba3611169565b604051601f8301601f191681016020018281118282101715610bc757610bc7611169565b604052828152848301602001861015610bde578384fd5b82602086016020830137918201602001929092529392505050565b600060208284031215610c0a578081fd5b610c1382610b5c565b9392505050565b60008060408385031215610c2c578081fd5b610c3583610b5c565b9150602083013567ffffffffffffffff811115610c50578182fd5b610c5c85828601610b78565b9150509250929050565b60008060208385031215610c78578182fd5b823567ffffffffffffffff80821115610c8f578384fd5b818501915085601f830112610ca2578384fd5b813581811115610cb0578485fd5b866020828501011115610cc1578485fd5b60209290920196919550909350505050565b600060208284031215610ce4578081fd5b813567ffffffffffffffff811115610cfa578182fd5b610d0684828501610b78565b949350505050565b60008151808452610d268160208601602086016110d7565b601f01601f19169290920160200192915050565b60008154610d4781611107565b808552602060018381168015610d645760018114610d7857610da6565b60ff19851688840152604088019550610da6565b866000528260002060005b85811015610d9e5781548a8201860152908301908401610d83565b890184019650505b505050505092915050565b60008251610dc38184602087016110d7565b9190910192915050565b6000808354610ddb81611107565b60018281168015610df35760018114610e0457610e30565b60ff19841687528287019450610e30565b8786526020808720875b85811015610e275781548a820152908401908201610e0e565b50505082870194505b50929695505050505050565b6001600160a01b0391909116815260200190565b6001600160a01b0383168152604060208201819052600090610d0690830184610d0e565b6001600160a01b0383168152604060208201819052600090610d0690830184610d3a565b6020808252825182820181905260009190848201906040850190845b81811015610ed95783516001600160a01b031683529284019291840191600101610eb4565b50909695505050505050565b901515815260200190565b600060208252610c136020830184610d0e565b600060408252610f166040830185610d3a565b8281036020840152610f288185610d0e565b95945050505050565b60208082526017908201527f4661696c656420746f2063726561746520706172656e74000000000000000000604082015260600190565b6020808252601f908201527f4f6e6c79206f776e65722063616e2073657420746865206d616e696665737400604082015260600190565b6020808252601590820152742730b6b29034b99030b63932b0b23c903a30b5b2b760591b604082015260600190565b6020808252601f908201527f4f6e6c79206f776e65722063616e206368616e676520746865206f776e657200604082015260600190565b60208082526014908201527313595b58995c88185b1c9958591e48185919195960621b604082015260600190565b60208082526032908201527f4e616d65206368616e67652072657175657374206e6f742073656e742066726f604082015271369036b2b6b132b9103737b91037bbb732b960711b606082015260800190565b60208082526029908201527f52657175657374207375626d69747465642062792061206e6f6e2d6d656d626560408201526872206164647265737360b81b606082015260800190565b90815260200190565b60005b838110156110f25781810151838201526020016110da565b83811115611101576000848401525b50505050565b60028104600182168061111b57607f821691505b6020821081141561113c57634e487b7160e01b600052602260045260246000fd5b50919050565b600060001982141561116257634e487b7160e01b81526011600452602481fd5b5060010190565b634e487b7160e01b600052604160045260246000fdfea26469706673582212206a39efea664cbeafcaa4e0a7559e7406763de35225b02b36ebcce82091683b7e64736f6c63430008000033",
  "linkReferences": {},
  "deployedLinkReferences": {}
}