{
  "_format": "hh-sol-artifact-1",
  "contractName": "Resource",
  "sourceName": "contracts/Resource.sol",
  "abi": [
    {
      "inputs": [
        {
          "internalType": "string",
          "name": "_label",
          "type": "string"
        },
        {
          "internalType": "uint256",
          "name": "_id",
          "type": "uint256"
        }
      ],
      "stateMutability": "nonpayable",
      "type": "constructor"
    },
    {
      "anonymous": false,
      "inputs": [
        {
          "indexed": false,
          "internalType": "address",
          "name": "member",
          "type": "address"
        },
        {
          "indexed": false,
          "internalType": "string",
          "name": "name",
          "type": "string"
        }
      ],
      "name": "AddedMember",
      "type": "event"
    },
    {
      "anonymous": false,
      "inputs": [
        {
          "indexed": false,
          "internalType": "string",
          "name": "namefrom",
          "type": "string"
        },
        {
          "indexed": false,
          "internalType": "string",
          "name": "nameto",
          "type": "string"
        }
      ],
      "name": "ChangedName",
      "type": "event"
    },
    {
      "anonymous": false,
      "inputs": [
        {
          "indexed": false,
          "internalType": "address",
          "name": "holon",
          "type": "address"
        },
        {
          "indexed": false,
          "internalType": "string",
          "name": "token",
          "type": "string"
        },
        {
          "indexed": false,
          "internalType": "uint256",
          "name": "amount",
          "type": "uint256"
        }
      ],
      "name": "HolonRewarded",
      "type": "event"
    },
    {
      "anonymous": false,
      "inputs": [
        {
          "indexed": false,
          "internalType": "string",
          "name": "_label",
          "type": "string"
        }
      ],
      "name": "NewRecipe",
      "type": "event"
    },
    {
      "anonymous": false,
      "inputs": [
        {
          "indexed": false,
          "internalType": "string",
          "name": "_label",
          "type": "string"
        },
        {
          "indexed": false,
          "internalType": "uint256",
          "name": "recipeID",
          "type": "uint256"
        },
        {
          "indexed": false,
          "internalType": "uint256",
          "name": "amount",
          "type": "uint256"
        }
      ],
      "name": "NewRequest",
      "type": "event"
    },
    {
      "anonymous": false,
      "inputs": [
        {
          "indexed": false,
          "internalType": "address",
          "name": "member",
          "type": "address"
        },
        {
          "indexed": false,
          "internalType": "string",
          "name": "name",
          "type": "string"
        }
      ],
      "name": "RemovedMember",
      "type": "event"
    },
    {
      "anonymous": false,
      "inputs": [
        {
          "indexed": true,
          "internalType": "address",
          "name": "member",
          "type": "address"
        },
        {
          "indexed": false,
          "internalType": "address",
          "name": "token",
          "type": "address"
        },
        {
          "indexed": false,
          "internalType": "uint256",
          "name": "amount",
          "type": "uint256"
        }
      ],
      "name": "RewardFailed",
      "type": "event"
    },
    {
      "stateMutability": "payable",
      "type": "fallback"
    },
    {
      "inputs": [
        {
          "internalType": "address",
          "name": "_memberaddress",
          "type": "address"
        },
        {
          "internalType": "string",
          "name": "_membername",
          "type": "string"
        }
      ],
      "name": "addMember",
      "outputs": [],
      "stateMutability": "nonpayable",
      "type": "function"
    },
    {
      "inputs": [
        {
          "internalType": "address",
          "name": "_parentaddress",
          "type": "address"
        }
      ],
      "name": "addParent",
      "outputs": [],
      "stateMutability": "nonpayable",
      "type": "function"
    },
    {
      "inputs": [
        {
          "internalType": "string",
          "name": "name",
          "type": "string"
        },
        {
          "internalType": "address[]",
          "name": "components",
          "type": "address[]"
        },
        {
          "internalType": "uint256[]",
          "name": "componentRecipe",
          "type": "uint256[]"
        },
        {
          "internalType": "uint256[]",
          "name": "quantities",
          "type": "uint256[]"
        }
      ],
      "name": "addRecipe",
      "outputs": [],
      "stateMutability": "nonpayable",
      "type": "function"
    },
    {
      "inputs": [
        {
          "internalType": "uint256[]",
          "name": "lhs",
          "type": "uint256[]"
        },
        {
          "internalType": "uint256[]",
          "name": "rhs",
          "type": "uint256[]"
        }
      ],
      "name": "addVectors",
      "outputs": [
        {
          "internalType": "uint256[]",
          "name": "",
          "type": "uint256[]"
        }
      ],
      "stateMutability": "pure",
      "type": "function"
    },
    {
      "inputs": [],
      "name": "bestrecipe",
      "outputs": [
        {
          "internalType": "uint256",
          "name": "",
          "type": "uint256"
        }
      ],
      "stateMutability": "view",
      "type": "function"
    },
    {
      "inputs": [
        {
          "internalType": "address",
          "name": "_address",
          "type": "address"
        },
        {
          "internalType": "string",
          "name": "_name",
          "type": "string"
        }
      ],
      "name": "changeName",
      "outputs": [],
      "stateMutability": "nonpayable",
      "type": "function"
    },
    {
      "inputs": [
        {
          "internalType": "address",
          "name": "_address",
          "type": "address"
        }
      ],
      "name": "changeOwner",
      "outputs": [],
      "stateMutability": "nonpayable",
      "type": "function"
    },
    {
      "inputs": [
        {
          "internalType": "uint256",
          "name": "requestId",
          "type": "uint256"
        }
      ],
      "name": "confirm",
      "outputs": [],
      "stateMutability": "nonpayable",
      "type": "function"
    },
    {
      "inputs": [],
      "name": "creator",
      "outputs": [
        {
          "internalType": "address",
          "name": "",
          "type": "address"
        }
      ],
      "stateMutability": "view",
      "type": "function"
    },
    {
      "inputs": [],
      "name": "flavor",
      "outputs": [
        {
          "internalType": "string",
          "name": "",
          "type": "string"
        }
      ],
      "stateMutability": "view",
      "type": "function"
    },
    {
      "inputs": [
        {
          "internalType": "uint256",
          "name": "recipeID",
          "type": "uint256"
        }
      ],
      "name": "getComponents",
      "outputs": [
        {
          "internalType": "address[]",
          "name": "",
          "type": "address[]"
        }
      ],
      "stateMutability": "view",
      "type": "function"
    },
    {
      "inputs": [],
      "name": "getRecipes",
      "outputs": [
        {
          "internalType": "string[]",
          "name": "",
          "type": "string[]"
        }
      ],
      "stateMutability": "view",
      "type": "function"
    },
    {
      "inputs": [
        {
          "internalType": "uint256",
          "name": "requestId",
          "type": "uint256"
        }
      ],
      "name": "getRequestInfo",
      "outputs": [
        {
          "internalType": "address",
          "name": "requester",
          "type": "address"
        },
        {
          "internalType": "uint256",
          "name": "amounts",
          "type": "uint256"
        },
        {
          "internalType": "string",
          "name": "location",
          "type": "string"
        },
        {
          "internalType": "uint256",
          "name": "status",
          "type": "uint256"
        },
        {
          "internalType": "uint256",
          "name": "creation",
          "type": "uint256"
        }
      ],
      "stateMutability": "view",
      "type": "function"
    },
    {
      "inputs": [],
      "name": "getSize",
      "outputs": [
        {
          "internalType": "uint256",
          "name": "",
          "type": "uint256"
        }
      ],
      "stateMutability": "view",
      "type": "function"
    },
    {
      "inputs": [
        {
          "internalType": "uint256",
          "name": "requestId",
          "type": "uint256"
        }
      ],
      "name": "getStatus",
      "outputs": [
        {
          "internalType": "uint256",
          "name": "status",
          "type": "uint256"
        }
      ],
      "stateMutability": "view",
      "type": "function"
    },
    {
      "inputs": [
        {
          "internalType": "uint256",
          "name": "recipeID",
          "type": "uint256"
        }
      ],
      "name": "getTruePrice",
      "outputs": [
        {
          "internalType": "uint256[]",
          "name": "",
          "type": "uint256[]"
        }
      ],
      "stateMutability": "view",
      "type": "function"
    },
    {
      "inputs": [],
      "name": "id",
      "outputs": [
        {
          "internalType": "uint256",
          "name": "",
          "type": "uint256"
        }
      ],
      "stateMutability": "view",
      "type": "function"
    },
    {
      "inputs": [
        {
          "internalType": "address",
          "name": "",
          "type": "address"
        }
      ],
      "name": "isMember",
      "outputs": [
        {
          "internalType": "bool",
          "name": "",
          "type": "bool"
        }
      ],
      "stateMutability": "view",
      "type": "function"
    },
    {
      "inputs": [],
      "name": "label",
      "outputs": [
        {
          "internalType": "string",
          "name": "",
          "type": "string"
        }
      ],
      "stateMutability": "view",
      "type": "function"
    },
    {
      "inputs": [],
      "name": "listMembers",
      "outputs": [
        {
          "internalType": "address payable[]",
          "name": "",
          "type": "address[]"
        }
      ],
      "stateMutability": "view",
      "type": "function"
    },
    {
      "inputs": [],
      "name": "listParents",
      "outputs": [
        {
          "internalType": "address[]",
          "name": "",
          "type": "address[]"
        }
      ],
      "stateMutability": "view",
      "type": "function"
    },
    {
      "inputs": [],
      "name": "manifest",
      "outputs": [
        {
          "internalType": "string",
          "name": "",
          "type": "string"
        }
      ],
      "stateMutability": "view",
      "type": "function"
    },
    {
      "inputs": [
        {
          "internalType": "uint256[]",
          "name": "lhs",
          "type": "uint256[]"
        },
        {
          "internalType": "uint256",
          "name": "scalar",
          "type": "uint256"
        }
      ],
      "name": "mulVectors",
      "outputs": [
        {
          "internalType": "uint256[]",
          "name": "",
          "type": "uint256[]"
        }
      ],
      "stateMutability": "pure",
      "type": "function"
    },
    {
      "inputs": [],
      "name": "name",
      "outputs": [
        {
          "internalType": "string",
          "name": "",
          "type": "string"
        }
      ],
      "stateMutability": "view",
      "type": "function"
    },
    {
      "inputs": [
        {
          "internalType": "string",
          "name": "_flavor",
          "type": "string"
        },
        {
          "internalType": "string",
          "name": "_name",
          "type": "string"
        },
        {
          "internalType": "uint256",
          "name": "_parameter",
          "type": "uint256"
        }
      ],
      "name": "newHolon",
      "outputs": [
        {
          "internalType": "address",
          "name": "",
          "type": "address"
        }
      ],
      "stateMutability": "nonpayable",
      "type": "function"
    },
    {
      "inputs": [],
      "name": "nrecipes",
      "outputs": [
        {
          "internalType": "uint256",
          "name": "",
          "type": "uint256"
        }
      ],
      "stateMutability": "view",
      "type": "function"
    },
    {
      "inputs": [],
      "name": "nrequests",
      "outputs": [
        {
          "internalType": "uint256",
          "name": "",
          "type": "uint256"
        }
      ],
      "stateMutability": "view",
      "type": "function"
    },
    {
      "inputs": [
        {
          "internalType": "uint256",
          "name": "",
          "type": "uint256"
        }
      ],
      "name": "recipes",
      "outputs": [
        {
          "internalType": "string",
          "name": "name",
          "type": "string"
        },
        {
          "internalType": "uint256",
          "name": "timesrequested",
          "type": "uint256"
        }
      ],
      "stateMutability": "view",
      "type": "function"
    },
    {
      "inputs": [
        {
          "internalType": "address",
          "name": "_memberaddress",
          "type": "address"
        }
      ],
      "name": "removeMember",
      "outputs": [],
      "stateMutability": "nonpayable",
      "type": "function"
    },
    {
      "inputs": [
        {
          "internalType": "uint256",
          "name": "_amount",
          "type": "uint256"
        },
        {
          "internalType": "string",
          "name": "_location",
          "type": "string"
        }
      ],
      "name": "request",
      "outputs": [],
      "stateMutability": "nonpayable",
      "type": "function"
    },
    {
      "inputs": [
        {
          "internalType": "uint256",
          "name": "_recipeID",
          "type": "uint256"
        },
        {
          "internalType": "uint256",
          "name": "_amount",
          "type": "uint256"
        },
        {
          "internalType": "string",
          "name": "_location",
          "type": "string"
        }
      ],
      "name": "requestRecipe",
      "outputs": [],
      "stateMutability": "nonpayable",
      "type": "function"
    },
    {
      "inputs": [
        {
          "internalType": "uint256",
          "name": "",
          "type": "uint256"
        }
      ],
      "name": "requests",
      "outputs": [
        {
          "internalType": "address",
          "name": "requester",
          "type": "address"
        },
        {
          "internalType": "uint256",
          "name": "recipeID",
          "type": "uint256"
        },
        {
          "internalType": "uint256",
          "name": "amounts",
          "type": "uint256"
        },
        {
          "internalType": "string",
          "name": "location",
          "type": "string"
        },
        {
          "internalType": "uint8",
          "name": "status",
          "type": "uint8"
        },
        {
          "internalType": "uint256",
          "name": "creation",
          "type": "uint256"
        }
      ],
      "stateMutability": "view",
      "type": "function"
    },
    {
      "inputs": [
        {
          "internalType": "address",
          "name": "_tokenAddress",
          "type": "address"
        },
        {
          "internalType": "uint256",
          "name": "_tokenAmount",
          "type": "uint256"
        }
      ],
      "name": "reward",
      "outputs": [],
      "stateMutability": "payable",
      "type": "function"
    },
    {
      "inputs": [
        {
          "internalType": "string",
          "name": "_IPFSHash",
          "type": "string"
        }
      ],
      "name": "setManifest",
      "outputs": [],
      "stateMutability": "nonpayable",
      "type": "function"
    },
    {
      "inputs": [
        {
          "internalType": "string",
          "name": "",
          "type": "string"
        }
      ],
      "name": "toAddress",
      "outputs": [
        {
          "internalType": "address",
          "name": "",
          "type": "address"
        }
      ],
      "stateMutability": "view",
      "type": "function"
    },
    {
      "inputs": [
        {
          "internalType": "address",
          "name": "",
          "type": "address"
        }
      ],
      "name": "toName",
      "outputs": [
        {
          "internalType": "string",
          "name": "",
          "type": "string"
        }
      ],
      "stateMutability": "view",
      "type": "function"
    },
    {
      "inputs": [],
      "name": "version",
      "outputs": [
        {
          "internalType": "string",
          "name": "",
          "type": "string"
        }
      ],
      "stateMutability": "view",
      "type": "function"
    },
    {
      "stateMutability": "payable",
      "type": "receive"
    }
  ],
  "bytecode": "0x60806040523480156200001157600080fd5b50604051620036d4380380620036d483398101604081905262000034916200011b565b600280546001600160a01b0319163217905560006011819055600c819055600d5581516200006a90600f90602085019062000075565b506010555062000245565b8280546200008390620001f2565b90600052602060002090601f016020900481019282620000a75760008555620000f2565b82601f10620000c257805160ff1916838001178555620000f2565b82800160010185558215620000f2579182015b82811115620000f2578251825591602001919060010190620000d5565b506200010092915062000104565b5090565b5b8082111562000100576000815560010162000105565b600080604083850312156200012e578182fd5b82516001600160401b038082111562000145578384fd5b818501915085601f83011262000159578384fd5b8151818111156200016e576200016e6200022f565b6040516020601f8301601f19168201810184811183821017156200019657620001966200022f565b6040528282528483018101891015620001ad578687fd5b8693505b82841015620001d05784840181015182850182015292830192620001b1565b82841115620001e157868184840101525b969096015195979596505050505050565b6002810460018216806200020757607f821691505b602082108114156200022957634e487b7160e01b600052602260045260246000fd5b50919050565b634e487b7160e01b600052604160045260246000fd5b61347f80620002556000396000f3fe60806040526004361061021e5760003560e01c80638163ba1111610123578063b6afd2ca116100ab578063d9b3fd5b1161006f578063d9b3fd5b14610648578063de8fa4311461066a578063f59e4f651461067f578063f5baf0d714610694578063f6adf7b1146106a957610230565b8063b6afd2ca146105c9578063b711ac3d146105de578063ba0179b5146105f3578063c127c24714610613578063cb4774c41461063357610230565b8063a230c524116100f2578063a230c52414610527578063a6f9dae114610554578063acf36e5314610574578063af640d0f14610594578063b68191ac146105a957610230565b80638163ba111461049557806381bc3f8c146104b557806381d12c58146104d557806385f045b21461050757610230565b80633113a2ae116101a65780635c622a0e116101755780635c622a0e146103f35780635f295775146104135780636147b4f6146104285780637dcf5857146104555780637e4115ba1461047557610230565b80633113a2ae1461036e578063443c227c1461039057806345ca25ed146103be57806354fd4d50146103de57610230565b80630babba86116101ed5780630babba86146102d95780630c1df23d146102f95780631c5d65661461031b57806321670f221461033b57806329b84d091461034e57610230565b806302d05d3f1461023b57806306fdde03146102665780630b1ca49a146102885780630b816045146102a857610230565b366102305761022e6000346106c9565b005b61022e6000346106c9565b34801561024757600080fd5b5061025061078e565b60405161025d9190612c38565b60405180910390f35b34801561027257600080fd5b5061027b61079d565b60405161025d9190612ec3565b34801561029457600080fd5b5061022e6102a3366004612646565b61082b565b3480156102b457600080fd5b506102c86102c3366004612a32565b6109ee565b60405161025d959493929190612d19565b3480156102e557600080fd5b506102506102f4366004612883565b610af1565b34801561030557600080fd5b5061030e610b89565b60405161025d91906132b4565b34801561032757600080fd5b5061022e610336366004612a90565b610b8f565b61022e6103493660046126d2565b6106c9565b34801561035a57600080fd5b5061022e610369366004612844565b610f47565b34801561037a57600080fd5b50610383610f7d565b60405161025d9190612d99565b34801561039c57600080fd5b506103b06103ab366004612a32565b610fdf565b60405161025d929190612ed6565b3480156103ca57600080fd5b5061022e6103d9366004612685565b61109b565b3480156103ea57600080fd5b5061027b611195565b3480156103ff57600080fd5b5061030e61040e366004612a32565b6111a2565b34801561041f57600080fd5b5061030e611314565b34801561043457600080fd5b506104486104433660046127e2565b61131a565b60405161025d9190612e46565b34801561046157600080fd5b50610383610470366004612a32565b6113f5565b34801561048157600080fd5b506102506104903660046128f3565b611489565b3480156104a157600080fd5b5061022e6104b0366004612a62565b6114af565b3480156104c157600080fd5b5061027b6104d0366004612646565b6114bc565b3480156104e157600080fd5b506104f56104f0366004612a32565b6114d5565b60405161025d96959493929190612d54565b34801561051357600080fd5b5061022e61052236600461292d565b6115b7565b34801561053357600080fd5b50610547610542366004612646565b6116da565b60405161025d9190612e7e565b34801561056057600080fd5b5061022e61056f366004612646565b6116ef565b34801561058057600080fd5b5061022e61058f366004612646565b61173b565b3480156105a057600080fd5b5061030e61178c565b3480156105b557600080fd5b506104486105c436600461278c565b611792565b3480156105d557600080fd5b5061038361188c565b3480156105ea57600080fd5b5061030e6118ec565b3480156105ff57600080fd5b5061022e61060e366004612a32565b6118f2565b34801561061f57600080fd5b5061022e61062e366004612685565b611937565b34801561063f57600080fd5b5061027b611c41565b34801561065457600080fd5b5061065d611c4e565b60405161025d9190612de6565b34801561067657600080fd5b5061030e611dbc565b34801561068b57600080fd5b5061027b611dc2565b3480156106a057600080fd5b5061027b611dcf565b3480156106b557600080fd5b506104486106c4366004612a32565b611ddc565b6000546106f15760405162461bcd60e51b81526004016106e8906131eb565b60405180910390fd5b600081116107115760405162461bcd60e51b81526004016106e890612f7a565b60003411801561072857506001600160a01b038216155b1561075a5734811461074c5760405162461bcd60e51b81526004016106e890613081565b61075581612060565b61078a565b6001600160a01b0382166107805760405162461bcd60e51b81526004016106e890612fc0565b61078a8282612199565b5050565b600a546001600160a01b031681565b600780546107aa906133af565b80601f01602080910402602001604051908101604052809291908181526020018280546107d6906133af565b80156108235780601f106107f857610100808354040283529160200191610823565b820191906000526020600020905b81548152906001019060200180831161080657829003601f168201915b505050505081565b6002546001600160a01b031633146108555760405162461bcd60e51b81526004016106e89061326b565b60005b6000548110156108d457816001600160a01b03166000828154811061088d57634e487b7160e01b600052603260045260246000fd5b6000918252602090912001546001600160a01b031614156108c25760008054634e487b7160e01b600052603260045260246000fd5b806108cc816133ea565b915050610858565b5060008054806108f457634e487b7160e01b600052603160045260246000fd5b60008281526020808220830160001990810180546001600160a01b03191690559092019092556001600160a01b0383168252600481526040808320805460ff1916905560069091529081902090517f982d6fac85d22cbbe833f9fe4278a909ca0f3b24ecc8b1f10fe63736e3c723139161097091849190612c89565b60405180910390a16001600160a01b038116600090815260066020526040808220905160059161099f91612bc6565b908152604080516020928190038301812080546001600160a01b0319166001600160a01b039586161790558281018083526000808352948616855260069093529220915161078a92919061238e565b60008060606000806000600e8781548110610a1957634e487b7160e01b600052603260045260246000fd5b60009182526020909120600790910201805460038201546004830180546001600160a01b039093169950909750919250610a52906133af565b80601f0160208091040260200160405190810160405280929190818152602001828054610a7e906133af565b8015610acb5780601f10610aa057610100808354040283529160200191610acb565b820191906000526020600020905b815481529060010190602001808311610aae57829003601f168201915b5050506005840154600690940154989a979950919760ff90931696929550919350505050565b600a546040516305d5dd4360e11b81526000916001600160a01b0316908190630babba8690610b2c908a908a908a908a908a90600401612e89565b602060405180830381600087803b158015610b4657600080fd5b505af1158015610b5a573d6000803e3d6000fd5b505050506040513d601f19601f82011682018060405250810190610b7e9190612669565b979650505050505050565b60115481565b6000610b9a84611ddc565b905060006040518060e00160405280336001600160a01b03168152602001868152602001838152602001858152602001848152602001600060ff1681526020014281525090508360116000828254610bf29190613328565b9091555050600e805460018101825560009190915281517fbb7b4a454dc3493923482f07822329ed19e8244eff582cc204f8554c3620c3fd600790920291820180546001600160a01b0319166001600160a01b039092169190911781556020808401517fbb7b4a454dc3493923482f07822329ed19e8244eff582cc204f8554c3620c3fe840155604084015180518594610cb2937fbb7b4a454dc3493923482f07822329ed19e8244eff582cc204f8554c3620c3ff909101920190612412565b506060820151600382015560808201518051610cd891600484019160209091019061238e565b5060a082015160058201805460ff191660ff90921691909117905560c090910151600690910155600c541580610d105750600c548510155b15610d1c575050610f42565b60005b600b8681548110610d4057634e487b7160e01b600052603260045260246000fd5b906000526020600020906005020160010180549050811015610f0257600085600b8881548110610d8057634e487b7160e01b600052603260045260246000fd5b90600052602060002090600502016003018381548110610db057634e487b7160e01b600052603260045260246000fd5b9060005260206000200154610dc59190613360565b90506000600b8881548110610dea57634e487b7160e01b600052603260045260246000fd5b90600052602060002090600502016002018381548110610e1a57634e487b7160e01b600052603260045260246000fd5b906000526020600020015490506000600b8981548110610e4a57634e487b7160e01b600052603260045260246000fd5b90600052602060002090600502016001018481548110610e7a57634e487b7160e01b600052603260045260246000fd5b600091825260209091200154604051630e2eb2b360e11b81526001600160a01b0390911691508190631c5d656690610eba90859087908c906004016132bd565b600060405180830381600087803b158015610ed457600080fd5b505af1158015610ee8573d6000803e3d6000fd5b505050505050508080610efa906133ea565b915050610d1f565b507fdd769ef05d7f927a4b3cda8431196b9400f664392f76e581b77f9f64042487e6600f8686604051610f3793929190612f26565b60405180910390a150505b505050565b6002546001600160a01b03163314610f715760405162461bcd60e51b81526004016106e8906130df565b610f426003838361244c565b60606001805480602002602001604051908101604052809291908181526020018280548015610fd557602002820191906000526020600020905b81546001600160a01b03168152600190910190602001808311610fb7575b5050505050905090565b600b8181548110610fef57600080fd5b9060005260206000209060050201600091509050806000018054611012906133af565b80601f016020809104026020016040519081016040528092919081815260200182805461103e906133af565b801561108b5780601f106110605761010080835404028352916020019161108b565b820191906000526020600020905b81548152906001019060200180831161106e57829003601f168201915b5050505050908060040154905082565b6001600160a01b0382163314806110bc57506002546001600160a01b031633145b806110cf57506001600160a01b03821632145b6110eb5760405162461bcd60e51b81526004016106e890613219565b816005826040516110fc9190612baa565b908152604080516020928190038301812080546001600160a01b0319166001600160a01b039586161790559285166000908152600690925290207ffdcc9059d3426f73949b49e5d977553aa298184439da800d66f48959d9cc76b09161116491908490612ef8565b60405180910390a16001600160a01b03821660009081526006602090815260409091208251610f429284019061238e565b600880546107aa906133af565b600080600e83815481106111c657634e487b7160e01b600052603260045260246000fd5b60009182526020918290206040805160e081018252600790930290910180546001600160a01b03168352600181015483850152600281018054835181870281018701855281815294959294938601939283018282801561124557602002820191906000526020600020905b815481526020019060010190808311611231575b5050505050815260200160038201548152602001600482018054611268906133af565b80601f0160208091040260200160405190810160405280929190818152602001828054611294906133af565b80156112e15780601f106112b6576101008083540402835291602001916112e1565b820191906000526020600020905b8154815290600101906020018083116112c457829003601f168201915b5050509183525050600582015460ff908116602083015260069092015460409091015260a090910151169150505b919050565b600d5481565b6060600083516001600160401b0381111561134557634e487b7160e01b600052604160045260246000fd5b60405190808252806020026020018201604052801561136e578160200160208202803683370190505b50905060005b84518110156113ed578385828151811061139e57634e487b7160e01b600052603260045260246000fd5b60200260200101516113b09190613360565b8282815181106113d057634e487b7160e01b600052603260045260246000fd5b6020908102919091010152806113e5816133ea565b915050611374565b509392505050565b6060600b828154811061141857634e487b7160e01b600052603260045260246000fd5b906000526020600020906005020160010180548060200260200160405190810160405280929190818152602001828054801561147d57602002820191906000526020600020905b81546001600160a01b0316815260019091019060200180831161145f575b50505050509050919050565b80516020818301810180516005825292820191909301209152546001600160a01b031681565b61078a600d548383610b8f565b600660205260009081526040902080546107aa906133af565b600e81815481106114e557600080fd5b600091825260209091206007909102018054600182015460038301546004840180546001600160a01b03909416955091939092909190611524906133af565b80601f0160208091040260200160405190810160405280929190818152602001828054611550906133af565b801561159d5780601f106115725761010080835404028352916020019161159d565b820191906000526020600020905b81548152906001019060200180831161158057829003601f168201915b505050506005830154600690930154919260ff1691905086565b6040805160a081018252858152602080820186905291810184905260608101839052600060808201819052600b8054600181018255915281518051929360059092027f0175b7a638427703f0dbe7bb9bbf987a2551717b34e79f33b5b1008d1fa01db90192611629928492019061238e565b50602082810151805161164292600185019201906124c0565b506040820151805161165e916002840191602090910190612412565b506060820151805161167a916003840191602090910190612412565b5060809190910151600490910155600c8054906000611698836133ea565b91905055507f66f1b7b691565f05e1e14571c06a440752ee8943c708bbb5623cb212a21eca35846040516116cc9190612ec3565b60405180910390a150505050565b60046020526000908152604090205460ff1681565b6002546001600160a01b031633146117195760405162461bcd60e51b81526004016106e890613145565b600280546001600160a01b0319166001600160a01b0392909216919091179055565b6001805480820182556000919091527fb10e2d527612073b26eecdfd717e6a320cf44b4afac2b0732d9fcbe2b7fa0cf60180546001600160a01b0319166001600160a01b0392909216919091179055565b60105481565b6060600083516001600160401b038111156117bd57634e487b7160e01b600052604160045260246000fd5b6040519080825280602002602001820160405280156117e6578160200160208202803683370190505b50905060005b84518110156113ed5783818151811061181557634e487b7160e01b600052603260045260246000fd5b602002602001015185828151811061183d57634e487b7160e01b600052603260045260246000fd5b602002602001015161184f9190613328565b82828151811061186f57634e487b7160e01b600052603260045260246000fd5b602090810291909101015280611884816133ea565b9150506117ec565b60606000805480602002602001604051908101604052809291908181526020018280548015610fd5576020028201919060005260206000209081546001600160a01b03168152600190910190602001808311610fb7575050505050905090565b600c5481565b6000600e828154811061191557634e487b7160e01b600052603260045260246000fd5b60009182526020909120600560079092020101805460ff191660021790555050565b3360009081526004602052604090205460ff1615156001148061196457506002546001600160a01b031633145b6119805760405162461bcd60e51b81526004016106e89061326b565b6001600160a01b03821660009081526004602052604090205460ff16156119b95760405162461bcd60e51b81526004016106e89061317c565b60006001600160a01b03166005826040516119d49190612baa565b908152604051908190036020019020546001600160a01b031614611a0a5760405162461bcd60e51b81526004016106e890613116565b600080546001810182557f290decd9548b62a8d60345a988386fc84ba6bc95484008f6362f93160ef3e5630180546001600160a01b0319166001600160a01b03851690811790915581526006602090815260409091208251611a6e9284019061238e565b5081600582604051611a809190612baa565b90815260408051918290036020908101832080546001600160a01b039586166001600160a01b031990911617905592851660008181526004909452908320805460ff19166001179055606091611ada903090602401612c38565b60408051601f198184030181529181526020820180516001600160e01b031663acf36e5360e01b17905251611b0f9190612baa565b600060405180830381855afa9150503d8060008114611b4a576040519150601f19603f3d011682016040523d82523d6000602084013e611b4f565b606091505b5090925090508115611c1057836001600160a01b031630604051602401611b769190612c38565b60408051601f198184030181529181526020820180516001600160e01b031663acf36e5360e01b17905251611bab9190612baa565b6000604051808303816000865af19150503d8060008114611be8576040519150601f19603f3d011682016040523d82523d6000602084013e611bed565b606091505b50508092505081611c105760405162461bcd60e51b81526004016106e890613006565b7f7c803c00251fe8138e27cfa8286be8d98625e5f6476ca6ca594f682362b7112084846040516116cc929190612c65565b600f80546107aa906133af565b60606000600c546001600160401b03811115611c7a57634e487b7160e01b600052604160045260246000fd5b604051908082528060200260200182016040528015611cad57816020015b6060815260200190600190039081611c985790505b50905060005b600c54811015611db657600b8181548110611cde57634e487b7160e01b600052603260045260246000fd5b90600052602060002090600502016000018054611cfa906133af565b80601f0160208091040260200160405190810160405280929190818152602001828054611d26906133af565b8015611d735780601f10611d4857610100808354040283529160200191611d73565b820191906000526020600020905b815481529060010190602001808311611d5657829003601f168201915b5050505050828281518110611d9857634e487b7160e01b600052603260045260246000fd5b60200260200101819052508080611dae906133ea565b915050611cb3565b50905090565b60005490565b600980546107aa906133af565b600380546107aa906133af565b60408051600c8082526101a082019092526060916000919060208201610180803683375050600c5491925050611e4d578060105481518110611e2e57634e487b7160e01b600052603260045260246000fd5b602002602001018051809190611e43906133ea565b905250905061130f565b60005b600b8481548110611e7157634e487b7160e01b600052603260045260246000fd5b906000526020600020906005020160010180549050811015612059576000600b8581548110611eb057634e487b7160e01b600052603260045260246000fd5b90600052602060002090600502016001018281548110611ee057634e487b7160e01b600052603260045260246000fd5b9060005260206000200160009054906101000a90046001600160a01b03169050612043611fe284836001600160a01b031663f6adf7b1600b8a81548110611f3757634e487b7160e01b600052603260045260246000fd5b90600052602060002090600502016002018781548110611f6757634e487b7160e01b600052603260045260246000fd5b90600052602060002001546040518263ffffffff1660e01b8152600401611f8e91906132b4565b60006040518083038186803b158015611fa657600080fd5b505afa158015611fba573d6000803e3d6000fd5b505050506040513d6000823e601f3d908101601f191682016040526105c491908101906126fd565b600b878154811061200357634e487b7160e01b600052603260045260246000fd5b9060005260206000209060050201600301848154811061203357634e487b7160e01b600052603260045260246000fd5b906000526020600020015461131a565b9250508080612051906133ea565b915050611e50565b5092915050565b6000805461206e9083613340565b9050600081116120905760405162461bcd60e51b81526004016106e89061303d565b60005b60005481101561215b5760008082815481106120bf57634e487b7160e01b600052603260045260246000fd5b6000918252602090912001546040516001600160a01b039091169084906120e590612c35565b60006040518083038185875af1925050503d8060008114612122576040519150601f19603f3d011682016040523d82523d6000602084013e612127565b606091505b50509050806121485760405162461bcd60e51b81526004016106e8906130b0565b5080612153816133ea565b915050612093565b507f5e1d21dcfda4f76cd32994c09b67a7cd04e48267cd319846e7af93569afff7a9308360405161218d929190612cad565b60405180910390a15050565b6040516370a0823160e01b8152829082906001600160a01b038316906370a08231906121c9903090600401612c38565b60206040518083038186803b1580156121e157600080fd5b505afa1580156121f5573d6000803e3d6000fd5b505050506040513d601f19601f820116820180604052508101906122199190612a4a565b10156122375760405162461bcd60e51b81526004016106e8906131aa565b600080546122459084613340565b9050600081116122675760405162461bcd60e51b81526004016106e89061303d565b60005b60005481101561235c57826001600160a01b031663a9059cbb600083815481106122a457634e487b7160e01b600052603260045260246000fd5b6000918252602090912001546040516001600160e01b031960e084901b1681526122dc916001600160a01b0316908690600401612c4c565b602060405180830381600087803b1580156122f657600080fd5b505af115801561230a573d6000803e3d6000fd5b505050506040513d601f19601f8201168201806040525081019061232e9190612824565b61234a5760405162461bcd60e51b81526004016106e890612f4b565b80612354816133ea565b91505061226a565b507f5e1d21dcfda4f76cd32994c09b67a7cd04e48267cd319846e7af93569afff7a930846040516116cc929190612ce3565b82805461239a906133af565b90600052602060002090601f0160209004810192826123bc5760008555612402565b82601f106123d557805160ff1916838001178555612402565b82800160010185558215612402579182015b828111156124025782518255916020019190600101906123e7565b5061240e929150612515565b5090565b82805482825590600052602060002090810192821561240257916020028201828111156124025782518255916020019190600101906123e7565b828054612458906133af565b90600052602060002090601f01602090048101928261247a5760008555612402565b82601f106124935782800160ff19823516178555612402565b82800160010185558215612402579182015b828111156124025782358255916020019190600101906124a5565b828054828255906000526020600020908101928215612402579160200282015b8281111561240257825182546001600160a01b0319166001600160a01b039091161782556020909201916001909101906124e0565b5b8082111561240e5760008155600101612516565b600082601f83011261253a578081fd5b8135602061254f61254a83613305565b6132dc565b828152818101908583018385028701840188101561256b578586fd5b855b858110156125895781358452928401929084019060010161256d565b5090979650505050505050565b60008083601f8401126125a7578182fd5b5081356001600160401b038111156125bd578182fd5b6020830191508360208285010111156125d557600080fd5b9250929050565b600082601f8301126125ec578081fd5b81356001600160401b038111156126055761260561341b565b612618601f8201601f19166020016132dc565b81815284602083860101111561262c578283fd5b816020850160208301379081016020019190915292915050565b600060208284031215612657578081fd5b813561266281613431565b9392505050565b60006020828403121561267a578081fd5b815161266281613431565b60008060408385031215612697578081fd5b82356126a281613431565b915060208301356001600160401b038111156126bc578182fd5b6126c8858286016125dc565b9150509250929050565b600080604083850312156126e4578182fd5b82356126ef81613431565b946020939093013593505050565b6000602080838503121561270f578182fd5b82516001600160401b03811115612724578283fd5b8301601f81018513612734578283fd5b805161274261254a82613305565b818152838101908385018584028501860189101561275e578687fd5b8694505b83851015612780578051835260019490940193918501918501612762565b50979650505050505050565b6000806040838503121561279e578182fd5b82356001600160401b03808211156127b4578384fd5b6127c08683870161252a565b935060208501359150808211156127d5578283fd5b506126c88582860161252a565b600080604083850312156127f4578182fd5b82356001600160401b03811115612809578283fd5b6128158582860161252a565b95602094909401359450505050565b600060208284031215612835578081fd5b81518015158114612662578182fd5b60008060208385031215612856578182fd5b82356001600160401b0381111561286b578283fd5b61287785828601612596565b90969095509350505050565b60008060008060006060868803121561289a578081fd5b85356001600160401b03808211156128b0578283fd5b6128bc89838a01612596565b909750955060208801359150808211156128d4578283fd5b506128e188828901612596565b96999598509660400135949350505050565b600060208284031215612904578081fd5b81356001600160401b03811115612919578182fd5b612925848285016125dc565b949350505050565b60008060008060808587031215612942578182fd5b84356001600160401b0380821115612958578384fd5b612964888389016125dc565b955060209150818701358181111561297a578485fd5b8701601f8101891361298a578485fd5b803561299861254a82613305565b81815284810190838601868402850187018d10156129b4578889fd5b8894505b838510156129df5780356129cb81613431565b8352600194909401939186019186016129b8565b50975050505060408701359150808211156129f8578384fd5b612a048883890161252a565b93506060870135915080821115612a19578283fd5b50612a268782880161252a565b91505092959194509250565b600060208284031215612a43578081fd5b5035919050565b600060208284031215612a5b578081fd5b5051919050565b60008060408385031215612a74578182fd5b8235915060208301356001600160401b038111156126bc578182fd5b600080600060608486031215612aa4578081fd5b833592506020840135915060408401356001600160401b03811115612ac7578182fd5b612ad3868287016125dc565b9150509250925092565b60008284528282602086013780602084860101526020601f19601f85011685010190509392505050565b60008151808452612b1f81602086016020860161337f565b601f01601f19169290920160200192915050565b60008154612b40816133af565b808552602060018381168015612b5d5760018114612b7157612b9f565b60ff19851688840152604088019550612b9f565b866000528260002060005b85811015612b975781548a8201860152908301908401612b7c565b890184019650505b505050505092915050565b60008251612bbc81846020870161337f565b9190910192915050565b6000808354612bd4816133af565b60018281168015612bec5760018114612bfd57612c29565b60ff19841687528287019450612c29565b8786526020808720875b85811015612c205781548a820152908401908201612c07565b50505082870194505b50929695505050505050565b90565b6001600160a01b0391909116815260200190565b6001600160a01b03929092168252602082015260400190565b6001600160a01b038316815260406020820181905260009061292590830184612b07565b6001600160a01b038316815260406020820181905260009061292590830184612b33565b6001600160a01b039290921682526060602083018190526005908301526422aa2422a960d91b6080830152604082015260a00190565b6001600160a01b0392909216825260606020830181905260059083015264045524332360dc1b6080830152604082015260a00190565b600060018060a01b038716825285602083015260a06040830152612d4060a0830186612b07565b606083019490945250608001529392505050565b600060018060a01b038816825286602083015285604083015260c06060830152612d8160c0830186612b07565b60ff9490941660808301525060a00152949350505050565b6020808252825182820181905260009190848201906040850190845b81811015612dda5783516001600160a01b031683529284019291840191600101612db5565b50909695505050505050565b6000602080830181845280855180835260408601915060408482028701019250838701855b82811015612e3957603f19888603018452612e27858351612b07565b94509285019290850190600101612e0b565b5092979650505050505050565b6020808252825182820181905260009190848201906040850190845b81811015612dda57835183529284019291840191600101612e62565b901515815260200190565b600060608252612e9d606083018789612add565b8281036020840152612eb0818688612add565b9150508260408301529695505050505050565b6000602082526126626020830184612b07565b600060408252612ee96040830185612b07565b90508260208301529392505050565b600060408252612f0b6040830185612b33565b8281036020840152612f1d8185612b07565b95945050505050565b600060608252612f396060830186612b33565b60208301949094525060400152919050565b602080825260159082015274115490cc8c081d1c985b9cd9995c8819985a5b1959605a1b604082015260600190565b60208082526026908201527f546f6b656e20616d6f756e74206d7573742062652067726561746572207468616040820152656e207a65726f60d01b606082015260800190565b60208082526026908201527f496e76616c696420746f6b656e206164647265737320666f72204552433230206040820152651c995dd85c9960d21b606082015260800190565b60208082526017908201527f4661696c656420746f2063726561746520706172656e74000000000000000000604082015260600190565b60208082526024908201527f496e73756666696369656e7420616d6f756e7420666f722064697374726962756040820152633a34b7b760e11b606082015260800190565b60208082526015908201527408ae8d0cae440c2dadeeadce840dad2e6dac2e8c6d605b1b604082015260600190565b602080825260159082015274115d1a195c881d1c985b9cd9995c8819985a5b1959605a1b604082015260600190565b6020808252601f908201527f4f6e6c79206f776e65722063616e2073657420746865206d616e696665737400604082015260600190565b6020808252601590820152742730b6b29034b99030b63932b0b23c903a30b5b2b760591b604082015260600190565b6020808252601f908201527f4f6e6c79206f776e65722063616e206368616e676520746865206f776e657200604082015260600190565b60208082526014908201527313595b58995c88185b1c9958591e48185919195960621b604082015260600190565b60208082526021908201527f4e6f7420656e6f75676820746f6b656e7320696e2074686520636f6e747261636040820152601d60fa1b606082015260800190565b602080825260149082015273139bc81b595b58995c9cc81d1bc81c995dd85c9960621b604082015260600190565b60208082526032908201527f4e616d65206368616e67652072657175657374206e6f742073656e742066726f604082015271369036b2b6b132b9103737b91037bbb732b960711b606082015260800190565b60208082526029908201527f52657175657374207375626d69747465642062792061206e6f6e2d6d656d626560408201526872206164647265737360b81b606082015260800190565b90815260200190565b600084825283602083015260606040830152612f1d6060830184612b07565b6040518181016001600160401b03811182821017156132fd576132fd61341b565b604052919050565b60006001600160401b0382111561331e5761331e61341b565b5060209081020190565b6000821982111561333b5761333b613405565b500190565b60008261335b57634e487b7160e01b81526012600452602481fd5b500490565b600081600019048311821515161561337a5761337a613405565b500290565b60005b8381101561339a578181015183820152602001613382565b838111156133a9576000848401525b50505050565b6002810460018216806133c357607f821691505b602082108114156133e457634e487b7160e01b600052602260045260246000fd5b50919050565b60006000198214156133fe576133fe613405565b5060010190565b634e487b7160e01b600052601160045260246000fd5b634e487b7160e01b600052604160045260246000fd5b6001600160a01b038116811461344657600080fd5b5056fea26469706673582212202956656635484f3998b2f8b49d700fec423b88c885bf85bb4e897cebf1a06ce364736f6c63430008000033",
  "linkReferences": {},
  "deployedLinkReferences": {}
}