{"abi":[{"type":"constructor","inputs":[{"name":"_owner","type":"address","internalType":"address"},{"name":"_creatorUserId","type":"string","internalType":"string"},{"name":"_name","type":"string","internalType":"string"},{"name":"_parameter","type":"uint256","internalType":"uint256"},{"name":"_managedFactory","type":"address","internalType":"address"},{"name":"_zonedFactory","type":"address","internalType":"address"}],"stateMutability":"nonpayable"},{"type":"fallback","stateMutability":"payable"},{"type":"receive","stateMutability":"payable"},{"type":"function","name":"addMember","inputs":[{"name":"_userId","type":"string","internalType":"string"}],"outputs":[],"stateMutability":"nonpayable"},{"type":"function","name":"addMember","inputs":[{"name":"_memberaddress","type":"address","internalType":"address"},{"name":"_membername","type":"string","internalType":"string"}],"outputs":[],"stateMutability":"nonpayable"},{"type":"function","name":"addMembers","inputs":[{"name":"_userIds","type":"string[]","internalType":"string[]"}],"outputs":[],"stateMutability":"nonpayable"},{"type":"function","name":"addParent","inputs":[{"name":"_parentaddress","type":"address","internalType":"address"}],"outputs":[],"stateMutability":"nonpayable"},{"type":"function","name":"botAddress","inputs":[],"outputs":[{"name":"","type":"address","internalType":"address"}],"stateMutability":"view"},{"type":"function","name":"changeName","inputs":[{"name":"_address","type":"address","internalType":"address"},{"name":"_name","type":"string","internalType":"string"}],"outputs":[],"stateMutability":"nonpayable"},{"type":"function","name":"changeOwner","inputs":[{"name":"_address","type":"address","internalType":"address"}],"outputs":[],"stateMutability":"nonpayable"},{"type":"function","name":"claim","inputs":[{"name":"_userId","type":"string","internalType":"string"},{"name":"_beneficiary","type":"address","internalType":"address"}],"outputs":[],"stateMutability":"nonpayable"},{"type":"function","name":"contractsByType","inputs":[{"name":"","type":"string","internalType":"string"}],"outputs":[{"name":"","type":"address","internalType":"address"}],"stateMutability":"view"},{"type":"function","name":"createManagedContract","inputs":[{"name":"_creatorUserId","type":"string","internalType":"string"},{"name":"_name","type":"string","internalType":"string"},{"name":"_parameter","type":"uint256","internalType":"uint256"}],"outputs":[{"name":"","type":"address","internalType":"address"}],"stateMutability":"nonpayable"},{"type":"function","name":"createZonedContract","inputs":[{"name":"_creatorUserId","type":"string","internalType":"string"},{"name":"_name","type":"string","internalType":"string"},{"name":"_parameter","type":"uint256","internalType":"uint256"}],"outputs":[{"name":"","type":"address","internalType":"address"}],"stateMutability":"nonpayable"},{"type":"function","name":"creator","inputs":[],"outputs":[{"name":"","type":"address","internalType":"address"}],"stateMutability":"view"},{"type":"function","name":"creatorUserId","inputs":[],"outputs":[{"name":"","type":"string","internalType":"string"}],"stateMutability":"view"},{"type":"function","name":"debugGetContractAddress","inputs":[{"name":"contractKey","type":"string","internalType":"string"}],"outputs":[{"name":"","type":"address","internalType":"address"}],"stateMutability":"view"},{"type":"function","name":"depositEtherForUser","inputs":[{"name":"_userId","type":"string","internalType":"string"},{"name":"amount","type":"uint256","internalType":"uint256"}],"outputs":[],"stateMutability":"payable"},{"type":"function","name":"depositTokenForUser","inputs":[{"name":"_userId","type":"string","internalType":"string"},{"name":"_tokenAddress","type":"address","internalType":"address"},{"name":"_amount","type":"uint256","internalType":"uint256"}],"outputs":[],"stateMutability":"nonpayable"},{"type":"function","name":"etherBalance","inputs":[{"name":"","type":"string","internalType":"string"}],"outputs":[{"name":"","type":"uint256","internalType":"uint256"}],"stateMutability":"view"},{"type":"function","name":"externalContractSplitPercentage","inputs":[],"outputs":[{"name":"","type":"uint256","internalType":"uint256"}],"stateMutability":"view"},{"type":"function","name":"flavor","inputs":[],"outputs":[{"name":"","type":"string","internalType":"string"}],"stateMutability":"view"},{"type":"function","name":"getContractAddresses","inputs":[],"outputs":[{"name":"","type":"string[]","internalType":"string[]"},{"name":"","type":"address[]","internalType":"address[]"}],"stateMutability":"view"},{"type":"function","name":"getContractInfo","inputs":[{"name":"key","type":"string","internalType":"string"}],"outputs":[{"name":"","type":"address","internalType":"address"}],"stateMutability":"view"},{"type":"function","name":"getContractKeys","inputs":[],"outputs":[{"name":"","type":"string[]","internalType":"string[]"}],"stateMutability":"view"},{"type":"function","name":"getSize","inputs":[],"outputs":[{"name":"","type":"uint256","internalType":"uint256"}],"stateMutability":"view"},{"type":"function","name":"hasClaimed","inputs":[{"name":"","type":"string","internalType":"string"}],"outputs":[{"name":"","type":"bool","internalType":"bool"}],"stateMutability":"view"},{"type":"function","name":"internalContractSplitPercentage","inputs":[],"outputs":[{"name":"","type":"uint256","internalType":"uint256"}],"stateMutability":"view"},{"type":"function","name":"isMember","inputs":[{"name":"","type":"address","internalType":"address"}],"outputs":[{"name":"","type":"bool","internalType":"bool"}],"stateMutability":"view"},{"type":"function","name":"isSplitterMember","inputs":[{"name":"","type":"string","internalType":"string"}],"outputs":[{"name":"","type":"bool","internalType":"bool"}],"stateMutability":"view"},{"type":"function","name":"listMembers","inputs":[],"outputs":[{"name":"","type":"address[]","internalType":"address payable[]"}],"stateMutability":"view"},{"type":"function","name":"listParents","inputs":[],"outputs":[{"name":"","type":"address[]","internalType":"address[]"}],"stateMutability":"view"},{"type":"function","name":"managedFactory","inputs":[],"outputs":[{"name":"","type":"address","internalType":"address"}],"stateMutability":"view"},{"type":"function","name":"manifest","inputs":[],"outputs":[{"name":"","type":"string","internalType":"string"}],"stateMutability":"view"},{"type":"function","name":"name","inputs":[],"outputs":[{"name":"","type":"string","internalType":"string"}],"stateMutability":"view"},{"type":"function","name":"newHolon","inputs":[{"name":"_flavor","type":"string","internalType":"string"},{"name":"_name","type":"string","internalType":"string"},{"name":"_parameter","type":"uint256","internalType":"uint256"}],"outputs":[{"name":"","type":"address","internalType":"address"}],"stateMutability":"nonpayable"},{"type":"function","name":"percentages","inputs":[{"name":"","type":"string","internalType":"string"}],"outputs":[{"name":"","type":"uint256","internalType":"uint256"}],"stateMutability":"view"},{"type":"function","name":"removeMember","inputs":[{"name":"_memberaddress","type":"address","internalType":"address"}],"outputs":[],"stateMutability":"nonpayable"},{"type":"function","name":"reward","inputs":[{"name":"_tokenaddress","type":"address","internalType":"address"},{"name":"_tokenamount","type":"uint256","internalType":"uint256"}],"outputs":[],"stateMutability":"payable"},{"type":"function","name":"routeCommand","inputs":[{"name":"contractName","type":"string","internalType":"string"},{"name":"data","type":"bytes","internalType":"bytes"}],"outputs":[{"name":"","type":"bool","internalType":"bool"},{"name":"","type":"bytes","internalType":"bytes"}],"stateMutability":"nonpayable"},{"type":"function","name":"setContractSplit","inputs":[{"name":"_internalPercentage","type":"uint256","internalType":"uint256"},{"name":"_externalPercentage","type":"uint256","internalType":"uint256"}],"outputs":[],"stateMutability":"nonpayable"},{"type":"function","name":"setFactories","inputs":[{"name":"_managedFactory","type":"address","internalType":"address"},{"name":"_zonedFactory","type":"address","internalType":"address"}],"outputs":[],"stateMutability":"nonpayable"},{"type":"function","name":"setManifest","inputs":[{"name":"_IPFSHash","type":"string","internalType":"string"}],"outputs":[],"stateMutability":"nonpayable"},{"type":"function","name":"setSplit","inputs":[{"name":"_userIds","type":"string[]","internalType":"string[]"},{"name":"percentage","type":"uint256[]","internalType":"uint256[]"}],"outputs":[],"stateMutability":"nonpayable"},{"type":"function","name":"toAddress","inputs":[{"name":"","type":"string","internalType":"string"}],"outputs":[{"name":"","type":"address","internalType":"address"}],"stateMutability":"view"},{"type":"function","name":"toName","inputs":[{"name":"","type":"address","internalType":"address"}],"outputs":[{"name":"","type":"string","internalType":"string"}],"stateMutability":"view"},{"type":"function","name":"tokenBalance","inputs":[{"name":"","type":"string","internalType":"string"},{"name":"","type":"address","internalType":"address"}],"outputs":[{"name":"","type":"uint256","internalType":"uint256"}],"stateMutability":"view"},{"type":"function","name":"tokensOf","inputs":[{"name":"","type":"string","internalType":"string"},{"name":"","type":"uint256","internalType":"uint256"}],"outputs":[{"name":"","type":"address","internalType":"address"}],"stateMutability":"view"},{"type":"function","name":"totalDeposited","inputs":[{"name":"","type":"address","internalType":"address"}],"outputs":[{"name":"","type":"uint256","internalType":"uint256"}],"stateMutability":"view"},{"type":"function","name":"userIdToAddress","inputs":[{"name":"","type":"string","internalType":"string"}],"outputs":[{"name":"","type":"address","internalType":"address"}],"stateMutability":"view"},{"type":"function","name":"userIds","inputs":[{"name":"","type":"uint256","internalType":"uint256"}],"outputs":[{"name":"","type":"string","internalType":"string"}],"stateMutability":"view"},{"type":"function","name":"version","inputs":[],"outputs":[{"name":"","type":"string","internalType":"string"}],"stateMutability":"view"},{"type":"function","name":"zonedFactory","inputs":[],"outputs":[{"name":"","type":"address","internalType":"address"}],"stateMutability":"view"},{"type":"event","name":"AddedMember","inputs":[{"name":"member","type":"address","indexed":false,"internalType":"address"},{"name":"name","type":"string","indexed":false,"internalType":"string"}],"anonymous":false},{"type":"event","name":"ChangedName","inputs":[{"name":"namefrom","type":"string","indexed":false,"internalType":"string"},{"name":"nameto","type":"string","indexed":false,"internalType":"string"}],"anonymous":false},{"type":"event","name":"ChildRewardTriggered","inputs":[{"name":"","type":"address","indexed":false,"internalType":"address"},{"name":"","type":"address","indexed":false,"internalType":"address"},{"name":"","type":"uint256","indexed":false,"internalType":"uint256"}],"anonymous":false},{"type":"event","name":"FundsForwarded","inputs":[{"name":"","type":"address","indexed":false,"internalType":"address"},{"name":"","type":"address","indexed":false,"internalType":"address"},{"name":"","type":"uint256","indexed":false,"internalType":"uint256"}],"anonymous":false},{"type":"event","name":"MemberRewarded","inputs":[{"name":"from","type":"address","indexed":true,"internalType":"address"},{"name":"to","type":"address","indexed":true,"internalType":"address"},{"name":"amount","type":"uint256","indexed":false,"internalType":"uint256"},{"name":"isContract","type":"bool","indexed":false,"internalType":"bool"},{"name":"rewardType","type":"string","indexed":false,"internalType":"string"}],"anonymous":false},{"type":"event","name":"RemovedMember","inputs":[{"name":"member","type":"address","indexed":false,"internalType":"address"},{"name":"name","type":"string","indexed":false,"internalType":"string"}],"anonymous":false},{"type":"event","name":"RewardDistributed","inputs":[{"name":"contractAddress","type":"address","indexed":true,"internalType":"address"},{"name":"amount","type":"uint256","indexed":false,"internalType":"uint256"},{"name":"totalMembers","type":"uint256","indexed":false,"internalType":"uint256"},{"name":"rewardType","type":"string","indexed":false,"internalType":"string"}],"anonymous":false}],"bytecode":{"object":"0x608060405234801561000f575f5ffd5b5060405161467938038061467983398101604081905261002e91610480565b600280546001600160a01b0319163217905560408051808201909152601b81527f53706c69747465722e636f6e7374727563746f723a20454e5452590000000000602082015261007d9061026d565b60408051808201909152601c81527f53706c69747465722e636f6e7374727563746f723a204f776e65723a0000000060208201526100bb90876102b7565b60408051808201909152601e81527f53706c69747465722e636f6e7374727563746f723a2043726561746f723a000060208201526100f99086610304565b60408051808201909152601b81527f53706c69747465722e636f6e7374727563746f723a204e616d653a000000000060208201526101379085610304565b61017c6040518060400160405280602081526020017f53706c69747465722e636f6e7374727563746f723a20506172616d657465723a8152508461034d60201b60201c565b61019e60405180606001604052806025815260200161463160259139836102b7565b6101c060405180606001604052806023815260200161465660239139826102b7565b600280546001600160a01b0319166001600160a01b03881617905560176101e786826105a2565b5060076101f485826105a2565b50601580546001600160a01b038085166001600160a01b031992831617909255601680549284169290911691909117905560408051808201909152601d81527f53706c69747465722e636f6e7374727563746f723a205355434345535300000060208201526102629061026d565b50505050505061071a565b6102b481604051602401610281919061068a565b60408051601f198184030181529190526020810180516001600160e01b0390811663104c13eb60e21b1790915261039616565b50565b61030082826040516024016102cd9291906106a3565b60408051601f198184030181529190526020810180516001600160e01b0390811663319af33360e01b1790915261039616565b5050565b610300828260405160240161031a9291906106cc565b60408051601f198184030181529190526020810180516001600160e01b03908116634b5c427760e01b1790915261039616565b61030082826040516024016103639291906106f9565b60408051601f198184030181529190526020810180516001600160e01b03908116632d839cb360e21b1790915261039616565b6102b4816103a960201b612b061760201c565b5f6a636f6e736f6c652e6c6f6790505f5f835160208501845afa505050565b80516001600160a01b03811681146103de575f5ffd5b919050565b634e487b7160e01b5f52604160045260245ffd5b5f82601f830112610406575f5ffd5b81516001600160401b0381111561041f5761041f6103e3565b604051601f8201601f19908116603f011681016001600160401b038111828210171561044d5761044d6103e3565b604052818152838201602001851015610464575f5ffd5b8160208501602083015e5f918101602001919091529392505050565b5f5f5f5f5f5f60c08789031215610495575f5ffd5b61049e876103c8565b60208801519096506001600160401b038111156104b9575f5ffd5b6104c589828a016103f7565b604089015190965090506001600160401b038111156104e2575f5ffd5b6104ee89828a016103f7565b94505060608701519250610504608088016103c8565b915061051260a088016103c8565b90509295509295509295565b600181811c9082168061053257607f821691505b60208210810361055057634e487b7160e01b5f52602260045260245ffd5b50919050565b601f82111561059d57805f5260205f20601f840160051c8101602085101561057b5750805b601f840160051c820191505b8181101561059a575f8155600101610587565b50505b505050565b81516001600160401b038111156105bb576105bb6103e3565b6105cf816105c9845461051e565b84610556565b6020601f821160018114610601575f83156105ea5750848201515b5f19600385901b1c1916600184901b17845561059a565b5f84815260208120601f198516915b828110156106305787850151825560209485019460019092019101610610565b508482101561064d57868401515f19600387901b60f8161c191681555b50505050600190811b01905550565b5f81518084528060208401602086015e5f602082860101526020601f19601f83011685010191505092915050565b602081525f61069c602083018461065c565b9392505050565b604081525f6106b5604083018561065c565b905060018060a01b03831660208301529392505050565b604081525f6106de604083018561065c565b82810360208401526106f0818561065c565b95945050505050565b604081525f61070b604083018561065c565b90508260208301529392505050565b613f0a806107275f395ff3fe6080604052600436106102cc575f3560e01c80637e4115ba11610174578063b2dd3195116100db578063d73cde3f11610094578063e1c131f51161006e578063e1c131f5146109f0578063e345ce82146106b7578063f59e4f6514610a1d578063f5baf0d714610a31576102dd565b8063d73cde3f14610984578063da466c91146109a3578063de8fa431146109dd576102dd565b8063b2dd31951461088a578063b6afd2ca1461089f578063c127c247146108c0578063c21be6ae146108df578063ca2243131461091f578063cc18494814610965576102dd565b80639aa4c2e51161012d5780639aa4c2e514610736578063a230c5241461077e578063a3e3bd31146107ac578063a6f9dae1146107c1578063acf36e53146107e0578063adc10a401461084a576102dd565b80637e4115ba14610658578063804d747014610698578063819f34b3146106b757806381bc3f8c146106d6578063918f9687146106f5578063953874d214610714576102dd565b8063363454ee1161023357806353055481116101ec57806357a32534116101c657806357a32534146105b857806360a1da83146105ef5780636393f5d41461060e57806378bef78b14610645576102dd565b8063530554811461054c57806354fd4d50146105855780635787415814610599576102dd565b8063363454ee1461047257806342302ecb146104bc57806345ca25ed146104d05780634635fd68146104ef5780634bf4f4231461050e578063516ec71c1461052d576102dd565b806312ca40bd1161028557806312ca40bd146103c25780631a2f4ee5146103e157806321670f22146104005780632615c3c71461041357806329b84d09146104325780633113a2ae14610451576102dd565b806302d05d3f146102e757806306fdde031461032357806307028dd41461034457806308ea7355146103635780630b1ca49a146103845780630babba86146103a3576102dd565b366102dd576102db5f34610a45565b005b6102db5f34610a45565b3480156102f2575f5ffd5b50600a54610306906001600160a01b031681565b6040516001600160a01b0390911681526020015b60405180910390f35b34801561032e575f5ffd5b506103376115ed565b60405161031a9190613072565b34801561034f575f5ffd5b5061030661035e366004613145565b611679565b34801561036e575f5ffd5b50610377611846565b60405161031a919061320b565b34801561038f575f5ffd5b506102db61039e366004613231565b61191a565b3480156103ae575f5ffd5b506103066103bd366004613289565b611af9565b3480156103cd575f5ffd5b50601654610306906001600160a01b031681565b3480156103ec575f5ffd5b506102db6103fb3660046132fa565b611b7e565b6102db61040e36600461331a565b610a45565b34801561041e575f5ffd5b506102db61042d366004613344565b611be2565b34801561043d575f5ffd5b506102db61044c366004613399565b611ce2565b34801561045c575f5ffd5b50610465611d4e565b60405161031a919061341a565b34801561047d575f5ffd5b506104ac61048c36600461342c565b8051602081830181018051600d8252928201919093012091525460ff1681565b604051901515815260200161031a565b3480156104c7575f5ffd5b50610337611dae565b3480156104db575f5ffd5b506102db6104ea366004613465565b611dbb565b3480156104fa575f5ffd5b506103376105093660046134b1565b611ef7565b348015610519575f5ffd5b50601454610306906001600160a01b031681565b348015610538575f5ffd5b506102db61054736600461356d565b611f1e565b348015610557575f5ffd5b50610577610566366004613231565b60126020525f908152604090205481565b60405190815260200161031a565b348015610590575f5ffd5b506103376120e6565b3480156105a4575f5ffd5b50601554610306906001600160a01b031681565b3480156105c3575f5ffd5b506105776105d236600461342c565b8051602081830181018051600f8252928201919093012091525481565b3480156105fa575f5ffd5b506102db610609366004613629565b6120f3565b348015610619575f5ffd5b5061057761062836600461342c565b805160208183018101805160138252928201919093012091525481565b6102db610653366004613677565b612226565b348015610663575f5ffd5b5061030661067236600461342c565b80516020818301810180516005825292820191909301209152546001600160a01b031681565b3480156106a3575f5ffd5b506102db6106b23660046136b8565b61225c565b3480156106c2575f5ffd5b506103066106d136600461342c565b61232a565b3480156106e1575f5ffd5b506103376106f0366004613231565b61235a565b348015610700575f5ffd5b506102db61070f36600461342c565b612372565b34801561071f575f5ffd5b5061072861240a565b60405161031a9291906136e9565b348015610741575f5ffd5b506102db610750366004613716565b601580546001600160a01b039384166001600160a01b03199182161790915560168054929093169116179055565b348015610789575f5ffd5b506104ac610798366004613231565b60046020525f908152604090205460ff1681565b3480156107b7575f5ffd5b5061057760195481565b3480156107cc575f5ffd5b506102db6107db366004613231565b6125f9565b3480156107eb575f5ffd5b506102db6107fa366004613231565b6001805480820182555f919091527fb10e2d527612073b26eecdfd717e6a320cf44b4afac2b0732d9fcbe2b7fa0cf60180546001600160a01b0319166001600160a01b0392909216919091179055565b348015610855575f5ffd5b5061030661086436600461342c565b80516020818301810180516018825292820191909301209152546001600160a01b031681565b348015610895575f5ffd5b50610577601a5481565b3480156108aa575f5ffd5b506108b3612675565b60405161031a9190613742565b3480156108cb575f5ffd5b506102db6108da366004613465565b6126d2565b3480156108ea575f5ffd5b506103066108f936600461342c565b8051602081830181018051600c825292820191909301209152546001600160a01b031681565b34801561092a575f5ffd5b50610577610939366004613629565b81516020818401810180516010825292820194820194909420919093529091525f908152604090205481565b348015610970575f5ffd5b5061030661097f366004613677565b6128e5565b34801561098f575f5ffd5b5061030661099e366004613145565b61292a565b3480156109ae575f5ffd5b506104ac6109bd36600461342c565b8051602081830181018051600e8252928201919093012091525460ff1681565b3480156109e8575f5ffd5b505f54610577565b3480156109fb575f5ffd5b50610a0f610a0a36600461378d565b612a07565b60405161031a9291906137f9565b348015610a28575f5ffd5b50610337612aec565b348015610a3c575f5ffd5b50610337612af9565b5f5f5f5f34118015610a5e57506001600160a01b038516155b15610a715750349250600191505f610b3f565b6040516370a0823160e01b815230600482015285925084906001600160a01b038416906370a0823190602401602060405180830381865afa158015610ab8573d5f5f3e3d5ffd5b505050506040513d601f19601f82011682018060405250810190610adc9190613813565b1015610b395760405162461bcd60e51b815260206004820152602160248201527f4e6f7420656e6f75676820746f6b656e7320696e2074686520636f6e747261636044820152601d60fa1b60648201526084015b60405180910390fd5b505f9150835b610b7d6040518060400160405280602081526020017f726577617264202d205374617274696e672061646472657373206c6f6f6b7570815250612b25565b5f6007604051602001610b9091906138d0565b60405160208183030381529060405290505f6007604051602001610bb491906138f3565b60405160208183030381529060405290505f601883604051610bd6919061392b565b908152604051908190036020018120546001600160a01b031691505f90601890610c0190859061392b565b90815260408051918290036020908101832054838301909252601783527f2020666f756e64206d616e61676564416464726573733a000000000000000000908301526001600160a01b03169150610c589083612b6b565b610c8f6040518060400160405280601581526020017410103337bab732103d37b732b220b2323932b9b99d60591b81525082612b6b565b6001600160a01b038216610ce55760405162461bcd60e51b815260206004820181905260248201527f4d616e6167656420636f6e74726163742061646472657373206e6f74207365746044820152606401610b30565b6001600160a01b038116610d3b5760405162461bcd60e51b815260206004820152601e60248201527f5a6f6e656420636f6e74726163742061646472657373206e6f742073657400006044820152606401610b30565b601a54601954610d4b919061394a565b606414610db05760405162461bcd60e51b815260206004820152602d60248201527f436f6e74726163742073706c69742070657263656e7461676573206e6f74207360448201526c195d081bdc881a5b9d985b1a59609a1b6064820152608401610b30565b5f60646019548a610dc19190613963565b610dcb919061397a565b90505f6064601a548b610dde9190613963565b610de8919061397a565b90505f610df5828461394a565b90508a811015610e1657610e09818c613999565b610e13908461394a565b92505b610e476040518060400160405280600f81526020016e10102a37ba30b61020b6b7bab73a1d60891b8152508c612bb0565b610e796040518060400160405280601081526020016f101026b0b730b3b2b21029b430b9329d60811b81525084612bb0565b610ea96040518060400160405280600e81526020016d10102d37b732b21029b430b9329d60911b81525083612bb0565b5f60608b156110cf578415610fbe57610ef76040518060400160405280601c81526020017f2020466f7277617264696e672045544820746f204d616e616765643a0000000081525086612bb0565b6040516001600160a01b0388169086905f81818185875af1925050503d805f8114610f3d576040519150601f19603f3d011682016040523d82523d5f602084013e610f42565b606091505b50508092505081610f955760405162461bcd60e51b815260206004820152601e60248201527f455448207472616e7366657220746f204d616e61676564206661696c656400006044820152606401610b30565b5f516020613eb55f395f51905f52875f87604051610fb5939291906139ac565b60405180910390a15b83156110ca576110036040518060400160405280601a81526020017f2020466f7277617264696e672045544820746f205a6f6e65643a00000000000081525085612bb0565b6040516001600160a01b0387169085905f81818185875af1925050503d805f8114611049576040519150601f19603f3d011682016040523d82523d5f602084013e61104e565b606091505b505080925050816110a15760405162461bcd60e51b815260206004820152601c60248201527f455448207472616e7366657220746f205a6f6e6564206661696c6564000000006044820152606401610b30565b5f516020613eb55f395f51905f52865f866040516110c1939291906139ac565b60405180910390a15b611329565b84156111fc576111146040518060400160405280601e81526020017f2020466f7277617264696e6720455243323020746f204d616e616765643a000081525086612bb0565b60405163a9059cbb60e01b81526001600160a01b038881166004830152602482018790528c169063a9059cbb906044016020604051808303815f875af1158015611160573d5f5f3e3d5ffd5b505050506040513d601f19601f8201168201806040525081019061118491906139d0565b9150816111d35760405162461bcd60e51b815260206004820181905260248201527f4552433230207472616e7366657220746f204d616e61676564206661696c65646044820152606401610b30565b5f516020613eb55f395f51905f52878f876040516111f3939291906139ac565b60405180910390a15b8315611329576112416040518060400160405280601c81526020017f2020466f7277617264696e6720455243323020746f205a6f6e65643a0000000081525085612bb0565b60405163a9059cbb60e01b81526001600160a01b038781166004830152602482018690528c169063a9059cbb906044016020604051808303815f875af115801561128d573d5f5f3e3d5ffd5b505050506040513d601f19601f820116820180604052508101906112b191906139d0565b9150816113005760405162461bcd60e51b815260206004820152601e60248201527f4552433230207472616e7366657220746f205a6f6e6564206661696c656400006044820152606401610b30565b5f516020613eb55f395f51905f52868f86604051611320939291906139ac565b60405180910390a15b8415611483578b61144757611356604051806060016040528060378152602001613e496037913986612bb0565b6040516001600160a01b038b1660248201526044810186905260640160408051601f198184030181529181526020820180516001600160e01b03166310b3879160e11b179052519091506001600160a01b038816906113b690839061392b565b5f604051808303815f865af19150503d805f81146113ef576040519150601f19603f3d011682016040523d82523d5f602084013e6113f4565b606091505b505080925050816114475760405162461bcd60e51b815260206004820152601d60248201527f43616c6c20746f204d616e6167656420726577617264206661696c65640000006044820152606401610b30565b7f0675e5879ae981990003e2a3b4a908c336527d599a0b8305df58a9ce85083b84878b8760405161147a939291906139ac565b60405180910390a15b83156115dd578b6115a1576114b0604051806060016040528060358152602001613e806035913985612bb0565b6040516001600160a01b038b1660248201526044810185905260640160408051601f198184030181529181526020820180516001600160e01b03166310b3879160e11b179052519091506001600160a01b0387169061151090839061392b565b5f604051808303815f865af19150503d805f8114611549576040519150601f19603f3d011682016040523d82523d5f602084013e61154e565b606091505b505080925050816115a15760405162461bcd60e51b815260206004820152601b60248201527f43616c6c20746f205a6f6e656420726577617264206661696c656400000000006044820152606401610b30565b7f0675e5879ae981990003e2a3b4a908c336527d599a0b8305df58a9ce85083b84868b866040516115d4939291906139ac565b60405180910390a15b5050505050505050505050505050565b600780546115fa9061382a565b80601f01602080910402602001604051908101604052809291908181526020018280546116269061382a565b80156116715780601f1061164857610100808354040283529160200191611671565b820191905f5260205f20905b81548152906001019060200180831161165457829003601f168201915b505050505081565b6016545f906001600160a01b03166116ca5760405162461bcd60e51b8152602060048201526014602482015273169bdb9959119858dd1bdc9e481b9bdd081cd95d60621b6044820152606401610b30565b601654604051639e79e8a560e01b81526001600160a01b03909116905f908290639e79e8a590611702908990899089906004016139ef565b6020604051808303815f875af115801561171e573d5f5f3e3d5ffd5b505050506040513d601f19601f820116820180604052508101906117429190613a24565b90505f856040516020016117569190613a3f565b604051602081830303815290604052905081601882604051611778919061392b565b90815260405190819003602001812080546001600160a01b03939093166001600160a01b031990931692909217909155601c906117b690839061392b565b9081526040519081900360200190205460ff1661183c57601b80546001810182555f919091527f3ad8aa4f87544323a9d1e5dd902f40c356527a7955687113db5f9a85ad579dc1016118088282613a95565b506001601c8260405161181b919061392b565b908152604051908190036020019020805491151560ff199092169190911790555b5095945050505050565b6060601b805480602002602001604051908101604052809291908181526020015f905b82821015611911578382905f5260205f200180546118869061382a565b80601f01602080910402602001604051908101604052809291908181526020018280546118b29061382a565b80156118fd5780601f106118d4576101008083540402835291602001916118fd565b820191905f5260205f20905b8154815290600101906020018083116118e057829003601f168201915b505050505081526020019060010190611869565b50505050905090565b6002546001600160a01b031633146119445760405162461bcd60e51b8152600401610b3090613b4f565b5f5b5f548110156119f057816001600160a01b03165f828154811061196b5761196b613b98565b5f918252602090912001546001600160a01b0316036119e8575f805461198f613b98565b5f91825260208220015481546001600160a01b039091169190839081106119b8576119b8613b98565b905f5260205f20015f6101000a8154816001600160a01b0302191690836001600160a01b031602179055506119f0565b600101611946565b505f805480611a0157611a01613bac565b5f828152602080822083015f1990810180546001600160a01b03191690559092019092556001600160a01b0383168252600481526040808320805460ff1916905560069091529081902090517f982d6fac85d22cbbe833f9fe4278a909ca0f3b24ecc8b1f10fe63736e3c7231391611a7b91849190613c3e565b60405180910390a16001600160a01b0381165f908152600660205260408082209051600591611aa991613c61565b908152604080516020928190038301812080546001600160a01b0319166001600160a01b0395861617905582810182525f8082529385168452600690925290912090611af59082613a95565b5050565b600a546040516305d5dd4360e11b81525f916001600160a01b0316908190630babba8690611b33908a908a908a908a908a90600401613c94565b6020604051808303815f875af1158015611b4f573d5f5f3e3d5ffd5b505050506040513d601f19601f82011682018060405250810190611b739190613a24565b979650505050505050565b611b88818361394a565b606414611bd75760405162461bcd60e51b815260206004820152601c60248201527f546f74616c2070657263656e74616765206d75737420626520313030000000006044820152606401610b30565b601991909155601a55565b5f8290505f601085604051611bf7919061392b565b9081526040805191829003602090810183206001600160a01b0388165f9081529152205491508390601090611c2d90889061392b565b90815260200160405180910390205f866001600160a01b03166001600160a01b031681526020019081526020015f205f828254611c6a919061394a565b9091555050604051601190611c8090879061392b565b908152604080516020928190038301902080546001810182555f9182528382200180546001600160a01b0319166001600160a01b0389169081179091558152601290925281208054859290611cd690849061394a565b90915550505050505050565b6002546001600160a01b03163314611d3c5760405162461bcd60e51b815260206004820152601f60248201527f4f6e6c79206f776e65722063616e2073657420746865206d616e6966657374006044820152606401610b30565b6003611d49828483613ccd565b505050565b60606001805480602002602001604051908101604052809291908181526020018280548015611da457602002820191905f5260205f20905b81546001600160a01b03168152600190910190602001808311611d86575b5050505050905090565b601780546115fa9061382a565b6001600160a01b038216331480611ddc57506002546001600160a01b031633145b80611def57506001600160a01b03821632145b611e565760405162461bcd60e51b815260206004820152603260248201527f4e616d65206368616e67652072657175657374206e6f742073656e742066726f604482015271369036b2b6b132b9103737b91037bbb732b960711b6064820152608401610b30565b81600582604051611e67919061392b565b908152604080516020928190038301812080546001600160a01b0319166001600160a01b039586161790559285165f908152600690925290207ffdcc9059d3426f73949b49e5d977553aa298184439da800d66f48959d9cc76b091611ece91908490613d86565b60405180910390a16001600160a01b0382165f908152600660205260409020611d498282613a95565b600b8181548110611f06575f80fd5b905f5260205f20015f9150905080546115fa9061382a565b6014546002546001600160a01b03908116911614611f8c5760405162461bcd60e51b815260206004820152602560248201527f4f6e6c792073706c6974746572206f776e65722063616e2073657420746865206044820152641cdc1b1a5d60da1b6064820152608401610b30565b8051825114611fee5760405162461bcd60e51b815260206004820152602860248201527f5f7573657249647320616e642070657263656e74616765732073686f756c6420604482015267189948195c5d585b60c21b6064820152608401610b30565b5f805b82518110156120295782818151811061200c5761200c613b98565b60200260200101518261201f919061394a565b9150600101611ff1565b508060641461207a5760405162461bcd60e51b815260206004820152601e60248201527f546f74616c2070657263656e746167652073686f756c642062652031303000006044820152606401610b30565b5f5b83518110156120e05782818151811061209757612097613b98565b602002602001015160138583815181106120b3576120b3613b98565b60200260200101516040516120c8919061392b565b9081526040519081900360200190205560010161207c565b50505050565b600880546115fa9061382a565b600d82604051612103919061392b565b9081526040519081900360200190205460ff16156121635760405162461bcd60e51b815260206004820152601860248201527f557365722068617320616c726561647920636c61696d656400000000000000006044820152606401610b30565b5f6001600160a01b0316600c8360405161217d919061392b565b908152604051908190036020019020546001600160a01b0316036121dc5780600c836040516121ac919061392b565b90815260405190819003602001902080546001600160a01b03929092166001600160a01b03199092169190911790555b6121e68282612bf5565b6121f08282612d90565b6001600d83604051612202919061392b565b908152604051908190036020019020805491151560ff199092169190911790555050565b80600f83604051612237919061392b565b90815260200160405180910390205f828254612253919061394a565b90915550505050565b5f5b8151811015611af5575f82828151811061227a5761227a613b98565b60200260200101519050600e81604051612294919061392b565b9081526040519081900360200190205460ff16156122b25750612322565b6001600e826040516122c4919061392b565b908152604051908190036020019020805491151560ff19909216919091179055600b80546001810182555f919091527f0175b7a638427703f0dbe7bb9bbf987a2551717b34e79f33b5b1008d1fa01db90161231f8282613a95565b50505b60010161225e565b5f60188260405161233b919061392b565b908152604051908190036020019020546001600160a01b031692915050565b60066020525f9081526040902080546115fa9061382a565b600e81604051612382919061392b565b9081526040519081900360200190205460ff161561239d5750565b6001600e826040516123af919061392b565b908152604051908190036020019020805491151560ff19909216919091179055600b80546001810182555f919091527f0175b7a638427703f0dbe7bb9bbf987a2551717b34e79f33b5b1008d1fa01db901611af58282613a95565b6060805f601b805490506001600160401b0381111561242b5761242b61308b565b60405190808252806020026020018201604052801561245e57816020015b60608152602001906001900390816124495790505b50601b549091505f906001600160401b0381111561247e5761247e61308b565b6040519080825280602002602001820160405280156124a7578160200160208202803683370190505b5090505f5b601b548110156125ef57601b81815481106124c9576124c9613b98565b905f5260205f200180546124dc9061382a565b80601f01602080910402602001604051908101604052809291908181526020018280546125089061382a565b80156125535780601f1061252a57610100808354040283529160200191612553565b820191905f5260205f20905b81548152906001019060200180831161253657829003601f168201915b505050505083828151811061256a5761256a613b98565b60200260200101819052506018601b828154811061258a5761258a613b98565b905f5260205f200160405161259f9190613c61565b9081526040519081900360200190205482516001600160a01b03909116908390839081106125cf576125cf613b98565b6001600160a01b03909216602092830291909101909101526001016124ac565b5090939092509050565b6002546001600160a01b031633146126535760405162461bcd60e51b815260206004820152601f60248201527f4f6e6c79206f776e65722063616e206368616e676520746865206f776e6572006044820152606401610b30565b600280546001600160a01b0319166001600160a01b0392909216919091179055565b60605f805480602002602001604051908101604052809291908181526020018280548015611da457602002820191905f5260205f209081546001600160a01b03168152600190910190602001808311611d86575050505050905090565b335f9081526004602052604090205460ff161515600114806126fe57506002546001600160a01b031633145b61271a5760405162461bcd60e51b8152600401610b3090613b4f565b6001600160a01b0382165f9081526004602052604090205460ff16156127795760405162461bcd60e51b815260206004820152601460248201527313595b58995c88185b1c9958591e48185919195960621b6044820152606401610b30565b5f6001600160a01b0316600582604051612793919061392b565b908152604051908190036020019020546001600160a01b0316146127f15760405162461bcd60e51b81526020600482015260156024820152742730b6b29034b99030b63932b0b23c903a30b5b2b760591b6044820152606401610b30565b5f80546001810182557f290decd9548b62a8d60345a988386fc84ba6bc95484008f6362f93160ef3e5630180546001600160a01b0319166001600160a01b038516908117909155815260066020526040902061284d8282613a95565b508160058260405161285f919061392b565b908152604080516020928190038301902080546001600160a01b0319166001600160a01b039485161790559184165f9081526004909152908120805460ff1916600117905560607f7c803c00251fe8138e27cfa8286be8d98625e5f6476ca6ca594f682362b7112084846040516128d7929190613daa565b60405180910390a150505050565b8151602081840181018051601182529282019185019190912091905280548290811061290f575f80fd5b5f918252602090912001546001600160a01b03169150829050565b6015545f906001600160a01b031661297d5760405162461bcd60e51b815260206004820152601660248201527513585b9859d959119858dd1bdc9e481b9bdd081cd95d60521b6044820152606401610b30565b601554604051634748e13d60e01b81526001600160a01b03909116905f908290634748e13d906129b39089908990600401613dcd565b6020604051808303815f875af11580156129cf573d5f5f3e3d5ffd5b505050506040513d601f19601f820116820180604052508101906129f39190613a24565b90505f856040516020016117569190613ddf565b5f60605f601885604051612a1b919061392b565b908152604051908190036020019020546001600160a01b0316905080612a835760405162461bcd60e51b815260206004820152601960248201527f54617267657420636f6e7472616374206e6f7420666f756e64000000000000006044820152606401610b30565b5f5f826001600160a01b031686604051612a9d919061392b565b5f604051808303815f865af19150503d805f8114612ad6576040519150601f19603f3d011682016040523d82523d5f602084013e612adb565b606091505b5090955093505050505b9250929050565b600980546115fa9061382a565b600380546115fa9061382a565b5f6a636f6e736f6c652e6c6f6790505f5f835160208501845afa505050565b612b6881604051602401612b399190613072565b60408051601f198184030181529190526020810180516001600160e01b031663104c13eb60e21b179052613031565b50565b611af58282604051602401612b81929190613dea565b60408051601f198184030181529190526020810180516001600160e01b031663319af33360e01b179052613031565b611af58282604051602401612bc6929190613e13565b60408051601f198184030181529190526020810180516001600160e01b0316632d839cb360e21b179052613031565b6014546001600160a01b03163314612c4f5760405162461bcd60e51b815260206004820152601d60248201527f4f6e6c792063726561746f722063616e207375626d697420636c61696d0000006044820152606401610b30565b5f600f83604051612c60919061392b565b9081526040519081900360200190205490506001600160a01b038216612cc85760405162461bcd60e51b815260206004820152601b60248201527f496e76616c69642062656e6566696369617279206164647265737300000000006044820152606401610b30565b8015612d6a575f5f836001600160a01b0316836040515f6040518083038185875af1925050503d805f8114612d18576040519150601f19603f3d011682016040523d82523d5f602084013e612d1d565b606091505b509150915081612d675760405162461bcd60e51b815260206004820152601560248201527410db185a5b5a5b99c8115d1a195c8819985a5b1959605a1b6044820152606401610b30565b50505b5f600f84604051612d7b919061392b565b90815260405190819003602001902055505050565b6014546001600160a01b03163314612dea5760405162461bcd60e51b815260206004820152601d60248201527f4f6e6c792063726561746f722063616e207375626d697420636c61696d0000006044820152606401610b30565b5f601183604051612dfb919061392b565b9081526040805191829003602090810183208054808302850183019093528284529190830182828015612e5557602002820191905f5260205f20905b81546001600160a01b03168152600190910190602001808311612e37575b509394505f93505050505b601184604051612e70919061392b565b908152604051908190036020019020548110156120e0575f828281518110612e9a57612e9a613b98565b602002602001015190505f601086604051612eb5919061392b565b90815260200160405180910390205f858581518110612ed657612ed6613b98565b60200260200101516001600160a01b03166001600160a01b031681526020019081526020015f205490505f811115613027575f601087604051612f19919061392b565b90815260200160405180910390205f868681518110612f3a57612f3a613b98565b60200260200101516001600160a01b03166001600160a01b031681526020019081526020015f20819055508060125f868681518110612f7b57612f7b613b98565b60200260200101516001600160a01b03166001600160a01b031681526020019081526020015f205f828254612fb09190613999565b909155505060405163a9059cbb60e01b81526001600160a01b0386811660048301526024820183905283169063a9059cbb906044016020604051808303815f875af1158015613001573d5f5f3e3d5ffd5b505050506040513d601f19601f8201168201806040525081019061302591906139d0565b505b5050600101612e60565b612b6881612b06565b613042613e34565b565b5f81518084528060208401602086015e5f602082860101526020601f19601f83011685010191505092915050565b602081525f6130846020830184613044565b9392505050565b634e487b7160e01b5f52604160045260245ffd5b604051601f8201601f191681016001600160401b03811182821017156130c7576130c761308b565b604052919050565b5f5f6001600160401b038411156130e8576130e861308b565b50601f8301601f19166020016130fd8161309f565b915050828152838383011115613111575f5ffd5b828260208301375f602084830101529392505050565b5f82601f830112613136575f5ffd5b613084838335602085016130cf565b5f5f5f60608486031215613157575f5ffd5b83356001600160401b0381111561316c575f5ffd5b61317886828701613127565b93505060208401356001600160401b03811115613193575f5ffd5b61319f86828701613127565b93969395505050506040919091013590565b5f82825180855260208501945060208160051b830101602085015f5b838110156131ff57601f198584030188526131e9838351613044565b60209889019890935091909101906001016131cd565b50909695505050505050565b602081525f61308460208301846131b1565b6001600160a01b0381168114612b68575f5ffd5b5f60208284031215613241575f5ffd5b81356130848161321d565b5f5f83601f84011261325c575f5ffd5b5081356001600160401b03811115613272575f5ffd5b602083019150836020828501011115612ae5575f5ffd5b5f5f5f5f5f6060868803121561329d575f5ffd5b85356001600160401b038111156132b2575f5ffd5b6132be8882890161324c565b90965094505060208601356001600160401b038111156132dc575f5ffd5b6132e88882890161324c565b96999598509660400135949350505050565b5f5f6040838503121561330b575f5ffd5b50508035926020909101359150565b5f5f6040838503121561332b575f5ffd5b82356133368161321d565b946020939093013593505050565b5f5f5f60608486031215613356575f5ffd5b83356001600160401b0381111561336b575f5ffd5b61337786828701613127565b93505060208401356133888161321d565b929592945050506040919091013590565b5f5f602083850312156133aa575f5ffd5b82356001600160401b038111156133bf575f5ffd5b6133cb8582860161324c565b90969095509350505050565b5f8151808452602084019350602083015f5b828110156134105781516001600160a01b03168652602095860195909101906001016133e9565b5093949350505050565b602081525f61308460208301846133d7565b5f6020828403121561343c575f5ffd5b81356001600160401b03811115613451575f5ffd5b61345d84828501613127565b949350505050565b5f5f60408385031215613476575f5ffd5b82356134818161321d565b915060208301356001600160401b0381111561349b575f5ffd5b6134a785828601613127565b9150509250929050565b5f602082840312156134c1575f5ffd5b5035919050565b5f6001600160401b038211156134e0576134e061308b565b5060051b60200190565b5f82601f8301126134f9575f5ffd5b813561350c613507826134c8565b61309f565b8082825260208201915060208360051b86010192508583111561352d575f5ffd5b602085015b8381101561183c5780356001600160401b0381111561354f575f5ffd5b61355e886020838a0101613127565b84525060209283019201613532565b5f5f6040838503121561357e575f5ffd5b82356001600160401b03811115613593575f5ffd5b61359f858286016134ea565b92505060208301356001600160401b038111156135ba575f5ffd5b8301601f810185136135ca575f5ffd5b80356135d8613507826134c8565b8082825260208201915060208360051b8501019250878311156135f9575f5ffd5b6020840193505b8284101561361b578335825260209384019390910190613600565b809450505050509250929050565b5f5f6040838503121561363a575f5ffd5b82356001600160401b0381111561364f575f5ffd5b61365b85828601613127565b925050602083013561366c8161321d565b809150509250929050565b5f5f60408385031215613688575f5ffd5b82356001600160401b0381111561369d575f5ffd5b6136a985828601613127565b95602094909401359450505050565b5f602082840312156136c8575f5ffd5b81356001600160401b038111156136dd575f5ffd5b61345d848285016134ea565b604081525f6136fb60408301856131b1565b828103602084015261370d81856133d7565b95945050505050565b5f5f60408385031215613727575f5ffd5b82356137328161321d565b9150602083013561366c8161321d565b602080825282518282018190525f918401906040840190835b818110156137825783516001600160a01b031683526020938401939092019160010161375b565b509095945050505050565b5f5f6040838503121561379e575f5ffd5b82356001600160401b038111156137b3575f5ffd5b6137bf85828601613127565b92505060208301356001600160401b038111156137da575f5ffd5b8301601f810185136137ea575f5ffd5b6134a7858235602084016130cf565b8215158152604060208201525f61345d6040830184613044565b5f60208284031215613823575f5ffd5b5051919050565b600181811c9082168061383e57607f821691505b60208210810361385c57634e487b7160e01b5f52602260045260245ffd5b50919050565b5f815461386e8161382a565b600182168015613885576001811461389a576138c7565b60ff19831686528115158202860193506138c7565b845f5260205f205f5b838110156138bf578154888201526001909101906020016138a3565b505081860193505b50505092915050565b5f6138db8284613862565b6717db585b9859d95960c21b81526008019392505050565b5f6138fe8284613862565b6517de9bdb995960d21b81526006019392505050565b5f81518060208401855e5f93019283525090919050565b5f6130848284613914565b634e487b7160e01b5f52601160045260245ffd5b8082018082111561395d5761395d613936565b92915050565b808202811582820484141761395d5761395d613936565b5f8261399457634e487b7160e01b5f52601260045260245ffd5b500490565b8181038181111561395d5761395d613936565b6001600160a01b039384168152919092166020820152604081019190915260600190565b5f602082840312156139e0575f5ffd5b81518015158114613084575f5ffd5b606081525f613a016060830186613044565b8281036020840152613a138186613044565b915050826040830152949350505050565b5f60208284031215613a34575f5ffd5b81516130848161321d565b5f6138fe8284613914565b601f821115611d4957805f5260205f20601f840160051c81016020851015613a6f5750805b601f840160051c820191505b81811015613a8e575f8155600101613a7b565b5050505050565b81516001600160401b03811115613aae57613aae61308b565b613ac281613abc845461382a565b84613a4a565b6020601f821160018114613af4575f8315613add5750848201515b5f19600385901b1c1916600184901b178455613a8e565b5f84815260208120601f198516915b82811015613b235787850151825560209485019460019092019101613b03565b5084821015613b4057868401515f19600387901b60f8161c191681555b50505050600190811b01905550565b60208082526029908201527f52657175657374207375626d69747465642062792061206e6f6e2d6d656d626560408201526872206164647265737360b81b606082015260800190565b634e487b7160e01b5f52603260045260245ffd5b634e487b7160e01b5f52603160045260245ffd5b5f8154613bcc8161382a565b808552600182168015613be65760018114613c02576138c7565b60ff1983166020870152602082151560051b87010193506138c7565b845f5260205f205f5b83811015613c2d5781546020828a010152600182019150602081019050613c0b565b870160200194505050505092915050565b6001600160a01b03831681526040602082018190525f9061345d90830184613bc0565b5f6130848284613862565b81835281816020850137505f828201602090810191909152601f909101601f19169091010190565b606081525f613ca7606083018789613c6c565b8281036020840152613cba818688613c6c565b9150508260408301529695505050505050565b6001600160401b03831115613ce457613ce461308b565b613cf883613cf2835461382a565b83613a4a565b5f601f841160018114613d29575f8515613d125750838201355b5f19600387901b1c1916600186901b178355613a8e565b5f83815260208120601f198716915b82811015613d585786850135825560209485019460019092019101613d38565b5086821015613d74575f1960f88860031b161c19848701351681555b505060018560011b0183555050505050565b604081525f613d986040830185613bc0565b828103602084015261370d8185613044565b6001600160a01b03831681526040602082018190525f9061345d90830184613044565b604081525f613d986040830185613044565b5f6138db8284613914565b604081525f613dfc6040830185613044565b905060018060a01b03831660208301529392505050565b604081525f613e256040830185613044565b90508260208301529392505050565b634e487b7160e01b5f52605160045260245ffdfe202043616c6c696e6720726577617264206f6e204d616e6167656420436f6e7472616374207769746820746f6b656e20616d6f756e743a202043616c6c696e6720726577617264206f6e205a6f6e656420436f6e7472616374207769746820746f6b656e20616d6f756e743ad37054e910e2653e952b17b957944aaf15ef4ed5e4fc5aedbc3f6b9327df7f38a2646970667358221220a0c7d7bbee425b0fc833d86f85ddda9f75ea63953826659bdbb50d722bb6420164736f6c634300081c003353706c69747465722e636f6e7374727563746f723a204d616e61676564466163746f72793a53706c69747465722e636f6e7374727563746f723a205a6f6e6564466163746f72793a","linkReferences":{}},"methodIdentifiers":{"addMember(address,string)":"c127c247","addMember(string)":"918f9687","addMembers(string[])":"804d7470","addParent(address)":"acf36e53","botAddress()":"4bf4f423","changeName(address,string)":"45ca25ed","changeOwner(address)":"a6f9dae1","claim(string,address)":"60a1da83","contractsByType(string)":"adc10a40","createManagedContract(string,string,uint256)":"d73cde3f","createZonedContract(string,string,uint256)":"07028dd4","creator()":"02d05d3f","creatorUserId()":"42302ecb","debugGetContractAddress(string)":"e345ce82","depositEtherForUser(string,uint256)":"78bef78b","depositTokenForUser(string,address,uint256)":"2615c3c7","etherBalance(string)":"57a32534","externalContractSplitPercentage()":"b2dd3195","flavor()":"f59e4f65","getContractAddresses()":"953874d2","getContractInfo(string)":"819f34b3","getContractKeys()":"08ea7355","getSize()":"de8fa431","hasClaimed(string)":"363454ee","internalContractSplitPercentage()":"a3e3bd31","isMember(address)":"a230c524","isSplitterMember(string)":"da466c91","listMembers()":"b6afd2ca","listParents()":"3113a2ae","managedFactory()":"57874158","manifest()":"f5baf0d7","name()":"06fdde03","newHolon(string,string,uint256)":"0babba86","percentages(string)":"6393f5d4","removeMember(address)":"0b1ca49a","reward(address,uint256)":"21670f22","routeCommand(string,bytes)":"e1c131f5","setContractSplit(uint256,uint256)":"1a2f4ee5","setFactories(address,address)":"9aa4c2e5","setManifest(string)":"29b84d09","setSplit(string[],uint256[])":"516ec71c","toAddress(string)":"7e4115ba","toName(address)":"81bc3f8c","tokenBalance(string,address)":"ca224313","tokensOf(string,uint256)":"cc184948","totalDeposited(address)":"53055481","userIdToAddress(string)":"c21be6ae","userIds(uint256)":"4635fd68","version()":"54fd4d50","zonedFactory()":"12ca40bd"},"id":39}