{
  "_format": "hh-sol-artifact-1",
  "contractName": "SplitterFactory",
  "sourceName": "contracts/SplitterFactory.sol",
  "abi": [
    {
      "anonymous": false,
      "inputs": [
        {
          "indexed": false,
          "internalType": "string",
          "name": "name",
          "type": "string"
        },
        {
          "indexed": false,
          "internalType": "address",
          "name": "addr",
          "type": "address"
        }
      ],
      "name": "NewHolon",
      "type": "event"
    },
    {
      "inputs": [],
      "name": "listHolons",
      "outputs": [
        {
          "internalType": "address[]",
          "name": "",
          "type": "address[]"
        }
      ],
      "stateMutability": "view",
      "type": "function"
    },
    {
      "inputs": [
        {
          "internalType": "address",
          "name": "_address",
          "type": "address"
        }
      ],
      "name": "listHolonsOf",
      "outputs": [
        {
          "internalType": "address[]",
          "name": "",
          "type": "address[]"
        }
      ],
      "stateMutability": "view",
      "type": "function"
    },
    {
      "inputs": [
        {
          "internalType": "string",
          "name": "_name",
          "type": "string"
        },
        {
          "internalType": "uint256",
          "name": "_parameter",
          "type": "uint256"
        }
      ],
      "name": "newHolon",
      "outputs": [
        {
          "internalType": "address",
          "name": "",
          "type": "address"
        }
      ],
      "stateMutability": "nonpayable",
      "type": "function"
    },
    {
      "inputs": [
        {
          "internalType": "string",
          "name": "",
          "type": "string"
        }
      ],
      "name": "toAddress",
      "outputs": [
        {
          "internalType": "address",
          "name": "",
          "type": "address"
        }
      ],
      "stateMutability": "view",
      "type": "function"
    }
  ],
  "bytecode": "0x608060405234801561001057600080fd5b50612816806100206000396000f3fe608060405234801561001057600080fd5b506004361061004c5760003560e01c80637e4115ba14610051578063dfee57171461007a578063e43cb2701461009a578063e5c23374146100ad575b600080fd5b61006461005f36600461048e565b6100b5565b6040516100719190610554565b60405180910390f35b61008d610088366004610460565b6100db565b604051610071919061059c565b6100646100a83660046104c9565b61014f565b61008d61034a565b80516020818301810180516001825292820191909301209152546001600160a01b031681565b6001600160a01b0381166000908152602081815260409182902080548351818402810184019094528084526060939283018282801561014357602002820191906000526020600020905b81546001600160a01b03168152600190910190602001808311610125575b50505050509050919050565b6000806001600160a01b031660018460405161016b9190610538565b908152604051908190036020019020546001600160a01b031611156101ba5760018360405161019a9190610538565b908152604051908190036020019020546001600160a01b03169050610344565b60003384846040516101cb906103d2565b6101d793929190610568565b604051809103906000f0801580156101f3573d6000803e3d6000fd5b50600060208181527fad3228b676f7d3cd4284a5443f17f1962b36e491b30a40b2405849e597ba5fb5805460018181019092557ff0df3dcda05b4fbd9c655cde3d5ceb211e019e72ec816e127a59e7195f2cd7f50180546001600160a01b0386166001600160a01b03199182168117909255338086526040862080549485018155865293909420909101805490931617909155909150819032146102c857326000908152602081815260408220805460018101825590835291200180546001600160a01b0319166001600160a01b0383161790555b806001866040516102d99190610538565b90815260405190819003602001812080546001600160a01b03939093166001600160a01b0319909316929092179091557f10d047031611691941b661f2160741619b4030812eb79997f4b3734ed5605a439061033890879084906105e9565b60405180910390a19150505b92915050565b600080805260209081527fad3228b676f7d3cd4284a5443f17f1962b36e491b30a40b2405849e597ba5fb580546040805182850281018501909152818152606093909291908301828280156103c857602002820191906000526020600020905b81546001600160a01b031681526001909101906020018083116103aa575b5050505050905090565b6121878061065a83390190565b600082601f8301126103ef578081fd5b813567ffffffffffffffff8082111561040a5761040a610643565b604051601f8301601f19168101602001828111828210171561042e5761042e610643565b604052828152848301602001861015610445578384fd5b82602086016020830137918201602001929092529392505050565b600060208284031215610471578081fd5b81356001600160a01b0381168114610487578182fd5b9392505050565b60006020828403121561049f578081fd5b813567ffffffffffffffff8111156104b5578182fd5b6104c1848285016103df565b949350505050565b600080604083850312156104db578081fd5b823567ffffffffffffffff8111156104f1578182fd5b6104fd858286016103df565b95602094909401359450505050565b60008151808452610524816020860160208601610613565b601f01601f19169290920160200192915050565b6000825161054a818460208701610613565b9190910192915050565b6001600160a01b0391909116815260200190565b6001600160a01b038416815260606020820181905260009061058c9083018561050c565b9050826040830152949350505050565b6020808252825182820181905260009190848201906040850190845b818110156105dd5783516001600160a01b0316835292840192918401916001016105b8565b50909695505050505050565b6000604082526105fc604083018561050c565b905060018060a01b03831660208301529392505050565b60005b8381101561062e578181015183820152602001610616565b8381111561063d576000848401525b50505050565b634e487b7160e01b600052604160045260246000fdfe60806040523480156200001157600080fd5b506040516200218738038062002187833981016040819052620000349162000178565b600280546001600160a01b0319163217905581516200005b906007906020850190620000d2565b50600a80546001600160a01b0319166001600160a01b0385161790556040805180820190915260088082526729b83634ba3a32b960c11b6020909201918252620000a891600991620000d2565b5050600280546001600160a01b0319166001600160a01b03939093169290921790915550620002c6565b828054620000e09062000273565b90600052602060002090601f0160209004810192826200010457600085556200014f565b82601f106200011f57805160ff19168380011785556200014f565b828001600101855582156200014f579182015b828111156200014f57825182559160200191906001019062000132565b506200015d92915062000161565b5090565b5b808211156200015d576000815560010162000162565b6000806000606084860312156200018d578283fd5b83516001600160a01b0381168114620001a4578384fd5b602085810151919450906001600160401b0380821115620001c3578485fd5b818701915087601f830112620001d7578485fd5b815181811115620001ec57620001ec620002b0565b604051601f8201601f1916810185018381118282101715620002125762000212620002b0565b60405281815283820185018a101562000229578687fd5b8692505b818310156200024c57838301850151818401860152918401916200022d565b818311156200025d57868583830101525b8096505050505050604084015190509250925092565b6002810460018216806200028857607f821691505b60208210811415620002aa57634e487b7160e01b600052602260045260246000fd5b50919050565b634e487b7160e01b600052604160045260246000fd5b611eb180620002d66000396000f3fe60806040526004361061012e5760003560e01c806381bc3f8c116100ab578063acf36e531161006f578063acf36e531461033c578063b6afd2ca1461035c578063c127c24714610371578063de8fa43114610391578063f59e4f65146103a6578063f5baf0d7146103bb57610140565b806381bc3f8c146102825780639d592c66146102a2578063a230c524146102cf578063a6f9dae1146102fc578063ac246ee71461031c57610140565b806329b84d09116100f257806329b84d09146101eb5780633113a2ae1461020b57806345ca25ed1461022d57806354fd4d501461024d5780637e4115ba1461026257610140565b806302d05d3f1461014b57806306fdde03146101765780630b1ca49a146101985780630babba86146101b857806321670f22146101d857610140565b366101405761013e6000346103d0565b005b61013e6000346103d0565b34801561015757600080fd5b5061016061078c565b60405161016d9190611856565b60405180910390f35b34801561018257600080fd5b5061018b61079b565b60405161016d919061195d565b3480156101a457600080fd5b5061013e6101b3366004611469565b610829565b3480156101c457600080fd5b506101606101d3366004611637565b6109f0565b61013e6101e63660046114f6565b6103d0565b3480156101f757600080fd5b5061013e6102063660046115f7565b610a88565b34801561021757600080fd5b50610220610ac3565b60405161016d91906118cb565b34801561023957600080fd5b5061013e6102483660046114a8565b610b25565b34801561025957600080fd5b5061018b610c1f565b34801561026e57600080fd5b5061016061027d3660046116a8565b610c2c565b34801561028e57600080fd5b5061018b61029d366004611469565b610c52565b3480156102ae57600080fd5b506102c26102bd366004611469565b610c6b565b60405161016d9190611d07565b3480156102db57600080fd5b506102ef6102ea366004611469565b610c7d565b60405161016d9190611918565b34801561030857600080fd5b5061013e610317366004611469565b610c92565b34801561032857600080fd5b5061013e610337366004611521565b610cde565b34801561034857600080fd5b5061013e610357366004611469565b610e55565b34801561036857600080fd5b50610220610ea6565b34801561037d57600080fd5b5061013e61038c3660046114a8565b610f06565b34801561039d57600080fd5b506102c261121e565b3480156103b257600080fd5b5061018b611224565b3480156103c757600080fd5b5061018b611231565b6000806000341180156103ea57506001600160a01b038416155b156103fb57349250600191506104a3565b506040516370a0823160e01b8152839083906001600160a01b038316906370a082319061042c903090600401611856565b60206040518083038186803b15801561044457600080fd5b505afa158015610458573d6000803e3d6000fd5b505050506040513d601f19601f8201168201806040525081019061047c91906116e3565b10156104a35760405162461bcd60e51b815260040161049a90611b52565b60405180910390fd5b6000805b60005481101561078457606485600b60008085815481106104d857634e487b7160e01b600052603260045260246000fd5b60009182526020808320909101546001600160a01b031683528201929092526040019020546105079190611d96565b6105119190611d76565b915081156107725783156105d057600080828154811061054157634e487b7160e01b600052603260045260246000fd5b6000918252602090912001546040516001600160a01b0390911690849061056790611853565b60006040518083038185875af1925050503d80600081146105a4576040519150601f19603f3d011682016040523d82523d6000602084013e6105a9565b606091505b50509050806105ca5760405162461bcd60e51b815260040161049a9061199e565b50610772565b826001600160a01b031663a9059cbb6000838154811061060057634e487b7160e01b600052603260045260246000fd5b6000918252602090912001546040516001600160e01b031960e084901b168152610638916001600160a01b031690869060040161186a565b602060405180830381600087803b15801561065257600080fd5b505af1158015610666573d6000803e3d6000fd5b505050506040513d601f19601f8201168201806040525081019061068a91906115d7565b5060008082815481106106ad57634e487b7160e01b600052603260045260246000fd5b6000918252602090912001546040516001600160a01b03909116906106d8908990869060240161186a565b60408051601f198184030181529181526020820180516001600160e01b03166310b3879160e11b1790525161070d91906117c8565b6000604051808303816000865af19150503d806000811461074a576040519150601f19603f3d011682016040523d82523d6000602084013e61074f565b606091505b50509050806107705760405162461bcd60e51b815260040161049a906119fe565b505b8061077c81611e1c565b9150506104a7565b505050505050565b600a546001600160a01b031681565b600780546107a890611de1565b80601f01602080910402602001604051908101604052809291908181526020018280546107d490611de1565b80156108215780601f106107f657610100808354040283529160200191610821565b820191906000526020600020905b81548152906001019060200180831161080457829003601f168201915b505050505081565b6002546001600160a01b031633146108535760405162461bcd60e51b815260040161049a90611c42565b60005b6000548110156108d257816001600160a01b03166000828154811061088b57634e487b7160e01b600052603260045260246000fd5b6000918252602090912001546001600160a01b031614156108c05760008054634e487b7160e01b600052603260045260246000fd5b806108ca81611e1c565b915050610856565b5060008054806108f257634e487b7160e01b600052603160045260246000fd5b60008281526020808220830160001990810180546001600160a01b03191690559092019092556001600160a01b0383168252600481526040808320805460ff1916905560069091529081902090517f982d6fac85d22cbbe833f9fe4278a909ca0f3b24ecc8b1f10fe63736e3c723139161096e918491906118a7565b60405180910390a16001600160a01b038116600090815260066020526040808220905160059161099d916117e4565b908152604080516020928190038301812080546001600160a01b0319166001600160a01b03958616179055828101808352600080835294861685526006909352922091516109ec92919061123e565b5050565b600a546040516305d5dd4360e11b81526000916001600160a01b0316908190630babba8690610a2b908a908a908a908a908a90600401611923565b602060405180830381600087803b158015610a4557600080fd5b505af1158015610a59573d6000803e3d6000fd5b505050506040513d601f19601f82011682018060405250810190610a7d919061148c565b979650505050505050565b6002546001600160a01b03163314610ab25760405162461bcd60e51b815260040161049a90611a40565b610abe600383836112c2565b505050565b60606001805480602002602001604051908101604052809291908181526020018280548015610b1b57602002820191906000526020600020905b81546001600160a01b03168152600190910190602001808311610afd575b5050505050905090565b6001600160a01b038216331480610b4657506002546001600160a01b031633145b80610b5957506001600160a01b03821632145b610b755760405162461bcd60e51b815260040161049a90611bf0565b81600582604051610b8691906117c8565b908152604080516020928190038301812080546001600160a01b0319166001600160a01b039586161790559285166000908152600690925290207ffdcc9059d3426f73949b49e5d977553aa298184439da800d66f48959d9cc76b091610bee91908490611970565b60405180910390a16001600160a01b03821660009081526006602090815260409091208251610abe9284019061123e565b600880546107a890611de1565b80516020818301810180516005825292820191909301209152546001600160a01b031681565b600660205260009081526040902080546107a890611de1565b600b6020526000908152604090205481565b60046020526000908152604090205460ff1681565b6002546001600160a01b03163314610cbc5760405162461bcd60e51b815260040161049a90611aed565b600280546001600160a01b0319166001600160a01b0392909216919091179055565b6002546001600160a01b03163314610d085760405162461bcd60e51b815260040161049a90611c8b565b600054825114610d2a5760405162461bcd60e51b815260040161049a90611b93565b8051825114610d4b5760405162461bcd60e51b815260040161049a90611a77565b6000805b8251811015610d9f57828181518110610d7857634e487b7160e01b600052603260045260246000fd5b602002602001015182610d8b9190611d5e565b915080610d9781611e1c565b915050610d4f565b5080606414610dc05760405162461bcd60e51b815260040161049a90611cd0565b60005b8351811015610e4f57828181518110610dec57634e487b7160e01b600052603260045260246000fd5b6020026020010151600b6000808481548110610e1857634e487b7160e01b600052603260045260246000fd5b60009182526020808320909101546001600160a01b0316835282019290925260400190205580610e4781611e1c565b915050610dc3565b50505050565b6001805480820182556000919091527fb10e2d527612073b26eecdfd717e6a320cf44b4afac2b0732d9fcbe2b7fa0cf60180546001600160a01b0319166001600160a01b0392909216919091179055565b60606000805480602002602001604051908101604052809291908181526020018280548015610b1b576020028201919060005260206000209081546001600160a01b03168152600190910190602001808311610afd575050505050905090565b3360009081526004602052604090205460ff16151560011480610f3357506002546001600160a01b031633145b610f4f5760405162461bcd60e51b815260040161049a90611c42565b6001600160a01b03821660009081526004602052604090205460ff1615610f885760405162461bcd60e51b815260040161049a90611b24565b60006001600160a01b0316600582604051610fa391906117c8565b908152604051908190036020019020546001600160a01b031614610fd95760405162461bcd60e51b815260040161049a90611abe565b600080546001810182557f290decd9548b62a8d60345a988386fc84ba6bc95484008f6362f93160ef3e5630180546001600160a01b0319166001600160a01b0385169081179091558152600660209081526040909120825161103d9284019061123e565b508160058260405161104f91906117c8565b90815260408051918290036020908101832080546001600160a01b039586166001600160a01b031990911617905592851660008181526004909452908320805460ff191660011790556060916110a9903090602401611856565b60408051601f198184030181529181526020820180516001600160e01b031663acf36e5360e01b179052516110de91906117c8565b600060405180830381855afa9150503d8060008114611119576040519150601f19603f3d011682016040523d82523d6000602084013e61111e565b606091505b50909250905081156111df57836001600160a01b0316306040516024016111459190611856565b60408051601f198184030181529181526020820180516001600160e01b031663acf36e5360e01b1790525161117a91906117c8565b6000604051808303816000865af19150503d80600081146111b7576040519150601f19603f3d011682016040523d82523d6000602084013e6111bc565b606091505b505080925050816111df5760405162461bcd60e51b815260040161049a906119c7565b7f7c803c00251fe8138e27cfa8286be8d98625e5f6476ca6ca594f682362b711208484604051611210929190611883565b60405180910390a150505050565b60005490565b600980546107a890611de1565b600380546107a890611de1565b82805461124a90611de1565b90600052602060002090601f01602090048101928261126c57600085556112b2565b82601f1061128557805160ff19168380011785556112b2565b828001600101855582156112b2579182015b828111156112b2578251825591602001919060010190611297565b506112be929150611336565b5090565b8280546112ce90611de1565b90600052602060002090601f0160209004810192826112f057600085556112b2565b82601f106113095782800160ff198235161785556112b2565b828001600101855582156112b2579182015b828111156112b257823582559160200191906001019061131b565b5b808211156112be5760008155600101611337565b600082601f83011261135b578081fd5b8135602061137061136b83611d3a565b611d10565b828152818101908583018385028701840188101561138c578586fd5b855b858110156113aa5781358452928401929084019060010161138e565b5090979650505050505050565b60008083601f8401126113c8578182fd5b50813567ffffffffffffffff8111156113df578182fd5b6020830191508360208285010111156113f757600080fd5b9250929050565b600082601f83011261140e578081fd5b813567ffffffffffffffff81111561142857611428611e4d565b61143b601f8201601f1916602001611d10565b81815284602083860101111561144f578283fd5b816020850160208301379081016020019190915292915050565b60006020828403121561147a578081fd5b813561148581611e63565b9392505050565b60006020828403121561149d578081fd5b815161148581611e63565b600080604083850312156114ba578081fd5b82356114c581611e63565b9150602083013567ffffffffffffffff8111156114e0578182fd5b6114ec858286016113fe565b9150509250929050565b60008060408385031215611508578182fd5b823561151381611e63565b946020939093013593505050565b60008060408385031215611533578182fd5b823567ffffffffffffffff8082111561154a578384fd5b818501915085601f83011261155d578384fd5b8135602061156d61136b83611d3a565b82815281810190858301838502870184018b1015611589578889fd5b8896505b848710156115b45780356115a081611e63565b83526001969096019591830191830161158d565b50965050860135925050808211156115ca578283fd5b506114ec8582860161134b565b6000602082840312156115e8578081fd5b81518015158114611485578182fd5b60008060208385031215611609578182fd5b823567ffffffffffffffff81111561161f578283fd5b61162b858286016113b7565b90969095509350505050565b60008060008060006060868803121561164e578081fd5b853567ffffffffffffffff80821115611665578283fd5b61167189838a016113b7565b90975095506020880135915080821115611689578283fd5b50611696888289016113b7565b96999598509660400135949350505050565b6000602082840312156116b9578081fd5b813567ffffffffffffffff8111156116cf578182fd5b6116db848285016113fe565b949350505050565b6000602082840312156116f4578081fd5b5051919050565b60008284528282602086013780602084860101526020601f19601f85011685010190509392505050565b6000815180845261173d816020860160208601611db5565b601f01601f19169290920160200192915050565b6000815461175e81611de1565b80855260206001838116801561177b576001811461178f576117bd565b60ff198516888401526040880195506117bd565b866000528260002060005b858110156117b55781548a820186015290830190840161179a565b890184019650505b505050505092915050565b600082516117da818460208701611db5565b9190910192915050565b60008083546117f281611de1565b6001828116801561180a576001811461181b57611847565b60ff19841687528287019450611847565b8786526020808720875b8581101561183e5781548a820152908401908201611825565b50505082870194505b50929695505050505050565b90565b6001600160a01b0391909116815260200190565b6001600160a01b03929092168252602082015260400190565b6001600160a01b03831681526040602082018190526000906116db90830184611725565b6001600160a01b03831681526040602082018190526000906116db90830184611751565b6020808252825182820181905260009190848201906040850190845b8181101561190c5783516001600160a01b0316835292840192918401916001016118e7565b50909695505050505050565b901515815260200190565b6000606082526119376060830187896116fb565b828103602084015261194a8186886116fb565b9150508260408301529695505050505050565b6000602082526114856020830184611725565b6000604082526119836040830185611751565b82810360208401526119958185611725565b95945050505050565b6020808252600f908201526e151c985b9cd9995c8819985a5b1959608a1b604082015260600190565b60208082526017908201527f4661696c656420746f2063726561746520706172656e74000000000000000000604082015260600190565b60208082526022908201527f556e61626c6520746f2063616c6c20746865207265776172642066756e63746960408201526137b760f11b606082015260800190565b6020808252601f908201527f4f6e6c79206f776e65722063616e2073657420746865206d616e696665737400604082015260600190565b60208082526027908201527f4d656d6265727320616e642070657263656e74616765732073686f756c6420626040820152661948195c5d585b60ca1b606082015260800190565b6020808252601590820152742730b6b29034b99030b63932b0b23c903a30b5b2b760591b604082015260600190565b6020808252601f908201527f4f6e6c79206f776e65722063616e206368616e676520746865206f776e657200604082015260600190565b60208082526014908201527313595b58995c88185b1c9958591e48185919195960621b604082015260600190565b60208082526021908201527f4e6f7420656e6f75676820746f6b656e7320696e2074686520636f6e747261636040820152601d60fa1b606082015260800190565b60208082526039908201527f4d656d626572732061727261792073686f756c6420626520657175616c20746f60408201527f207468652066756c6c206c697374206f66206d656d6265727300000000000000606082015260800190565b60208082526032908201527f4e616d65206368616e67652072657175657374206e6f742073656e742066726f604082015271369036b2b6b132b9103737b91037bbb732b960711b606082015260800190565b60208082526029908201527f52657175657374207375626d69747465642062792061206e6f6e2d6d656d626560408201526872206164647265737360b81b606082015260800190565b60208082526025908201527f4f6e6c792073706c6974746572206f776e65722063616e2073657420746865206040820152641cdc1b1a5d60da1b606082015260800190565b6020808252601e908201527f546f74616c2070657263656e746167652073686f756c64206265203130300000604082015260600190565b90815260200190565b60405181810167ffffffffffffffff81118282101715611d3257611d32611e4d565b604052919050565b600067ffffffffffffffff821115611d5457611d54611e4d565b5060209081020190565b60008219821115611d7157611d71611e37565b500190565b600082611d9157634e487b7160e01b81526012600452602481fd5b500490565b6000816000190483118215151615611db057611db0611e37565b500290565b60005b83811015611dd0578181015183820152602001611db8565b83811115610e4f5750506000910152565b600281046001821680611df557607f821691505b60208210811415611e1657634e487b7160e01b600052602260045260246000fd5b50919050565b6000600019821415611e3057611e30611e37565b5060010190565b634e487b7160e01b600052601160045260246000fd5b634e487b7160e01b600052604160045260246000fd5b6001600160a01b0381168114611e7857600080fd5b5056fea2646970667358221220b9c83bb2c90a390afab480cd0d0d6bfa1e22f4840455b99fbf3526e80233336b64736f6c63430008000033a26469706673582212204f22832475c5cf5e330d12dbbfc62ec8f10634422fea042be3e3c5deb2dbf18764736f6c63430008000033",
  "linkReferences": {},
  "deployedLinkReferences": {}
}