{"abi":[{"type":"constructor","inputs":[{"name":"creatorUserId","type":"string","internalType":"string"},{"name":"_creator","type":"address","internalType":"address"},{"name":"_name","type":"string","internalType":"string"},{"name":"_nzones","type":"uint256","internalType":"uint256"}],"stateMutability":"nonpayable"},{"type":"fallback","stateMutability":"payable"},{"type":"receive","stateMutability":"payable"},{"type":"function","name":"a","inputs":[],"outputs":[{"name":"","type":"uint256","internalType":"uint256"}],"stateMutability":"view"},{"type":"function","name":"addFederationMember","inputs":[{"name":"federationId","type":"string","internalType":"string"}],"outputs":[],"stateMutability":"nonpayable"},{"type":"function","name":"addMember","inputs":[{"name":"_memberaddress","type":"address","internalType":"address"},{"name":"_membername","type":"string","internalType":"string"}],"outputs":[],"stateMutability":"nonpayable"},{"type":"function","name":"addMember","inputs":[{"name":"senderUserId","type":"string","internalType":"string"},{"name":"_userId","type":"string","internalType":"string"}],"outputs":[],"stateMutability":"nonpayable"},{"type":"function","name":"addMembers","inputs":[{"name":"senderUserId","type":"string","internalType":"string"},{"name":"_userIds","type":"string[]","internalType":"string[]"}],"outputs":[],"stateMutability":"nonpayable"},{"type":"function","name":"addParent","inputs":[{"name":"_parentaddress","type":"address","internalType":"address"}],"outputs":[],"stateMutability":"nonpayable"},{"type":"function","name":"addToZone","inputs":[{"name":"senderUserId","type":"string","internalType":"string"},{"name":"_userId","type":"string","internalType":"string"},{"name":"_zone","type":"uint256","internalType":"uint256"}],"outputs":[],"stateMutability":"nonpayable"},{"type":"function","name":"addressToUserId","inputs":[{"name":"","type":"address","internalType":"address"}],"outputs":[{"name":"","type":"string","internalType":"string"}],"stateMutability":"view"},{"type":"function","name":"b","inputs":[],"outputs":[{"name":"","type":"uint256","internalType":"uint256"}],"stateMutability":"view"},{"type":"function","name":"botAddress","inputs":[],"outputs":[{"name":"","type":"address","internalType":"address"}],"stateMutability":"view"},{"type":"function","name":"c","inputs":[],"outputs":[{"name":"","type":"uint256","internalType":"uint256"}],"stateMutability":"view"},{"type":"function","name":"calculateRewards","inputs":[],"outputs":[{"name":"","type":"uint256[]","internalType":"uint256[]"}],"stateMutability":"view"},{"type":"function","name":"changeName","inputs":[{"name":"_address","type":"address","internalType":"address"},{"name":"_name","type":"string","internalType":"string"}],"outputs":[],"stateMutability":"nonpayable"},{"type":"function","name":"changeOwner","inputs":[{"name":"_address","type":"address","internalType":"address"}],"outputs":[],"stateMutability":"nonpayable"},{"type":"function","name":"claim","inputs":[{"name":"_userId","type":"string","internalType":"string"},{"name":"_beneficiary","type":"address","internalType":"address"}],"outputs":[],"stateMutability":"nonpayable"},{"type":"function","name":"creator","inputs":[],"outputs":[{"name":"","type":"address","internalType":"address"}],"stateMutability":"view"},{"type":"function","name":"depositEtherForUser","inputs":[{"name":"_userId","type":"string","internalType":"string"},{"name":"amount","type":"uint256","internalType":"uint256"}],"outputs":[],"stateMutability":"payable"},{"type":"function","name":"depositTokenForUser","inputs":[{"name":"_userId","type":"string","internalType":"string"},{"name":"_tokenAddress","type":"address","internalType":"address"},{"name":"_amount","type":"uint256","internalType":"uint256"}],"outputs":[],"stateMutability":"nonpayable"},{"type":"function","name":"etherBalance","inputs":[{"name":"","type":"string","internalType":"string"}],"outputs":[{"name":"","type":"uint256","internalType":"uint256"}],"stateMutability":"view"},{"type":"function","name":"factory","inputs":[],"outputs":[{"name":"","type":"address","internalType":"address"}],"stateMutability":"view"},{"type":"function","name":"flavor","inputs":[],"outputs":[{"name":"","type":"string","internalType":"string"}],"stateMutability":"view"},{"type":"function","name":"getSize","inputs":[],"outputs":[{"name":"","type":"uint256","internalType":"uint256"}],"stateMutability":"view"},{"type":"function","name":"getZoneMembers","inputs":[{"name":"_zone","type":"uint256","internalType":"uint256"}],"outputs":[{"name":"","type":"string[]","internalType":"string[]"}],"stateMutability":"view"},{"type":"function","name":"hasClaimed","inputs":[{"name":"","type":"string","internalType":"string"}],"outputs":[{"name":"","type":"bool","internalType":"bool"}],"stateMutability":"view"},{"type":"function","name":"isMember","inputs":[{"name":"","type":"address","internalType":"address"}],"outputs":[{"name":"","type":"bool","internalType":"bool"}],"stateMutability":"view"},{"type":"function","name":"isZonedMember","inputs":[{"name":"","type":"string","internalType":"string"}],"outputs":[{"name":"","type":"bool","internalType":"bool"}],"stateMutability":"view"},{"type":"function","name":"listMembers","inputs":[],"outputs":[{"name":"","type":"address[]","internalType":"address payable[]"}],"stateMutability":"view"},{"type":"function","name":"listParents","inputs":[],"outputs":[{"name":"","type":"address[]","internalType":"address[]"}],"stateMutability":"view"},{"type":"function","name":"manifest","inputs":[],"outputs":[{"name":"","type":"string","internalType":"string"}],"stateMutability":"view"},{"type":"function","name":"name","inputs":[],"outputs":[{"name":"","type":"string","internalType":"string"}],"stateMutability":"view"},{"type":"function","name":"newHolon","inputs":[{"name":"_flavor","type":"string","internalType":"string"},{"name":"_name","type":"string","internalType":"string"},{"name":"_parameter","type":"uint256","internalType":"uint256"}],"outputs":[{"name":"","type":"address","internalType":"address"}],"stateMutability":"nonpayable"},{"type":"function","name":"nzones","inputs":[],"outputs":[{"name":"","type":"uint256","internalType":"uint256"}],"stateMutability":"view"},{"type":"function","name":"percentages","inputs":[{"name":"","type":"string","internalType":"string"}],"outputs":[{"name":"","type":"uint256","internalType":"uint256"}],"stateMutability":"view"},{"type":"function","name":"removeFromZone","inputs":[{"name":"senderUserId","type":"string","internalType":"string"},{"name":"_userId","type":"string","internalType":"string"}],"outputs":[],"stateMutability":"nonpayable"},{"type":"function","name":"removeMember","inputs":[{"name":"_memberaddress","type":"address","internalType":"address"}],"outputs":[],"stateMutability":"nonpayable"},{"type":"function","name":"reward","inputs":[{"name":"_tokenaddress","type":"address","internalType":"address"},{"name":"_tokenamount","type":"uint256","internalType":"uint256"}],"outputs":[],"stateMutability":"payable"},{"type":"function","name":"rewards","inputs":[{"name":"","type":"uint256","internalType":"uint256"}],"outputs":[{"name":"","type":"uint256","internalType":"uint256"}],"stateMutability":"view"},{"type":"function","name":"setManifest","inputs":[{"name":"_IPFSHash","type":"string","internalType":"string"}],"outputs":[],"stateMutability":"nonpayable"},{"type":"function","name":"setRewardFunction","inputs":[{"name":"senderUserId","type":"string","internalType":"string"},{"name":"_a","type":"uint256","internalType":"uint256"},{"name":"_b","type":"uint256","internalType":"uint256"},{"name":"_c","type":"uint256","internalType":"uint256"}],"outputs":[],"stateMutability":"nonpayable"},{"type":"function","name":"toAddress","inputs":[{"name":"","type":"string","internalType":"string"}],"outputs":[{"name":"","type":"address","internalType":"address"}],"stateMutability":"view"},{"type":"function","name":"toName","inputs":[{"name":"","type":"address","internalType":"address"}],"outputs":[{"name":"","type":"string","internalType":"string"}],"stateMutability":"view"},{"type":"function","name":"tokenBalance","inputs":[{"name":"","type":"string","internalType":"string"},{"name":"","type":"address","internalType":"address"}],"outputs":[{"name":"","type":"uint256","internalType":"uint256"}],"stateMutability":"view"},{"type":"function","name":"tokensOf","inputs":[{"name":"","type":"string","internalType":"string"},{"name":"","type":"uint256","internalType":"uint256"}],"outputs":[{"name":"","type":"address","internalType":"address"}],"stateMutability":"view"},{"type":"function","name":"totalDeposited","inputs":[{"name":"","type":"address","internalType":"address"}],"outputs":[{"name":"","type":"uint256","internalType":"uint256"}],"stateMutability":"view"},{"type":"function","name":"userIdToAddress","inputs":[{"name":"","type":"string","internalType":"string"}],"outputs":[{"name":"","type":"address","internalType":"address"}],"stateMutability":"view"},{"type":"function","name":"userIds","inputs":[{"name":"","type":"uint256","internalType":"uint256"}],"outputs":[{"name":"","type":"string","internalType":"string"}],"stateMutability":"view"},{"type":"function","name":"version","inputs":[],"outputs":[{"name":"","type":"string","internalType":"string"}],"stateMutability":"view"},{"type":"function","name":"zone","inputs":[{"name":"","type":"string","internalType":"string"}],"outputs":[{"name":"","type":"uint256","internalType":"uint256"}],"stateMutability":"view"},{"type":"function","name":"zonemembers","inputs":[{"name":"","type":"uint256","internalType":"uint256"},{"name":"","type":"uint256","internalType":"uint256"}],"outputs":[{"name":"","type":"string","internalType":"string"}],"stateMutability":"view"},{"type":"event","name":"AddedMember","inputs":[{"name":"member","type":"address","indexed":false,"internalType":"address"},{"name":"name","type":"string","indexed":false,"internalType":"string"}],"anonymous":false},{"type":"event","name":"ChangedName","inputs":[{"name":"namefrom","type":"string","indexed":false,"internalType":"string"},{"name":"nameto","type":"string","indexed":false,"internalType":"string"}],"anonymous":false},{"type":"event","name":"MemberRewarded","inputs":[{"name":"from","type":"address","indexed":true,"internalType":"address"},{"name":"to","type":"address","indexed":true,"internalType":"address"},{"name":"amount","type":"uint256","indexed":false,"internalType":"uint256"},{"name":"isContract","type":"bool","indexed":false,"internalType":"bool"},{"name":"rewardType","type":"string","indexed":false,"internalType":"string"}],"anonymous":false},{"type":"event","name":"RemovedMember","inputs":[{"name":"member","type":"address","indexed":false,"internalType":"address"},{"name":"name","type":"string","indexed":false,"internalType":"string"}],"anonymous":false},{"type":"event","name":"RewardDistributed","inputs":[{"name":"contractAddress","type":"address","indexed":true,"internalType":"address"},{"name":"amount","type":"uint256","indexed":false,"internalType":"uint256"},{"name":"totalMembers","type":"uint256","indexed":false,"internalType":"uint256"},{"name":"rewardType","type":"string","indexed":false,"internalType":"string"}],"anonymous":false}],"bytecode":{"object":"0x608060405234801561000f575f5ffd5b5060405161491138038061491183398101604081905261002e916108e5565b600280546001600160a01b03191632179055600761004c83826109f0565b5060408051808201909152601f81527f5a6f6e65642e636f6e7374727563746f723a20536574206e616d6520746f3a00602082015261008b908361030d565b600a80546001600160a01b0319166001600160a01b038516179055604080516060810190915260228082526100d2919061480860208301396001600160a01b03851661035a565b604080518082019091526005815264169bdb995960da1b60208201526009906100fb90826109f0565b5061011d6040518060600160405280602781526020016148ea602791396103a3565b80601b8190555061014660405180606001604052806021815260200161489b602191398261035a565b600280546001600160a01b0385166001600160a01b031991821617909155601680549091163317905560408051606081019091526036808252610192919061482a6020830139846103ed565b5f601781905560185560016019819055601580546001600160a01b03191673b2da94d13735af2ddcf5a3c797547290221f3dbb179055604051600f906101d9908790610aaa565b908152604051908190036020019020805491151560ff19909216919091179055600b80546001810182555f919091527f0175b7a638427703f0dbe7bb9bbf987a2551717b34e79f33b5b1008d1fa01db90161023485826109f0565b505f818152601c602090815260408220805460018101825590835291200161025c85826109f0565b5080601d8560405161026e9190610aaa565b9081526020016040518091039020819055506102aa6040518060600160405280603b8152602001614860603b9139601754601854601954610436565b6102c28460175460185460195461048960201b60201c565b6102e36040518060600160405280602e81526020016148bc602e91396103a3565b6103046040518060600160405280603381526020016147d5603391396103a3565b50505050610c88565b6103568282604051602401610323929190610aee565b60408051601f198184030181529190526020810180516001600160e01b03908116634b5c427760e01b1790915261063c16565b5050565b6103568282604051602401610370929190610b1b565b60408051601f198184030181529190526020810180516001600160e01b03908116632d839cb360e21b1790915261063c16565b6103ea816040516024016103b79190610b3c565b60408051601f198184030181529190526020810180516001600160e01b0390811663104c13eb60e21b1790915261063c16565b50565b6103568282604051602401610403929190610b55565b60408051601f198184030181529190526020810180516001600160e01b0390811663319af33360e01b1790915261063c16565b610483848484846040516024016104509493929190610b7e565b60408051601f198184030181529190526020810180516001600160e01b0390811663a7a8785360e01b1790915261063c16565b50505050565b604080518082018252601f81527f73657452657761726446756e6374696f6e2e206d73672e73656e6465723a20006020808301919091528251808401909352600b83526a3137ba20b2323932b9b99d60a91b908301526015546104f69233916001600160a01b031661064f565b600a546001600160a01b031633148061051957506016546001600160a01b031633145b6105905760405162461bcd60e51b815260206004820152603c60248201527f6f6e6c792063726561746f72206f7220626f742063616e206368616e6765207460448201527f6865207265776172642066756e6374696f6e2063757272656e746c790000000060648201526084015b60405180910390fd5b601b54601d856040516105a39190610aaa565b9081526020016040518091039020541461060a5760405162461bcd60e51b815260206004820152602260248201527f6d656d626572206d75737420626520696e207468652068696768657374207a6f6044820152616e6560f01b6064820152608401610587565b60178390556018829055601981905561062161069c565b805161063591601a916020909101906107eb565b5050505050565b6103ea816107cc60201b6128ac1760201c565b610483848484846040516024016106699493929190610bac565b60408051601f198184030181529190526020810180516001600160e01b0390811663aabc9a3160e01b1790915261063c16565b60408051600680825260e082019092526060915f91906020820160c0803683370190505090505f805b601b54811161076157601954816018546106df9190610c0d565b82836017546106ee9190610c0d565b6106f89190610c0d565b6107029190610c2a565b61070c9190610c2a565b83828151811061071e5761071e610c3d565b60200260200101818152505082818151811061073c5761073c610c3d565b60200260200101518261074f9190610c2a565b915061075a81610c51565b90506106c5565b505f5b82518110156107c4578183828151811061078057610780610c3d565b60200260200101516127106107959190610c0d565b61079f9190610c69565b8382815181106107b1576107b1610c3d565b6020908102919091010152600101610764565b509092915050565b5f6a636f6e736f6c652e6c6f6790505f5f835160208501845afa505050565b828054828255905f5260205f20908101928215610824579160200282015b82811115610824578251825591602001919060010190610809565b50610830929150610834565b5090565b5b80821115610830575f8155600101610835565b634e487b7160e01b5f52604160045260245ffd5b5f82601f83011261086b575f5ffd5b81516001600160401b0381111561088457610884610848565b604051601f8201601f19908116603f011681016001600160401b03811182821017156108b2576108b2610848565b6040528181528382016020018510156108c9575f5ffd5b8160208501602083015e5f918101602001919091529392505050565b5f5f5f5f608085870312156108f8575f5ffd5b84516001600160401b0381111561090d575f5ffd5b6109198782880161085c565b602087015190955090506001600160a01b0381168114610937575f5ffd5b60408601519093506001600160401b03811115610952575f5ffd5b61095e8782880161085c565b606096909601519497939650505050565b600181811c9082168061098357607f821691505b6020821081036109a157634e487b7160e01b5f52602260045260245ffd5b50919050565b601f8211156109eb57805f5260205f20601f840160051c810160208510156109cc5750805b601f840160051c820191505b81811015610635575f81556001016109d8565b505050565b81516001600160401b03811115610a0957610a09610848565b610a1d81610a17845461096f565b846109a7565b6020601f821160018114610a4f575f8315610a385750848201515b5f19600385901b1c1916600184901b178455610635565b5f84815260208120601f198516915b82811015610a7e5787850151825560209485019460019092019101610a5e565b5084821015610a9b57868401515f19600387901b60f8161c191681555b50505050600190811b01905550565b5f82518060208501845e5f920191825250919050565b5f81518084528060208401602086015e5f602082860101526020601f19601f83011685010191505092915050565b604081525f610b006040830185610ac0565b8281036020840152610b128185610ac0565b95945050505050565b604081525f610b2d6040830185610ac0565b90508260208301529392505050565b602081525f610b4e6020830184610ac0565b9392505050565b604081525f610b676040830185610ac0565b905060018060a01b03831660208301529392505050565b608081525f610b906080830187610ac0565b6020830195909552506040810192909252606090910152919050565b608081525f610bbe6080830187610ac0565b6001600160a01b03861660208401528281036040840152610bdf8186610ac0565b91505060018060a01b038316606083015295945050505050565b634e487b7160e01b5f52601160045260245ffd5b8082028115828204841417610c2457610c24610bf9565b92915050565b80820180821115610c2457610c24610bf9565b634e487b7160e01b5f52603260045260245ffd5b5f60018201610c6257610c62610bf9565b5060010190565b5f82610c8357634e487b7160e01b5f52601260045260245ffd5b500490565b613b4080610c955f395ff3fe6080604052600436106102b1575f3560e01c806378bef78b11610174578063c127c247116100db578063de8fa43111610094578063f301af421161006e578063f301af4214610978578063f59e4f6514610997578063f5baf0d7146109ab578063f685b4c3146109bf576102c2565b8063de8fa43114610927578063ea6c38ef1461093a578063ead6252014610959576102c2565b8063c127c2471461082f578063c21be6ae1461084e578063c3da42b81461088e578063c45a0155146108a3578063ca224313146108c2578063cc18494814610908576102c2565b8063a3a401e01161012d578063a3a401e014610735578063a6f9dae114610754578063aab3463914610773578063acf36e5314610792578063b5ffbbcc146107fc578063b6afd2ca1461081b576102c2565b806378bef78b1461064a5780637b0a7e331461065d5780637e4115ba146106895780637e961b57146106c957806381bc3f8c146106e8578063a230c52414610707576102c2565b8063363454ee116102185780634f51f781116101d15780634f51f7811461055f578063530554811461057e57806354fd4d50146105a957806357a32534146105bd57806360a1da83146105f45780636393f5d414610613576102c2565b8063363454ee146104925780633e50de30146104cc57806345ca25ed146104ed5780634635fd681461050c5780634bf4f4231461052b5780634df7e3d01461054a576102c2565b806321670f221161026a57806321670f22146103c15780632333d75e146103d45780632615c3c71461041e57806329b84d091461043d5780633113a2ae1461045c57806333d6e65f1461047d576102c2565b806302d05d3f146102cc57806306fdde03146103085780630b1ca49a146103295780630babba86146103485780630dbe671f146103675780631821fcab1461038a576102c2565b366102c2576102c05f346109de565b005b6102c05f346109de565b3480156102d7575f5ffd5b50600a546102eb906001600160a01b031681565b6040516001600160a01b0390911681526020015b60405180910390f35b348015610313575f5ffd5b5061031c61111a565b6040516102ff9190612d9e565b348015610334575f5ffd5b506102c0610343366004612dc4565b6111a6565b348015610353575f5ffd5b506102eb610362366004612e2a565b611385565b348015610372575f5ffd5b5061037c60175481565b6040519081526020016102ff565b348015610395575f5ffd5b5061037c6103a4366004612f4a565b8051602081830181018051601d8252928201919093012091525481565b6102c06103cf366004612f83565b6109de565b3480156103df575f5ffd5b5061040e6103ee366004612f4a565b8051602081830181018051600f8252928201919093012091525460ff1681565b60405190151581526020016102ff565b348015610429575f5ffd5b506102c0610438366004612fad565b61140a565b348015610448575f5ffd5b506102c0610457366004613002565b61150a565b348015610467575f5ffd5b50610470611576565b6040516102ff9190613040565b348015610488575f5ffd5b5061037c601b5481565b34801561049d575f5ffd5b5061040e6104ac366004612f4a565b8051602081830181018051600e8252928201919093012091525460ff1681565b3480156104d7575f5ffd5b506104e06115d6565b6040516102ff919061308b565b3480156104f8575f5ffd5b506102c06105073660046130c2565b611706565b348015610517575f5ffd5b5061031c61052636600461310e565b611842565b348015610536575f5ffd5b506015546102eb906001600160a01b031681565b348015610555575f5ffd5b5061037c60185481565b34801561056a575f5ffd5b506102c0610579366004613125565b611869565b348015610589575f5ffd5b5061037c610598366004612dc4565b60136020525f908152604090205481565b3480156105b4575f5ffd5b5061031c6119bb565b3480156105c8575f5ffd5b5061037c6105d7366004612f4a565b805160208183018101805160108252928201919093012091525481565b3480156105ff575f5ffd5b506102c061060e36600461321a565b6119c8565b34801561061e575f5ffd5b5061037c61062d366004612f4a565b805160208183018101805160148252928201919093012091525481565b6102c0610658366004613268565b611afb565b348015610668575f5ffd5b5061067c61067736600461310e565b611b31565b6040516102ff91906132a9565b348015610694575f5ffd5b506102eb6106a3366004612f4a565b80516020818301810180516005825292820191909301209152546001600160a01b031681565b3480156106d4575f5ffd5b506102c06106e336600461330c565b611c16565b3480156106f3575f5ffd5b5061031c610702366004612dc4565b611e4e565b348015610712575f5ffd5b5061040e610721366004612dc4565b60046020525f908152604090205460ff1681565b348015610740575f5ffd5b506102c061074f366004613378565b611e66565b34801561075f575f5ffd5b506102c061076e366004612dc4565b61208e565b34801561077e575f5ffd5b506102c061078d366004612f4a565b61210a565b34801561079d575f5ffd5b506102c06107ac366004612dc4565b6001805480820182555f919091527fb10e2d527612073b26eecdfd717e6a320cf44b4afac2b0732d9fcbe2b7fa0cf60180546001600160a01b0319166001600160a01b0392909216919091179055565b348015610807575f5ffd5b5061031c610816366004612dc4565b6122b0565b348015610826575f5ffd5b506104706122c8565b34801561083a575f5ffd5b506102c06108493660046130c2565b612325565b348015610859575f5ffd5b506102eb610868366004612f4a565b8051602081830181018051600c825292820191909301209152546001600160a01b031681565b348015610899575f5ffd5b5061037c60195481565b3480156108ae575f5ffd5b506016546102eb906001600160a01b031681565b3480156108cd575f5ffd5b5061037c6108dc36600461321a565b81516020818401810180516011825292820194820194909420919093529091525f908152604090205481565b348015610913575f5ffd5b506102eb610922366004613268565b612538565b348015610932575f5ffd5b505f5461037c565b348015610945575f5ffd5b506102c0610954366004613378565b61257d565b348015610964575f5ffd5b5061031c6109733660046133c5565b61269a565b348015610983575f5ffd5b5061037c61099236600461310e565b6126cc565b3480156109a2575f5ffd5b5061031c6126eb565b3480156109b6575f5ffd5b5061031c6126f8565b3480156109ca575f5ffd5b506102c06109d93660046133e5565b612705565b5f5f5f341180156109f657506001600160a01b038416155b15610a075734925060019150610acf565b506040516370a0823160e01b8152306004820152839083906001600160a01b038316906370a0823190602401602060405180830381865afa158015610a4e573d5f5f3e3d5ffd5b505050506040513d601f19601f82011682018060405250810190610a729190613434565b1015610acf5760405162461bcd60e51b815260206004820152602160248201527f4e6f7420656e6f75676820746f6b656e7320696e2074686520636f6e747261636044820152601d60fa1b60648201526084015b60405180910390fd5b5f80805b601b548111611091575f818152601c60205260409020541561107f575f818152601c6020526040902054610b0782886128cb565b610b11919061345f565b92505f5b5f828152601c602052604090205481101561107d575f828152601c60205260408120805483908110610b4957610b4961347e565b905f5260205f20018054610b5c90613492565b80601f0160208091040260200160405190810160405280929190818152602001828054610b8890613492565b8015610bd35780601f10610baa57610100808354040283529160200191610bd3565b820191905f5260205f20905b815481529060010190602001808311610bb657829003601f168201915b505050505090505f851115611074575f600c82604051610bf391906134e1565b908152604051908190036020019020546001600160a01b03169050803b15158815610ddb57600e83604051610c2891906134e1565b9081526040519081900360200190205460ff1615610d37575f826001600160a01b0316886040515f6040518083038185875af1925050503d805f8114610c89576040519150601f19603f3d011682016040523d82523d5f602084013e610c8e565b606091505b5050905080610cd15760405162461bcd60e51b815260206004820152600f60248201526e151c985b9cd9995c8819985a5b1959608a1b6044820152606401610ac6565b826001600160a01b0316306001600160a01b03165f516020613aeb5f395f51905f528a85604051610d29929190918252151560208201526060604082018190526003908201526208aa8960eb1b608082015260a00190565b60405180910390a350611064565b6040516378bef78b60e01b815230906378bef78b90610d5c9086908b906004016134ec565b5f604051808303815f87803b158015610d73575f5ffd5b505af1158015610d85573d5f5f3e3d5ffd5b5050604080518a815284151560208201526060818301819052600a90820152690a6a89ea48a88be8aa8960b31b608082015290515f93503092505f516020613aeb5f395f51905f529181900360a00190a3611064565b600e83604051610deb91906134e1565b9081526040519081900360200190205460ff1615610fc05760405163a9059cbb60e01b81526001600160a01b0383811660048301526024820189905289169063a9059cbb906044016020604051808303815f875af1158015610e4f573d5f5f3e3d5ffd5b505050506040513d601f19601f82011682018060405250810190610e73919061350d565b506040516001600160a01b038c81166024830152604482018990525f919084169060640160408051601f198184030181529181526020820180516001600160e01b03166310b3879160e11b17905251610ecc91906134e1565b5f604051808303815f865af19150503d805f8114610f05576040519150601f19603f3d011682016040523d82523d5f602084013e610f0a565b606091505b5050905080610f665760405162461bcd60e51b815260206004820152602260248201527f556e61626c6520746f2063616c6c20746865207265776172642066756e63746960448201526137b760f11b6064820152608401610ac6565b826001600160a01b0316306001600160a01b03165f516020613aeb5f395f51905f528a85604051610d299291909182521515602082015260606040820181905260059082015264045524332360dc1b608082015260a00190565b604051632615c3c760e01b81523090632615c3c790610fe79086908f908c9060040161352c565b5f604051808303815f87803b158015610ffe575f5ffd5b505af1158015611010573d5f5f3e3d5ffd5b5050604080518a815284151560208201526060818301819052600c908201526b053544f5245445f45524332360a41b608082015290515f93503092505f516020613aeb5f395f51905f529181900360a00190a35b8561106e81613559565b96505050505b50600101610b15565b505b8061108981613559565b915050610ad3565b50307fd83308e9158842b2115ec5e6f6395db42fff24e4b5506ef42fe33854fafad6558683876110de5760405180604001604052806005815260200164045524332360dc1b8152506110fb565b6040518060400160405280600381526020016208aa8960eb1b8152505b60405161110a93929190613571565b60405180910390a2505050505050565b6007805461112790613492565b80601f016020809104026020016040519081016040528092919081815260200182805461115390613492565b801561119e5780601f106111755761010080835404028352916020019161119e565b820191905f5260205f20905b81548152906001019060200180831161118157829003601f168201915b505050505081565b6002546001600160a01b031633146111d05760405162461bcd60e51b8152600401610ac690613598565b5f5b5f5481101561127c57816001600160a01b03165f82815481106111f7576111f761347e565b5f918252602090912001546001600160a01b031603611274575f805461121b61347e565b5f91825260208220015481546001600160a01b039091169190839081106112445761124461347e565b905f5260205f20015f6101000a8154816001600160a01b0302191690836001600160a01b0316021790555061127c565b6001016111d2565b505f80548061128d5761128d6135e1565b5f828152602080822083015f1990810180546001600160a01b03191690559092019092556001600160a01b0383168252600481526040808320805460ff1916905560069091529081902090517f982d6fac85d22cbbe833f9fe4278a909ca0f3b24ecc8b1f10fe63736e3c723139161130791849190613674565b60405180910390a16001600160a01b0381165f90815260066020526040808220905160059161133591613697565b908152604080516020928190038301812080546001600160a01b0319166001600160a01b0395861617905582810182525f80825293851684526006909252909120906113819082613760565b5050565b600a546040516305d5dd4360e11b81525f916001600160a01b0316908190630babba86906113bf908a908a908a908a908a9060040161383d565b6020604051808303815f875af11580156113db573d5f5f3e3d5ffd5b505050506040513d601f19601f820116820180604052508101906113ff9190613876565b979650505050505050565b5f8290505f60118560405161141f91906134e1565b9081526040805191829003602090810183206001600160a01b0388165f90815291522054915083906011906114559088906134e1565b90815260200160405180910390205f866001600160a01b03166001600160a01b031681526020019081526020015f205f8282546114929190613891565b90915550506040516012906114a89087906134e1565b908152604080516020928190038301902080546001810182555f9182528382200180546001600160a01b0319166001600160a01b03891690811790915581526013909252812080548592906114fe908490613891565b90915550505050505050565b6002546001600160a01b031633146115645760405162461bcd60e51b815260206004820152601f60248201527f4f6e6c79206f776e65722063616e2073657420746865206d616e6966657374006044820152606401610ac6565b60036115718284836138a4565b505050565b606060018054806020026020016040519081016040528092919081815260200182805480156115cc57602002820191905f5260205f20905b81546001600160a01b031681526001909101906020018083116115ae575b5050505050905090565b60408051600680825260e082019092526060915f91906020820160c0803683370190505090505f805b601b54811161169b57601954816018546116199190613958565b82836017546116289190613958565b6116329190613958565b61163c9190613891565b6116469190613891565b8382815181106116585761165861347e565b6020026020010181815250508281815181106116765761167661347e565b6020026020010151826116899190613891565b915061169481613559565b90506115ff565b505f5b82518110156116fe57818382815181106116ba576116ba61347e565b60200260200101516127106116cf9190613958565b6116d9919061345f565b8382815181106116eb576116eb61347e565b602090810291909101015260010161169e565b509092915050565b6001600160a01b03821633148061172757506002546001600160a01b031633145b8061173a57506001600160a01b03821632145b6117a15760405162461bcd60e51b815260206004820152603260248201527f4e616d65206368616e67652072657175657374206e6f742073656e742066726f604482015271369036b2b6b132b9103737b91037bbb732b960711b6064820152608401610ac6565b816005826040516117b291906134e1565b908152604080516020928190038301812080546001600160a01b0319166001600160a01b039586161790559285165f908152600690925290207ffdcc9059d3426f73949b49e5d977553aa298184439da800d66f48959d9cc76b0916118199190849061396f565b60405180910390a16001600160a01b0382165f9081526006602052604090206115718282613760565b600b8181548110611851575f80fd5b905f5260205f20015f91509050805461112790613492565b5f5b8151811015611571575f8282815181106118875761188761347e565b60200260200101519050600f816040516118a191906134e1565b9081526040519081900360200190205460ff16156118bf57506119b3565b6001600f826040516118d191906134e1565b908152604051908190036020019020805491151560ff19909216919091179055600b80546001810182555f919091527f0175b7a638427703f0dbe7bb9bbf987a2551717b34e79f33b5b1008d1fa01db90161192c8282613760565b505f601d8260405161193e91906134e1565b9081526040516020918190038201902091909155601c90527fb9c6de81004e18dedadca3e5eabaab449ca91dff6f58efc9461da635fe77f84980546001810182555f919091527f02b0734bf4522b7023d5fd665a53b226e677c5d4342429a34c53f7efe3291d74016119b08282613760565b50505b60010161186b565b6008805461112790613492565b600e826040516119d891906134e1565b9081526040519081900360200190205460ff1615611a385760405162461bcd60e51b815260206004820152601860248201527f557365722068617320616c726561647920636c61696d656400000000000000006044820152606401610ac6565b5f6001600160a01b0316600c83604051611a5291906134e1565b908152604051908190036020019020546001600160a01b031603611ab15780600c83604051611a8191906134e1565b90815260405190819003602001902080546001600160a01b03929092166001600160a01b03199092169190911790555b611abb8282612909565b611ac58282612a35565b6001600e83604051611ad791906134e1565b908152604051908190036020019020805491151560ff199092169190911790555050565b80601083604051611b0c91906134e1565b90815260200160405180910390205f828254611b289190613891565b90915550505050565b6060601c5f8381526020019081526020015f20805480602002602001604051908101604052809291908181526020015f905b82821015611c0b578382905f5260205f20018054611b8090613492565b80601f0160208091040260200160405190810160405280929190818152602001828054611bac90613492565b8015611bf75780601f10611bce57610100808354040283529160200191611bf7565b820191905f5260205f20905b815481529060010190602001808311611bda57829003601f168201915b505050505081526020019060010190611b63565b505050509050919050565b600f82604051611c2691906134e1565b9081526040519081900360200190205460ff16611c9c5760405162461bcd60e51b815260206004820152602e60248201527f6f6e6c79207a6f6e65206d656d626572732063616e206861766520746865697260448201526d081e9bdb995cc818da185b99d95960921b6064820152608401610ac6565b5f601d83604051611cad91906134e1565b9081526040519081900360200190205490505f5b5f828152601c6020526040902054811015611dc65783604051602001611ce791906134e1565b60408051601f1981840301815291815281516020928301205f858152601c9093529120805483908110611d1c57611d1c61347e565b905f5260205f2001604051602001611d349190613697565b6040516020818303038152906040528051906020012003611dbe575f828152601c602052604090208054611d6a90600190613993565b81548110611d7a57611d7a61347e565b905f5260205f2001601c5f8481526020019081526020015f208281548110611da457611da461347e565b905f5260205f20019081611db891906139a6565b50611dc6565b600101611cc1565b505f818152601c60205260409020805480611de357611de36135e1565b600190038181905f5260205f20015f611dfc9190612cdc565b905581601d84604051611e0f91906134e1565b9081526040805160209281900383019020929092555f848152601c82529182208054600181018255908352912001611e478482613760565b5050505050565b60066020525f90815260409020805461112790613492565b600f81604051611e7691906134e1565b9081526040519081900360200190205460ff16611ed55760405162461bcd60e51b815260206004820152601960248201527f55736572206973206e6f742061207a6f6e65206d656d626572000000000000006044820152606401610ac6565b5f601d82604051611ee691906134e1565b9081526040519081900360200190205490505f5b5f828152601c60205260409020548110156120365782604051602001611f2091906134e1565b60408051601f1981840301815291815281516020928301205f858152601c9093529120805483908110611f5557611f5561347e565b905f5260205f2001604051602001611f6d9190613697565b604051602081830303815290604052805190602001200361202e575f828152601c602052604090208054611fa390600190613993565b81548110611fb357611fb361347e565b905f5260205f2001601c5f8481526020019081526020015f208281548110611fdd57611fdd61347e565b905f5260205f20019081611ff191906139a6565b505f828152601c6020526040902080548061200e5761200e6135e1565b600190038181905f5260205f20015f6120279190612cdc565b9055612036565b600101611efa565b505f600f8360405161204891906134e1565b908152604051908190036020018120805492151560ff19909316929092179091555f90601d906120799085906134e1565b90815260405190819003602001902055505050565b6002546001600160a01b031633146120e85760405162461bcd60e51b815260206004820152601f60248201527f4f6e6c79206f776e65722063616e206368616e676520746865206f776e6572006044820152606401610ac6565b600280546001600160a01b0319166001600160a01b0392909216919091179055565b600a546001600160a01b031633148061212d57506016546001600160a01b031633145b6121945760405162461bcd60e51b815260206004820152603260248201527f4f6e6c792063726561746f72206f7220666163746f72792063616e206164642060448201527166656465726174696f6e206d656d6265727360701b6064820152608401610ac6565b600f816040516121a491906134e1565b9081526040519081900360200190205460ff16156121bf5750565b6001600f826040516121d191906134e1565b908152604051908190036020019020805491151560ff19909216919091179055600b80546001810182555f919091527f0175b7a638427703f0dbe7bb9bbf987a2551717b34e79f33b5b1008d1fa01db90161222c8282613760565b505f601d8260405161223e91906134e1565b9081526040516020918190038201902091909155601c90527fb9c6de81004e18dedadca3e5eabaab449ca91dff6f58efc9461da635fe77f84980546001810182555f919091527f02b0734bf4522b7023d5fd665a53b226e677c5d4342429a34c53f7efe3291d74016113818282613760565b600d6020525f90815260409020805461112790613492565b60605f8054806020026020016040519081016040528092919081815260200182805480156115cc57602002820191905f5260205f209081546001600160a01b031681526001909101906020018083116115ae575050505050905090565b335f9081526004602052604090205460ff1615156001148061235157506002546001600160a01b031633145b61236d5760405162461bcd60e51b8152600401610ac690613598565b6001600160a01b0382165f9081526004602052604090205460ff16156123cc5760405162461bcd60e51b815260206004820152601460248201527313595b58995c88185b1c9958591e48185919195960621b6044820152606401610ac6565b5f6001600160a01b03166005826040516123e691906134e1565b908152604051908190036020019020546001600160a01b0316146124445760405162461bcd60e51b81526020600482015260156024820152742730b6b29034b99030b63932b0b23c903a30b5b2b760591b6044820152606401610ac6565b5f80546001810182557f290decd9548b62a8d60345a988386fc84ba6bc95484008f6362f93160ef3e5630180546001600160a01b0319166001600160a01b03851690811790915581526006602052604090206124a08282613760565b50816005826040516124b291906134e1565b908152604080516020928190038301902080546001600160a01b0319166001600160a01b039485161790559184165f9081526004909152908120805460ff1916600117905560607f7c803c00251fe8138e27cfa8286be8d98625e5f6476ca6ca594f682362b71120848460405161252a929190613a66565b60405180910390a150505050565b81516020818401810180516012825292820191850191909120919052805482908110612562575f80fd5b5f918252602090912001546001600160a01b03169150829050565b600f8160405161258d91906134e1565b9081526040519081900360200190205460ff16156125a9575050565b6001600f826040516125bb91906134e1565b908152604051908190036020019020805491151560ff19909216919091179055600b80546001810182555f919091527f0175b7a638427703f0dbe7bb9bbf987a2551717b34e79f33b5b1008d1fa01db9016126168282613760565b505f601d8260405161262891906134e1565b9081526040516020918190038201902091909155601c90527fb9c6de81004e18dedadca3e5eabaab449ca91dff6f58efc9461da635fe77f84980546001810182555f919091527f02b0734bf4522b7023d5fd665a53b226e677c5d4342429a34c53f7efe3291d74016115718282613760565b601c602052815f5260405f2081815481106126b3575f80fd5b905f5260205f20015f9150915050805461112790613492565b601a81815481106126db575f80fd5b5f91825260209091200154905081565b6009805461112790613492565b6003805461112790613492565b604080518082018252601f81527f73657452657761726446756e6374696f6e2e206d73672e73656e6465723a20006020808301919091528251808401909352600b83526a3137ba20b2323932b9b99d60a91b908301526015546127729233916001600160a01b0316612c82565b600a546001600160a01b031633148061279557506016546001600160a01b031633145b6128075760405162461bcd60e51b815260206004820152603c60248201527f6f6e6c792063726561746f72206f7220626f742063616e206368616e6765207460448201527f6865207265776172642066756e6374696f6e2063757272656e746c79000000006064820152608401610ac6565b601b54601d8560405161281a91906134e1565b908152602001604051809103902054146128815760405162461bcd60e51b815260206004820152602260248201527f6d656d626572206d75737420626520696e207468652068696768657374207a6f6044820152616e6560f01b6064820152608401610ac6565b6017839055601882905560198190556128986115d6565b8051611e4791601a91602090910190612d13565b5f6a636f6e736f6c652e6c6f6790505f5f835160208501845afa505050565b5f61271082601a85815481106128e3576128e361347e565b905f5260205f2001546128f69190613958565b612900919061345f565b90505b92915050565b5f60108360405161291a91906134e1565b9081526040519081900360200190205490506001600160a01b0382166129825760405162461bcd60e51b815260206004820152601b60248201527f496e76616c69642062656e6566696369617279206164647265737300000000006044820152606401610ac6565b8015612a24575f5f836001600160a01b0316836040515f6040518083038185875af1925050503d805f81146129d2576040519150601f19603f3d011682016040523d82523d5f602084013e6129d7565b606091505b509150915081612a215760405162461bcd60e51b815260206004820152601560248201527410db185a5b5a5b99c8115d1a195c8819985a5b1959605a1b6044820152606401610ac6565b50505b5f60108460405161207991906134e1565b5f601283604051612a4691906134e1565b9081526040805191829003602090810183208054808302850183019093528284529190830182828015612aa057602002820191905f5260205f20905b81546001600160a01b03168152600190910190602001808311612a82575b509394505f93505050505b601284604051612abb91906134e1565b90815260405190819003602001902054811015612c7c575f828281518110612ae557612ae561347e565b602002602001015190505f601186604051612b0091906134e1565b90815260200160405180910390205f858581518110612b2157612b2161347e565b60200260200101516001600160a01b03166001600160a01b031681526020019081526020015f205490505f811115612c72575f601187604051612b6491906134e1565b90815260200160405180910390205f868681518110612b8557612b8561347e565b60200260200101516001600160a01b03166001600160a01b031681526020019081526020015f20819055508060135f868681518110612bc657612bc661347e565b60200260200101516001600160a01b03166001600160a01b031681526020019081526020015f205f828254612bfb9190613993565b909155505060405163a9059cbb60e01b81526001600160a01b0386811660048301526024820183905283169063a9059cbb906044016020604051808303815f875af1158015612c4c573d5f5f3e3d5ffd5b505050506040513d601f19601f82011682018060405250810190612c70919061350d565b505b5050600101612aab565b50505050565b612c7c84848484604051602401612c9c9493929190613a89565b60408051601f198184030181529190526020810180516001600160e01b031663aabc9a3160e01b179052612ccf816128ac565b50565b612cda613ad6565b565b508054612ce890613492565b5f825580601f10612cf7575050565b601f0160209004905f5260205f2090810190612ccf9190612d5c565b828054828255905f5260205f20908101928215612d4c579160200282015b82811115612d4c578251825591602001919060010190612d31565b50612d58929150612d5c565b5090565b5b80821115612d58575f8155600101612d5d565b5f81518084528060208401602086015e5f602082860101526020601f19601f83011685010191505092915050565b602081525f6129006020830184612d70565b6001600160a01b0381168114612ccf575f5ffd5b5f60208284031215612dd4575f5ffd5b8135612ddf81612db0565b9392505050565b5f5f83601f840112612df6575f5ffd5b5081356001600160401b03811115612e0c575f5ffd5b602083019150836020828501011115612e23575f5ffd5b9250929050565b5f5f5f5f5f60608688031215612e3e575f5ffd5b85356001600160401b03811115612e53575f5ffd5b612e5f88828901612de6565b90965094505060208601356001600160401b03811115612e7d575f5ffd5b612e8988828901612de6565b96999598509660400135949350505050565b634e487b7160e01b5f52604160045260245ffd5b604051601f8201601f191681016001600160401b0381118282101715612ed757612ed7612e9b565b604052919050565b5f82601f830112612eee575f5ffd5b81356001600160401b03811115612f0757612f07612e9b565b612f1a601f8201601f1916602001612eaf565b818152846020838601011115612f2e575f5ffd5b816020850160208301375f918101602001919091529392505050565b5f60208284031215612f5a575f5ffd5b81356001600160401b03811115612f6f575f5ffd5b612f7b84828501612edf565b949350505050565b5f5f60408385031215612f94575f5ffd5b8235612f9f81612db0565b946020939093013593505050565b5f5f5f60608486031215612fbf575f5ffd5b83356001600160401b03811115612fd4575f5ffd5b612fe086828701612edf565b9350506020840135612ff181612db0565b929592945050506040919091013590565b5f5f60208385031215613013575f5ffd5b82356001600160401b03811115613028575f5ffd5b61303485828601612de6565b90969095509350505050565b602080825282518282018190525f918401906040840190835b818110156130805783516001600160a01b0316835260209384019390920191600101613059565b509095945050505050565b602080825282518282018190525f918401906040840190835b818110156130805783518352602093840193909201916001016130a4565b5f5f604083850312156130d3575f5ffd5b82356130de81612db0565b915060208301356001600160401b038111156130f8575f5ffd5b61310485828601612edf565b9150509250929050565b5f6020828403121561311e575f5ffd5b5035919050565b5f5f60408385031215613136575f5ffd5b82356001600160401b0381111561314b575f5ffd5b61315785828601612edf565b92505060208301356001600160401b03811115613172575f5ffd5b8301601f81018513613182575f5ffd5b80356001600160401b0381111561319b5761319b612e9b565b8060051b6131ab60208201612eaf565b918252602081840181019290810190888411156131c6575f5ffd5b6020850192505b8383101561320b5782356001600160401b038111156131ea575f5ffd5b6131f98a602083890101612edf565b835250602092830192909101906131cd565b80955050505050509250929050565b5f5f6040838503121561322b575f5ffd5b82356001600160401b03811115613240575f5ffd5b61324c85828601612edf565b925050602083013561325d81612db0565b809150509250929050565b5f5f60408385031215613279575f5ffd5b82356001600160401b0381111561328e575f5ffd5b61329a85828601612edf565b95602094909401359450505050565b5f602082016020835280845180835260408501915060408160051b8601019250602086015f5b8281101561330057603f198786030184526132eb858351612d70565b945060209384019391909101906001016132cf565b50929695505050505050565b5f5f5f6060848603121561331e575f5ffd5b83356001600160401b03811115613333575f5ffd5b61333f86828701612edf565b93505060208401356001600160401b0381111561335a575f5ffd5b61336686828701612edf565b93969395505050506040919091013590565b5f5f60408385031215613389575f5ffd5b82356001600160401b0381111561339e575f5ffd5b6133aa85828601612edf565b92505060208301356001600160401b038111156130f8575f5ffd5b5f5f604083850312156133d6575f5ffd5b50508035926020909101359150565b5f5f5f5f608085870312156133f8575f5ffd5b84356001600160401b0381111561340d575f5ffd5b61341987828801612edf565b97602087013597506040870135966060013595509350505050565b5f60208284031215613444575f5ffd5b5051919050565b634e487b7160e01b5f52601160045260245ffd5b5f8261347957634e487b7160e01b5f52601260045260245ffd5b500490565b634e487b7160e01b5f52603260045260245ffd5b600181811c908216806134a657607f821691505b6020821081036134c457634e487b7160e01b5f52602260045260245ffd5b50919050565b5f81518060208401855e5f93019283525090919050565b5f61290082846134ca565b604081525f6134fe6040830185612d70565b90508260208301529392505050565b5f6020828403121561351d575f5ffd5b81518015158114612ddf575f5ffd5b606081525f61353e6060830186612d70565b6001600160a01b039490941660208301525060400152919050565b5f6001820161356a5761356a61344b565b5060010190565b838152826020820152606060408201525f61358f6060830184612d70565b95945050505050565b60208082526029908201527f52657175657374207375626d69747465642062792061206e6f6e2d6d656d626560408201526872206164647265737360b81b606082015260800190565b634e487b7160e01b5f52603160045260245ffd5b5f815461360181613492565b80855260018216801561361b57600181146136375761366b565b60ff1983166020870152602082151560051b870101935061366b565b845f5260205f205f5b838110156136625781546020828a010152600182019150602081019050613640565b87016020019450505b50505092915050565b6001600160a01b03831681526040602082018190525f90612f7b908301846135f5565b5f5f83546136a481613492565b6001821680156136bb57600181146136d0576136fd565b60ff19831686528115158202860193506136fd565b865f5260205f205f5b838110156136f5578154888201526001909101906020016136d9565b505081860193505b509195945050505050565b601f82111561157157805f5260205f20601f840160051c8101602085101561372d5750805b601f840160051c820191505b81811015611e47575f8155600101613739565b5f19600383901b1c191660019190911b1790565b81516001600160401b0381111561377957613779612e9b565b61378d816137878454613492565b84613708565b6020601f8211600181146137ba575f83156137a85750848201515b6137b2848261374c565b855550611e47565b5f84815260208120601f198516915b828110156137e957878501518255602094850194600190920191016137c9565b508482101561380657868401515f19600387901b60f8161c191681555b50505050600190811b01905550565b81835281816020850137505f828201602090810191909152601f909101601f19169091010190565b606081525f613850606083018789613815565b8281036020840152613863818688613815565b9150508260408301529695505050505050565b5f60208284031215613886575f5ffd5b8151612ddf81612db0565b808201808211156129035761290361344b565b6001600160401b038311156138bb576138bb612e9b565b6138cf836138c98354613492565b83613708565b5f601f8411600181146138fb575f85156138e95750838201355b6138f3868261374c565b845550611e47565b5f83815260208120601f198716915b8281101561392a578685013582556020948501946001909201910161390a565b5086821015613946575f1960f88860031b161c19848701351681555b505060018560011b0183555050505050565b80820281158282048414176129035761290361344b565b604081525f61398160408301856135f5565b828103602084015261358f8185612d70565b818103818111156129035761290361344b565b8181036139b1575050565b6139bb8254613492565b6001600160401b038111156139d2576139d2612e9b565b6139e0816137878454613492565b5f601f821160018114613a03575f83156137a85750848201546137b2848261374c565b5f8581526020808220868352908220601f198616925b83811015613a395782860154825560019586019590910190602001613a19565b5085831015613a5657818501545f19600388901b60f8161c191681555b5050505050600190811b01905550565b6001600160a01b03831681526040602082018190525f90612f7b90830184612d70565b608081525f613a9b6080830187612d70565b6001600160a01b03861660208401528281036040840152613abc8186612d70565b91505060018060a01b038316606083015295945050505050565b634e487b7160e01b5f52605160045260245ffdfe7d6a6b7452c2fec7981096e354fb3311f3f3b800ff27def1017b22cbff275190a26469706673582212205e8c6d8ccd94abad2dde6484376096dfff7bb866b30e27e9dd94ac2edcb3962664736f6c634300081c00335a6f6e65642e636f6e7374727563746f723a2045786974696e6720636f6e7374727563746f72207375636365737366756c6c795a6f6e65642e636f6e7374727563746f723a205365742063726561746f7220746f3a5a6f6e65642e636f6e7374727563746f723a20536574206f776e657220746f2063726561746f72207769746820616464726573733a205a6f6e65642e636f6e7374727563746f723a2043616c6c696e672073657452657761726446756e6374696f6e207769746820612c20622c2063203d5a6f6e65642e636f6e7374727563746f723a20536574206e7a6f6e657320746f3a5a6f6e65642e636f6e7374727563746f723a2073657452657761726446756e6374696f6e20636f6d706c657465645a6f6e65642e636f6e7374727563746f723a2053657420666c61766f7220746f3a205a6f6e6564","linkReferences":{}},"methodIdentifiers":{"a()":"0dbe671f","addFederationMember(string)":"aab34639","addMember(address,string)":"c127c247","addMember(string,string)":"ea6c38ef","addMembers(string,string[])":"4f51f781","addParent(address)":"acf36e53","addToZone(string,string,uint256)":"7e961b57","addressToUserId(address)":"b5ffbbcc","b()":"4df7e3d0","botAddress()":"4bf4f423","c()":"c3da42b8","calculateRewards()":"3e50de30","changeName(address,string)":"45ca25ed","changeOwner(address)":"a6f9dae1","claim(string,address)":"60a1da83","creator()":"02d05d3f","depositEtherForUser(string,uint256)":"78bef78b","depositTokenForUser(string,address,uint256)":"2615c3c7","etherBalance(string)":"57a32534","factory()":"c45a0155","flavor()":"f59e4f65","getSize()":"de8fa431","getZoneMembers(uint256)":"7b0a7e33","hasClaimed(string)":"363454ee","isMember(address)":"a230c524","isZonedMember(string)":"2333d75e","listMembers()":"b6afd2ca","listParents()":"3113a2ae","manifest()":"f5baf0d7","name()":"06fdde03","newHolon(string,string,uint256)":"0babba86","nzones()":"33d6e65f","percentages(string)":"6393f5d4","removeFromZone(string,string)":"a3a401e0","removeMember(address)":"0b1ca49a","reward(address,uint256)":"21670f22","rewards(uint256)":"f301af42","setManifest(string)":"29b84d09","setRewardFunction(string,uint256,uint256,uint256)":"f685b4c3","toAddress(string)":"7e4115ba","toName(address)":"81bc3f8c","tokenBalance(string,address)":"ca224313","tokensOf(string,uint256)":"cc184948","totalDeposited(address)":"53055481","userIdToAddress(string)":"c21be6ae","userIds(uint256)":"4635fd68","version()":"54fd4d50","zone(string)":"1821fcab","zonemembers(uint256,uint256)":"ead62520"},"id":42}