{"abi":[{"type":"function","name":"createZoned","inputs":[{"name":"_creatorUserId","type":"string","internalType":"string"},{"name":"_name","type":"string","internalType":"string"},{"name":"_parameter","type":"uint256","internalType":"uint256"}],"outputs":[{"name":"","type":"address","internalType":"address"}],"stateMutability":"nonpayable"},{"type":"function","name":"listHolons","inputs":[],"outputs":[{"name":"","type":"address[]","internalType":"address[]"}],"stateMutability":"view"},{"type":"function","name":"listHolonsOf","inputs":[{"name":"_address","type":"address","internalType":"address"}],"outputs":[{"name":"","type":"address[]","internalType":"address[]"}],"stateMutability":"view"},{"type":"function","name":"newHolon","inputs":[{"name":"creatorUserId","type":"string","internalType":"string"},{"name":"_name","type":"string","internalType":"string"},{"name":"_parameter","type":"uint256","internalType":"uint256"}],"outputs":[{"name":"","type":"address","internalType":"address"}],"stateMutability":"nonpayable"},{"type":"function","name":"toAddress","inputs":[{"name":"","type":"string","internalType":"string"}],"outputs":[{"name":"","type":"address","internalType":"address"}],"stateMutability":"view"},{"type":"event","name":"NewHolon","inputs":[{"name":"name","type":"string","indexed":false,"internalType":"string"},{"name":"addr","type":"address","indexed":false,"internalType":"address"}],"anonymous":false}],"bytecode":{"object":"0x608060405234801561000f575f80fd5b5061567a8061001d5f395ff3fe608060405234801562000010575f80fd5b50600436106200005c575f3560e01c80630babba8614620000605780637e4115ba14620000945780639e79e8a514620000cb578063dfee571714620000e2578063e5c233741462000108575b5f80fd5b6200007762000071366004620008e9565b62000112565b6040516001600160a01b0390911681526020015b60405180910390f35b62000077620000a536600462000958565b80516020818301810180516001825292820191909301209152546001600160a01b031681565b62000077620000dc366004620008e9565b62000441565b620000f9620000f336600462000996565b6200059a565b6040516200008b9190620009c5565b620000f96200060d565b5f62000161604051806060016040528060248152602001620055b260249139846040518060400160405280600f81526020016e30b732102fb830b930b6b2ba32b91d60891b8152508562000694565b620001856040518060600160405280603181526020016200558160319139620006e7565b5f84338585604051620001989062000836565b620001a7949392919062000a64565b604051809103905ff080158015620001c1573d5f803e3d5ffd5b5090505f819050620001f6604051806060016040528060308152602001620055d660309139826001600160a01b031662000731565b6200021a6040518060600160405280603f815260200162005606603f9139620006e7565b5f60208181527fad3228b676f7d3cd4284a5443f17f1962b36e491b30a40b2405849e597ba5fb5805460018101825592527ff0df3dcda05b4fbd9c655cde3d5ceb211e019e72ec816e127a59e7195f2cd7f590910180546001600160a01b0319166001600160a01b0384161790556040805160608101909152603f808252620002ab92620054e590830139620006e7565b335f818152602081815260408220805460018101825590835291200180546001600160a01b0319166001600160a01b038416179055321462000341576200030b6040518060800160405280605d815260200162005524605d9139620006e7565b325f908152602081815260408220805460018101825590835291200180546001600160a01b0319166001600160a01b0383161790555b8060018660405162000354919062000aad565b90815260200160405180910390205f6101000a8154816001600160a01b0302191690836001600160a01b03160217905550620003d8604051806060016040528060318152602001620054b460319139866040518060400160405280601581526020017434b7103a37a0b2323932b9b99036b0b83834b7339760591b8152506200077e565b7f10d047031611691941b661f2160741619b4030812eb79997f4b3734ed5605a4385826040516200040b92919062000aca565b60405180910390a162000438604051806060016040528060338152602001620054816033913986620007ce565b95945050505050565b5f8084338585604051620004559062000836565b62000464949392919062000a64565b604051809103905ff0801580156200047e573d5f803e3d5ffd5b505f60208181527fad3228b676f7d3cd4284a5443f17f1962b36e491b30a40b2405849e597ba5fb5805460018181019092557ff0df3dcda05b4fbd9c655cde3d5ceb211e019e72ec816e127a59e7195f2cd7f50180546001600160a01b0386166001600160a01b0319918216811790925533855260408086208054808601825590875294909520909301805490931617909155905191925082918291906200052890889062000aad565b90815260405190819003602001812080546001600160a01b03939093166001600160a01b0319909316929092179091557f10d047031611691941b661f2160741619b4030812eb79997f4b3734ed5605a439062000589908790849062000aca565b60405180910390a195945050505050565b6001600160a01b0381165f90815260208181526040918290208054835181840281018401909452808452606093928301828280156200060157602002820191905f5260205f20905b81546001600160a01b03168152600190910190602001808311620005e2575b50505050509050919050565b5f80805260209081527fad3228b676f7d3cd4284a5443f17f1962b36e491b30a40b2405849e597ba5fb580546040805182850281018501909152818152606093909291908301828280156200068a57602002820191905f5260205f20905b81546001600160a01b031681526001909101906020018083116200066b575b5050505050905090565b620006e184848484604051602401620006b1949392919062000af5565b60408051601f198184030181529190526020810180516001600160e01b0316638eafb02b60e01b17905262000812565b50505050565b6200072e81604051602401620006fe919062000b33565b60408051601f198184030181529190526020810180516001600160e01b031663104c13eb60e21b17905262000812565b50565b6200077a82826040516024016200074a92919062000b47565b60408051601f198184030181529190526020810180516001600160e01b0316632d839cb360e21b17905262000812565b5050565b620007c9838383604051602401620007999392919062000b6a565b60408051601f198184030181529190526020810180516001600160e01b0316632ced7cef60e01b17905262000812565b505050565b6200077a8282604051602401620007e792919062000bb2565b60408051601f198184030181529190526020810180516001600160e01b0316634b5c427760e01b1790525b6200072e815f6a636f6e736f6c652e6c6f6790505f80835160208501845afa505050565b6148a68062000bdb83390190565b634e487b7160e01b5f52604160045260245ffd5b5f82601f83011262000868575f80fd5b813567ffffffffffffffff8082111562000886576200088662000844565b604051601f8301601f19908116603f01168101908282118183101715620008b157620008b162000844565b81604052838152866020858801011115620008ca575f80fd5b836020870160208301375f602085830101528094505050505092915050565b5f805f60608486031215620008fc575f80fd5b833567ffffffffffffffff8082111562000914575f80fd5b620009228783880162000858565b9450602086013591508082111562000938575f80fd5b50620009478682870162000858565b925050604084013590509250925092565b5f6020828403121562000969575f80fd5b813567ffffffffffffffff81111562000980575f80fd5b6200098e8482850162000858565b949350505050565b5f60208284031215620009a7575f80fd5b81356001600160a01b0381168114620009be575f80fd5b9392505050565b602080825282518282018190525f9190848201906040850190845b8181101562000a075783516001600160a01b031683529284019291840191600101620009e0565b50909695505050505050565b5f5b8381101562000a2f57818101518382015260200162000a15565b50505f910152565b5f815180845262000a5081602086016020860162000a13565b601f01601f19169290920160200192915050565b608081525f62000a78608083018762000a37565b6001600160a01b0386166020840152828103604084015262000a9b818662000a37565b91505082606083015295945050505050565b5f825162000ac081846020870162000a13565b9190910192915050565b604081525f62000ade604083018562000a37565b905060018060a01b03831660208301529392505050565b608081525f62000b09608083018762000a37565b828103602084015262000b1d818762000a37565b9050828103604084015262000a9b818662000a37565b602081525f620009be602083018462000a37565b604081525f62000b5b604083018562000a37565b90508260208301529392505050565b606081525f62000b7e606083018662000a37565b828103602084015262000b92818662000a37565b9050828103604084015262000ba8818562000a37565b9695505050505050565b604081525f62000bc6604083018562000a37565b828103602084015262000438818562000a3756fe608060405234801562000010575f80fd5b50604051620048a6380380620048a6833981016040819052620000339162000989565b600280546001600160a01b03191632179055600762000053838262000a9d565b5060408051808201909152601f81527f5a6f6e65642e636f6e7374727563746f723a20536574206e616d6520746f3a00602082015262000094908362000338565b600a80546001600160a01b0319166001600160a01b03851617905560408051606081019091526022808252620000de91906200479d60208301396001600160a01b03851662000389565b604080518082019091526005815264169bdb995960da1b602082015260099062000109908262000a9d565b506200012e6040518060600160405280602781526020016200487f60279139620003d6565b80601b819055506200015a60405180606001604052806021815260200162004830602191398262000389565b600280546001600160a01b0385166001600160a01b031991821617909155601680549091163317905560408051606081019091526036808252620001a99190620047bf60208301398462000424565b5f601781905560185560016019819055601580546001600160a01b03191673b2da94d13735af2ddcf5a3c797547290221f3dbb179055604051600f90620001f290879062000b69565b908152604051908190036020019020805491151560ff19909216919091179055600b80546001810182555f919091527f0175b7a638427703f0dbe7bb9bbf987a2551717b34e79f33b5b1008d1fa01db9016200024f858262000a9d565b505f818152601c602090815260408220805460018101825590835291200162000279858262000a9d565b5080601d856040516200028d919062000b69565b908152602001604051809103902081905550620002cc6040518060600160405280603b8152602001620047f5603b913960175460185460195462000471565b620002e684601754601854601954620004c860201b60201c565b6200030a6040518060600160405280602e815260200162004851602e9139620003d6565b6200032e6040518060600160405280603381526020016200476a60339139620003d6565b5050505062000d63565b6200038582826040516024016200035192919062000bb3565b60408051601f198184030181529190526020810180516001600160e01b03908116634b5c427760e01b179091526200068716565b5050565b620003858282604051602401620003a292919062000be4565b60408051601f198184030181529190526020810180516001600160e01b03908116632d839cb360e21b179091526200068716565b6200042181604051602401620003ed919062000c07565b60408051601f198184030181529190526020810180516001600160e01b0390811663104c13eb60e21b179091526200068716565b50565b6200038582826040516024016200043d92919062000c22565b60408051601f198184030181529190526020810180516001600160e01b0390811663319af33360e01b179091526200068716565b620004c2848484846040516024016200048e949392919062000c4d565b60408051601f198184030181529190526020810180516001600160e01b0390811663a7a8785360e01b179091526200068716565b50505050565b604080518082018252601f81527f73657452657761726446756e6374696f6e2e206d73672e73656e6465723a20006020808301919091528251808401909352600b83526a3137ba20b2323932b9b99d60a91b90830152601554620005379233916001600160a01b03166200069d565b600a546001600160a01b03163314806200055b57506016546001600160a01b031633145b620005d35760405162461bcd60e51b815260206004820152603c60248201527f6f6e6c792063726561746f72206f7220626f742063616e206368616e6765207460448201527f6865207265776172642066756e6374696f6e2063757272656e746c790000000060648201526084015b60405180910390fd5b601b54601d85604051620005e8919062000b69565b90815260200160405180910390205414620006515760405162461bcd60e51b815260206004820152602260248201527f6d656d626572206d75737420626520696e207468652068696768657374207a6f6044820152616e6560f01b6064820152608401620005ca565b6017839055601882905560198190556200066a620006ee565b80516200068091601a916020909101906200085f565b5050505050565b62000421816200084060201b6200261c1760201c565b620004c284848484604051602401620006ba949392919062000c7d565b60408051601f198184030181529190526020810180516001600160e01b0390811663aabc9a3160e01b179091526200068716565b60408051600680825260e082019092526060915f91906020820160c0803683370190505090505f805b601b548111620007c9576019548160185462000734919062000cde565b828360175462000745919062000cde565b62000751919062000cde565b6200075d919062000cfe565b62000769919062000cfe565b8382815181106200077e576200077e62000d14565b6020026020010181815250508281815181106200079f576200079f62000d14565b602002602001015182620007b4919062000cfe565b9150620007c18162000d28565b905062000717565b505f5b8251811015620008385781838281518110620007ec57620007ec62000d14565b602002602001015161271062000803919062000cde565b6200080f919062000d43565b83828151811062000824576200082462000d14565b6020908102919091010152600101620007cc565b509092915050565b5f6a636f6e736f6c652e6c6f6790505f80835160208501845afa505050565b828054828255905f5260205f209081019282156200089b579160200282015b828111156200089b5782518255916020019190600101906200087e565b50620008a9929150620008ad565b5090565b5b80821115620008a9575f8155600101620008ae565b634e487b7160e01b5f52604160045260245ffd5b5f5b83811015620008f3578181015183820152602001620008d9565b50505f910152565b5f82601f8301126200090b575f80fd5b81516001600160401b0380821115620009285762000928620008c3565b604051601f8301601f19908116603f01168101908282118183101715620009535762000953620008c3565b816040528381528660208588010111156200096c575f80fd5b6200097f846020830160208901620008d7565b9695505050505050565b5f805f80608085870312156200099d575f80fd5b84516001600160401b0380821115620009b4575f80fd5b620009c288838901620008fb565b602088015190965091506001600160a01b0382168214620009e1575f80fd5b604087015191945080821115620009f6575f80fd5b5062000a0587828801620008fb565b606096909601519497939650505050565b600181811c9082168062000a2b57607f821691505b60208210810362000a4a57634e487b7160e01b5f52602260045260245ffd5b50919050565b601f82111562000a9857805f5260205f20601f840160051c8101602085101562000a775750805b601f840160051c820191505b8181101562000680575f815560010162000a83565b505050565b81516001600160401b0381111562000ab95762000ab9620008c3565b62000ad18162000aca845462000a16565b8462000a50565b602080601f83116001811462000b07575f841562000aef5750858301515b5f19600386901b1c1916600185901b17855562000b61565b5f85815260208120601f198616915b8281101562000b375788860151825594840194600190910190840162000b16565b508582101562000b5557878501515f19600388901b60f8161c191681555b505060018460011b0185555b505050505050565b5f825162000b7c818460208701620008d7565b9190910192915050565b5f815180845262000b9f816020860160208601620008d7565b601f01601f19169290920160200192915050565b604081525f62000bc7604083018562000b86565b828103602084015262000bdb818562000b86565b95945050505050565b604081525f62000bf8604083018562000b86565b90508260208301529392505050565b602081525f62000c1b602083018462000b86565b9392505050565b604081525f62000c36604083018562000b86565b905060018060a01b03831660208301529392505050565b608081525f62000c61608083018762000b86565b6020830195909552506040810192909252606090910152919050565b608081525f62000c91608083018762000b86565b6001600160a01b038681166020850152838203604085015262000cb5828762000b86565b92508085166060850152505095945050505050565b634e487b7160e01b5f52601160045260245ffd5b808202811582820484141762000cf85762000cf862000cca565b92915050565b8082018082111562000cf85762000cf862000cca565b634e487b7160e01b5f52603260045260245ffd5b5f6001820162000d3c5762000d3c62000cca565b5060010190565b5f8262000d5e57634e487b7160e01b5f52601260045260245ffd5b500490565b6139f98062000d715f395ff3fe60806040526004361061028b575f3560e01c80636393f5d411610159578063c21be6ae116100c0578063ea6c38ef11610079578063ea6c38ef146108d6578063ead62520146108f5578063f301af4214610914578063f59e4f6514610933578063f5baf0d714610947578063f685b4c31461095b5761029c565b8063c21be6ae146107ea578063c3da42b81461082a578063c45a01551461083f578063ca2243131461085e578063cc184948146108a4578063de8fa431146108c35761029c565b8063a230c52411610112578063a230c524146106e1578063a6f9dae11461070f578063acf36e531461072e578063b5ffbbcc14610798578063b6afd2ca146107b7578063c127c247146107cb5761029c565b80636393f5d4146105ed57806378bef78b146106245780637b0a7e33146106375780637e4115ba146106635780637e961b57146106a357806381bc3f8c146106c25761029c565b806333d6e65f116101fd5780634df7e3d0116101b65780634df7e3d0146105245780634f51f78114610539578063530554811461055857806354fd4d501461058357806357a325341461059757806360a1da83146105ce5761029c565b806333d6e65f14610457578063363454ee1461046c5780633e50de30146104a657806345ca25ed146104c75780634635fd68146104e65780634bf4f423146105055761029c565b80631821fcab1161024f5780631821fcab1461036457806321670f221461039b5780632333d75e146103ae5780632615c3c7146103f857806329b84d09146104175780633113a2ae146104365761029c565b806302d05d3f146102a657806306fdde03146102e25780630b1ca49a146103035780630babba86146103225780630dbe671f146103415761029c565b3661029c5761029a5f3461097a565b005b61029a5f3461097a565b3480156102b1575f80fd5b50600a546102c5906001600160a01b031681565b6040516001600160a01b0390911681526020015b60405180910390f35b3480156102ed575f80fd5b506102f66110b6565b6040516102d99190612c1d565b34801561030e575f80fd5b5061029a61031d366004612c43565b611142565b34801561032d575f80fd5b506102c561033c366004612ca9565b611321565b34801561034c575f80fd5b5061035660175481565b6040519081526020016102d9565b34801561036f575f80fd5b5061035661037e366004612dc5565b8051602081830181018051601d8252928201919093012091525481565b61029a6103a9366004612dfe565b61097a565b3480156103b9575f80fd5b506103e86103c8366004612dc5565b8051602081830181018051600f8252928201919093012091525460ff1681565b60405190151581526020016102d9565b348015610403575f80fd5b5061029a610412366004612e28565b6113a6565b348015610422575f80fd5b5061029a610431366004612e7d565b6114a6565b348015610441575f80fd5b5061044a611512565b6040516102d99190612ebb565b348015610462575f80fd5b50610356601b5481565b348015610477575f80fd5b506103e8610486366004612dc5565b8051602081830181018051600e8252928201919093012091525460ff1681565b3480156104b1575f80fd5b506104ba611572565b6040516102d99190612f07565b3480156104d2575f80fd5b5061029a6104e1366004612f3e565b6116a2565b3480156104f1575f80fd5b506102f6610500366004612f8a565b6117de565b348015610510575f80fd5b506015546102c5906001600160a01b031681565b34801561052f575f80fd5b5061035660185481565b348015610544575f80fd5b5061029a610553366004612fa1565b611805565b348015610563575f80fd5b50610356610572366004612c43565b60136020525f908152604090205481565b34801561058e575f80fd5b506102f66119ab565b3480156105a2575f80fd5b506103566105b1366004612dc5565b805160208183018101805160108252928201919093012091525481565b3480156105d9575f80fd5b5061029a6105e836600461307f565b6119b8565b3480156105f8575f80fd5b50610356610607366004612dc5565b805160208183018101805160148252928201919093012091525481565b61029a6106323660046130cd565b611aeb565b348015610642575f80fd5b50610656610651366004612f8a565b611b21565b6040516102d9919061310e565b34801561066e575f80fd5b506102c561067d366004612dc5565b80516020818301810180516005825292820191909301209152546001600160a01b031681565b3480156106ae575f80fd5b5061029a6106bd366004613170565b611c06565b3480156106cd575f80fd5b506102f66106dc366004612c43565b611f38565b3480156106ec575f80fd5b506103e86106fb366004612c43565b60046020525f908152604090205460ff1681565b34801561071a575f80fd5b5061029a610729366004612c43565b611f50565b348015610739575f80fd5b5061029a610748366004612c43565b6001805480820182555f919091527fb10e2d527612073b26eecdfd717e6a320cf44b4afac2b0732d9fcbe2b7fa0cf60180546001600160a01b0319166001600160a01b0392909216919091179055565b3480156107a3575f80fd5b506102f66107b2366004612c43565b611fcc565b3480156107c2575f80fd5b5061044a611fe4565b3480156107d6575f80fd5b5061029a6107e5366004612f3e565b612041565b3480156107f5575f80fd5b506102c5610804366004612dc5565b8051602081830181018051600c825292820191909301209152546001600160a01b031681565b348015610835575f80fd5b5061035660195481565b34801561084a575f80fd5b506016546102c5906001600160a01b031681565b348015610869575f80fd5b5061035661087836600461307f565b81516020818401810180516011825292820194820194909420919093529091525f908152604090205481565b3480156108af575f80fd5b506102c56108be3660046130cd565b612254565b3480156108ce575f80fd5b505f54610356565b3480156108e1575f80fd5b5061029a6108f03660046131d7565b612299565b348015610900575f80fd5b506102f661090f36600461322c565b61240a565b34801561091f575f80fd5b5061035661092e366004612f8a565b61243c565b34801561093e575f80fd5b506102f661245b565b348015610952575f80fd5b506102f6612468565b348015610966575f80fd5b5061029a61097536600461324c565b612475565b5f805f3411801561099257506001600160a01b038416155b156109a35734925060019150610a6b565b506040516370a0823160e01b8152306004820152839083906001600160a01b038316906370a0823190602401602060405180830381865afa1580156109ea573d5f803e3d5ffd5b505050506040513d601f19601f82011682018060405250810190610a0e919061329b565b1015610a6b5760405162461bcd60e51b815260206004820152602160248201527f4e6f7420656e6f75676820746f6b656e7320696e2074686520636f6e747261636044820152601d60fa1b60648201526084015b60405180910390fd5b5f80805b601b54811161102d575f818152601c60205260409020541561101b575f818152601c6020526040902054610aa3828861263b565b610aad91906132c6565b92505f5b5f828152601c6020526040902054811015611019575f828152601c60205260408120805483908110610ae557610ae56132e5565b905f5260205f20018054610af8906132f9565b80601f0160208091040260200160405190810160405280929190818152602001828054610b24906132f9565b8015610b6f5780601f10610b4657610100808354040283529160200191610b6f565b820191905f5260205f20905b815481529060010190602001808311610b5257829003601f168201915b505050505090505f851115611010575f600c82604051610b8f9190613331565b908152604051908190036020019020546001600160a01b03169050803b15158815610d7757600e83604051610bc49190613331565b9081526040519081900360200190205460ff1615610cd3575f826001600160a01b0316886040515f6040518083038185875af1925050503d805f8114610c25576040519150601f19603f3d011682016040523d82523d5f602084013e610c2a565b606091505b5050905080610c6d5760405162461bcd60e51b815260206004820152600f60248201526e151c985b9cd9995c8819985a5b1959608a1b6044820152606401610a62565b826001600160a01b0316306001600160a01b03165f805160206139a48339815191528a85604051610cc5929190918252151560208201526060604082018190526003908201526208aa8960eb1b608082015260a00190565b60405180910390a350611000565b6040516378bef78b60e01b815230906378bef78b90610cf89086908b9060040161334c565b5f604051808303815f87803b158015610d0f575f80fd5b505af1158015610d21573d5f803e3d5ffd5b5050604080518a815284151560208201526060818301819052600a90820152690a6a89ea48a88be8aa8960b31b608082015290515f93503092505f805160206139a48339815191529181900360a00190a3611000565b600e83604051610d879190613331565b9081526040519081900360200190205460ff1615610f5c5760405163a9059cbb60e01b81526001600160a01b0383811660048301526024820189905289169063a9059cbb906044016020604051808303815f875af1158015610deb573d5f803e3d5ffd5b505050506040513d601f19601f82011682018060405250810190610e0f919061336d565b506040516001600160a01b038c81166024830152604482018990525f919084169060640160408051601f198184030181529181526020820180516001600160e01b03166310b3879160e11b17905251610e689190613331565b5f604051808303815f865af19150503d805f8114610ea1576040519150601f19603f3d011682016040523d82523d5f602084013e610ea6565b606091505b5050905080610f025760405162461bcd60e51b815260206004820152602260248201527f556e61626c6520746f2063616c6c20746865207265776172642066756e63746960448201526137b760f11b6064820152608401610a62565b826001600160a01b0316306001600160a01b03165f805160206139a48339815191528a85604051610cc59291909182521515602082015260606040820181905260059082015264045524332360dc1b608082015260a00190565b604051632615c3c760e01b81523090632615c3c790610f839086908f908c9060040161338c565b5f604051808303815f87803b158015610f9a575f80fd5b505af1158015610fac573d5f803e3d5ffd5b5050604080518a815284151560208201526060818301819052600c908201526b053544f5245445f45524332360a41b608082015290515f93503092505f805160206139a48339815191529181900360a00190a35b8561100a816133b9565b96505050505b50600101610ab1565b505b80611025816133b9565b915050610a6f565b50307fd83308e9158842b2115ec5e6f6395db42fff24e4b5506ef42fe33854fafad65586838761107a5760405180604001604052806005815260200164045524332360dc1b815250611097565b6040518060400160405280600381526020016208aa8960eb1b8152505b6040516110a6939291906133d1565b60405180910390a2505050505050565b600780546110c3906132f9565b80601f01602080910402602001604051908101604052809291908181526020018280546110ef906132f9565b801561113a5780601f106111115761010080835404028352916020019161113a565b820191905f5260205f20905b81548152906001019060200180831161111d57829003601f168201915b505050505081565b6002546001600160a01b0316331461116c5760405162461bcd60e51b8152600401610a62906133f8565b5f5b5f5481101561121857816001600160a01b03165f8281548110611193576111936132e5565b5f918252602090912001546001600160a01b031603611210575f80546111b76132e5565b5f91825260208220015481546001600160a01b039091169190839081106111e0576111e06132e5565b905f5260205f20015f6101000a8154816001600160a01b0302191690836001600160a01b03160217905550611218565b60010161116e565b505f80548061122957611229613441565b5f828152602080822083015f1990810180546001600160a01b03191690559092019092556001600160a01b0383168252600481526040808320805460ff1916905560069091529081902090517f982d6fac85d22cbbe833f9fe4278a909ca0f3b24ecc8b1f10fe63736e3c72313916112a3918491906134ce565b60405180910390a16001600160a01b0381165f9081526006602052604080822090516005916112d1916134f1565b908152604080516020928190038301812080546001600160a01b0319166001600160a01b0395861617905582810182525f808252938516845260069092529091209061131d90826135bb565b5050565b600a546040516305d5dd4360e11b81525f916001600160a01b0316908190630babba869061135b908a908a908a908a908a9060040161369d565b6020604051808303815f875af1158015611377573d5f803e3d5ffd5b505050506040513d601f19601f8201168201806040525081019061139b91906136d6565b979650505050505050565b5f8290505f6011856040516113bb9190613331565b9081526040805191829003602090810183206001600160a01b0388165f90815291522054915083906011906113f1908890613331565b90815260200160405180910390205f866001600160a01b03166001600160a01b031681526020019081526020015f205f82825461142e91906136f1565b9091555050604051601290611444908790613331565b908152604080516020928190038301902080546001810182555f9182528382200180546001600160a01b0319166001600160a01b038916908117909155815260139092528120805485929061149a9084906136f1565b90915550505050505050565b6002546001600160a01b031633146115005760405162461bcd60e51b815260206004820152601f60248201527f4f6e6c79206f776e65722063616e2073657420746865206d616e6966657374006044820152606401610a62565b600361150d828483613704565b505050565b6060600180548060200260200160405190810160405280929190818152602001828054801561156857602002820191905f5260205f20905b81546001600160a01b0316815260019091019060200180831161154a575b5050505050905090565b60408051600680825260e082019092526060915f91906020820160c0803683370190505090505f805b601b54811161163757601954816018546115b591906137b8565b82836017546115c491906137b8565b6115ce91906137b8565b6115d891906136f1565b6115e291906136f1565b8382815181106115f4576115f46132e5565b602002602001018181525050828181518110611612576116126132e5565b60200260200101518261162591906136f1565b9150611630816133b9565b905061159b565b505f5b825181101561169a5781838281518110611656576116566132e5565b602002602001015161271061166b91906137b8565b61167591906132c6565b838281518110611687576116876132e5565b602090810291909101015260010161163a565b509092915050565b6001600160a01b0382163314806116c357506002546001600160a01b031633145b806116d657506001600160a01b03821632145b61173d5760405162461bcd60e51b815260206004820152603260248201527f4e616d65206368616e67652072657175657374206e6f742073656e742066726f604482015271369036b2b6b132b9103737b91037bbb732b960711b6064820152608401610a62565b8160058260405161174e9190613331565b908152604080516020928190038301812080546001600160a01b0319166001600160a01b039586161790559285165f908152600690925290207ffdcc9059d3426f73949b49e5d977553aa298184439da800d66f48959d9cc76b0916117b5919084906137cf565b60405180910390a16001600160a01b0382165f90815260066020526040902061150d82826135bb565b600b81815481106117ed575f80fd5b905f5260205f20015f9150905080546110c3906132f9565b600a546001600160a01b031633148061183d5750600f826040516118299190613331565b9081526040519081900360200190205460ff165b6118595760405162461bcd60e51b8152600401610a62906137f3565b5f5b815181101561150d575f828281518110611877576118776132e5565b60200260200101519050600f816040516118919190613331565b9081526040519081900360200190205460ff16156118af57506119a3565b6001600f826040516118c19190613331565b908152604051908190036020019020805491151560ff19909216919091179055600b80546001810182555f919091527f0175b7a638427703f0dbe7bb9bbf987a2551717b34e79f33b5b1008d1fa01db90161191c82826135bb565b505f601d8260405161192e9190613331565b9081526040516020918190038201902091909155601c90527fb9c6de81004e18dedadca3e5eabaab449ca91dff6f58efc9461da635fe77f84980546001810182555f919091527f02b0734bf4522b7023d5fd665a53b226e677c5d4342429a34c53f7efe3291d74016119a082826135bb565b50505b60010161185b565b600880546110c3906132f9565b600e826040516119c89190613331565b9081526040519081900360200190205460ff1615611a285760405162461bcd60e51b815260206004820152601860248201527f557365722068617320616c726561647920636c61696d656400000000000000006044820152606401610a62565b5f6001600160a01b0316600c83604051611a429190613331565b908152604051908190036020019020546001600160a01b031603611aa15780600c83604051611a719190613331565b90815260405190819003602001902080546001600160a01b03929092166001600160a01b03199092169190911790555b611aab8282612679565b611ab58282612828565b6001600e83604051611ac79190613331565b908152604051908190036020019020805491151560ff199092169190911790555050565b80601083604051611afc9190613331565b90815260200160405180910390205f828254611b1891906136f1565b90915550505050565b6060601c5f8381526020019081526020015f20805480602002602001604051908101604052809291908181526020015f905b82821015611bfb578382905f5260205f20018054611b70906132f9565b80601f0160208091040260200160405190810160405280929190818152602001828054611b9c906132f9565b8015611be75780601f10611bbe57610100808354040283529160200191611be7565b820191905f5260205f20905b815481529060010190602001808311611bca57829003601f168201915b505050505081526020019060010190611b53565b505050509050919050565b6015546001600160a01b03163314611c755760405162461bcd60e51b815260206004820152602c60248201527f6f6e6c792063726561746f722063616e206368616e676520746865207a6f6e6560448201526b732063757272656e746c792160a01b6064820152608401610a62565b80601d84604051611c869190613331565b9081526020016040518091039020541015611d015760405162461bcd60e51b815260206004820152603560248201527f6d656d6265727320696e206c6f776572207a6f6e65732063616e6e6f742070726044820152746f6d6f746520746f20686967686572207a6f6e657360581b6064820152608401610a62565b600f82604051611d119190613331565b9081526040519081900360200190205460ff16611d875760405162461bcd60e51b815260206004820152602e60248201527f6f6e6c79207a6f6e65206d656d626572732063616e206861766520746865697260448201526d081e9bdb995cc818da185b99d95960921b6064820152608401610a62565b5f601d83604051611d989190613331565b90815260200160405180910390205490505f5b5f828152601c6020526040902054811015611eb05783604051602001611dd19190613331565b60408051601f1981840301815291815281516020928301205f858152601c9093529120805483908110611e0657611e066132e5565b905f5260205f2001604051602001611e1e91906134f1565b6040516020818303038152906040528051906020012003611ea8575f828152601c602052604090208054611e5490600190613847565b81548110611e6457611e646132e5565b905f5260205f2001601c5f8481526020019081526020015f208281548110611e8e57611e8e6132e5565b905f5260205f20019081611ea2919061385a565b50611eb0565b600101611dab565b505f818152601c60205260409020805480611ecd57611ecd613441565b600190038181905f5260205f20015f611ee69190612b3c565b905581601d84604051611ef99190613331565b9081526040805160209281900383019020929092555f848152601c82529182208054600181018255908352912001611f3184826135bb565b5050505050565b60066020525f9081526040902080546110c3906132f9565b6002546001600160a01b03163314611faa5760405162461bcd60e51b815260206004820152601f60248201527f4f6e6c79206f776e65722063616e206368616e676520746865206f776e6572006044820152606401610a62565b600280546001600160a01b0319166001600160a01b0392909216919091179055565b600d6020525f9081526040902080546110c3906132f9565b60605f80548060200260200160405190810160405280929190818152602001828054801561156857602002820191905f5260205f209081546001600160a01b0316815260019091019060200180831161154a575050505050905090565b335f9081526004602052604090205460ff1615156001148061206d57506002546001600160a01b031633145b6120895760405162461bcd60e51b8152600401610a62906133f8565b6001600160a01b0382165f9081526004602052604090205460ff16156120e85760405162461bcd60e51b815260206004820152601460248201527313595b58995c88185b1c9958591e48185919195960621b6044820152606401610a62565b5f6001600160a01b03166005826040516121029190613331565b908152604051908190036020019020546001600160a01b0316146121605760405162461bcd60e51b81526020600482015260156024820152742730b6b29034b99030b63932b0b23c903a30b5b2b760591b6044820152606401610a62565b5f80546001810182557f290decd9548b62a8d60345a988386fc84ba6bc95484008f6362f93160ef3e5630180546001600160a01b0319166001600160a01b03851690811790915581526006602052604090206121bc82826135bb565b50816005826040516121ce9190613331565b908152604080516020928190038301902080546001600160a01b0319166001600160a01b039485161790559184165f9081526004909152908120805460ff1916600117905560607f7c803c00251fe8138e27cfa8286be8d98625e5f6476ca6ca594f682362b711208484604051612246929190613923565b60405180910390a150505050565b8151602081840181018051601282529282019185019190912091905280548290811061227e575f80fd5b5f918252602090912001546001600160a01b03169150829050565b600a546001600160a01b03163314806122d15750600f826040516122bd9190613331565b9081526040519081900360200190205460ff165b6122ed5760405162461bcd60e51b8152600401610a62906137f3565b600f816040516122fd9190613331565b9081526040519081900360200190205460ff1615612319575050565b6001600f8260405161232b9190613331565b908152604051908190036020019020805491151560ff19909216919091179055600b80546001810182555f919091527f0175b7a638427703f0dbe7bb9bbf987a2551717b34e79f33b5b1008d1fa01db90161238682826135bb565b505f601d826040516123989190613331565b9081526040516020918190038201902091909155601c90527fb9c6de81004e18dedadca3e5eabaab449ca91dff6f58efc9461da635fe77f84980546001810182555f919091527f02b0734bf4522b7023d5fd665a53b226e677c5d4342429a34c53f7efe3291d740161150d82826135bb565b601c602052815f5260405f208181548110612423575f80fd5b905f5260205f20015f915091505080546110c3906132f9565b601a818154811061244b575f80fd5b5f91825260209091200154905081565b600980546110c3906132f9565b600380546110c3906132f9565b604080518082018252601f81527f73657452657761726446756e6374696f6e2e206d73672e73656e6465723a20006020808301919091528251808401909352600b83526a3137ba20b2323932b9b99d60a91b908301526015546124e29233916001600160a01b0316612ae2565b600a546001600160a01b031633148061250557506016546001600160a01b031633145b6125775760405162461bcd60e51b815260206004820152603c60248201527f6f6e6c792063726561746f72206f7220626f742063616e206368616e6765207460448201527f6865207265776172642066756e6374696f6e2063757272656e746c79000000006064820152608401610a62565b601b54601d8560405161258a9190613331565b908152602001604051809103902054146125f15760405162461bcd60e51b815260206004820152602260248201527f6d656d626572206d75737420626520696e207468652068696768657374207a6f6044820152616e6560f01b6064820152608401610a62565b601783905560188290556019819055612608611572565b8051611f3191601a91602090910190612b73565b5f6a636f6e736f6c652e6c6f6790505f80835160208501845afa505050565b5f61271082601a8581548110612653576126536132e5565b905f5260205f20015461266691906137b8565b61267091906132c6565b90505b92915050565b600a546001600160a01b031633146126e75760405162461bcd60e51b815260206004820152602b60248201527f4f6e6c792063726561746f722063616e207375626d697420616e20757365722060448201526a31b630b4b69022ba3432b960a91b6064820152608401610a62565b5f6010836040516126f89190613331565b9081526040519081900360200190205490506001600160a01b0382166127605760405162461bcd60e51b815260206004820152601b60248201527f496e76616c69642062656e6566696369617279206164647265737300000000006044820152606401610a62565b8015612802575f80836001600160a01b0316836040515f6040518083038185875af1925050503d805f81146127b0576040519150601f19603f3d011682016040523d82523d5f602084013e6127b5565b606091505b5091509150816127ff5760405162461bcd60e51b815260206004820152601560248201527410db185a5b5a5b99c8115d1a195c8819985a5b1959605a1b6044820152606401610a62565b50505b5f6010846040516128139190613331565b90815260405190819003602001902055505050565b600a546001600160a01b031633146128975760405162461bcd60e51b815260206004820152602c60248201527f4f6e6c792063726561746f722063616e207375626d697420616e20757365722060448201526b636c61696d20546f6b656e7360a01b6064820152608401610a62565b5f6012836040516128a89190613331565b908152604080519182900360209081018320805480830285018301909352828452919083018282801561290257602002820191905f5260205f20905b81546001600160a01b031681526001909101906020018083116128e4575b505050505090505f5b60128460405161291b9190613331565b90815260405190819003602001902054811015612adc575f828281518110612945576129456132e5565b602002602001015190505f6011866040516129609190613331565b90815260200160405180910390205f858581518110612981576129816132e5565b60200260200101516001600160a01b03166001600160a01b031681526020019081526020015f205490505f811115612ad2575f6011876040516129c49190613331565b90815260200160405180910390205f8686815181106129e5576129e56132e5565b60200260200101516001600160a01b03166001600160a01b031681526020019081526020015f20819055508060135f868681518110612a2657612a266132e5565b60200260200101516001600160a01b03166001600160a01b031681526020019081526020015f205f828254612a5b9190613847565b909155505060405163a9059cbb60e01b81526001600160a01b0386811660048301526024820183905283169063a9059cbb906044016020604051808303815f875af1158015612aac573d5f803e3d5ffd5b505050506040513d601f19601f82011682018060405250810190612ad0919061336d565b505b505060010161290b565b50505050565b612adc84848484604051602401612afc9493929190613946565b60408051601f198184030181529190526020810180516001600160e01b031663aabc9a3160e01b179052612b2f8161261c565b50565b612b3a61398f565b565b508054612b48906132f9565b5f825580601f10612b57575050565b601f0160209004905f5260205f2090810190612b2f9190612bbc565b828054828255905f5260205f20908101928215612bac579160200282015b82811115612bac578251825591602001919060010190612b91565b50612bb8929150612bbc565b5090565b5b80821115612bb8575f8155600101612bbd565b5f5b83811015612bea578181015183820152602001612bd2565b50505f910152565b5f8151808452612c09816020860160208601612bd0565b601f01601f19169290920160200192915050565b602081525f6126706020830184612bf2565b6001600160a01b0381168114612b2f575f80fd5b5f60208284031215612c53575f80fd5b8135612c5e81612c2f565b9392505050565b5f8083601f840112612c75575f80fd5b5081356001600160401b03811115612c8b575f80fd5b602083019150836020828501011115612ca2575f80fd5b9250929050565b5f805f805f60608688031215612cbd575f80fd5b85356001600160401b0380821115612cd3575f80fd5b612cdf89838a01612c65565b90975095506020880135915080821115612cf7575f80fd5b50612d0488828901612c65565b96999598509660400135949350505050565b634e487b7160e01b5f52604160045260245ffd5b604051601f8201601f191681016001600160401b0381118282101715612d5257612d52612d16565b604052919050565b5f82601f830112612d69575f80fd5b81356001600160401b03811115612d8257612d82612d16565b612d95601f8201601f1916602001612d2a565b818152846020838601011115612da9575f80fd5b816020850160208301375f918101602001919091529392505050565b5f60208284031215612dd5575f80fd5b81356001600160401b03811115612dea575f80fd5b612df684828501612d5a565b949350505050565b5f8060408385031215612e0f575f80fd5b8235612e1a81612c2f565b946020939093013593505050565b5f805f60608486031215612e3a575f80fd5b83356001600160401b03811115612e4f575f80fd5b612e5b86828701612d5a565b9350506020840135612e6c81612c2f565b929592945050506040919091013590565b5f8060208385031215612e8e575f80fd5b82356001600160401b03811115612ea3575f80fd5b612eaf85828601612c65565b90969095509350505050565b602080825282518282018190525f9190848201906040850190845b81811015612efb5783516001600160a01b031683529284019291840191600101612ed6565b50909695505050505050565b602080825282518282018190525f9190848201906040850190845b81811015612efb57835183529284019291840191600101612f22565b5f8060408385031215612f4f575f80fd5b8235612f5a81612c2f565b915060208301356001600160401b03811115612f74575f80fd5b612f8085828601612d5a565b9150509250929050565b5f60208284031215612f9a575f80fd5b5035919050565b5f8060408385031215612fb2575f80fd5b82356001600160401b0380821115612fc8575f80fd5b612fd486838701612d5a565b9350602091508185013581811115612fea575f80fd5b8501601f81018713612ffa575f80fd5b80358281111561300c5761300c612d16565b8060051b61301b858201612d2a565b918252828101850191858101908a841115613034575f80fd5b86850192505b8383101561306e57823586811115613050575f80fd5b61305e8c8983890101612d5a565b835250918601919086019061303a565b809750505050505050509250929050565b5f8060408385031215613090575f80fd5b82356001600160401b038111156130a5575f80fd5b6130b185828601612d5a565b92505060208301356130c281612c2f565b809150509250929050565b5f80604083850312156130de575f80fd5b82356001600160401b038111156130f3575f80fd5b6130ff85828601612d5a565b95602094909401359450505050565b5f60208083016020845280855180835260408601915060408160051b8701019250602087015f5b8281101561316357603f19888603018452613151858351612bf2565b94509285019290850190600101613135565b5092979650505050505050565b5f805f60608486031215613182575f80fd5b83356001600160401b0380821115613198575f80fd5b6131a487838801612d5a565b945060208601359150808211156131b9575f80fd5b506131c686828701612d5a565b925050604084013590509250925092565b5f80604083850312156131e8575f80fd5b82356001600160401b03808211156131fe575f80fd5b61320a86838701612d5a565b9350602085013591508082111561321f575f80fd5b50612f8085828601612d5a565b5f806040838503121561323d575f80fd5b50508035926020909101359150565b5f805f806080858703121561325f575f80fd5b84356001600160401b03811115613274575f80fd5b61328087828801612d5a565b97602087013597506040870135966060013595509350505050565b5f602082840312156132ab575f80fd5b5051919050565b634e487b7160e01b5f52601160045260245ffd5b5f826132e057634e487b7160e01b5f52601260045260245ffd5b500490565b634e487b7160e01b5f52603260045260245ffd5b600181811c9082168061330d57607f821691505b60208210810361332b57634e487b7160e01b5f52602260045260245ffd5b50919050565b5f8251613342818460208701612bd0565b9190910192915050565b604081525f61335e6040830185612bf2565b90508260208301529392505050565b5f6020828403121561337d575f80fd5b81518015158114612c5e575f80fd5b606081525f61339e6060830186612bf2565b6001600160a01b039490941660208301525060400152919050565b5f600182016133ca576133ca6132b2565b5060010190565b838152826020820152606060408201525f6133ef6060830184612bf2565b95945050505050565b60208082526029908201527f52657175657374207375626d69747465642062792061206e6f6e2d6d656d626560408201526872206164647265737360b81b606082015260800190565b634e487b7160e01b5f52603160045260245ffd5b5f8154613461816132f9565b80855260206001838116801561347e5760018114613498576134c3565b60ff1985168884015283151560051b8801830195506134c3565b865f52825f205f5b858110156134bb5781548a82018601529083019084016134a0565b890184019650505b505050505092915050565b6001600160a01b03831681526040602082018190525f90612df690830184613455565b5f8083546134fe816132f9565b60018281168015613516576001811461352b57613557565b60ff1984168752821515830287019450613557565b875f526020805f205f5b8581101561354e5781548a820152908401908201613535565b50505082870194505b50929695505050505050565b601f82111561150d57805f5260205f20601f840160051c810160208510156135885750805b601f840160051c820191505b81811015611f31575f8155600101613594565b5f19600383901b1c191660019190911b1790565b81516001600160401b038111156135d4576135d4612d16565b6135e8816135e284546132f9565b84613563565b602080601f831160018114613616575f84156136045750858301515b61360e85826135a7565b86555061366d565b5f85815260208120601f198616915b8281101561364457888601518255948401946001909101908401613625565b508582101561366157878501515f19600388901b60f8161c191681555b505060018460011b0185555b505050505050565b81835281816020850137505f828201602090810191909152601f909101601f19169091010190565b606081525f6136b0606083018789613675565b82810360208401526136c3818688613675565b9150508260408301529695505050505050565b5f602082840312156136e6575f80fd5b8151612c5e81612c2f565b80820180821115612673576126736132b2565b6001600160401b0383111561371b5761371b612d16565b61372f8361372983546132f9565b83613563565b5f601f84116001811461375b575f85156137495750838201355b61375386826135a7565b845550611f31565b5f83815260208120601f198716915b8281101561378a578685013582556020948501946001909201910161376a565b50868210156137a6575f1960f88860031b161c19848701351681555b505060018560011b0183555050505050565b8082028115828204841417612673576126736132b2565b604081525f6137e16040830185613455565b82810360208401526133ef8185612bf2565b60208082526034908201527f4f6e6c792063726561746f72206f72206578697374696e67206d656d626572736040820152732063616e20616464206e6577206d656d6265727360601b606082015260800190565b81810381811115612673576126736132b2565b818103613865575050565b61386f82546132f9565b6001600160401b0381111561388657613886612d16565b613894816135e284546132f9565b5f601f8211600181146138c0575f83156138ae5750848201545b6138b884826135a7565b855550611f31565b5f8581526020808220868352908220601f198616925b838110156138f657828601548255600195860195909101906020016138d6565b508583101561391357818501545f19600388901b60f8161c191681555b5050505050600190811b01905550565b6001600160a01b03831681526040602082018190525f90612df690830184612bf2565b608081525f6139586080830187612bf2565b6001600160a01b038681166020850152838203604085015261397a8287612bf2565b92508085166060850152505095945050505050565b634e487b7160e01b5f52605160045260245ffdfe7d6a6b7452c2fec7981096e354fb3311f3f3b800ff27def1017b22cbff275190a2646970667358221220e6b4274e5b3f3db0e52594a731adb32997f841370ae4bc05fa2f4d2d1518e1cc64736f6c634300081700335a6f6e65642e636f6e7374727563746f723a2045786974696e6720636f6e7374727563746f72207375636365737366756c6c795a6f6e65642e636f6e7374727563746f723a205365742063726561746f7220746f3a5a6f6e65642e636f6e7374727563746f723a20536574206f776e657220746f2063726561746f72207769746820616464726573733a205a6f6e65642e636f6e7374727563746f723a2043616c6c696e672073657452657761726446756e6374696f6e207769746820612c20622c2063203d5a6f6e65642e636f6e7374727563746f723a20536574206e7a6f6e657320746f3a5a6f6e65642e636f6e7374727563746f723a2073657452657761726446756e6374696f6e20636f6d706c657465645a6f6e65642e636f6e7374727563746f723a2053657420666c61766f7220746f3a205a6f6e65646e6577486f6c6f6e20285a6f6e6564293a20456d6974746564204e6577486f6c6f6e206576656e7420666f72205f6e616d653a6e6577486f6c6f6e20285a6f6e6564293a2053746f72656420686f6c6f6e206164647265737320666f72205f6e616d653a6e6577486f6c6f6e20285a6f6e6564293a20416464696e6720686f6c6f6e206164647265737320746f20686f6c6f6e735b6d73672e73656e6465725d2e2e2e6e6577486f6c6f6e20285a6f6e6564293a206d73672e73656e646572206973206120636f6e74726163742e20416c736f20616464696e6720686f6c6f6e206164647265737320746f20686f6c6f6e735b74782e6f726967696e5d2e2e2e6e6577486f6c6f6e20285a6f6e6564293a204465706c6f79696e67206e6577205a6f6e656420636f6e74726163742e2e2e6e6577486f6c6f6e20285a6f6e6564293a2063616c6c65642077697468205f6e616d653a6e6577486f6c6f6e20285a6f6e6564293a204e6577205a6f6e6564206465706c6f79656420617420616464726573733a6e6577486f6c6f6e20285a6f6e6564293a20416464696e6720686f6c6f6e206164647265737320746f20686f6c6f6e735b616464726573732830295d2e2e2ea26469706673582212202f9a327c8e8caedb2bbe54dcc16fb9dd19c69005c1732e2361610cec29d6787464736f6c63430008170033","linkReferences":{}},"methodIdentifiers":{"createZoned(string,string,uint256)":"9e79e8a5","listHolons()":"e5c23374","listHolonsOf(address)":"dfee5717","newHolon(string,string,uint256)":"0babba86","toAddress(string)":"7e4115ba"},"id":43}